:020000040800F2
:10000000D0060020ED010008CF360008EB2D0008D7
:10001000CD36000819090008A146000800000000BC
:10002000000000000000000000000000893A000805
:100030001B09000800000000D13600088B3A0008B8
:10004000070200080702000807020008070200086C
:10005000070200080702000807020008070200085C
:10006000070200080702000807020008070200084C
:10007000070200080702000807020008070200083C
:10008000070200080000000007020008070200083D
:10009000070200080702000807020008070200081C
:1000A000053B0008070200080702000807020008D5
:1000B00007020008113B00080702000807020008B9
:1000C00007020008070200080702000807020008EC
:1000D000070200089546000807020008070200080A
:1000E00007020008070200080702000807020008CC
:1000F00007020008070200080702000800000000CD
:1001000000000000070200080000000007020008CD
:1001100007020008000000000702000807020008AC
:10012000070200080702000807020008070200088B
:10013000070200080000000000000000070200089D
:10014000070200080702000800000000000000008D
:10015000000000000000000000000000000000009F
:10016000000000000000000000000000070200087E
:10017000070200080000000000000000000000006E
:10018000000000000702000800000000000000005E
:10019000000000000000000000000000000000005F
:1001A000000000000000000007020008070200082D
:1001B000070200080702000807020008000000000C
:1001C000000000000702000800000000000000001E
:1001D0000702000807020008DFF80CD000F050FB0F
:1001E00000480047A5560008D00600200648804772
:1001F00006480047FEE7FEE7FEE7FEE7FEE7FEE70C
:10020000FEE7FEE7FEE7FEE7E93A0008D90100084D
:100210002DE9F05F0546002092469B46884606463B
:10022000814640241BE0284641464746224600F0CE
:10023000D2F953465A46C01A914110D31146184676
:10024000224600F0B9F92D1A67EB01084F46224605
:100250000120002100F0B0F917EB00094E41201EEB
:10026000A4F10104DFDC484631462A464346BDE896
:10027000F09FD2B201E000F8012B491EFBD270477B
:100280000022F6E710B513460A4604461946FFF762
:10029000F0FF204610BD421C10F8011B0029FBD1C5
:1002A000801A70472DE9FE4F804681EA0300C00F97
:1002B0000C46009021F0004123F00045B8EB02000D
:1002C000A94105D24046214690461C460B460246AF
:1002D00023F00040104347D0270DC7F30A00C3F3B3
:1002E0000A510290401A019040286BDAC3F31300C0
:1002F00040F4801B0098924620B10023D2EB030A01
:1003000063EB0B0B01985946C0F14002504600F0D8
:1003100053F906460D4650465946019A00F06BF9CE
:1003200010EB08006141002487EA115284EAE77368
:100330001A4340D0009A62B3019A012A4FEA075249
:1003400015DC001B61EB02014FF0004202EA07528C
:10035000CDE90042001C41F5801132462B4600F0E9
:10036000A2F903B0BDE8F08F40462146F9E7001B33
:1003700061EB0201001C41F5801300185B4120185D
:10038000A2F5001747EB030140EAD570B6196D419D
:1003900011E06D084FEA360645EAC0754FEA07528C
:1003A000001B61EB0201001C41F5801149084FEA76
:1003B00030000019514132462B4603B0BDE8F04FE2
:1003C00000F062B90098012240000023D0EB020245
:1003D00063EBE073009821464FEAE074B8EB00004D
:1003E00061EB0401E9E783F000435BE781F0004142
:1003F00058E72DE9FE4F81EA030404F0004421F0A0
:10040000004100944FF0000B23F0004350EA010438
:100410005ED052EA03045BD0C3F30A54C1F30A5519
:100420002C44A4F2F3340194A0FB0254C1F3130151
:1004300041F48011C3F3130343F4801301FB02441E
:1004400000FB034E840A970A44EA815447EA835723
:10045000A4FB076802958D0A05FB07854FEA932CDC
:1004600004FB0C542705029D4FEA065847EA16374D
:10047000B5EB08056EEB070C870E920E47EA811765
:1004800042EA8312A7FB0201B6EB0B0164EB000406
:100490002B0D43EA0C335E1844EB1C50DA465146F0
:1004A000E7FB0201C5F313044FEA0B3343EA14538D
:1004B0004FEA0432019C43EA0603A4F10C040294BF
:1004C000009CCDE900B400F0EEF803B0BDE8F08F79
:1004D00000200146F9E70EB540F2334102910021B8
:1004E000CDE900110A460B4600F0DDF803B000BD6F
:1004F00070B5C1F30A5201F000450024C1F31301A5
:1005000040F2FF3341F480119A4201DA002070BDBD
:1005100040F233439A42A2F2334203DC524200F0EB
:100520005AF800E090402C43F1D0404270BD00F0FA
:10053000004230F000400AD0C10D01F56071C0F3F7
:10054000160042EA0151C2084007114370470020DB
:100550000146704701F0004330B421F0004150EAF9
:10056000010206D00A0DA2F56072C1F31301002A40
:1005700002DC30BC00207047440F44EAC104C100D3
:10058000E01830BC00EBC25000F047B830B50B4665
:10059000014600202022012409E021FA02F59D42B3
:1005A00005D303FA02F5491B04FA02F52844151E87
:1005B000A2F10102F1DC30BD202A04DB203A00FA6E
:1005C00002F1002070479140C2F1200320FA03F3AA
:1005D000194390407047202A04DB203A21FA02F0A8
:1005E0000021704721FA02F3D040C2F1200291406D
:1005F000084319467047202A06DBCB17203A41FAF8
:1006000002F043EAE07306E041FA02F3D040C2F19F
:10061000200291400843194670470029A8BF70473F
:10062000401C490008BF20F00100704710B4B0FA28
:1006300080FC00FA0CF050EA010404BF10BC7047C3
:1006400049B1CCF1200421FA04F411FA0CF118BFDD
:10065000012121430843A3EB0C01CB1D4FEA0061AC
:100660004FEA102042BF002010BC704700EBC3507F
:1006700010440029A4BF10BC7047401C490008BFAB
:1006800020F0010010BC704710B5141E73F1000477
:1006900008DA401C41F1000192185B411A4301D174
:1006A00020F0010010BD2DE9F04D92469B4611B19E
:1006B000B1FA81F202E0B0FA80F220329046FFF700
:1006C0007BFF04460F4640EA0A0041EA0B0153460D
:1006D0005A46084313D0114653EA010019D0C8F115
:1006E00040025046FFF777FF05460E4650465946F2
:1006F0004246FFF761FF084305D0012004E0204691
:100700003946BDE8F08D0020054346EAE0762C43EB
:1007100037430A986305E40AA0EB08000022FD0AAB
:1007200044EA47540A3002D500200146E9E70105B2
:1007300010196941DDE9084500196941BDE8F04D2E
:10074000A2E72DE9F04D81EA030404F0004B21F00B
:10075000004514464FF0000A23F0004150EA05021C
:1007600020D054EA01021DD0C5F30A570246C5F352
:100770001303C1F31300C1F30A5640F4801543F488
:100780008013A7EB0608101BD64608F2FD3873EB62
:10079000050002D308F1010801E092185B41B8F1AD
:1007A000000F03DA00200146BDE8F08D00204FF471
:1007B0008011064684460EE0171B73EB050705D330
:1007C000121B63EB050306434CEA010C49084FEA90
:1007D000300092185B4150EA0107EDD152EA030064
:1007E00012D082EA040083EA0501084305D0101BF9
:1007F000AB4106D20122002306E000224FF0004365
:1008000002E06FF0010253101AEB06004CEB0851A6
:1008100010EB0A0041EB0B01BDE8F04DFFF734BFD0
:10082000C1F30A52C1F3130140F2FF3341F48011C6
:100830009A4202DA00200146704740F233439A425E
:10084000A2F2334202DC5242FFF7C5BEFFF7B4BE4C
:1008500030B5041E71F1000404DB4FF00044404247
:1008600064EB0101141E73F1000405DB1C464FF01C
:100870000043524263EB0403994208BF904230BDEB
:10088000064C074D06E0E06840F0010394E80700DD
:1008900098471034AC42F6D3FFF7A2FC046A000874
:1008A000246A000870B504460068816811F0010FE1
:1008B0002DD18168174A11421AD18168D543294048
:1008C000491C816000F0D2FE06461BE0816811F0F1
:1008D000010F03D181682940491C816000F0C6FEE8
:1008E000801B02280ED920680068C043C00709D0C9
:1008F000E06D40F01000E065206E40F001002066E1
:10090000012070BD20680168C943C907DED10020FD
:1009100070BD00003F000080FEE77047002240F6F7
:10092000B83306E00021491C89B29942FBD3521C1E
:1009300092B28242F6D37047704700002DE9F0472B
:10094000044690F858009CB00E464FF0000901286C
:1009500015D0012084F858000025179518952068B7
:100960004FF0A04840450ED1284F0097384602F07E
:10097000D3FC8246206802F0CFFC60B10EE002207A
:100980001CB0BDE8F087E06D40F02000E06584F821
:1009900058500120F4E7BAF1000F09D0E06D40F0A3
:1009A0002000E0654FF0010984F858504846E7E719
:1009B0001748326840F61F71002A826822F46042AC
:1009C00016D094F8383042EA433273681A43826092
:1009D000D8F80820BB6802F0010203F001031A43B3
:1009E000E2D1B36832681A4383688B431A430BE041
:1009F0008260D8F80820BB6802F0010203F001030E
:100A00001A43D1D182688A438260CDE70001005049
:100A1000000300502DE9F84F00270446009790F896
:100A20005800DFF8D8930D46B846012811D00126AA
:100A300084F85860206802F06BFC60B1E06D40F013
:100A40002000E0655FF0010784F858803846BDE873
:100A5000F88F0220FBE7D5E900210C23206803EA88
:100A600091131844036B01F01F014FF01F0C0CFA97
:100A700001FCC2F3846223EA0C038A40134303633C
:100A8000206802F045FC8246206802F03DFC5AEAEC
:100A900000003CD1AA6829682068B2F1004F37D025
:100AA00002F046FC2068416921F000414161206864
:100AB0006969C268C2F3C102520091402A69042ADE
:100AC00031D000EB82002B68026EDFF834C303F0F4
:100AD000F84302EA0C020B431A4342F0004101665C
:100AE00020682A69A96900EB8200026E22F08072F8
:100AF0000A430266297F22682869012910D0002153
:100B000002EB8000026E22F000720A4302667DE072
:100B1000002202F00DFC2068416941F00041C5E768
:100B20004FF00071ECE7002102F0E8FB4003206881
:100B30004FF0000172D002F0E1FB90FAA0F0B0FAA1
:100B400080F1286842036ED090FAA0F0B0FA80F0ED
:100B5000814204D100221146206802F0F8FB0121F5
:100B6000206802F0CBFB400320684FF001015DD00C
:100B700002F0C4FB90FAA0F0B0FA80F128684203BA
:100B800059D090FAA0F0B0FA80F0814204D100224E
:100B90000121206802F0DBFB0221206802F0AEFB9D
:100BA000400320684FF0020148D002F0A7FB90FA02
:100BB000A0F0B0FA80F12868420344D090FAA0F087
:100BC000B0FA80F0814204D100220221206802F0B4
:100BD000BEFB0321206802F091FB400320684FF028
:100BE000030133D002F08AFB90FAA0F0B0FA80F152
:100BF000286842032FD090FAA0F0B0FA80F081422A
:100C000004D100220321206802F0A1FB2068816842
:100C100011F0010F22D0A8E000E004E002F06EFB2A
:100C2000C0F384618DE7C0F3846091E702F066FB56
:100C3000C0F38461A2E7C0F38460A6E702F05EFB24
:100C4000C0F38461B7E7C0F38460BBE702F056FBF2
:100C5000C0F38461CCE7C0F38460D0E7EB68296817
:100C60004B4550F8B03FC1F3120101D10B4300E0F6
:100C70008B430360E868484577D1286841031CD05E
:100C800090FAA0F1B1FA81F1491C01F01F01092984
:100C90004FEA403132D8002912D000BF90FAA0F1BB
:100CA000B1FA81F101F1010101F01F0106FA01F62B
:100CB00009D100BFC0F3846109E0C0F38461E3E7B8
:100CC000C0F38461EEE790FAA0F1B1FA81F101F18D
:100CD000010101F01F0146EA816102D1C0F3846085
:100CE00003E090FAA0F0B0FA80F000F1010000F00B
:100CF0001F0000EB400041EA005132E000290ED015
:100D000090FAA0F1B1FA81F101F1010101F01F01A6
:100D100006FA01F606D100BFC0F3846106E0C0F315
:100D20008461F1E790FAA0F1B1FA81F101F10101DA
:100D300001F01F0146EA816102D1C0F3846003E043
:100D400090FAA0F0B0FA80F000F1010000F01F006E
:100D50002C4A00EB400002EB005041EA000141F058
:100D60000071AA68206802F0E3FA27482A68024264
:100D70003FF46AAE25488168254B01F0E0719A4244
:100D800002D0244B9A421CD10B021AD42268B2F131
:100D9000A04F7FF459AE826841F4000122F0E07266
:100DA0000A4382601C481D490068B0FBF1F0401CFA
:100DB00000EB4000800000E0401E00900028FBD1C6
:100DC00042E6174D174BAA4207D1CD0105D4226840
:100DD0009A42F5D041F0807109E0134DAA42EFD15B
:100DE0004A02EDD422689A42EAD041F48001826836
:100DF00022F0E0720A43826026E6000000007F4095
:100E000000F0FF03000020FE0000088000030050F7
:100E1000000021C31000C09064000020400D0300BA
:100E2000000052C700010050000084CBC06D704725
:100E30000068006C70470000F8B54FF00005040032
:100E40002E46009502D0E06D10B107E00120F8BDFC
:100E5000204600F0EFF8266684F858602068816824
:100E6000C1F3407119B181686A4A114081602068FC
:100E70008168C1F3007189B98168674A114041F006
:100E800080518160654866490068B0FBF1F0400020
:100E9000801C00E0401E00900028FBD12068816883
:100EA000C1F3007141B9E16D41F01001E165216EBE
:100EB00041F001012166012502F02AFAE16DC9061F
:100EC00000D430B1E06D40F01000E0650125284607
:100ED000F8BDE06D20F4807040F00200E06520680D
:100EE000806810F0010F11D14FF0A04080684D498B
:100EF00000F00100896801F00101084306D14A4869
:100F00006168826822F47C120A438260E168E06BC7
:100F1000627F0843A16841EA4231084394F82410F3
:100F200040EA0140012904D1218D404A02EB4141B0
:100F30000843E16A29B101F47871226B014342EA66
:100F400001002168CA683A4B1A400243CA6020680F
:100F50000169626B21F0406111430161206802F078
:100F6000D7F90646206802F0CFF930432ED1207F12
:100F700094F83810800340EA41022068C16844F2C6
:100F8000020399431143C160206900282068016968
:100F90000AD041F480310161206850F8C01F2269F5
:100FA0006FF30D01114307E021F4803101612068E6
:100FB00050F8C01F6FF30D01016094F84000012844
:100FC0000CD02068016921F00101016160690128EC
:100FD0002068016B21F00F0111D013E0D4E9110159
:100FE0000843D4E913121143084321680A6940F207
:100FF000FC739A43104340F001000861E6E7226A5F
:10100000521E11430163E06D20F0020040F0010028
:10101000E0655CE7C0FFFF5FC0FFFF7F640000206A
:10102000400D030000010050000300500000FEFFCF
:101030000740F0FF2DE9F04397B00446142111A8B2
:10104000FFF71EF944216846FFF71AF94FF00050E8
:1010500021682D4D0327DFF8B49086132C4C4FF0F8
:101060000008B1F1A04F10D02A4A914248D1009611
:101070000F90684600F0F8FB08B1FFF75DFC2868A8
:10108000401C2860012824D02BE000960F90684671
:1010900000F0EAFB08B1FFF74FFC2868401C28600D
:1010A000012807D1E06C40F40050E064E06C00F4EB
:1010B00000501690E06C40F00200E064E06C11A972
:1010C00000F0020016904FF4805081E881014846FC
:1010D00014E0E06C40F40050E064E06C00F4005078
:1010E0001690E06C40F00200E064E06C11AA00F0A1
:1010F0000200169082E8C00111A9484600F088F964
:1011000017B0BDE8F0830000600000200004004834
:1011100000100240000100502DE9F04104463B4818
:101120000F46816801F01F05A16908290FD085B11C
:10113000052D0ED0092D0CD0806800F4604060B100
:10114000E06D40F02000E0650120BDE8F081082658
:1011500004E02068C068C007F1E7042600F086FAC2
:10116000804615E0781C13D000F080FAA0EB080050
:10117000B84200D867B920680068304208D1E06DF5
:1011800040F00400E065002084F858000320DCE70C
:10119000206800683042E5D0E06D40F40070E06502
:1011A000206802F0BDF880B1607F70B920680068E7
:1011B00000070AD5E06D20F48070E065E06DC004A2
:1011C00003D4E06D40F00100E065114A20684FF063
:1011D000A041904201D10B4600E00346834210D06B
:1011E0007DB1052D0DD0092D0BD0904200D00146C8
:1011F000C968082E07D0490401D40C2101600020E1
:10120000A3E7C168F5E70821F8E7000000030050F4
:10121000000100502DE9F04104463848806800F094
:101220001F05206802F074F818B102210846BDE8D5
:10123000F08194F8580001280CD0012084F858005F
:101240002046FFF72FFB01004FF0000304D084F885
:101250005830EBE70220EAE7E06D40F60162904388
:1012600040F48070E065264A20684FF0A046904226
:1012700001D1374600E00746874200D01DB9E76D2F
:1012800027F48017E765E76DFF0404D5276E27F084
:101290000607276600E023661C27076084F858309D
:1012A0002068904201D1334600E00346834215D0C6
:1012B000A5B1052D12D0092D10D0E36D43F4801394
:1012C000E365904200D13046C0688001AED5E06D44
:1012D00020F4005040F48050E065A7E7C268920116
:1012E00005D5E26D22F4005242F48052E265826834
:1012F000044B1A40121D826098E700000003005062
:1013000000010050C0FFFF7F10B590F8253000218C
:101310000122022B03D00421C163012122E00368D2
:101320001C6824F00E041C60836C1C6824F4807418
:101330001C6003681C6824F001041C6090F84430B1
:10134000046C03F01F0302FA03F36360D0E9133463
:101350005C60436D33B11C6824F480741C60D0E978
:1013600016345C6080F82520002280F8242008468E
:1013700010BD70B590F82520002401212346022AD3
:1013800007D00422C26380F8251080F8243001249D
:1013900029E00268156825F00E05156002681568D9
:1013A00025F001051560826C156825F480751560BF
:1013B00090F84420056C02F01F0201FA02F26A6004
:1013C000D0E913255560426D32B1156825F480755A
:1013D0001560D0E91625556080F8251080F8243076
:1013E000816B01B18847204670BD000070B504468E
:1013F00000F03CF90546601C02D0044840680444F3
:1014000000F034F9401BA042FAD370BD6800002000
:101410002DE9F04FDFF82092002301260324A9F1E3
:10142000040B85B00F2709F1040AABF1040EFAE0B2
:1014300006FA03F52A407CD091F804C00CF0030CA6
:10144000BCF1010F02D0BCF1020F26D1D0F808C0C8
:10145000CDF800C04FEA430C04FA0CF8CDF810C0E8
:10146000DDF800C02CEA080CCDF800C0D1F80C80E3
:10147000DDF810C008FA0CF8DDF800C048EA0C08E6
:10148000C0F80880D0F804C02CEA050C0D79C5F32B
:1014900000159D4045EA0C0545600D79ED43AD070B
:1014A0000ED0C5684FEA430804FA08FC25EA0C058B
:1014B000D1F808C00CFA08FC4CEA050CC0F80CC0C6
:1014C0000D7905F00305022D16D1DD0800EB850C22
:1014D000CDF808C0DCF820805D074FEAD56C07FA2C
:1014E0000CF528EA05080D6905FA0CF5DDF808C0C9
:1014F00045EA0805CCF8205005684FEA430CCDF8C2
:1015000008C004FA0CFC25EA0C0591F804C00CF0A4
:101510000308DDF808C008FA0CF848EA0508C0F826
:1015200000804D6815F4403F7CD0444DD5F860C034
:1015300000E077E04CF0010CC5F860C02D6E23F0A0
:10154000030C05F0010500953D4D65440295AD681D
:101550004FEA837C4FEA1C7807FA08FC25EA0C0561
:10156000B0F1904F06D0DFF8DCC0604505D14FF0F8
:10157000010C20E04FF0000C1DE0DFF8CCC060450E
:1015800002D14FF0020C16E0DFF8C0C0604502D176
:101590004FF0030C0FE0DFF8B8C0604502D14FF008
:1015A000040C08E0DFF8ACC0604502D14FF0050C38
:1015B00001E04FF0060C0CFA08FC4CEA050C029D09
:1015C000C5F808C0D9F80050CC46D1F8048095433E
:1015D0005FEAC82800D51543CCF80050DAF800506F
:1015E000D446D1F8048095435FEA882800D5154396
:1015F000CCF80050DBF80050DC46D1F8048095436D
:101600005FEA883800D51543CCF80050DEF800506A
:10161000F446D1F8048095435FEAC83800D51543F5
:10162000CCF800505B1C0A6832FA03F57FF400AF77
:1016300005B0BDE8F08F0000080401400010024032
:10164000000001400004004800080048000C004869
:1016500000100048001400480069084000D0012034
:1016600070470AB1816170478162704701488068A4
:1016700070470000680000200248816842681144F9
:10168000816070476800002010B50024032000F03E
:1016900073F8002000F008F808B1012401E000F020
:1016A00025F8204610BD000070B50E4E05460024FA
:1016B000706898B14FF47A71B1FBF0F00A4909688B
:1016C000B1FBF0F000F064FD40B9102D06D200220D
:1016D0002946501E00F030F8356000E00124204615
:1016E00070BD000068000020640000200A4882B03D
:1016F000016E41F001010166016E01F001010091EE
:10170000816D41F080518165806D00F080500090C6
:1017100002B000F0A1B8000000100240002809DB70
:1017200000F01F02012191404009800000F1E020FB
:10173000C0F8001170470000F0B40E4B1B680C4657
:10174000C3F30223C3F10705042D00D90425191D95
:10175000072901D2002300E0DB1E012606FA05F16D
:10176000491E214099409E40761E16403143F0BCF0
:1017700002F0ACBF0CED00E0064900F0070208687B
:101780004FF6FF03184040EA0220034A1043086066
:10179000704700000CED00E00000FA052B492C4BCF
:1017A0000A6832214A432B4940B1B0F5007F0868EE
:1017B00029D020F4C06040F480602CE00868C0F3B9
:1017C0004120022804D051F8800F20F4807022E0DC
:1017D000D1F8800020F48070C1F88000086820F4FF
:1017E000C06040F400700860B2FBF3F0401C00E001
:1017F000401E4A69520501D50028F9D148694005C3
:101800000AD503207047C0F34120022806D051F8C2
:10181000800F40F48070086000207047D1F880008D
:1018200040F48070C1F88000086820F4C06040F483
:1018300000700860B2FBF3F0401C00E0401E4A69F3
:101840005205DBD50028F9D1D8E70000640000205C
:1018500040420F00007000400248816841F480411E
:1018600081607047007000402DE9F843044600682D
:1018700000269D4D00035ED5A86D0027C00008D44A
:10188000A86D40F08050A865A86D012700F0805039
:101890000090DFF85892D9F8001041F48071C9F82F
:1018A0000010FFF7E3FE804606E000BFFFF7DEFE14
:1018B000A0EB080002282BD8D9F80000C005F5D508
:1018C000D5F8900010F4407014D0216C814211D0F2
:1018D000D5F89000D5F8901020F4407041F4803194
:1018E000C5F89010D5F8901021F48031C5F890100B
:1018F000C5F89000C00711D0FFF7B8FE804641F24E
:10190000883907E0FFF7B2FEA0EB0801494501D98D
:1019100003260BE0D5F890008007F3D5D5F89000AA
:10192000216C20F440700843C5F890001FB1A86DE9
:1019300020F08050A8652078C00707D0D5F888002F
:10194000616820F003000843C5F88800207880070C
:1019500007D5D5F88800A16820F00C000843C5F829
:1019600088002078400707D5D5F88800E16820F086
:1019700030000843C5F888002078000707D5D5F85F
:101980008800216920F0C0000843C5F8880020784D
:10199000800607D5D5F88800616920F440600843C7
:1019A000C5F888002078400607D5D5F88800A169D9
:1019B00020F440500843C5F888002078000607D579
:1019C000D5F88800E16920F440400843C5F8880054
:1019D0002088C00507D5D5F88800216A20F440305A
:1019E0000843C5F888002088800507D5D5F8880009
:1019F000616A20F440200843C5F88800208840052B
:101A00000FD5D5F88800A16A20F440100843C5F826
:101A10008800A06AB0F5801F03D1E86840F4801008
:101A2000E860208800050FD5D5F88800E16A20F429
:101A300040000843C5F88800E06AB0F5800F03D184
:101A4000E86840F48010E8602088C0040FD5D5F81D
:101A50008800216B20F040700843C5F88800206B97
:101A6000B0F1807F03D1E86840F48010E8602088FE
:101A70004FF0006180040ED5D5F88800626B20F02D
:101A800040601043C5F88800606B884203D1E86865
:101A900040F48010E860208840040ED5D5F8880016
:101AA000A26B20F040601043C5F88800A06B88420C
:101AB00003D1E86840F48010E860208800040FD566
:101AC000D5F88800E16B20F040500843C5F8880045
:101AD000E06BB0F1805F03D1E86840F48030E860EB
:101AE0003046BDE8F883000000100240007000405E
:101AF0002DE9F0470E4605004FF0000725D0DFF82E
:101B0000AC81D8F8000000F00F00B0420CD2D8F839
:101B1000001021F00F013143C8F80010D8F8000080
:101B200000F00F00B04210D12968614CC80741F2A3
:101B3000883A5AD06868DFF87C91032808D00228D8
:101B400020682DD0400500282CDB0120BDE8F0875F
:101B500020688001F9D5E06800F00302E068C0F376
:101B60000310401C032A19D0534A00BFB2FBF0F007
:101B7000E268C2F306225043E268C2F34162521C9B
:101B80005200B0FBF2F0484517D9A06810F0F00FF2
:101B90000CD0880711D5A86840B10EE0474AE5E7A8
:101BA0008003D0E700F0B6F8484506D9A06820F0D9
:101BB000F00040F08000A0608027A068696820F0F5
:101BC00003000843A060FFF751FD814606E000BF17
:101BD000FFF74CFDA0EB090151453AD8A0686968B0
:101BE00000F00C00B0EB810FF2D12868810714D50A
:101BF000400703D5A06840F4E060A06028780007A3
:101C000005D5A06820F4605040F4E060A060A068B2
:101C1000A96820F0F000084304E0802F03D1A068F9
:101C200020F0F000A060D8F80010404601F00F014D
:101C3000B14216D9016821F00F0131430160FFF76D
:101C400015FD074607E000BFFFF710FDC11B51451A
:101C500001D903207AE7D8F8000000F00F00B04265
:101C6000F2D12878400705D5A068E96820F4E06043
:101C70000843A0602878000706D5A068296920F4E9
:101C8000605040EAC100A06000F044F8A1680C4A2E
:101C9000C1F30311515C01F01F01C84009490860FC
:101CA00009480068BDE8F047FFF7FEBC002002408D
:101CB0000010024000B4C4040024F40000366E0199
:101CC000C469000864000020680000200548064937
:101CD00000688968054AC1F30221515C01F01F01C7
:101CE000C84070476400002000100240D46900081A
:101CF0000548064900688968054AC1F3C221515C5C
:101D000001F01F01C840704764000020001002402D
:101D1000D4690008184910B58868C0F381021748D3
:101D2000012A0BD08A68164BC2F38102022A06D020
:101D30008A68C2F38102032A03D0002010BD18462E
:101D400010BDCA6802F00304CA68C2F30312521C31
:101D5000032C02D0B0FBF2F001E0B3FBF2F0CA6852
:101D6000C968C2F306225043C1F34161491C4900CE
:101D7000B0FBF1F010BD0000001002400024F400A0
:101D800000366E012DE9F84304007AD02078FA4D30
:101D9000C00747D0A868E96800F00C0001F0030113
:101DA0000C2802D0082817D001E0032914D060685D
:101DB000B0F5803F17D0B0F5A02F286817D020F4D9
:101DC00080302860286820F4802028606068E0B1B6
:101DD000FFF74CFC064614E02868800322D56068B3
:101DE0000028D2D01EE0286840F48030EDE740F4AF
:101DF00080202860F7E700BFFFF738FC801B6428CD
:101E000070D828688003F7D50CE0FFF72FFC064652
:101E100005E000BFFFF72AFC801B6428F0D8286883
:101E20008003F7D4207880074CD5A868E96800F0D3
:101E30000C0001F003010C2802D004280DD001E0B1
:101E400002290AD0E068002828682BD040F480706E
:101E50002860FFF70BFC064619E02868400502D50C
:101E6000E068002891D06868217C20F0FE4040EABC
:101E700001606860C1480068FFF716FC002800D1C7
:101E800020E076E1FFF7F2FB801B0228B8D8286833
:101E90004005F7D56868217C20F0FE4040EA0160EB
:101EA00068600FE020F480702860FFF7DFFB0646D3
:101EB00005E000BFFFF7DAFB801B0228A0D82868E6
:101EC0004005F7D42078000729D560690028D5F8A7
:101ED000940013D040F00100C5F89400FFF7C6FB52
:101EE000064606E090E000BFFFF7C0FB801B02281B
:101EF00086D8D5F894008007F6D510E020F00100D0
:101F0000C5F89400FFF7B2FB064604E0FFF7AEFB0E
:101F1000801B022878D8D5F894008007F6D4207862
:101F2000400761D5A86D0026C00008D4A86D40F018
:101F30008050A865A86D012600F080500090904860
:101F40000168C90511D40168804641F480710160BF
:101F5000FFF78CFB074604E0FFF788FBC01B022855
:101F600052D8D8F80000C005F6D5A068012815D0D1
:101F70000528D5F8900016D020F00100C5F8900093
:101F8000D5F8900020F00400C5F89000A06841F258
:101F90008838B8B1FFF76AFB07460EE0D5F8900025
:101FA00040F00100F0E740F00400C5F89000F5E7CC
:101FB000FFF75CFBC11B414526D8D5F89000800790
:101FC000F6D50CE0FFF752FB074604E0FFF74EFBA7
:101FD000C11B414518D8D5F890008007F6D41EB132
:101FE000A86D20F08050A8652078800629D5A069CA
:101FF0000028D5F8980013D040F00100C5F89800EB
:10200000FFF734FB064606E077E000BFFFF72EFB44
:10201000801B022877D8D5F898008007F6D510E005
:1020200020F00100C5F89800FFF720FB064604E009
:10203000FFF71CFB801B022865D8D5F898008007A5
:10204000F6D4E069F0B3A968C1F38101032961D036
:102050000228286820F0807028600BD0E86820F003
:102060000300E860E86847490840E860FFF7FEFAC7
:1020700004464BE0FFF7FAFA064604E0FFF7F6FAEB
:10208000801B02283FD828688001F7D4F4E90801B2
:102090006FF00F0202EB01110843218A5204490834
:1020A00002EB4151A26841EA02210843217D4FF031
:1020B0007E42490802EB41610843217B40EAC1604E
:1020C000E96800E062E0304A11400843E8602868AF
:1020D00040F080702860E86840F08070E860FFF7AA
:1020E000C5FA044605E000BFFFF7C0FA001B02284E
:1020F00009D828688001F7D548E004E0FFF7B6FA70
:10210000001B022802D90320BDE8F883286880015B
:10211000F4D43BE00128F7D0E868226A00F003011C
:10212000914226D1616A00F0F00209011039914212
:102130001FD1A26A00F4FE41B1EB022F19D194F82D
:102140002C2000F07841B1EBC26F12D1218E00F447
:10215000C00249084905A1F50011914209D194F83E
:10216000341000F0C06049084906A1F100718142B5
:102170000CD00120C8E700000010024068000020D9
:1021800000700040FFFFEEFE0C809F010020BBE7C7
:1021900010B5401EB0F1807F01D3012010BD4FF07B
:1021A000E02460610F21601702F090FA0020A06126
:1021B00007202061002010BD7047704770477047AE
:1021C00070477047F0B590F83C20012A3AD00125BD
:1021D00080F83C50022280F83D2003685A689C68D1
:1021E000194E1A4FB34201D0BB4204D122F4700CF5
:1021F0004A6842EA0C02DFF858C002EA0C02D1F841
:1022000000C04CEA020CC3F804C00268B2420DD010
:10221000B2F1804F0AD00F4B9A4207D00E4B9A4230
:1022200004D0BA4202D00D4B9A4204D1896824F0FE
:1022300080031943916080F83D50002180F83C10E4
:102240000846F0BD0220F0BD002C014000340140E2
:102250008FFFFFFD000400400008004000400140E7
:10226000704710B5040003D094F83D0010B107E0AA
:10227000012010BD002084F83C00204600F022F828
:10228000022084F83D00211D206801F047FC012058
:1022900084F8480084F83E0084F83F0084F8400049
:1022A00084F8410084F8420084F8430084F8440034
:1022B00084F8450084F8460084F8470084F83D001F
:1022C000002010BD08B5154A0168154891420ED18D
:1022D000816D41F002018165806D002200F00200F5
:1022E000009002211D20FFF727FA1D2010E00D4A63
:1022F000914211D1016E41F480310166006E0022DD
:1023000000F48030009001211820FFF715FA182002
:10231000BDE80840FFF702BA08BD00000004004015
:10232000001002400040014090F83D10012901D00A
:1023300001207047022180F83D100168CA6842F010
:102340000102CA600068104988420ED0B0F1804F87
:102350000BD00E49884208D00D49884205D00D495E
:10236000884202D00C49884207D181680B4A11404B
:10237000062906D0B1F5803F03D0016841F0010184
:102380000160002070470000002C01400004004064
:1023900000080040003401400040014007000100F7
:1023A00070B5044690F83C000025012814D00126A1
:1023B00084F83C60022084F83D0022689068364B27
:1023C000184020F47F409060086870282ED010DC00
:1023D00010F00F0F03D021E04FF0020070BD4FEA64
:1023E0002012072A1AD2DFE802F0525252524A381B
:1023F00040002A4BC21A984249D009DCB0F5805FF0
:102400000DD0B0F5005F1CD0B0F1101F06D13EE03A
:10241000102A3CD0202A3AD0502A38D0012584F8FE
:102420003D60002084F83C00284670BDCB68D1E9AF
:102430000121206801F0CAFB2068816841F0770122
:1024400009E0CB68D1E90121206801F0BFFB2068D9
:10245000816841F480418160E1E7CA684968206889
:1024600001F0C8FB5021206806E0CA68496820686E
:1024700001F0D1FB6021206801F0B2FBCFE7CA6810
:102480004968206801F0B6FB40212068F4E7226823
:1024900001461046F0E7000088FFCEFF2000100044
:1024A000704770B50446006801694FF00005C943E4
:1024B000890715D4C168C943890711D4E91E016190
:1024C00001202077206880698007204602D0FFF72E
:1024D000E7FF04E000F0E3F8204600F0E1F825779C
:1024E00020680169C943490717D4C168C94349072E
:1024F00013D46FF004010161022020772068806905
:1025000010F4407F204602D0FFF7CAFF04E000F03D
:10251000C6F8204600F0C4F8257720680169C94351
:10252000090716D4C168C943090712D46FF008011E
:102530000161042020772068C0698007204602D00E
:10254000FFF7AEFF04E000F0AAF8204600F0A8F87C
:10255000257720680169C943C90617D4C168C943F2
:10256000C90613D46FF0100101610820207720689C
:10257000C06910F4407F204602D0FFF791FF04E0CD
:1025800000F08DF8204600F08BF82577206801696F
:10259000C943C90708D1C168C943C90704D1891E05
:1025A0000161204600F07EF820680169C9430906F0
:1025B00009D4C168C943090605D46FF080010161DF
:1025C0002046FFF7FAFD20680169C943C90509D40F
:1025D000C168C943090605D46FF4807101612046C2
:1025E000FFF7EAFD20680169C943490609D4C168BB
:1025F000C943490605D46FF040010161204600F04F
:10260000C7F820680169C943890609D4C168C9436C
:10261000890605D46FF0200101612046FFF7CEFD49
:1026200020680169C943C90209D4C168C943C90204
:1026300005D46FF4801101612046FFF7C1FD2068C9
:102640000169C943890209D4C168C943890205D413
:102650006FF4001101612046FFF7B1FD20680169A8
:10266000C943490209D4C168C943490205D46FF47A
:10267000800101612046FFF7A4FD20680169C9437C
:1026800009020BD4C168C943090207D46FF40001E1
:1026900001612046BDE87040FFF7E2BD70BD7047A4
:1026A000704700002DE9F041074600683349884231
:1026B00059D1334CA06A401CA062A078002618B102
:1026C000E06A401CE06200E0E662E07818B1206B4E
:1026D000401C206300E02663206C462841DBDFF8C5
:1026E000A48001214046FEF7B7FF00B10120264D2E
:1026F000022168704046FEF7AFFF00B10120687309
:1027000004214046FEF7A8FF00B1012068760121B0
:102710004FF09040FEF7A0FF00B1012085F82500A2
:102720000020012200EB400305EB8301D1F804C037
:10273000BCF1000F03D0BCF1010F0AD103E04B78CC
:102740003BB94A6005E091F801C0BCF1000F05D02B
:102750004E60401C0428E5DB266404E005F82320D5
:10276000F7E7401C206409493868884203D1BDE876
:10277000F04102F029BCBDE8F081000000400140BA
:1027800008000020000400487400002000040040FD
:10279000704790F88010012918D0012180F880102E
:1027A0002421C0F8841050F8641B0A680B6823F0D9
:1027B00001030B6022F000510022026050F8643CDB
:1027C000196020210162027710467047022070478D
:1027D0007047704770B5044690F8800001281DD0FE
:1027E000012084F880002420C4F884002068056853
:1027F000026822F0010202602068826822F06062B2
:102800000A438260204601F019FA20680560202002
:10281000C4F88400002084F8800070BD022070BDE0
:1028200070B5044690F8800001281DD0012084F87E
:1028300080002420C4F8840020680568026822F023
:10284000010202602068826822F060420A438260CE
:10285000204601F0F3F9206805602020C4F88400C8
:10286000002084F8800070BD022070BD7047704762
:10287000704700002DE9F04103680446D8691968E3
:102880009A6840F60F0528424FF0000509D18606E8
:102890007ED501F0200602F080573E4378D0216FAC
:1028A00027E1A94EA94F16400F40374370D0C70704
:1028B00009D0CF0507D501271F62D4F88C3043F02B
:1028C0000103C4F88C3083070AD5D30708D02768E2
:1028D00002233B62D4F88C3043F00403C4F88C30FC
:1028E00043070AD5D30708D0276804233B62D4F8EE
:1028F0008C3043F00203C4F88C3003070CD501F090
:102900002003334308D0266808233362D4F88C3080
:1029100043F00803C4F88C3003050BD54B0109D5EF
:1029200026684FF400633362D4F88C3043F0200300
:10293000C4F88C30D4F88C30002B3AD0800609D5FE
:1029400001F0200002F08051084303D0216F09B14B
:1029500020468847D4F88C0021688968490602D44B
:1029600010F0280F27D0204601F028FA2068806850
:1029700040061BD52068083050E8001F21F04001B8
:1029800040E80012002AF5D1E06F78B1704900E00C
:1029900017E08163E06FFEF7ECFC002809D0E06FE0
:1029A000816B00E02046BDE8F04108472046FFF774
:1029B0005FFFBDE8F0812046FFF75AFFC4F88C5056
:1029C000F7E7E76E2026012F7ED1C7067CD5CF061C
:1029D0007AD51020186220688068400642D5E16FE1
:1029E000086840680004000CE3D0B4F85C20824220
:1029F000DFD9A4F85E000868006880062BD4206840
:102A000050E8001F21F4807140E80012002AF6D13E
:102A10002068083050E8001F21F0010140E8001252
:102A2000002AF5D12068083050E8001F21F040014D
:102A300040E80012002AF5D1C4F88860E5662168F4
:102A400051E8000F20F0100041E80002002AF6D102
:102A5000E06FFEF759FCB4F85C00B4F85E10401A61
:102A600081B22CE0B4F85C00B4F85E10401A81B278
:102A7000B4F85E0000289CD000299AD0226852E861
:102A8000000F20F4907042E80003002BF6D12E4B8B
:102A9000DB432068083050E8002F1A4040E8002748
:102AA000002FF6D1C4F88860E5662567226852E8F1
:102AB000000F20F0100042E80003002BF6D1204662
:102AC000FFF786FE75E7FFE7C70209D5570207D56E
:102AD0004FF4801018622046BDE8F041FFF7C7BEF2
:102AE00003060AD501F0800302F40002134304D068
:102AF000616F00297FF456AF5BE7420611D54A06A5
:102B00000FD52046016851E8002F22F0400241E82D
:102B10000023002BF6D1C0F88460456700F064F90B
:102B200047E7020206D54A0004D52046BDE8F04139
:102B3000FFF79CBEC001C5D50029C3DA2046BDE819
:102B4000F041FFF746BE0000010000102001000424
:102B5000A93D000810B5040003D0D4F8840010B1DA
:102B600007E0012010BD002084F88000204600F01E
:102B700027F82420C4F884002068016821F00101AE
:102B80000160204601F05CFB0128EBD0A06A10B187
:102B9000204601F075F82068416821F490414160B9
:102BA0002068816821F02A0181602068016841F075
:102BB000010101602046BDE8104001F0C5B80000E9
:102BC00010B598B00446142111A8FDF759FB442113
:102BD0006846FDF755FB1B492068884230D101202B
:102BE0000024CDE900046846FEF73EFE08B1FDF77B
:102BF000A3FE1548016E41F480410166016E01F4A7
:102C000080411691C16C41F00101C164C06C11A9F1
:102C100000F0010016904FF4C06011900220CDE941
:102C200012040720CDE914404FF09040FEF7F0FB6E
:102C3000002211462520FEF77FFD2520FEF76EFDC0
:102C400018B010BD003801400010024030B4D0F878
:102C50008830202B20D1E1B1DAB190F88030012BFF
:102C60001AD0012380F880300023C3660B4C036820
:102C7000A3420BD05B681B0208D5046854E8003FF0
:102C800043F0806344E80035002DF6D130BC01F0FC
:102C900011BC012030BC70470220FBE700800040DF
:102CA00038B500681549884227D1154C0125207890
:102CB000432802D0532807D018E012A11448236AF1
:102CC000626801F0EFFC07E0A0680090D4E90332ED
:102CD00010A10F4801F0E6FC0D48FDF7DCFA82B2C6
:102CE00064230B49104800F021F8E570BDE8384036
:102CF000012203490C48FFF7A9BF38BD0038014045
:102D000008000020433A4825642B4C25640D0A0036
:102D1000B8000020533A544C25642B544D25642BA5
:102D2000544825640D0A00003C0200202DE9F843B8
:102D30000446D0F884001F4616460D46202851D17F
:102D4000DDB1D6B194F8800001284BD0012084F881
:102D500080004FF00008C4F88C802120C4F8840063
:102D60001834FEF783FCA6878146E68754F8100CDA
:102D7000183CB0F5805F03D004E00120BDE8F88383
:102D8000206920B12E46002584F8808010E00026BE
:102D9000FAE78021204601F019FCB8B9C6B116F84F
:102DA000010B21688862B4F85600401EA4F8560052
:102DB000B4F856004B464FF0000200970028E8D1C7
:102DC0004FF04001204601F001FC30B10320D5E76F
:102DD00035F8020BC0F30800E3E72020C4F88400B4
:102DE0000020CBE70220C9E77047FEE770B5082452
:102DF000002500F011FE13E06806050E002000F02B
:102E0000F3FD142002F03EF9142002F03BF90120FA
:102E100000F0EAFD142002F035F900F0F1FD054361
:102E2000641EE4B2E8D2002000F0DEFD142002F0BF
:102E300029F900F013FE284670BD70B50446082538
:102E400016E000F0D1FD142002F01CF904F080001F
:102E500000F0F8FD142002F015F96006040E1420AD
:102E600002F010F9012000F0BFFD142002F00AF971
:102E70006D1EEDB24FF00000E3D200F0B5FDBDE8ED
:102E80007040142002F0FEB810B5012000F0DAFD09
:102E9000142002F0F7F8012000F0A6FD142002F043
:102EA000F1F8002000F0CEFD142002F0EBF8002035
:102EB00000F09AFDBDE81040142002F0E3B810B510
:102EC000002000F091FD142002F0DCF8002000F05A
:102ED000B9FD142002F0D6F8012000F085FD142081
:102EE00002F0D0F8012000F0ADFDBDE81040142044
:102EF00002F0C8B810B5052400F08EFD142002F0D1
:102F0000C1F8012000F070FD142002F0BBF805E0CC
:102F1000641EA4B2142002F0B5F86CB100F070FD8C
:102F20000028F5D100F09AFD002000F05DFD14208E
:102F300002F0A8F8002010BD00F090FDFFF7BFFFE1
:102F4000012010BD00B585B014216846FDF798F941
:102F50004FF6FF70009000200321CDE9020101909F
:102F600069460248FEF754FA05B000BD0008004863
:102F700000B585B014216846FDF782F94FF6FF7061
:102F800000900120019003200390002002906946E8
:102F90000248FEF73DFA05B000BD000000080048F9
:102FA00070B5002406462146204600F003F900F0E3
:102FB00041F94FF49635304600F010F9641CAC42EC
:102FC000F9D370BD30B587B014216846FDF758F9C4
:102FD0001E48C16C41F00401C164C16C01F00401E0
:102FE0000591C16C41F00101C164C16C01F00101A6
:102FF0000591C16C41F00201C164C06C012500F073
:10300000020005904FF44870CDE9000500240394B8
:10301000694602940E48FEF7FBF9280203940090DB
:10302000CDE901544FF0904469462046FEF7F0F98F
:10303000FFF79EFFA06940F48070A061044818303B
:10304000016841F40871016007B030BD0010024012
:1030500000040048203AD2B2034B02EB420203EBD9
:10306000021200F019B80000F4570008F0B50E463F
:103070000746002540F23F1407E021463846FFF797
:10308000E9FF103C6D1CA4B2761C3278002A01D0F6
:10309000142DF2D3F0BD00002DE9F04791468A4689
:1030A0000026044600F086F8DFF84080012700BFC4
:1030B00000F0C0F85FF0000539F8160007FA05F1D6
:1030C0000842404601D1408800E0008800F086F8C0
:1030D0006D1C102DF0D3641CE4B25146204600F064
:1030E00069F8761C182EE3D3BDE8F08700000020B5
:1030F00010B5FFF767FF002000F014F8084CA0801F
:10310000A088A0F50241303906D000F06BFB00200A
:1031100000F008F8A08010BD00F0DBFAF7E700002F
:103120000000002070B51D490A6842F400720A6070
:103130000A6842F480720A60184C103C226842F01F
:1031400020022260164A1060086840F020000860E3
:1031500000BF00BF00BF206840F020002060206852
:1031600040F480702060FFF7EDFE4FF09041886AD8
:1031700040F48070886200BF00BF00BF0848001F95
:10318000006885B2886940F480708861FFF7F0FEBE
:10319000206840F400702060284670BD2804004874
:1031A0001408004801B5BDF800000149488008BD79
:1031B0000000002010B50C460146202000F068F801
:1031C0002146BDE81040212000F062B801B5BDF8ED
:1031D00000000149088008BD00000020134A116862
:1031E00041F400711160114910390B6843F4807388
:1031F0000B600B6843F020030B600D4B18601068E8
:1032000040F02000106000BF00BF00BF086840F021
:1032100020000860086840F48070086000BF00BFAC
:1032200000BF086840F40070086070472804004838
:10323000140800481449086840F4007008600868E1
:1032400040F48070086010481038026842F0200294
:1032500002600E4B22221A600A6842F020020A60C5
:1032600000BF00BF00BF016841F02001016001689C
:1032700041F48071016000BF00BF00BF016841F4EC
:1032800000710160704700002804004814080048DD
:10329000184B10B51A6842F400721A601A6842F4AA
:1032A00080721A60134A103A146844F020041460C3
:1032B000114C2060186840F02000186000BF00BF6B
:1032C00000BF106840F020001060106840F480706B
:1032D00010602160186840F02000186000BF00BF37
:1032E00000BF106840F020001060106840F480704B
:1032F000106010BD280400481408004800EB81004D
:10330000006E00F0F84070478068C0F3C00070475E
:103310008068C0F3800070478068C0F38000704709
:10332000C06810F4406F01D0002070470120704742
:10333000042303EAD15310B518444369C1F304517F
:1033400007248C40A3438A401343436110BD00EB24
:103350008100016E21F000411143016670470000B9
:1033600030B58BB0002408940994202168460A9453
:10337000FCF786FF1C484FF0A041042501604FF484
:103380000031C0E90114C4600461C0E90545047757
:1033900044770121016280F82440C462046380F80C
:1033A0003840C46380F84040FDF746FD08B1FDF7A2
:1033B000C3FA08A90C480894FDF7C0FA08B1FDF754
:1033C000BBFA0A4800900620CDE901047F2005944D
:1033D000CDE9030569460448FDF71CFB002801D030
:1033E000FDF7AAFA0BB030BDCC0000200008302E4B
:1033F00030B589B020216846FCF742FF19481849CA
:10340000002401604902C0E90114C460042504617C
:10341000C0E90545047744770121016280F8244022
:10342000C462046380F83840C46380F84040FDF70C
:1034300003FD08B1FDF780FA0B4800900620CDE9A6
:1034400001047F200594CDE9030569460548FDF791
:10345000E1FA002801D0FDF76FFA09B030BD000095
:1034600000010050380100200080F03E2DE9F04FAF
:1034700087B014216846FCF703FF4048C16C41F057
:103480000401C164C16C01F004010591C16C41F0FB
:103490002001C164C16C01F020010591C16C41F0B3
:1034A0000101C164C16C01F001010591C16C41F0E1
:1034B0000201C164C16C01F002010591C16C41F0CF
:1034C0000801C164C06CDFF8B88000F008004FF656
:1034D000FF740590002221464046FEF7C2F84FF4E3
:1034E00080764FF09049002231464846FEF7B9F801
:1034F000DFF890A0002204215046FEF7B2F8DFF872
:1035000088B04FF47877002239465846FEF7A9F87C
:103510000125CDE900450024029469464046039404
:10352000FDF776FFCDE90054694648460294FDF761
:103530006FFF0720CDE90004694658460294FDF765
:1035400067FF0096CDE90154694648460394FDF7AC
:103550005FFF04200090CDE9015469465046039472
:10356000FDF756FF0097CDE901546946584603948C
:10357000FDF74EFF07B0BDE8F08F000000100240DD
:1035800000080048000C00480004004810B588B04E
:103590000024184800940194029403940494059420
:1035A0001349069401604F21C0E9011440F2E7314C
:1035B000C0E903148021C0E90541FEF752FE08B1BD
:1035C000FDF7BAF94FF48050009069460948FEF7BC
:1035D000E7FE08B1FDF7B0F9049404A90548069484
:1035E000FEF7F0FD002801D0FDF7A6F908B010BDE8
:1035F00000400140F001002010B588B000241848B8
:10360000009401940294039404940594134906943D
:10361000016041F63F71C0E9011442F20F71C0E947
:10362000031480218161FEF71CFE08B1FDF784F9C7
:103630004FF48050009069460948FEF7B1FE08B18A
:10364000FDF77AF9049404A905480694FEF7BAFD3B
:10365000002801D0FDF770F908B010BD000400404B
:10366000A4010020184810B5164901604FF4165106
:103670004160002181600C22C160C0E904128161B7
:10368000C161016241628162FFF764FA08B1FDF72E
:1036900053F900210C48FFF7C3F808B1FDF74CF9C6
:1036A00000210948FFF796F808B1FDF745F90648EB
:1036B000FFF76FF8002803D0BDE81040FDF73CB9D4
:1036C00010BD0000003801403C020020FEE77047BA
:1036D000704730B501210020FFF7DAFD4FF47A7012
:1036E000FDF71CF900210120FFF7D2FD41F2907196
:1036F0001020FFF7CDFD4FF41C516020FFF7C8FDEF
:1037000001216120FFF7C4FD02214620FFF7C0FD23
:1037100048F210011320FFF7BBFD48F2FE01122012
:10372000FFF7B6FD4FF4A0610220FFF7B1FD41F2B3
:1037300030010320FFF7ACFD40F203342146302076
:10374000FFF7A6FD21463120FFF7A2FD21463220DA
:10375000FFF79EFDE51E29463320FFF799FD032163
:103760003420FFF795FD21463520FFF791FD142108
:103770003620FFF78DFD21463720FFF789FD2146D2
:103780003820FFF785FD21463920FFF781FD2946C6
:103790003A20FFF77DFD03213B20FFF779FD21460D
:1037A0003C20FFF775FD4FF4A0513D20FFF770FD61
:1037B0004FF400719220FFF76BFD21469320FFF735
:1037C00067FD40F60D019020FFF762FD41F2180100
:1037D0000320FFF75DFDBDE8304040F27311072084
:1037E000FFF756BD10B543F20801E320FFF750FD87
:1037F0001221E720FFF74CFD41F23121EF20FFF7C6
:1038000047FD00210120FFF743FD4FF4E061022056
:10381000FFF73EFD41F230010320FFF739FD0021A3
:103820000420FFF735FD40F207210820FFF730FDA7
:1038300000210920FFF72CFD00210A20FFF728FDB9
:1038400000210C20FFF724FD00210D20FFF720FDB3
:1038500000210F20FFF71CFD00211020FFF718FDAD
:1038600007211120FFF714FD00211220FFF710FDA2
:1038700000211320FFF70CFDC820FDF7B7FD41F232
:1038800090611020FFF704FD40F227211120FFF77F
:10389000FFFC3220FDF7AAFD1D211220FFF7F8FCE6
:1038A0003220FDF7A3FD4FF400611320FFF7F0FC79
:1038B00014212920FFF7ECFC0B212B20FFF7E8FC5B
:1038C0003220FDF793FD00212020FFF7E1FC0021CD
:1038D0002120FFF7DDFC07213020FFF7D9FC40F263
:1038E00007713120FFF7D4FC06213220FFF7D0FC0E
:1038F00040F204713520FFF7CBFC41F6047136200D
:10390000FFF7C6FC04213720FFF7C2FC0021382056
:10391000FFF7BEFC40F206713920FFF7B9FC40F218
:1039200001713C20FFF7B4FC0F213D20FFF7B0FCF4
:1039300000215020FFF7ACFCEF215120FFF7A8FC3D
:1039400000215220FFF7A4FC40F23F115320FFF763
:103950009FFC4FF41C516020FFF79AFC012161206D
:10396000FFF796FC00216A20FFF792FC00218020DF
:10397000FFF78EFC00218120FFF78AFC00218220C6
:10398000FFF786FC00218320FFF782FC00218420C2
:10399000FFF77EFC00218520FFF77AFC10219020A4
:1039A000FFF776FC00219220FFF772FC03219320A1
:1039B000FFF76EFC4FF488719520FFF769FC00213A
:1039C0009720FFF765FC00219820FFF761FC41F28A
:1039D00018010320FFF75CFCBDE8104040F27311B2
:1039E0000720FFF755BC000008B1044801E0034878
:1039F0001030016841F04001016070471804004830
:103A000010B580210348FDF727FE012800D00020D3
:103A100010BD00000004004800B585B014216846C0
:103A2000FCF72EFC802000900020019001200290E5
:103A30000220039069460248FDF7EAFC05B000BD8C
:103A40000004004808B1044801E003481030016850
:103A500041F08001016070471804004800B585B04E
:103A600014216846FCF70CFC802000901120019086
:103A7000002002900220039069460248FDF7C8FC2E
:103A800005B000BD000400487047FDF7F5BD10B556
:103A900094B038216846FCF7F3FB14210EA8FCF71C
:103AA000EFFB4FF40070FDF779FE01200090000459
:103AB000019002200324CDE907041421CDE90A1066
:103AC0000C900D9009946846FEF75CF90F20CDE943
:103AD0000E04002010901190129002210EA8FEF703
:103AE00007F814B010BD00000548016841F47001EA
:103AF000016003494FF000608039086070470000A2
:103B000088ED00E00148FEF7CCBC0000F001002089
:103B10000148FEF7C6BC0000A40100202DE9F043D7
:103B20000268234B234D244E244C4FF08049984289
:103B300007D0484505D0A84203D0B04201D0A042EA
:103B400003D122F070074A683A431D4FDFF874C072
:103B5000DFF8748098420DD048450BD0A84209D0B8
:103B6000B04207D0A04205D0B84203D0604501D092
:103B7000404503D122F44075CA682A434D6922F0BA
:103B800080022A4302608A68C2620A68826298429E
:103B900007D0A04205D0B84203D0604501D04045CF
:103BA00001D10969016301214161BDE8F083000091
:103BB000002C014000040040000800400034014097
:103BC00000400140004401400048014010B58468B5
:103BD00042EA032224F47F440A432243826010BD58
:103BE0008268034B1A400A4342F007018160704724
:103BF0008FFFCFFF10B5036A046A24F0010404624A
:103C0000846924F0F00444EA021423F00A020A430F
:103C10008461026210BD10B5036A23F010030362D1
:103C20008369046A23F4704343EA023224F0A00358
:103C300043EA01118261016210BD000030B5416E9E
:103C4000B9B1026891689268C1F342610B4B520F9F
:103C50009C5CE50003F10804A25CB5FBF2F2A0F85D
:103C60006A205A5C615CD200B2FBF1F1A0F86810E6
:103C700030BD0121A0F86A10F8E70000F4690008DF
:103C800090F82810C90706D001684A68C36A22F470
:103C900000321A434A6090F82810890706D5016857
:103CA0004A68036B22F480321A434A6090F8281065
:103CB000490706D501684A68436B22F480221A43FB
:103CC0004A6090F82810090706D501684A68836B96
:103CD00022F400421A434A6090F82810C90606D51B
:103CE00001688A68C36B22F480521A438A6090F894
:103CF0002810890606D501688A68036C22F40052F0
:103D00001A438A6090F82810490611D501684A685C
:103D1000436C22F480121A434A60416CB1F5801F53
:103D200006D101684A68836C22F4C0021A434A60D3
:103D300090F82810090606D501684A68C06C22F47C
:103D4000002202434A607047F8B500260446C0F8D6
:103D50008C60FDF78BFC0546206800686FF07E479D
:103D6000000708D52B4600224FF40011204600978B
:103D700000F02CFC60B92068006840070AD52B468B
:103D800000224FF480012046009700F01FFC08B18C
:103D90000320F8BD2020C4F88400C4F8880044F84B
:103DA0006C6F00202675F8BD10B5806A0021A0F860
:103DB0005E10A0F85610FEF75BFD10BD10B502684E
:103DC00052E8001F21F4907142E80013002BF6D155
:103DD0000E4B0268083252E8001F194042E80014F6
:103DE000002CF6D1C16E012908D1016851E8002FDD
:103DF00022F0100241E80023002BF6D12021C0F868
:103E000088100021C166016710BD0000FEFFFFEFB2
:103E100010B5B0F86020D0F888300168222B04D0AB
:103E2000886940F00800886110BD496A836D1140BF
:103E30001980816D891C8165B0F85E10491EA0F85B
:103E40005E10B0F85E100029EED1026852E8001F43
:103E500021F4907142E80013002BF6D1016808317B
:103E600051E8002F22F0010241E80023002BF5D198
:103E70002021C0F8881000210167C26E012A02D0FB
:103E8000FEF70EFF10BDC166026852E8001F21F068
:103E9000100142E80013002BF6D10168CA69D24331
:103EA000D20601D410220A62B0F85C10FEF790FC32
:103EB00010BD00002DE9F0470446B0F860600068CE
:103EC000C569D0F800A0D0F80880D4F8881022295D
:103ED00005D0816941F008018161BDE8F087B4F83F
:103EE00068704FF0000963E02068406AA16D3040BF
:103EF0000880A06D801CA065B4F85E00401EA4F888
:103F00005E002068C569690730D0E9070AD05FEA1A
:103F1000CA5107D501210162D4F88C0040F001009C
:103F2000C4F88C00A8070BD55FEAC87008D02168D8
:103F300002200862D4F88C0040F00400C4F88C0021
:103F400068070BD55FEAC87008D0216804200862B2
:103F5000D4F88C0040F00200C4F88C00D4F88C0037
:103F600020B12046FEF784FCC4F88C90B4F85E00C3
:103F7000F0B9216851E8000F20F4807041E8000298
:103F8000002AF6D1264A2068083050E8001F114068
:103F900040E80013002BF6D12020C4F88800C4F8B4
:103FA0007090E16E4846012923D02046FEF778FE46
:103FB0000FB1A80698D4B4F85E0000288DD0B4F8EC
:103FC0006810814289D92068083050E8001F21F02C
:103FD000805140E80012002AF5D11248206720687D
:103FE00050E8001F41F0200140E80012002AF6D1FD
:103FF00073E7E066216851E8000F20F0100041E807
:104000000002002AF6D12068C169C943C90601D45B
:1040100010210162B4F85C102046FEF7D9FBC7E717
:10402000FEFFFFEF113E000810B5B0F86020D0F899
:1040300088300168222B04D0886940F0080088612C
:1040400010BD496A1140826D1170816D491C8165F6
:10405000B0F85E10491EA0F85E10B0F85E1000299E
:10406000EED1026852E8001F21F4907142E800137B
:10407000002BF6D10168083151E8002F22F001022F
:1040800041E80023002BF5D12021C0F88810002141
:104090000167C26E012A02D0FEF702FE10BDC166A2
:1040A000026852E8001F21F0100142E80013002BC3
:1040B000F6D10168CA69D243D20601D410220A623D
:1040C000B0F85C10FEF784FB10BD00002DE9F0474E
:1040D0000446B0F860600068C569D0F800A0D0F868
:1040E0000880D4F88810222905D0816941F00801A0
:1040F0008161BDE8F087B4F868704FF0000963E0B3
:104100002068406AA16D30400870A06D401CA06519
:10411000B4F85E00401EA4F85E002068C569690717
:1041200030D0E9070AD05FEACA5107D50121016200
:10413000D4F88C0040F00100C4F88C00A8070BD51F
:104140005FEAC87008D0216802200862D4F88C00A9
:1041500040F00400C4F88C0068070BD55FEAC87013
:1041600008D0216804200862D4F88C0040F00200D6
:10417000C4F88C00D4F88C0020B12046FEF778FB00
:10418000C4F88C90B4F85E00F0B9216851E8000FD3
:1041900020F4807041E80002002AF6D1264A206807
:1041A000083050E8001F114040E80013002BF6D102
:1041B0002020C4F88800C4F87090E16E48460129B8
:1041C00023D02046FEF76CFD0FB1A80698D4B4F8B2
:1041D0005E0000288DD0B4F86810814289D920682B
:1041E000083050E8001F21F0805140E80012002AFA
:1041F000F5D112482067216851E8000F40F02000F7
:1042000041E80002002AF6D173E7E066216851E830
:10421000000F20F0100041E80002002AF6D12068CB
:10422000C169C943C90601D410210162B4F85C1008
:104230002046FEF7CDFAC7E7FEFFFFEF2940000852
:104240002DE9F0410446016880682269E369104362
:10425000626900251A431043DFF82CC20A688B4BB1
:104260001A4002430A6020684168E26821F4405124
:10427000114341602168A069614501D0226A104361
:104280008A68834B1A4002438A602068C16A626A66
:1042900021F00F011143C1627E4923687E488B42A1
:1042A0000DD1D0F8880010F0030006D0012855D0B9
:1042B000022842D003283FD152E001203DE0774957
:1042C0008B420BD1D0F8880010F00C0035D00428B8
:1042D00033D0082840D00C282ED141E070498B42C1
:1042E0000BD1D0F8880010F0300026D0102835D03F
:1042F000202831D030281FD132E06A498B420BD1BF
:10430000D0F8880010F0C00017D0402826D08028B0
:1043100022D0C02810D123E063450DD1D0F8880009
:1043200010F4406009D0B0F5806F17D0B0F5006F81
:1043300012D0B0F5406F13D010205B495B4F0026C0
:104340004FF4004263453BD160B1022813D00428EA
:104350000BD0082872D10DE00220EEE70420ECE734
:104360000820EAE7FDF7B2FC01E0FDF7D3FC01000D
:1043700001D17CE01146606A37F810206768B1FB14
:10438000F2F007EB4703834270D8B0EB073F6DD8DC
:10439000002308461946FBF73BFF090241EA10617A
:1043A00002027808101871413A460023FBF730FFEB
:1043B0003F4AA0F54071914258D82168C86056E044
:1043C000E3694FF6EF7893422CD109284ED2DFE80B
:1043D00000F00508114D0D4D4D4D1000FDF776FC18
:1043E00001E0FDF785FC010004D140E0FDF792FCFF
:1043F000F9E71146606A37F81000B1FBF0F04100B0
:10440000606801EB5001B1FBF0F0A0F110014145F3
:104410002CD84FF6F0710140C0F3420001432068F0
:10442000C16024E0092821D2DFE800F0050912204C
:104430000E2020201100FDF749FC02E016E0FDF7F8
:1044400057FC010004D112E0FDF764FCF9E71146C6
:10445000606A37F81000B1FBF0F1606801EB5001C1
:10446000B1FBF0F0A0F1100141450AD9012501206E
:10447000A4F86A0024F8680F2846A660E660BDE844
:10448000F08180B299E7000000800040F369FFCF1F
:10449000FFF4FF11003801400010024000440040CA
:1044A00000480040004C00400024F400DC69000893
:1044B000FFFC0F0070B58165A0F85C20A0F85E20BD
:1044C0000021016783684FF48055FF24AB4204D17B
:1044D0000369FBB940F2FF1322E07F26C3B1B3F1B9
:1044E000805F1AD0A0F86010C0F88C102223C0F8AA
:1044F00088300368083353E8004F44F0010443E870
:104500000046002EF5D1436EB3F1005F0ED032E0CD
:10451000036943B9A0F86040E6E703691BB13F2394
:10452000A0F86030E0E7A0F86060DDE7B0F8683040
:10453000934220D88268AA4201D10269CAB11F4AB7
:10454000026780F88010016941B1026852E8001FDB
:1045500041F4807142E80013002BF6D10168083164
:1045600051E8002F42F0805241E80023002BF5D1A2
:1045700021E0134AE4E78268AA4201D102697AB1D4
:10458000104A026780F88010016959B1026852E848
:10459000001F41F4907142E80013002BF6D10AE0AD
:1045A000094AEEE7026852E8001F41F0200142E8A4
:1045B0000013002BF6D1002070BD0000CD40000894
:1045C000B53E000829400008113E00082DE9F047DB
:1045D0009A4617460E4604464FF000094FF0200851
:1045E000089D4AE0681C48D0FDF740F8A0EB0A009F
:1045F000A8422AD84DB32068016849073DD5C06953
:10460000C043000539D421684FF400600862206877
:1046100050E8001F21F4D07140E80012002AF6D1C2
:104620002068083050E8001F21F0010140E8001226
:10463000002AF5D144F8848FC4F80480C4F80880B7
:1046400004F8049C0320BDE8F087216851E8000FBE
:1046500020F4D07041E80002002AF6D1206808302A
:1046600050E8001F21F0010140E80012002AF5D1B6
:1046700044F8848FC4F80480E2E72068C06936EA11
:10468000000004D00020B842ACD00020DBE70120BD
:10469000F9E700000148FEF7EDB800003C020020F9
:1046A000FEE700000FB4084B10B504A902AA039856
:1046B00000F0EEF8044602A9002000F080FC20463D
:1046C00010BC5DF814FB0000BF4F00080907090E7D
:1046D000002804DB00F1E02080F80014704700F0AF
:1046E0000F0000F1E02080F8141D704702E008C8B8
:1046F000121F08C1002AFAD170477047002001E05C
:1047000001C1121F002AFBD1704700002DE9FF5F95
:1047100082B00021DDE90430020DDDF840B0034332
:1047200018D044F61050A2F2FF32424315141198EB
:1047300001281FD0A5EB0B00401C5FEA000A4FF0D8
:1047400000064E4FDFF83891B046504615D5CAF1F5
:10475000000413E0119801244AA3012801D16FEA53
:104760000B010298119AC0E90031C0E9024206B07B
:10477000BDE8F09FCBF10000DFE704460021404A8E
:10478000491842EB0450CDE9001012E0E00707D0D1
:1047900032463B4640464946FBF72BFE804689465B
:1047A00032463B4610461946FBF723FE06460F46A7
:1047B0006410002CEAD1DDE90401DDE90023BAF13F
:1047C000000F06DAFBF715FE42464B46FBF711FEDB
:1047D00005E0FBF7B6FF42464B46FBF7B2FF044647
:1047E0000E460022284BFCF733F803D84FF0FF3079
:1047F000014607E00022254B20463146FBF752FDDB
:10480000FCF70EF8102409E0002C0ADB0A22002332
:10481000FBF7FEFC039B30321A55641E50EA01027E
:10482000F2D1641C039AC4F111031444119A012AB1
:1048300003D0012208430DD10AE0084304D0002030
:104840004FF0110B119072E7A3EB0B056D1E0DE0FD
:104850005B4504DD4FF0000205F1010504E003DAD9
:104860004FF00002A5F10105002AECD00298119941
:10487000C0E90231C0E9004579E7000000001440BA
:104880000000F03F300000000000F0430000E03F77
:104890002DE9FF4F95B09B468946064600250FE25D
:1048A000252877D100242746F84A0121059400E005
:1048B000044316F8013F203B01FA03F01042F7D100
:1048C00030782A2811D06FF02F033078A0F1300211
:1048D000092A16D8059A44F0020402EB820203EB7F
:1048E00042021044761C0590EFE759F8042B05921C
:1048F000002A03DA504244F40054059044F00204C4
:10490000761C30782E2816D116F8010F44F00404D6
:104910002A280DD06FF02F023078A0F13003092B38
:1049200009D807EB870302EB4303C718761CF3E7AC
:1049300059F8047B761C30786C280FD006DC4C28A4
:1049400017D068280DD06A2814D104E0742810D03C
:104950007A280FD10DE044F400140AE044F48014E6
:1049600001E044F440147278824202D104F58014CC
:10497000761C761C307866280BD013DC582877D04C
:1049800009DC002875D04528F6D04628F4D0472801
:104990001AD19DE118E0632835D0642879D06528C4
:1049A00012D195E1702873D008DC6728F1D069280E
:1049B0006FD06E280DD06F2806D1B5E073282CD0AB
:1049C000752875D0782874D05A46179990476D1C71
:1049D00075E1C4F30250022809D003280DD0D9F89C
:1049E000001004280DD00D6009F1040967E1D9F821
:1049F0000010EA17C1E90052F6E7D9F800100D805F
:104A0000F2E70D70F0E719F8041B8DF80010002094
:104A10008DF80100EA46012003E059F804AB4FF09D
:104A2000FF3061074FF0000102D40DE008F10101F1
:104A30008846B9420FDA8045F8DB1AF808100029D9
:104A4000F4D108E008F1010188468142FADB1AF846
:104A500008100029F6D105985B46A0EB080721460F
:104A60003846179A00F094FA284400EB080507E04E
:104A70004DE029E10DE01AF8010B5A4617999047CD
:104A8000B8F10108F7D25B4621463846179A13E180
:104A900042E00A220092C4F302524FF0000A022AB6
:104AA00008D059F804CB032A4FEAEC710AD00DE084
:104AB00029E02AE009F1070121F00702F2E802C12A
:104AC000914609E00FFA8CFC4FEAEC71042A03D1FD
:104AD0004FFA8CFC4FEAEC71002907DA0A460021F4
:104AE000DCF1000C61EB02012D2202E0220504D56D
:104AF0002B228DF80420012203E0E20701D02022BE
:104B0000F7E7904659E00A2102E010220DE010215B
:104B10004FF0000A00910BE010224FF0000A44F021
:104B200004040827009203E008224FF0000A0092D4
:104B3000C4F30252022A05D059F804CB0021032AFB
:104B400008D009E009F1070121F00702F2E802C1EB
:104B5000914605E01FFA8CFC042A01D10CF0FF0CF1
:104B60004FF00008220728D5702806D0009B83F05C
:104B7000100353EA0A0305D00EE040228DF804200A
:104B8000012208E05CEA010206D030228DF8042000
:104B90008DF8050002229046009B83F0080353EA3B
:104BA0000A030AD15CEA010201D1620705D530226D
:104BB0008DF804204FF001087F1E582804D034A03F
:104BC00003900EA802900DE036A0F9E75346604628
:104BD000009AFBF71DFB84460398825C0298401EF6
:104BE000029002705CEA0100F0D1029806A9081A4E
:104BF00000F1200A600702D524F4803400E0012788
:104C0000574502DDA7EB0A0000E0002000EB0A0197
:104C1000009005984144401A0590E00306D45B4695
:104C20002146179A059800F0B3F90544002706E0DD
:104C300001A85A46C05D179990476D1C7F1C4745D7
:104C4000F6DBE0030CD55B462146179A059800F089
:104C50009FF9054404E030205A46179990476D1C8F
:104C60000099481E00900029F5DC08E0029802999E
:104C70005A460078491C0291179990476D1CBAF169
:104C80000001AAF1010AF1DC65E100000928010038
:104C900030313233343536373839616263646566B2
:104CA0000000000030313233343536373839414274
:104CB000434445460000000000F058F90544761CC6
:104CC000307800287FF4ECAD19B02846BDE8F08FAD
:104CD000620700D4062709F1070222F0070CFCE85E
:104CE0000223E14603F000485FEA080C02D00FF20D
:104CF000702C0DE05FEA045C02D50FF2682C07E02F
:104D00005FEAC47C02D00FF2602C01E0AFF2700CBD
:104D10004FF0FF3823F00043CDF850C065280CD089
:104D200006DC452809D046281DD047283DD13DE066
:104D3000662818D067287ED138E00021112F01DBCA
:104D4000112000E0781CCDE9000106A90EA8FFF7AC
:104D5000DDFCDDE90F010E9A03910021009207F1BD
:104D6000010A04914DE04FF000400097CDE9011099
:104D700006A90EA8FFF7CAFCDDE90F0203920E9BFD
:104D800011990022DDF80CA00093049211B9791C4E
:104D900000EB010AB7EB0A0004D4C0F1FF3007F1C1
:104DA000010A0490AAEB0700019044E0012F00DA09
:104DB00001270021112F01DD112000E03846CDE947
:104DC000000106A90EA8FFF7A1FCDDE90F010E9A6C
:104DD0000391002104910092BA4621070CD4039953
:104DE000514500DA8A46BAF1010F05DD009AAAF1B1
:104DF0000101515C302908D0B84202DA10F1040FE9
:104E000006DA0121CDE9011015E0AAF10101E9E777
:104E1000002805DC049901440491AAEB000102E09A
:104E2000411C514500DD8A460499401A401C0190FE
:104E30004FF000400290200704D40198504501DB58
:104E4000CDF8048000208DF84F0002980DF14F0737
:104E5000B0F1004F25D02B200E9002984FF00208A1
:104E600000280CDA404202902D200E9007E00A2123
:104E70000298FBF78BFB3031029007F8011DB8F167
:104E80000001A8F10108F2DC02980028EFD1791E98
:104E90000E980870307800F0200040F0450007F8C8
:104EA000020D12A8C01B00F107081498007800B189
:104EB000012000EB0A01019801EBE07105984144E3
:104EC000401A401E0590E00306D45B462146179A1F
:104ED000059800F05DF805441498007818B15A461A
:104EE000179990476D1CE00324D55B462146179A1D
:104EF000059800F04DF805441CE00498002807DBF5
:104F0000DDE90301884203DD0098405C179901E068
:104F1000179930205A469047049805F10105401C26
:104F200004900198401E019004D12E205A461799F2
:104F300090476D1CBAF10001AAF1010ADDDC05E021
:104F400017F8010B5A46179990476D1CB8F10001EC
:104F5000A8F10108F4DC5B462146179A0598ABE6F8
:104F60002D0000002B000000200000002DE9F04182
:104F7000044600251E461746880404D405E0394639
:104F80002020B0476D1C641EF9D52846BDE8F0818D
:104F90002DE9F041044600251E469046C80301D580
:104FA000302700E02027880404D505E04146384634
:104FB000B0476D1C641EF9D52846BDE8F0810A682B
:104FC000531C0B601070704710B500242DED048B3E
:104FD0002248FCF71FF964212048FCF79DF81F4880
:104FE000FBF724FF800503D51C48FBF721FF04468F
:104FF0002046FBF770FA9FED1A1B53EC112BFBF7C1
:10500000F8F99FED191B53EC112BFBF7F2F9FBF7A5
:10501000A1FAFBF78CFA164C9FED160B41EC180B1E
:1050200053EC102B94ED140B51EC100BFBF7E1F942
:105030009FED120B41EC190B53EC102B51EC180B9C
:10504000FBF7D7F953EC192BFBF72CF9C4E9120144
:10505000C4E91401BDEC048B10BD00003801002030
:105060006666666666660A40000000000000303F23
:1050700008000020989999999999C93F9A99999906
:105080009999E93F002100E0491C8142FCD3704717
:1050900070B59FED210B224C53EC102B94ED120BAD
:1050A00051EC100BFBF7A5F9FBF722FA60602169C0
:1050B00001250246884201DC00200AE0E0688242C5
:1050C00001DC256206E0A068824201DC022000E0EB
:1050D00003202062D4E90830191A1148806B401C63
:1050E000002902DD0FA1A06302E011D511A1A06388
:1050F0001448FFF7D7FA1348FBF7CDF882B26423C0
:1051000010491148FDF712FEA06B012800DDA570C3
:10511000206A606270BD00009A99999999593E4041
:1051200008000020413A4825642B4C25642B550D7E
:105130000A000000413A4825642B4C25642B440D9D
:105140000A000000B80000203C0200202DE9F041D8
:105150004D484E4C01460678D1F808C004F11401C0
:1051600000250EC9012E19D0077B0126012F43D03F
:10517000274690F818E07F6BBEF1010F56D090F8EB
:1051800024E0BEF1010F17D15FEACC7C78D0002F6C
:1051900066D0012F69D0022F71D16CE00CF1010CA7
:1051A000C0F808C005705FEACC7007D0A0686061E5
:1051B000E068A0612069E061BDE8F08160780028C6
:1051C000FAD004F1080080E80E00C9B2012000F016
:1051D000F9FA0A20FCF70AF9217B022000F0F2FA22
:1051E0000A20FCF703F9217C032000F0EBFA0A20E7
:1051F000FCF7FCF86570DFE75FEACC7114D0416919
:10520000491C032291FBF2F3416102FB131121B10E
:10521000012904D0022906D103E0656303E0666337
:1052200001E00221616366700573C5E75FEACC7C2B
:1052300014D027B1012F07D0022F0ED109E05F2B28
:105240000BDA5B1DE36108E05F2A06DA521DA261FA
:1052500003E05F2901DA491D616166700576ABE7FD
:10526000052B0CDD5B1FE36109E0052A07DD521FFA
:10527000A26104E004E0052901DD491F6161667057
:1052800080F8245098E700007400002008000020F7
:1052900010B57348734C007AE16BC2074FF6FF708C
:1052A00002D0012968D06BE019B9FDF779FE012021
:1052B000E0630020FDF78AFF69486BA13030FFF7FB
:1052C000F1F9674930203031FDF7D0FE0020FDF7BD
:1052D0007DFF63486AA130306268FFF7E3F96049F7
:1052E00048203031FDF7C2FE0020FDF76FFF94ED3E
:1052F000120B5B4853EC102B67A13030FFF7D2F94B
:10530000574960203031FDF7B1FE0020FDF75EFF08
:10531000534866A13030226AFFF7C4F9504978201B
:105320003031FDF7A3FE0020FDF750FF4C4864A18B
:1053300030302269FFF7B6F94949A8203031FDF72E
:1053400095FE0020FDF742FF454864A13030E26839
:10535000FFF7A8F94249C0203031FDF787FE002051
:10536000FDF734FF3E4864A13030A268FFF79AF998
:105370003B493031D82040E0FDF712FE0020E063C9
:105380000020FDF723FF364862A13030FFF78AF98D
:10539000334930203031FDF769FE606B002830D092
:1053A00001283ED002285AD10020FDF70FFF2C48DB
:1053B00043A13030E269FFF775F9294948203031BF
:1053C000FDF754FE0020FDF701FF254843A13030D2
:1053D000A269FFF767F9224960203031FDF746FEE8
:1053E0005FF01F00FDF7F2FE1D4843A130306269F7
:1053F000FFF758F91A4930317820BDE81040FDF721
:1054000035BE1F20FDF7E2FE15482DA13030E269C0
:10541000FFF748F9124948203031FDF727FE0020F8
:105420000EE00020FDF7D2FE0D4825A13030E269E4
:10543000FFF738F90A4948203031FDF717FE1F20E1
:10544000FDF7C4FE064825A13030A269FFF72AF90E
:10545000034960203031FDF709FE0020C2E710BD8E
:1054600074000020080000202020204C697175691C
:1054700064204C6576656C202020202020200000D0
:1054800020204865696768743A2564636D20202090
:10549000202020200000000020204144433A252EF7
:1054A00032665620202020202020000020204C653D
:1054B00076656C3A25642020202020202000000002
:1054C00020205468726573686F6C64313A25646398
:1054D0006D20202020202020000000002020546883
:1054E000726573686F6C64323A2564636D202020A6
:1054F000202020200000000020205468726573687E
:105500006F6C64333A2564636D20202020202020B6
:1055100000000000202020506172616D657465728A
:10552000205365747570202020202020200000006A
:105530002DE9F0410A4C15460E460746012204218A
:105540002046FCF78EF82A4631463846FCF789F8A3
:105550002046BDE8F04100220421FCF782B800009B
:10556000000C004810B5094C012204212046FCF72C
:1055700078F801224FF478410548FCF772F820468C
:105580000022BDE810400421FCF76BB8000C004875
:10559000000800482DE9F041404C4FF47A735F0059
:1055A000A06A00253E4E4FF48071984201DC002233
:1055B00004E0A0F2E9329A4204D201223046FFF719
:1055C000B7FF02E0B84200DDA562A0784FF4007199
:1055D000A0B3E06AC82801DC002223E0A0F1C902E0
:1055E000C72A2CD9C83AC72AF6D9C83AC72A26D911
:1055F000C83AC72AF0D9C83AC72A20D9C83AC72A10
:10560000EAD9C83AC72A1AD9C83AC72AE4D9C83A3F
:10561000C72A14D9B84208DD01223046FFF788FFB7
:10562000A57002E03046FFF783FFE0784FF4806119
:1056300058B1206BC82804DC002207E0FFE70122F4
:10564000F0E7A0F1C902C72A05D801223046BDE81B
:10565000F041FFF76DBFA0F29112C72AECD9C83A0A
:10566000C72AF2D9C83AC72AE6D9C83AC72AECD914
:10567000C83AC72AE0D9C83AC72AE6D9C83AC72AD9
:10568000DAD9C83AC72AE0D9B84204DD0122304647
:10569000FFF74EFFE570BDE8F08100000800002034
:1056A00000080048FBF7F0FFFEF7F1F9FDF7DEFE1A
:1056B000FDF76CFFFDF7D6FFFDF79EFFFDF798FEA7
:1056C000FDF74EFEFDF714FD2A48FCF72DFE2A4893
:1056D000FCF72AFE012229492948FDF7B7FAFF20E5
:1056E00000F050F8254C0A280DD04620A06032204A
:1056F000E0601E2020610A20FBF778FE0A21FF20CF
:1057000000F060F81BE0012000F03CF8A0600A20E7
:10571000FBF76CFE022000F035F8E0600A20FBF792
:1057200065FE032000F02EF820610A20FBF75EFEE4
:10573000062000F027F8FAF7CEFEC4E914010A208B
:10574000FBF754FE4FF6FF742046FDF729FC204678
:10575000FDF728FD0020FDF739FD00BFFFF702FF30
:10576000FFF7F4FCFFF794FCFFF792FDFFF712FF41
:10577000F4E70000A4010020F00100200800002050
:105780003C02002010B50446FDF77EFBA020FDF78B
:1057900054FBFDF7AFFB2046FDF74FFBFDF7AAFBDF
:1057A000FDF78DFBFDF770FBA120FDF746FBFDF734
:1057B000A1FBFDF71BFB0446FDF79CFBFDF77FFB00
:1057C000204610BD70B50D460446FDF75DFBA020D8
:1057D000FDF733FBFDF78EFB2046FDF72EFBFDF7B3
:1057E00089FB2846FDF729FBFDF784FBBDE87040E7
:1057F000FDF765BB00000000000000000000000095
:105800000000000000000000000000000000000098
:105810000000000000000000000000000000000088
:1058200000000000000080018001800180018001F3
:105830008001800180018001800180018001800160
:105840000000000080018001000000000000000056
:105850000000000000000000CC00CC00CC00CC0018
:10586000CC00CC00000000000000000000000000A0
:105870000000000000000000000000000000000028
:105880000000000000000000000000000000000018
:10589000600C600C600C30063006FE1FFE1F3006E8
:1058A00038071803FE1FFE1F180318038C018C0114
:1058B0008C01000000008000E003F80F9C0E8C1C9F
:1058C0008C188C009800F801E007800E801C8C1862
:1058D0008C189C18B80CF00FE003800080000000CA
:1058E000000000000000000000000E181B0C110C4E
:1058F00011061106110311039B018E01C038C06C03
:1059000060446044304430441844186C0C38000043
:10591000000000000000E001F00338071806180638
:105920003003F001F000F8009C310E33061E061C17
:10593000061C063FFC73F021000000000000000080
:1059400000000000000000000C000C000C000C0027
:105950000C000C000000000000000000000000002F
:105960000000000000000000000000000000000037
:10597000000000000000000200038001C000C00021
:105980006000600030003000300030003000300037
:105990003000300060006000C000C00080010003E3
:1059A00000020000000020006000C00080018001B3
:1059B00000030003000600060006000600060006BD
:1059C000000600060003000380018001C0006000A3
:1059D00020000000000000000000000000000000A7
:1059E000C000C000D806F807E00130033807000007
:1059F00000000000000000000000000000000000A7
:105A00000000000000000000000000000000000096
:105A100080018001800180018001FC3FFC3F80010A
:105A20008001800180018001000000000000000072
:105A30000000000000000000000000000000000066
:105A40000000000000000000000000000000000056
:105A500000000000000080018001000100018000C2
:105A60000000000000000000000000000000000036
:105A7000000000000000000000000000E007E00758
:105A80000000000000000000000000000000000016
:105A90000000000000000000000000000000000006
:105AA00000000000000000000000000000000000F6
:105AB000000000000000C000C00000000000000066
:105AC000000000000000000C000C000600060006AC
:105AD0000003000300038003800180018001C000F7
