:020000040800F2
:10000000F8060020ED010008DF3A0008B3310008CF
:10001000DD3A000861090008814B0008000000007B
:100020000000000000000000000000006D3F00081C
:100030006309000800000000E13A00086F3F000873
:10004000070200080702000807020008070200086C
:10005000070200080702000807020008070200085C
:10006000070200080702000807020008070200084C
:10007000070200080702000807020008070200083C
:10008000070200080000000007020008070200083D
:10009000070200080702000807020008070200081C
:1000A000F13F0008070200080702000807020008E5
:1000B00007020008070200080702000807020008FC
:1000C00007020008070200080702000807020008EC
:1000D00007020008754B0008070200080702000825
:1000E00007020008F93D000807020008070200089F
:1000F00007020008070200080702000800000000CD
:1001000000000000070200080000000007020008CD
:1001100007020008000000000702000807020008AC
:10012000070200080702000807020008070200088B
:10013000070200080000000000000000070200089D
:10014000070200080702000800000000000000008D
:10015000000000000000000000000000000000009F
:10016000000000000000000000000000070200087E
:10017000070200080000000000000000000000006E
:10018000000000000702000800000000000000005E
:10019000000000000000000000000000000000005F
:1001A000000000000000000007020008070200082D
:1001B000070200080702000807020008000000000C
:1001C000000000000702000800000000000000001E
:1001D0000702000807020008DFF80CD000F074FBEB
:1001E000004800471D5A0008F806002006488047CE
:1001F00006480047FEE7FEE7FEE7FEE7FEE7FEE70C
:10020000FEE7FEE7FEE7FEE7D53F0008D90100085C
:100210002DE9F05F0546002092469B46884606463B
:10022000814640241BE0284641464746224600F0CE
:10023000F6F953465A46C01A914110D31146184652
:10024000224600F0DDF92D1A67EB01084F462246E1
:100250000120002100F0D4F917EB00094E41201EC7
:10026000A4F10104DFDC484631462A464346BDE896
:10027000F09FD2B201E000F8012B491EFBD270477B
:100280000022F6E710B513460A4604461946FFF762
:10029000F0FF204610BD421C10F8011B0029FBD1C5
:1002A000801A70472DE9FE4F804681EA0300C00F97
:1002B0000C46009021F0004123F00045B8EB02000D
:1002C000A94105D24046214690461C460B460246AF
:1002D00023F00040104347D0270DC7F30A00C3F3B3
:1002E0000A510290401A019040286BDAC3F31300C0
:1002F00040F4801B0098924620B10023D2EB030A01
:1003000063EB0B0B01985946C0F14002504600F0D8
:1003100077F906460D4650465946019A00F08FF986
:1003200010EB08006141002487EA115284EAE77368
:100330001A4340D0009A62B3019A012A4FEA075249
:1003400015DC001B61EB02014FF0004202EA07528C
:10035000CDE90042001C41F5801132462B4600F0E9
:10036000C6F903B0BDE8F08F40462146F9E7001B0F
:1003700061EB0201001C41F5801300185B4120185D
:10038000A2F5001747EB030140EAD570B6196D419D
:1003900011E06D084FEA360645EAC0754FEA07528C
:1003A000001B61EB0201001C41F5801149084FEA76
:1003B00030000019514132462B4603B0BDE8F04FE2
:1003C00000F086B90098012240000023D0EB020221
:1003D00063EBE073009821464FEAE074B8EB00004D
:1003E00061EB0401E9E783F000435BE781F0004142
:1003F00058E72DE9FE4F81EA030404F0004421F0A0
:10040000004100944FF0000B23F0004350EA010438
:100410005ED052EA03045BD0C3F30A54C1F30A5519
:100420002C44A4F2F3340194A0FB0254C1F3130151
:1004300041F48011C3F3130343F4801301FB02441E
:1004400000FB034E840A970A44EA815447EA835723
:10045000A4FB076802958D0A05FB07854FEA932CDC
:1004600004FB0C542705029D4FEA065847EA16374D
:10047000B5EB08056EEB070C870E920E47EA811765
:1004800042EA8312A7FB0201B6EB0B0164EB000406
:100490002B0D43EA0C335E1844EB1C50DA465146F0
:1004A000E7FB0201C5F313044FEA0B3343EA14538D
:1004B0004FEA0432019C43EA0603A4F10C040294BF
:1004C000009CCDE900B400F012F903B0BDE8F08F54
:1004D00000200146F9E70EB5C10F80EAE07008443C
:1004E000CA07002140F233438DE80E000A460B464E
:1004F00000F0FDF803B000BD0EB540F233410291AB
:100500000021CDE900110A460B4600F0F0F803B0D7
:1005100000BDC1F30A5210B5C1F3130140F2FF331D
:1005200041F480119A4201DA002010BD40F23343B9
:100530009A42A2F2334203DC524200F070F810BD3E
:10054000904010BD00F0004230F000400AD0C10DD4
:1005500001F56071C0F3160042EA0151C20840077C
:1005600011437047002001467047000030B5041E5B
:1005700071F1000404DB4FF00044404264EB0101E0
:10058000141E73F1000405DB1C464FF00043524279
:1005900063EB04038B4208BF824230BD01F000438D
:1005A00030B421F0004150EA010206D00A0DA2F554
:1005B0006072C1F31301002A02DC30BC00207047D6
:1005C000440F44EAC104C100E01830BC00EBC25043
:1005D00000F047B830B50B46014600202022012428
:1005E00009E021FA02F59D4205D303FA02F5491B01
:1005F00004FA02F52844151EA2F10102F1DC30BD17
:10060000202A04DB203A00FA02F1002070479140D2
:10061000C2F1200320FA03F3194390407047202AC7
:1006200004DB203A21FA02F00021704721FA02F39C
:10063000D040C2F120029140084319467047202A59
:1006400006DBCB17203A41FA02F043EAE07306E0FA
:1006500041FA02F3D040C2F120029140084319460A
:1006600070470029A8BF7047401C490008BF20F010
:100670000100704710B4B0FA80FC00FA0CF050EAA8
:10068000010404BF10BC704749B1CCF1200421FA29
:1006900004F411FA0CF118BF012121430843A3EB24
:1006A0000C01CB1D4FEA00614FEA102042BF002031
:1006B00010BC704700EBC35010440029A4BF10BC0D
:1006C0007047401C490008BF20F0010010BC704773
:1006D00010B5141E73F1000408DA401C41F100014A
:1006E00092185B411A4301D120F0010010BD2DE9A1
:1006F000F04D92469B4611B1B1FA81F202E0B0FA98
:1007000080F220329046FFF77BFF04460F4640EA16
:100710000A0041EA0B0153465A46084313D01146DA
:1007200053EA010019D0C8F140025046FFF777FFA5
:1007300005460E46504659464246FFF761FF0843BC
:1007400005D0012004E020463946BDE8F08D0020A8
:10075000054346EAE0762C4337430A986305E40AEA
:10076000A0EB08000022FD0A44EA47540A3002D5F3
:1007700000200146E9E7010510196941DDE9084556
:1007800000196941BDE8F04DA2E72DE9F04D81EA7D
:10079000030404F0004B21F0004514464FF0000A1A
:1007A00023F0004150EA050220D054EA01021DD096
:1007B000C5F30A570246C5F31303C1F31300C1F38F
:1007C0000A5640F4801543F48013A7EB0608101B6B
:1007D000D64608F2FD3873EB050002D308F1010894
:1007E00001E092185B41B8F1000F03DA00200146E6
:1007F000BDE8F08D00204FF48011064684460EE0DF
:10080000171B73EB050705D3121B63EB05030643A8
:100810004CEA010C49084FEA300092185B4150EA5B
:100820000107EDD152EA030012D082EA040083EA04
:100830000501084305D0101BAB4106D2012200235D
:1008400006E000224FF0004302E06FF00102531077
:100850001AEB06004CEB085110EB0A0041EB0B01C0
:10086000BDE8F04DFFF734BFC1F30A52C1F31301E5
:1008700040F2FF3341F480119A4202DA002001462F
:10088000704740F233439A42A2F2334202DC5242B2
:10089000FFF7C5BEFFF7B4BE30B5041E71F100040A
:1008A00004DB4FF00044404264EB0101141E73F17D
:1008B000000405DB1C464FF00043524263EB040387
:1008C000994208BF904230BD064C074D06E0E068F3
:1008D00040F0010394E8070098471034AC42F6D387
:1008E000FFF77EFC3C6E00085C6E000870B50446A5
:1008F0000068816811F0010F2DD18168174A1142FB
:100900001AD18168D5432940491C816000F052FE0C
:1009100006461BE0816811F0010F03D18168294070
:10092000491C816000F046FE801B02280ED9206819
:100930000068C043C00709D0E06D40F01000E065DA
:10094000206E40F001002066012070BD2068016823
:10095000C943C907DED1002070BD00003F00008000
:10096000FEE77047002240F6B83306E00021491C3C
:1009700089B29942FBD3521C92B28242F6D370479D
:10098000704700002DE9F047044690F858009CB0ED
:100990000E464FF00009012815D0012084F85800B8
:1009A00000251795189520684FF0A04840450ED1B6
:1009B000284F0097384602F093FE8246206802F0E6
:1009C0008FFE60B10EE002201CB0BDE8F087E06D44
:1009D00040F02000E06584F858500120F4E7BAF1B7
:1009E000000F09D0E06D40F02000E0654FF00109F4
:1009F00084F858504846E7E71748326840F61F71B8
:100A0000002A826822F4604216D094F8383042EA14
:100A1000433273681A438260D8F80820BB6802F03A
:100A2000010203F001031A43E2D1B36832681A43AA
:100A300083688B431A430BE08260D8F80820BB68B8
:100A400002F0010203F001031A43D1D182688A4304
:100A50008260CDE700010050000300502DE9F84FFF
:100A600000270446009790F85800DFF8D8930D4609
:100A7000B846012811D0012684F85860206802F099
:100A80002BFE60B1E06D40F02000E0655FF00107F3
:100A900084F858803846BDE8F88F0220FBE7D5E996
:100AA00000210C23206803EA91131844036B01F022
:100AB0001F014FF01F0C0CFA01FCC2F3846223EA01
:100AC0000C038A4013430363206802F005FE82464C
:100AD000206802F0FDFD5AEA00003CD1AA682968AE
:100AE0002068B2F1004F37D002F0FEFD2068416966
:100AF00021F00041416120686969C268C2F3C10206
:100B0000520091402A69042A31D000EB82002B6800
:100B1000026EDFF834C303F0F84302EA0C020B4321
:100B20001A4342F00041016620682A69A96900EB76
:100B30008200026E22F080720A430266297F2268D8
:100B40002869012910D0002102EB8000026E22F0FA
:100B500000720A4302667DE0002202F0C5FD2068B3
:100B6000416941F00041C5E74FF00071ECE7002119
:100B700002F0A8FD400320684FF0000172D002F09F
:100B8000A1FD90FAA0F0B0FA80F1286842036ED07F
:100B900090FAA0F0B0FA80F0814204D10022114610
:100BA000206802F0B0FD0121206802F08BFD4003B7
:100BB00020684FF001015DD002F084FD90FAA0F0B2
:100BC000B0FA80F12868420359D090FAA0F0B0FA48
:100BD00080F0814204D100220121206802F093FDBF
:100BE0000221206802F06EFD400320684FF00201F0
:100BF00048D002F067FD90FAA0F0B0FA80F12868C2
:100C0000420344D090FAA0F0B0FA80F0814204D1BF
:100C100000220221206802F076FD0321206802F004
:100C200051FD400320684FF0030133D002F04AFD2C
:100C300090FAA0F0B0FA80F1286842032FD090FA21
:100C4000A0F0B0FA80F0814204D100220321206894
:100C500002F059FD2068816811F0010F22D0A8E050
:100C600000E004E002F02EFDC0F384618DE7C0F3E4
:100C7000846091E702F026FDC0F38461A2E7C0F32F
:100C80008460A6E702F01EFDC0F38461B7E7C0F3FD
:100C90008460BBE702F016FDC0F38461CCE7C0F3CB
:100CA0008460D0E7EB6829684B4550F8B03FC1F34A
:100CB000120101D10B4300E08B430360E868484513
:100CC00077D1286841031CD090FAA0F1B1FA81F1E4
:100CD000491C01F01F0109294FEA403132D800298F
:100CE00012D000BF90FAA0F1B1FA81F101F1010137
:100CF00001F01F0106FA01F609D100BFC0F38461BB
:100D000009E0C0F38461E3E7C0F38461EEE790FAA1
:100D1000A0F1B1FA81F101F1010101F01F0146EAF0
:100D2000816102D1C0F3846003E090FAA0F0B0FAD0
:100D300080F000F1010000F01F0000EB400041EAEC
:100D4000005132E000290ED090FAA0F1B1FA81F101
:100D500001F1010101F01F0106FA01F606D100BF01
:100D6000C0F3846106E0C0F38461F1E790FAA0F17A
:100D7000B1FA81F101F1010101F01F0146EA81613F
:100D800002D1C0F3846003E090FAA0F0B0FA80F0E2
:100D900000F1010000F01F002C4A00EB400002EBC4
:100DA000005041EA000141F00071AA68206802F099
:100DB0009BFC27482A6802423FF46AAE25488168B6
:100DC000254B01F0E0719A4202D0244B9A421CD18B
:100DD0000B021AD42268B2F1A04F7FF459AE826898
:100DE00041F4000122F0E0720A4382601C481D4970
:100DF0000068B0FBF1F0401C00EB4000800000E018
:100E0000401E00900028FBD142E6174D174BAA4226
:100E100007D1CD0105D422689A42F5D041F0807106
:100E200009E0134DAA42EFD14A02EDD422689A425A
:100E3000EAD041F48001826822F0E0720A438260C5
:100E400026E6000000007F4000F0FF03000020FEC7
:100E50000000088000030050000021C31000C09073
:100E60005C000020400D0300000052C7000100504C
:100E7000000084CB0068006C70470000F8B54FF0AC
:100E8000000504002E46009502D0E06D10B107E089
:100E90000120F8BD204600F0EFF8266684F858607F
:100EA00020688168C1F3407119B181686A4A1140B4
:100EB000816020688168C1F3007189B98168674ADF
:100EC000114041F080518160654866490068B0FB7F
:100ED000F1F04000801C00E0401E00900028FBD193
:100EE00020688168C1F3007141B9E16D41F01001E2
:100EF000E165216E41F001012166012502F0ECFB64
:100F0000E16DC90600D430B1E06D40F01000E0653D
:100F100001252846F8BDE06D20F4807040F0020005
:100F2000E0652068806810F0010F11D14FF0A040FB
:100F300080684D4900F00100896801F00101084313
:100F400006D14A486168826822F47C120A438260B2
:100F5000E168E06B627F0843A16841EA42310843DF
:100F600094F8241040EA0140012904D1218D404A1F
:100F700002EB41410843E16A29B101F47871226B27
:100F8000014342EA01002168CA683A4B1A40024311
:100F9000CA6020680169626B21F040611143016100
:100FA000206802F099FB0646206802F091FB30436E
:100FB0002ED1207F94F83810800340EA4102206847
:100FC000C16844F2020399431143C16020690028BB
:100FD000206801690AD041F480310161206850F82D
:100FE000C01F22696FF30D01114307E021F4803126
:100FF0000161206850F8C01F6FF30D01016094F883
:10100000400001280CD02068016921F00101016134
:10101000606901282068016B21F00F0111D013E0F5
:10102000D4E911010843D4E913121143084321689C
:101030000A6940F2FC739A43104340F001000861D2
:10104000E6E7226A521E11430163E06D20F00200C0
:1010500040F00100E0655CE7C0FFFF5FC0FFFF7F7D
:101060005C000020400D0300000100500003005010
:101070000000FEFF0740F0FF2DE9F04397B0044663
:10108000142111A8FFF7FCF844216846FFF7F8F88F
:101090004FF0005021682D4D0327DFF8B4908613E0
:1010A0002C4C4FF00008B1F1A04F10D02A4A9142C9
:1010B00048D100960F90684600F07AFB08B1FFF720
:1010C0005FFC2868401C2860012824D02BE0009693
:1010D0000F90684600F06CFB08B1FFF751FC2868E0
:1010E000401C2860012807D1E06C40F40050E06407
:1010F000E06C00F400501690E06C40F00200E064F8
:10110000E06C11A900F0020016904FF4805081E8C5
:101110008101484614E0E06C40F40050E064E06C6B
:1011200000F400501690E06C40F00200E064E06CC7
:1011300011AA00F00200169082E8C00111A94846E9
:1011400000F00AF917B0BDE8F08300005800002055
:101150000004004800100240000100502DE9F04159
:1011600004463848806800F01F05206802F0B4FA91
:1011700018B102210846BDE8F08194F85800012812
:101180000CD0012084F858002046FFF7AFFB010087
:101190004FF0000304D084F85830EBE70220EAE770
:1011A000E06D40F60162904340F48070E065264AAD
:1011B00020684FF0A046904201D1374600E0074634
:1011C000874200D01DB9E76D27F48017E765E76D0A
:1011D000FF0404D5276E27F00607276600E0236684
:1011E0001C27076084F858302068904201D13346AC
:1011F00000E00346834215D0A5B1052D12D0092D7C
:1012000010D0E36D43F48013E365904200D1304683
:10121000C0688001AED5E06D20F4005040F48050ED
:10122000E065A7E7C268920105D5E26D22F400529D
:1012300042F48052E2658268044B1A40121D8260BB
:1012400098E700000003005000010050C0FFFF7F3E
:1012500010B590F8253000210122022B03D0042183
:10126000C163012122E003681C6824F00E041C60A5
:10127000836C1C6824F480741C6003681C6824F070
:1012800001041C6090F84430046C03F01F0302FA60
:1012900003F36360D0E913345C60436D33B11C68C1
:1012A00024F480741C60D0E916345C6080F825203A
:1012B000002280F82420084610BD70B590F8252043
:1012C000002401212346022A07D00422C26380F8A9
:1012D000251080F82430012429E00268156825F0E3
:1012E0000E0515600268156825F001051560826C11
:1012F000156825F48075156090F84420056C02F09F
:101300001F0201FA02F26A60D0E913255560426DAE
:1013100032B1156825F480751560D0E91625556041
:1013200080F8251080F82430816B01B18847204671
:1013300070BD000070B5044600F03CF90546601C25
:1013400002D004484068044400F034F9401BA04235
:10135000FAD370BD600000202DE9F04FDFF8209235
:10136000002301260324A9F1040B85B00F2709F1FE
:10137000040AABF1040EFAE006FA03F52A407CD029
:1013800091F804C00CF0030CBCF1010F02D0BCF1C9
:10139000020F26D1D0F808C0CDF800C04FEA430CA8
:1013A00004FA0CF8CDF810C0DDF800C02CEA080CE7
:1013B000CDF800C0D1F80C80DDF810C008FA0CF8A8
:1013C000DDF800C048EA0C08C0F80880D0F804C076
:1013D0002CEA050C0D79C5F300159D4045EA0C0576
:1013E00045600D79ED43AD070ED0C5684FEA43085F
:1013F00004FA08FC25EA0C05D1F808C00CFA08FC30
:101400004CEA050CC0F80CC00D7905F00305022D5F
:1014100016D1DD0800EB850CCDF808C0DCF8208083
:101420005D074FEAD56C07FA0CF528EA05080D6947
:1014300005FA0CF5DDF808C045EA0805CCF820509F
:1014400005684FEA430CCDF808C004FA0CFC25EA05
:101450000C0591F804C00CF00308DDF808C008FA88
:101460000CF848EA0508C0F800804D6815F4403FC4
:101470007CD0444DD5F860C000E077E04CF0010C22
:10148000C5F860C02D6E23F0030C05F00105009532
:101490003D4D65440295AD684FEA837C4FEA1C7868
:1014A00007FA08FC25EA0C05B0F1904F06D0DFF8EA
:1014B000DCC0604505D14FF0010C20E04FF0000C7E
:1014C0001DE0DFF8CCC0604502D14FF0020C16E001
:1014D000DFF8C0C0604502D14FF0030C0FE0DFF829
:1014E000B8C0604502D14FF0040C08E0DFF8ACC092
:1014F000604502D14FF0050C01E04FF0060C0CFAEC
:1015000008FC4CEA050C029DC5F808C0D9F800504B
:10151000CC46D1F8048095435FEAC82800D515432E
:10152000CCF80050DAF80050D446D1F80480954346
:101530005FEA882800D51543CCF80050DBF800504E
:10154000DC46D1F8048095435FEA883800D515431E
:10155000CCF80050DEF80050F446D1F804809543F2
:101560005FEAC83800D51543CCF800505B1C0A6808
:1015700032FA03F57FF400AF05B0BDE8F08F00004C
:10158000080401400010024000000140000400482F
:1015900000080048000C00480010004800140048F3
:1015A0000069084000D0012070470AB1816170478E
:1015B0008162704701488068704700006000002029
:1015C00002488168426811448160704760000020D1
:1015D00010B50024032000F073F8002000F008F894
:1015E00008B1012401E000F025F8204610BD0000FC
:1015F00070B50E4E05460024706898B14FF47A71AC
:10160000B1FBF0F00A490968B1FBF0F001F007F80E
:1016100040B9102D06D200222946501E00F030F8A5
:10162000356000E00124204670BD0000600000200D
:101630005C0000200A4882B0016E41F001010166A1
:10164000016E01F001010091816D41F080518165D1
:10165000806D00F08050009002B000F0A1B8000052
:1016600000100240002809DB00F01F020121914018
:101670004009800000F1E020C0F800117047000030
:10168000F0B40E4B1B680C46C3F30223C3F10705ED
:10169000042D00D90425191D072901D2002300E0DB
:1016A000DB1E012606FA05F1491E214099409E40A5
:1016B000761E16403143F0BC03F088BA0CED00E012
:1016C000064900F0070208684FF6FF03184040EA99
:1016D0000220034A10430860704700000CED00E050
:1016E0000000FA052B492C4B0A6832214A432B494A
:1016F00040B1B0F5007F086829D020F4C06040F404
:1017000080602CE00868C0F34120022804D051F822
:10171000800F20F4807022E0D1F8800020F48070E7
:10172000C1F88000086820F4C06040F400700860D0
:10173000B2FBF3F0401C00E0401E4A69520501D59F
:101740000028F9D1486940050AD503207047C0F345
:101750004120022806D051F8800F40F480700860C4
:1017600000207047D1F8800040F48070C1F88000FC
:10177000086820F4C06040F400700860B2FBF3F029
:10178000401C00E0401E4A695205DBD50028F9D113
:10179000D8E700005C00002040420F0000700040CD
:1017A0000248816841F480418160704700700040C8
:1017B0002DE9F8430446006800269D4D00035ED5E0
:1017C000A86D0027C00008D4A86D40F08050A8651F
:1017D000A86D012700F080500090DFF85892D9F8EA
:1017E000001041F48071C9F80010FFF7E3FE804655
:1017F00006E000BFFFF7DEFEA0EB080002282BD8B2
:10180000D9F80000C005F5D5D5F8900010F4407067
:1018100014D0216C814211D0D5F89000D5F89010E9
:1018200020F4407041F48031C5F89010D5F8901044
:1018300021F48031C5F89010C5F89000C00711D090
:10184000FFF7B8FE804641F2883907E0FFF7B2FEA5
:10185000A0EB0801494501D903260BE0D5F890001B
:101860008007F3D5D5F89000216C20F44070084330
:10187000C5F890001FB1A86D20F08050A8652078B1
:10188000C00707D0D5F88800616820F0030008433E
:10189000C5F888002078800707D5D5F88800A168AA
:1018A00020F00C000843C5F888002078400707D5D1
:1018B000D5F88800E16820F030000843C5F88800BA
:1018C0002078000707D5D5F88800216920F0C000EE
:1018D0000843C5F888002078800607D5D5F8880029
:1018E000616920F440600843C5F88800207840060C
:1018F00007D5D5F88800A16920F440500843C5F801
:1019000088002078000607D5D5F88800E16920F422
:1019100040400843C5F888002088C00507D5D5F8A1
:101920008800216A20F440300843C5F888002088E8
:10193000800507D5D5F88800616A20F44020084367
:10194000C5F88800208840050FD5D5F88800A16A21
:1019500020F440100843C5F88800A06AB0F5801F45
:1019600003D1E86840F48010E860208800050FD5B6
:10197000D5F88800E16A20F440000843C5F88800E3
:10198000E06AB0F5800F03D1E86840F48010E860A9
:101990002088C0040FD5D5F88800216B20F0407056
:1019A0000843C5F88800206BB0F1807F03D1E86858
:1019B00040F48010E86020884FF0006180040ED56C
:1019C000D5F88800626B20F040601043C5F88800AD
:1019D000606B884203D1E86840F48010E86020889A
:1019E00040040ED5D5F88800A26B20F0406010436B
:1019F000C5F88800A06B884203D1E86840F48010E5
:101A0000E860208800040FD5D5F88800E16B20F04D
:101A100040500843C5F88800E06BB0F1805F03D107
:101A2000E86840F48030E8603046BDE8F8830000A4
:101A300000100240007000402DE9F0470E460500FE
:101A40004FF0000725D0DFF8AC81D8F8000000F097
:101A50000F00B0420CD2D8F8001021F00F01314332
:101A6000C8F80010D8F8000000F00F00B04210D104
:101A70002968614CC80741F2883A5AD06868DFF893
:101A80007C91032808D0022820682DD0400500282A
:101A90002CDB0120BDE8F08720688001F9D5E068E3
:101AA00000F00302E068C0F30310401C032A19D0C1
:101AB000534A00BFB2FBF0F0E268C2F30622504383
:101AC000E268C2F34162521C5200B0FBF2F048459A
:101AD00017D9A06810F0F00F0CD0880711D5A868AE
:101AE00040B10EE0474AE5E78003D0E700F0B6F8E2
:101AF000484506D9A06820F0F00040F08000A060C2
:101B00008027A068696820F003000843A060FFF701
:101B100051FD814606E000BFFFF74CFDA0EB090137
:101B200051453AD8A068696800F00C00B0EB810F0D
:101B3000F2D12868810714D5400703D5A06840F486
:101B4000E060A0602878000705D5A06820F4605008
:101B500040F4E060A060A068A96820F0F0000843AD
:101B600004E0802F03D1A06820F0F000A060D8F836
:101B70000010404601F00F01B14216D9016821F072
:101B80000F0131430160FFF715FD074607E000BF75
:101B9000FFF710FDC11B514501D903207AE7D8F8A2
:101BA000000000F00F00B042F2D12878400705D5C0
:101BB000A068E96820F4E0600843A0602878000786
:101BC00006D5A068296920F4605040EAC100A060F1
:101BD00000F044F8A1680C4AC1F30311515C01F014
:101BE0001F01C8400949086009480068BDE8F0477E
:101BF000FFF7FEBC002002400010024000B4C40405
:101C00000024F40000366E01FC6D00085C0000202A
:101C1000600000200548064900688968054AC1F34C
:101C20000221515C01F01F01C84070475C00002098
:101C3000001002400C6E00080548064900688968DB
:101C4000054AC1F3C221515C01F01F01C840704731
:101C50005C000020001002400C6E0008184910B50E
:101C60008868C0F381021748012A0BD08A68164B96
:101C7000C2F38102022A06D08A68C2F38102032AD3
:101C800003D0002010BD184610BDCA6802F003043E
:101C9000CA68C2F30312521C032C02D0B0FBF2F04C
:101CA00001E0B3FBF2F0CA68C968C2F306225043F0
:101CB000C1F34161491C4900B0FBF1F010BD0000C7
:101CC000001002400024F40000366E012DE9F843B4
:101CD00004007AD02078FA4DC00747D0A868E96898
:101CE00000F00C0001F003010C2802D0082817D0E6
:101CF00001E0032914D06068B0F5803F17D0B0F53B
:101D0000A02F286817D020F480302860286820F49D
:101D1000802028606068E0B1FFF74CFC064614E0C4
:101D20002868800322D560680028D2D01EE0286889
:101D300040F48030EDE740F480202860F7E700BFF2
:101D4000FFF738FC801B642870D828688003F7D51B
:101D50000CE0FFF72FFC064605E000BFFFF72AFC6A
:101D6000801B6428F0D828688003F7D42078800787
:101D70004CD5A868E96800F00C0001F003010C28BC
:101D800002D004280DD001E002290AD0E068002822
:101D900028682BD040F480702860FFF70BFC0646C3
:101DA00019E02868400502D5E068002891D06868ED
:101DB000217C20F0FE4040EA01606860C148006874
:101DC000FFF716FC002800D120E076E1FFF7F2FBD8
:101DD000801B0228B8D828684005F7D56868217CA0
:101DE00020F0FE4040EA016068600FE020F480705F
:101DF0002860FFF7DFFB064605E000BFFFF7DAFBD0
:101E0000801B0228A0D828684005F7D42078000756
:101E100029D560690028D5F8940013D040F001005E
:101E2000C5F89400FFF7C6FB064606E090E000BF49
:101E3000FFF7C0FB801B022886D8D5F894008007E6
:101E4000F6D510E020F00100C5F89400FFF7B2FBD2
:101E5000064604E0FFF7AEFB801B022878D8D5F8D1
:101E600094008007F6D42078400761D5A86D00263D
:101E7000C00008D4A86D40F08050A865A86D012668
:101E800000F08050009090480168C90511D40168A5
:101E9000804641F480710160FFF78CFB074604E047
:101EA000FFF788FBC01B022852D8D8F80000C005F5
:101EB000F6D5A068012815D00528D5F8900016D0D1
:101EC00020F00100C5F89000D5F8900020F0040043
:101ED000C5F89000A06841F28838B8B1FFF76AFBF6
:101EE00007460EE0D5F8900040F00100F0E740F022
:101EF0000400C5F89000F5E7FFF75CFBC11B414506
:101F000026D8D5F890008007F6D50CE0FFF752FBF5
:101F1000074604E0FFF74EFBC11B414518D8D5F832
:101F200090008007F6D41EB1A86D20F08050A865FF
:101F30002078800629D5A0690028D5F8980013D00C
:101F400040F00100C5F89800FFF734FB064606E0B4
:101F500077E000BFFFF72EFB801B022877D8D5F86B
:101F600098008007F6D510E020F00100C5F8980031
:101F7000FFF720FB064604E0FFF71CFB801B02284E
:101F800065D8D5F898008007F6D4E069F0B3A96861
:101F9000C1F38101032961D00228286820F08070F4
:101FA00028600BD0E86820F00300E860E868474943
:101FB0000840E860FFF7FEFA04464BE0FFF7FAFA44
:101FC000064604E0FFF7F6FA801B02283FD828688F
:101FD0008001F7D4F4E908016FF00F0202EB011160
:101FE0000843218A5204490802EB4151A26841EAA0
:101FF00002210843217D4FF07E42490802EB4161F6
:102000000843217B40EAC160E96800E062E0304AB1
:1020100011400843E860286840F080702860E86854
:1020200040F08070E860FFF7C5FA044605E000BFA5
:10203000FFF7C0FA001B022809D828688001F7D5ED
:1020400048E004E0FFF7B6FA001B022802D903209B
:10205000BDE8F88328688001F4D43BE00128F7D07C
:10206000E868226A00F00301914226D1616A00F01B
:10207000F0020901103991421FD1A26A00F4FE4119
:10208000B1EB022F19D194F82C2000F07841B1EB7C
:10209000C26F12D1218E00F4C00249084905A1F592
:1020A0000011914209D194F8341000F0C060490841
:1020B0004906A1F1007181420CD00120C8E700005F
:1020C000001002406000002000700040FFFFEEFEA4
:1020D0000C809F010020BBE77047000070B50546EB
:1020E0000E480024224644700D49284600F060F84E
:1020F0000A4900222C31284600F038F808480949DE
:102100008078401CC2B28A703C2A00D18C7028466C
:10211000BDE870400022034900F0F2B8080000203A
:1021200090000020CC0100202DE9F0410446006819
:10213000456D0D4FE9074FF001084FF4003605D00B
:10214000C0F85C803E602046FFF7C8FFA80706D5B0
:1021500021680220C8653E602046FFF7BDFF84F875
:102160002580BDE8F08100001404014010B500682E
:102170000B4641680D480140080CD870C1F3042497
:102180005C7001F03F049C70C1F34231197052B988
:1021900001F038FED870587801F034FE5870987805
:1021A00001F030FE9870002010BD00003FFFFF00DE
:1021B00010B50B4601688968596001680969C1F367
:1021C0000E019960006801680D480140C1F30540A7
:1021D0001870C1F306245C7001F07F049C70890DB7
:1021E000D97052B901F00EFE1870587801F00AFE4D
:1021F0005870987801F006FE9870002010BD00001D
:102200007F7F7F0070B504004FF0010040D094F84C
:10221000250028B9002084F82400204600F03CF86E
:10222000022084F825002168CA20486221685320D2
:102230004862204601F0FCFD10BB20688169154A08
:1022400011408161216888696268A369104322692D
:102250001A43104388612189E06840EA01402168FF
:102260000861204601F009FE50B9D4E90721114365
:1022700022686369956925F060452B431943916194
:102280002268FF215162002802D1012184F8251023
:1022900070BD0000BFFF8FFB10B592B00446442113
:1022A0006846FDF7EDFF14492068884221D14FF4BC
:1022B00000200090801210906846FFF779FA08B16C
:1022C000FEF75EFB0D4850F8901F41F4004140F8C6
:1022D0003819016841F4806101600068002200F44F
:1022E0008060119011462920FFF7CAF92920FFF7D5
:1022F000B9F912B010BD00000028004000100240E3
:102300002DE9F05F044690F824000B46012844D0E4
:102310004FF0010984F824904FF0020A84F825A0B8
:102320002068002680694FEA4060AAB3002800DBDD
:10233000DE7098781978DA7840EA01405978090215
:1023400041EA8251084393F8201040EA0165D869B8
:102350005F68054358692168054398690743CA20A7
:1023600048622168532048625A6A4349B2F5807F27
:1023700022684FF400304FF0FF0893694FF47A7BE6
:1023800028D023F4085393612368C3F85CA0086045
:10239000FFF710F982464CE002E00220BDE8F09F12
:1023A000002800DBDE70187801F035FD0504587850
:1023B00001F031FD45EA0025987801F02CFD054338
:1023C000D87845EA805593F8200001F024FD45EACD
:1023D0000065BCE723F4885393612368C3F85C90DD
:1023E0000860FFF7E7F8824606E000BFFFF7E2F873
:1023F000A0EB0A00584513D82068C068C007F5D084
:1024000020680564206847642068816941F4885128
:102410001BE000BFFFF7CEF8A0EB0A00584508D933
:102420002168C1F82480032084F8250084F8246002
:10243000B4E72068C0688007ECD520688564206810
:10244000C7642068816941F4085181610A481438E1
:10245000016841F40031016007480C38016841F41B
:10246000003101602168C1F8248084F8259084F847
:102470002460002092E700001404014070B5044677
:1024800090F824000B4601281BD0012684F8246014
:10249000022084F82500B2B19878D97840EA014545
:1024A00058781978000240EA413005432168CA2073
:1024B0004862216853204862204601F0B9FCD0B13F
:1024C00020E0022070BD5878C10603D500F0EF006F
:1024D0000A305870D87801F09EFC0504587801F055
:1024E0009AFC45EA0025987801F095FC0543187898
:1024F00045EA4035DAE7084805402068456020464F
:1025000001F0BBFC2268FF21516208B984F8256004
:10251000002184F8241070BD3FFFFF002DE9F04139
:10252000044690F8240090460D46012811D001275A
:1025300084F82470022084F825002168CA204862AB
:10254000216853204862204601F072FC002618B131
:1025500029E00220BDE8F0812068B8F1000F806911
:102560004FEA406024D0002800DBEE70A87829787C
:10257000EA7840EA01406978090241EA8251084359
:1025800018490840216808602068816921F4802189
:102590008161D5E90301084321688A691043886194
:1025A000204601F06AFC2268FF215162A0B115E0CB
:1025B000002800DBEE70287801F02DFC0304687819
:1025C00001F029FC43EA0023A87801F024FC03432E
:1025D000E87843EA8050D3E784F8257084F82460D3
:1025E000B8E700007F7F7F0070B504460068C168CF
:1025F00021F02001C160FEF7DDFF05464FF47A7639
:1026000007E000BFFEF7D6FF401BB04201D9032010
:1026100070BD2068C0688006F4D5002070BD10B57C
:10262000401EB0F1807F01D3012010BD4FF0E024A7
:1026300060610F21601702F0C9FA0020A061072035
:102640002061002010BD7047704770477047704789
:1026500070470000F0B590F83C20012A3AD00125DF
:1026600080F83C50022280F83D2003685A689C683C
:10267000194E1A4FB34201D0BB4204D122F4700C60
:102680004A6842EA0C02DFF858C002EA0C02D1F8AC
:1026900000C04CEA020CC3F804C00268B2420DD07C
:1026A000B2F1804F0AD00F4B9A4207D00E4B9A429C
:1026B00004D0BA4202D00D4B9A4204D1896824F06A
:1026C00080031943916080F83D50002180F83C1050
:1026D0000846F0BD0220F0BD002C0140003401404E
:1026E0008FFFFFFD00040040000800400040014053
:1026F000704710B5040003D094F83D0010B107E016
:10270000012010BD002084F83C00204600F022F893
:10271000022084F83D00211D206801F06FFC01209B
:1027200084F8480084F83E0084F83F0084F84000B4
:1027300084F8410084F8420084F8430084F844009F
:1027400084F8450084F8460084F8470084F83D008A
:10275000002010BD08B500680B49884212D10B4813
:10276000016E41F480310166006E002200F4803079
:10277000009011461820FEF783FFBDE8084018209E
:10278000FEF770BF08BD000000400140001002408D
:1027900090F83D10012901D001207047022180F8F6
:1027A0003D100168CA6842F00102CA600068104921
:1027B00088420ED0B0F1804F0BD00E49884208D02D
:1027C0000D49884205D00D49884202D00C49884203
:1027D00007D181680B4A1140062906D0B1F5803F28
:1027E00003D0016841F00101016000207047000042
:1027F000002C01400004004000080040003401406B
:10280000004001400700010070B5044690F83C000C
:102810000025012814D0012684F83C60022084F8A9
:102820003D0022689068364B184020F47F4090604D
:10283000086870282ED010DC10F00F0F03D021E0B4
:102840004FF0020070BD4FEA2012072A1AD2DFE8CB
:1028500002F0525252524A3840002A4BC21A984251
:1028600049D009DCB0F5805F0DD0B0F5005F1CD019
:10287000B0F1101F06D13EE0102A3CD0202A3AD0F9
:10288000502A38D0012584F83D60002084F83C00AF
:10289000284670BDCB68D1E90121206801F006FC13
:1028A0002068816841F0770109E0CB68D1E9012116
:1028B000206801F0FBFB2068816841F48041816061
:1028C000E1E7CA684968206801F004FC50212068EB
:1028D00006E0CA684968206801F00DFC60212068A4
:1028E00001F0EEFBCFE7CA684968206801F0F2FB0F
:1028F00040212068F4E7226801461046F0E7000016
:1029000088FFCEFF20001000704770B504460068B5
:1029100001694FF00005C943890715D4C168C9434F
:10292000890711D4E91E01610120207720688069A0
:102930008007204602D0FFF7E7FF04E000F0E3F84D
:10294000204600F0E1F8257720680169C94349076E
:1029500017D4C168C943490713D46FF0040101615A
:10296000022020772068806910F4407F204602D042
:10297000FFF7CAFF04E000F0C6F8204600F0C4F8F4
:10298000257720680169C943090716D4C168C9437E
:10299000090712D46FF00801016104202077206834
:1029A000C0698007204602D0FFF7AEFF04E000F0C8
:1029B000AAF8204600F0A8F8257720680169C943E5
:1029C000C90617D4C168C943C90613D46FF01001F2
:1029D0000161082020772068C06910F4407F2046FC
:1029E00002D0FFF791FF04E000F08DF8204600F0E0
:1029F0008BF8257720680169C943C90708D1C168E8
:102A0000C943C90704D1891E0161204600F07EF840
:102A100020680169C943090609D4C168C943090688
:102A200005D46FF0800101612046FFF70DFE20689C
:102A30000169C943C90509D4C168C943090605D458
:102A40006FF4807101612046FFF7FDFD2068016988
:102A5000C943490609D4C168C943490605D46FF082
:102A600040010161204600F0A3F820680169C943D4
:102A7000890609D4C168C943890605D46FF02001CD
:102A800001612046FFF7E1FD20680169C943C902E1
:102A900009D4C168C943C90205D46FF4801101612A
:102AA0002046FFF7D4FD20680169C943890209D493
:102AB000C168C943890205D46FF400110161204641
:102AC000FFF7C4FD20680169C943490209D4C16800
:102AD000C943490205D46FF4800101612046FFF724
:102AE000B7FD20680169C94309020BD4C168C94315
:102AF000090207D46FF4000101612046BDE870406F
:102B0000FFF7F6BD70BD70477047000070B50068F4
:102B1000234988423ED1234D287810B1A869401C32
:102B2000A8616869502838D31F4E01213046FEF74E
:102B300037FD00B101201D4C022120703046FEF708
:102B40002FFD00B10120207204213046FEF728FD40
:102B500000B10120207401214FF09040FEF720FDCC
:102B600000B10120207600200122034604EBC001C1
:102B70004E6816B1012E09D104E014F830602EB968
:102B80004A6003E014F830602EB14B60401C04280A
:102B9000ECDB6B6170BD4A70F8E7401C686170BD8A
:102BA00000400140080000200004004870000020A0
:102BB000704790F88010012918D0012180F880100A
:102BC0002421C0F8841050F8641B0A680B6823F0B5
:102BD00001030B6022F000510022026050F8643CB7
:102BE0001960202101620277104670470220704769
:102BF0007047704770B5044690F8800001281DD0DA
:102C0000012084F880002420C4F88400206805682E
:102C1000026822F0010202602068826822F060628D
:102C20000A438260204601F079FA2068056020207E
:102C3000C4F88400002084F8800070BD022070BDBC
:102C400070B5044690F8800001281DD0012084F85A
:102C500080002420C4F8840020680568026822F0FF
:102C6000010202602068826822F060420A438260AA
:102C7000204601F053FA206805602020C4F8840043
:102C8000002084F8800070BD022070BD704770473E
:102C9000704700002DE9F04103680446D8691968BF
:102CA0009A6840F60F0528424FF0000509D18606C4
:102CB0007ED501F0200602F080573E4378D0216F88
:102CC00027E1A94EA94F16400F40374370D0C707E0
:102CD00009D0CF0507D501271F62D4F88C3043F007
:102CE0000103C4F88C3083070AD5D30708D02768BE
:102CF00002233B62D4F88C3043F00403C4F88C30D8
:102D000043070AD5D30708D0276804233B62D4F8C9
:102D10008C3043F00203C4F88C3003070CD501F06B
:102D20002003334308D0266808233362D4F88C305C
:102D300043F00803C4F88C3003050BD54B0109D5CB
:102D400026684FF400633362D4F88C3043F02003DC
:102D5000C4F88C30D4F88C30002B3AD0800609D5DA
:102D600001F0200002F08051084303D0216F09B127
:102D700020468847D4F88C0021688968490602D427
:102D800010F0280F27D0204601F088FA20688068CC
:102D900040061BD52068083050E8001F21F0400194
:102DA00040E80012002AF5D1E06F78B1704900E0E8
:102DB00017E08163E06FFEF780FA002809D0E06F2A
:102DC000816B00E02046BDE8F04108472046FFF750
:102DD0005FFFBDE8F0812046FFF75AFFC4F88C5032
:102DE000F7E7E76E2026012F7ED1C7067CD5CF06F8
:102DF0007AD51020186220688068400642D5E16FBD
:102E0000086840680004000CE3D0B4F85C208242FB
:102E1000DFD9A4F85E000868006880062BD420681B
:102E200050E8001F21F4807140E80012002AF6D11A
:102E30002068083050E8001F21F0010140E800122E
:102E4000002AF5D12068083050E8001F21F0400129
:102E500040E80012002AF5D1C4F88860E5662168D0
:102E600051E8000F20F0100041E80002002AF6D1DE
:102E7000E06FFEF7EDF9B4F85C00B4F85E10401AAC
:102E800081B22CE0B4F85C00B4F85E10401A81B254
:102E9000B4F85E0000289CD000299AD0226852E83D
:102EA000000F20F4907042E80003002BF6D12E4B67
:102EB000DB432068083050E8002F1A4040E8002724
:102EC000002FF6D1C4F88860E5662567226852E8CD
:102ED000000F20F0100042E80003002BF6D120463E
:102EE000FFF786FE75E7FFE7C70209D5570207D54A
:102EF0004FF4801018622046BDE8F041FFF7C7BECE
:102F000003060AD501F0800302F40002134304D043
:102F1000616F00297FF456AF5BE7420611D54A0680
:102F20000FD52046016851E8002F22F0400241E809
:102F30000023002BF6D1C0F88460456700F038F913
:102F400047E7020206D54A0004D52046BDE8F04115
:102F5000FFF79CBEC001C5D50029C3DA2046BDE8F5
:102F6000F041FFF746BE0000010000102001000400
:102F70008942000810B5040003D0D4F8840010B1D1
:102F800007E0012010BD002084F88000204600F0FA
:102F900027F82420C4F884002068016821F001018A
:102FA0000160204601F0BCFB0128EBD0A06A10B103
:102FB000204601F0D5F82068416821F49041416035
:102FC0002068816821F02A0181602068016841F051
:102FD000010101602046BDE8104001F025B9000064
:102FE00010B598B00446142111A8FDF749F9442101
:102FF0006846FDF745F91B492068884230D1012019
:103000000024CDE900046846FEF7D2FB08B1FDF7C5
:10301000B7FC1548016E41F480410166016E01F470
:1030200080411691C16C41F00101C164C06C11A9CD
:1030300000F0010016904FF4C06011900220CDE91D
:1030400012040720CDE914404FF09040FEF784F9B8
:10305000002211462520FEF713FB2520FEF702FB78
:1030600018B010BD003801400010024030B4D0F854
:103070008830202B20D1E1B1DAB190F88030012BDB
:103080001AD0012380F880300023C3660B4C0368FC
:10309000A3420BD05B681B0208D5046854E8003FCC
:1030A00043F0806344E80035002DF6D130BC01F0D8
:1030B00071BC012030BC70470220FBE7008000405B
:1030C0000068084988420BD10748084B816A82781A
:1030D0005A54491C01228162811C0548FFF7C6BF72
:1030E000704700000038014008000020B8000020B0
:1030F000680200202DE9F8430446D0F884001F46FA
:1031000016460D46202851D1DDB1D6B194F8800085
:1031100001284BD0012084F880004FF00008C4F84B
:103120008C802120C4F884001834FEF743FAA68767
:103130008146E68754F8100C183CB0F5805F03D048
:1031400004E00120BDE8F883206920B12E46002567
:1031500084F8808010E00026FAE78021204601F004
:10316000A5FCB8B9C6B116F8010B21688862B4F89D
:103170005600401EA4F85600B4F856004B464FF0D7
:10318000000200970028E8D14FF04001204601F0EE
:103190008DFC30B10320D5E735F8020BC0F30800F1
:1031A000E3E72020C4F884000020CBE70220C9E731
:1031B0007047FEE770B50824002500F09FFE13E07D
:1031C0006806050E002000F081FE142002F0CCF904
:1031D000142002F0C9F9012000F078FE142002F05A
:1031E000C3F900F07FFE0543641EE4B2E8D200207C
:1031F00000F06CFE142002F0B7F900F0A1FE2846A2
:1032000070BD70B50446082516E000F05FFE14207E
:1032100002F0AAF904F0800000F086FE142002F00B
:10322000A3F96006040E142002F09EF9012000F0BC
:103230004DFE142002F098F96D1EEDB24FF0000023
:10324000E3D200F043FEBDE87040142002F08CB9D8
:1032500010B5012000F068FE142002F085F901206D
:1032600000F034FE142002F07FF9002000F05CFE34
:10327000142002F079F9002000F028FEBDE810408B
:10328000142002F071B910B5002000F01FFE1420C8
:1032900002F06AF9002000F047FE142002F064F901
:1032A000012000F013FE142002F05EF9012000F06E
:1032B0003BFEBDE81040142002F056B910B50524BD
:1032C00000F01CFE142002F04FF9012000F0FEFD7A
:1032D000142002F049F905E0641EA4B2142002F0A3
:1032E00043F96CB100F0FEFD0028F5D100F028FE96
:1032F000002000F0EBFD142002F036F9002010BD94
:1033000000F01EFEFFF7BFFF012010BD00B585B025
:1033100014216846FCF7B4FF4FF6FF7000900020C0
:103320000321CDE90201019069460248FEF714F835
:1033300005B000BD0008004800B585B014216846FE
:10334000FCF79EFF4FF6FF700090012001900320D4
:1033500003900020029069460248FDF7FDFF05B08A
:1033600000BD00000008004870B500240646214654
:10337000204600F003F900F041F94FF4963530464D
:1033800000F010F9641CAC42F9D370BD30B587B0C1
:1033900014216846FCF774FF1E48C16C41F004011B
:1033A000C164C16C01F004010591C16C41F00101DF
:1033B000C164C16C01F001010591C16C41F00201D1
:1033C000C164C06C012500F0020005904FF4487004
:1033D000CDE9000500240394694602940E48FDF7E8
:1033E000BBFF280203940090CDE901544FF09044B4
:1033F00069462046FDF7B0FFFFF79EFFA06940F445
:103400008070A06104481830016841F408710160BF
:1034100007B030BD0010024000040048203AD2B28C
:10342000034B02EB420203EB021200F019B800005A
:103430002C5C0008F0B50E460746002540F23F140C
:1034400007E021463846FFF7E9FF103C6D1CA4B2A7
:10345000761C3278002A01D0142DF2D3F0BD000082
:103460002DE9F04791468A460026044600F086F88A
:10347000DFF84080012700BF00F0C0F85FF00005D2
:1034800039F8160007FA05F10842404601D1408894
:1034900000E0008800F086F86D1C102DF0D3641C4D
:1034A000E4B25146204600F069F8761C182EE3D3AA
:1034B000BDE8F0870000002010B5FFF767FF00208F
:1034C00000F014F8084CA080A088A0F50241303923
:1034D00006D000F08FFB002000F008F8A08010BD9F
:1034E00000F0FFFAF7E700000000002070B51D496A
:1034F0000A6842F400720A600A6842F480720A6044
:10350000184C103C226842F020022260164A1060DB
:10351000086840F02000086000BF00BF00BF2068BE
:1035200040F020002060206840F480702060FFF7A9
:10353000EDFE4FF09041886A40F48070886200BFD1
:1035400000BF00BF0848001F006885B2886940F4CA
:1035500080708861FFF7F0FE206840F40070206002
:10356000284670BD280400481408004801B5BDF87D
:1035700000000149488008BD0000002010B50C463D
:103580000146202000F068F82146BDE810402120C7
:1035900000F062B801B5BDF800000149088008BD1F
:1035A00000000020134A116841F4007111601149B4
:1035B00010390B6843F480730B600B6843F02003F1
:1035C0000B600D4B1860106840F02000106000BFC9
:1035D00000BF00BF086840F020000860086840F4A1
:1035E0008070086000BF00BF00BF086840F4007032
:1035F0000860704728040048140800481449086807
:1036000040F400700860086840F48070086010485A
:103610001038026842F0200202600E4B22221A602B
:103620000A6842F020020A6000BF00BF00BF0168C4
:1036300041F020010160016841F48071016000BF28
:1036400000BF00BF016841F40071016070470000D5
:103650002804004814080048184B10B51A6842F4B2
:1036600000721A601A6842F480721A60134A103AA3
:10367000146844F020041460114C2060186840F075
:103680002000186000BF00BF00BF106840F020009D
:103690001060106840F4807010602160186840F07D
:1036A0002000186000BF00BF00BF106840F020007D
:1036B0001060106840F48070106010BD280400484D
:1036C0001408004800EB8100006E00F0F8407047DD
:1036D0008068C0F3C00070478068C0F38000704706
:1036E0008068C0F380007047042303EAD15310B50B
:1036F00018444369C1F3045107248C40A3438A4012
:103700001343436110BD00EB8100016E21F00041C5
:10371000114301667047000030B58BB00024089457
:103720000994202168460A94FCF7AAFD1C484FF032
:10373000A041042501604FF40031C0E90114C460C8
:103740000461C0E90545047744770121016280F8EE
:103750002440C462046380F83840C46380F8404069
:10376000FDF78CFB08B1FDF70BF908A90C4808948C
:10377000FDF708F908B1FDF703F90A4800900620A3
:10378000CDE901047F200594CDE90305694604488D
:10379000FDF764F9002801D0FDF7F2F80BB030BD59
:1037A000F40000200008302E30B589B02021684692
:1037B000FCF766FD19481849002401604902C0E978
:1037C0000114C46004250461C0E905450477447709
:1037D0000121016280F82440C462046380F838400B
:1037E000C46380F84040FDF749FB08B1FDF7C8F815
:1037F0000B4800900620CDE901047F200594CDE917
:10380000030569460548FDF729F9002801D0FDF7B1
:10381000B7F809B030BD0000000100506001002081
:103820000080F03E2DE9F04F87B014216846FCF788
:1038300027FD4048C16C41F00401C164C16C01F036
:1038400004010591C16C41F02001C164C16C01F01B
:1038500020010591C16C41F00101C164C16C01F00E
:1038600001010591C16C41F00201C164C16C01F01C
:1038700002010591C16C41F00801C164C06CDFF820
:10388000B88000F008004FF6FF7405900022214632
:103890004046FDF78AFE4FF480764FF090490022B3
:1038A00031464846FDF781FEDFF890A00022042152
:1038B0005046FDF77AFEDFF888B04FF478770022A3
:1038C00039465846FDF771FE0125CDE90045002433
:1038D0000294694640460394FDF73EFDCDE900544D
:1038E000694648460294FDF737FD0720CDE90004FC
:1038F000694658460294FDF72FFD0096CDE9015424
:10390000694648460394FDF727FD04200090CDE961
:103910000154694650460394FDF71EFD0097CDE91A
:103920000154694658460394FDF716FD07B0BDE8FB
:10393000F08F00000010024000080048000C004812
:1039400000040048F0B587B014216846FCF798FCE5
:103950002B48002429490594C0E900147F21816087
:10396000FF21C0E903144FF080414461C0E90641E2
:103970000462FEF747FC08B1FDF702F823268DF834
:10398000006059278DF8017055208DF802000194D0
:103990000394012269461A480494FEF7BFFD08B15A
:1039A000FCF7EEFF01258DF814508DF815508DF8B9
:1039B00016508DF817402A4605A91148FEF75EFDFE
:1039C00008B1FCF7DDFF0E485621283801220670A9
:1039D000477081700B494460C0E90514C46180F8E8
:1039E00020504FF48071416201462830FEF788FC78
:1039F000002801D0FCF7C4FF07B0F0BD002800404C
:103A0000F40100200080808010B588B000241848A0
:103A10000094019402940394049405941349069429
:103A200001604F21C0E9011440F2E731C0E90314FD
:103A30008021C0E90541FEF75CFE08B1FCF7A0FF5C
:103A40004FF48050009069460948FEF7DDFE08B14A
:103A5000FCF796FF049404A905480694FEF7FAFDC6
:103A6000002801D0FCF78CFF08B010BD00400140D9
:103A70001C020020184810B5164901604FF4165179
:103A80004160002181600C22C160C0E904128161A3
:103A9000C161016241628162FFF76CFA08B1FCF713
:103AA0006FFF00210C48FFF7CBF808B1FCF768FF67
:103AB00000210948FFF79EF808B1FCF761FF0648AE
:103AC000FFF777F8002803D0BDE81040FCF758BF97
:103AD00010BD00000038014068020020FEE770477A
:103AE000704730B501210020FFF7B6FD4FF47A7022
:103AF000FCF738FF00210120FFF7AEFD41F2907185
:103B00001020FFF7A9FD4FF41C516020FFF7A4FD22
:103B100001216120FFF7A0FD02214620FFF79CFD57
:103B200048F210011320FFF797FD48F2FE01122022
:103B3000FFF792FD4FF4A0610220FFF78DFD41F2E7
:103B400030010320FFF788FD40F203342146302086
:103B5000FFF782FD21463120FFF77EFD214632200E
:103B6000FFF77AFDE51E29463320FFF775FD032197
:103B70003420FFF771FD21463520FFF76DFD14213C
:103B80003620FFF769FD21463720FFF765FD214606
:103B90003820FFF761FD21463920FFF75DFD2946FA
:103BA0003A20FFF759FD03213B20FFF755FD214641
:103BB0003C20FFF751FD4FF4A0513D20FFF74CFD95
:103BC0004FF400719220FFF747FD21469320FFF745
:103BD00043FD40F60D019020FFF73EFD41F2180134
:103BE0000320FFF739FDBDE8304040F27311072094
:103BF000FFF732BD10B543F20801E320FFF72CFDBB
:103C00001221E720FFF728FD41F23121EF20FFF7D5
:103C100023FD00210120FFF71FFD4FF4E06102208A
:103C2000FFF71AFD41F230010320FFF715FD0021D7
:103C30000420FFF711FD40F207210820FFF70CFDDB
:103C400000210920FFF708FD00210A20FFF704FDED
:103C500000210C20FFF700FD00210D20FFF7FCFCE8
:103C600000210F20FFF7F8FC00211020FFF7F4FCE3
:103C700007211120FFF7F0FC00211220FFF7ECFCD8
:103C800000211320FFF7E8FCC820FDF753FB41F2A9
:103C900090611020FFF7E0FC40F227211120FFF790
:103CA000DBFC3220FDF746FB1D211220FFF7D4FC80
:103CB0003220FDF73FFB4FF400611320FFF7CCFCEF
:103CC00014212920FFF7C8FC0B212B20FFF7C4FC8F
:103CD0003220FDF72FFB00212020FFF7BDFC002143
:103CE0002120FFF7B9FC07213020FFF7B5FC40F297
:103CF00007713120FFF7B0FC06213220FFF7ACFC42
:103D000040F204713520FFF7A7FC41F6047136201C
:103D1000FFF7A2FC04213720FFF79EFC002138208A
:103D2000FFF79AFC40F206713920FFF795FC40F24C
:103D300001713C20FFF790FC0F213D20FFF78CFC28
:103D400000215020FFF788FCEF215120FFF784FC71
:103D500000215220FFF780FC40F23F115320FFF773
:103D60007BFC4FF41C516020FFF776FC01216120A1
:103D7000FFF772FC00216A20FFF76EFC0021802013
:103D8000FFF76AFC00218120FFF766FC00218220FA
:103D9000FFF762FC00218320FFF75EFC00218420F6
:103DA000FFF75AFC00218520FFF756FC10219020D8
:103DB000FFF752FC00219220FFF74EFC03219320D5
:103DC000FFF74AFC4FF488719520FFF745FC00216E
:103DD0009720FFF741FC00219820FFF73DFC41F2BE
:103DE00018010320FFF738FCBDE8104040F27311C2
:103DF0000720FFF731BC00000148FEF795B900002D
:103E0000F4010020010901EB810100F00F0000EB3B
:103E10004100C0B270470022014602E00A39C9B22F
:103E2000521C0A29FAD2100741EA106070470000BC
:103E30002DE9F041044600680025C168490619D4FF
:103E4000C16841F08001C160FDF7B4FB06464FF444
:103E50007A78032708E000BFFDF7ACFB801B4045E4
:103E600002D9032584F825702068C068400601D473
:103E7000032DF1D12846BDE8F08170B504460068F5
:103E80000025C16821F08001C160206881694FF080
:103E90000306890607D42046FEF7A6FB98B184F8EE
:103EA000256003250FE0816921F020018161204612
:103EB000FEF79AFB10B184F825600325206881691C
:103EC00041F020018161284670BD000008B104481E
:103ED00001E003481030016841F040010160704783
:103EE0001804004810B580210348FDF759FB01284C
:103EF00000D0002010BD00000004004800B585B0CF
:103F000014216846FCF7BCF9802000900020019045
:103F1000012002900220039069460248FDF71CFA36
:103F200005B000BD0004004808B1044801E00348A2
:103F30001030016841F080010160704718040048AA
:103F400000B585B014216846FCF79AF980200090EE
:103F5000112001900020029002200390694602483F
:103F6000FDF7FAF905B000BD000400487047FDF701
:103F700027BB00B593B038216846FCF781F91421BE
:103F80000EA8FCF77DF94FF40070FDF7ABFB0A209B
:103F900000904FF480700390402004900120059021
:103FA0000220079014210890CDE909010B900C9094
:103FB0000D906846FDF78AFE0F200E9003200F90AB
:103FC000002010901190129002210EA8FDF734FDF0
:103FD00013B000BD0548016841F470010160034958
:103FE0004FF00060803908607047000088ED00E005
:103FF0000148FEF78ABC00001C0200202DE9F043B6
:104000000268234B234D244E244C4FF080499842A4
:1040100007D0484505D0A84203D0B04201D0A04205
:1040200003D122F070074A683A431D4FDFF874C08D
:10403000DFF8748098420DD048450BD0A84209D0D3
:10404000B04207D0A04205D0B84203D0604501D0AD
:10405000404503D122F44075CA682A434D6922F0D5
:1040600080022A4302608A68C2620A6882629842B9
:1040700007D0A04205D0B84203D0604501D04045EA
:1040800001D10969016301214161BDE8F0830000AC
:10409000002C0140000400400008004000340140B2
:1040A00000400140004401400048014010B58468D0
:1040B00042EA032224F47F440A432243826010BD73
:1040C0008268034B1A400A4342F00701816070473F
:1040D0008FFFCFFF10B5036A046A24F00104046265
:1040E000846924F0F00444EA021423F00A020A432B
:1040F0008461026210BD10B5036A23F010030362ED
:104100008369046A23F4704343EA023224F0A00373
:1041100043EA01118261016210BD000030B5416EB9
:10412000B9B1026891689268C1F342610B4B520FBA
:104130009C5CE50003F10804A25CB5FBF2F2A0F878
:104140006A205A5C615CD200B2FBF1F1A0F8681001
:1041500030BD0121A0F86A10F8E700002C6E0008BD
:1041600090F82810C90706D001684A68C36A22F48B
:1041700000321A434A6090F82810890706D5016872
:104180004A68036B22F480321A434A6090F8281080
:10419000490706D501684A68436B22F480221A4316
:1041A0004A6090F82810090706D501684A68836BB1
:1041B00022F400421A434A6090F82810C90606D536
:1041C00001688A68C36B22F480521A438A6090F8AF
:1041D0002810890606D501688A68036C22F400520B
:1041E0001A438A6090F82810490611D501684A6878
:1041F000436C22F480121A434A60416CB1F5801F6F
:1042000006D101684A68836C22F4C0021A434A60EE
:1042100090F82810090606D501684A68C06C22F497
:10422000002202434A607047F8B500260446C0F8F1
:104230008C60FDF7BFF90546206800686FF07E4787
:10424000000708D52B4600224FF4001120460097A6
:1042500000F02CFC60B92068006840070AD52B46A6
:1042600000224FF480012046009700F01FFC08B1A7
:104270000320F8BD2020C4F88400C4F8880044F866
:104280006C6F00202675F8BD10B5806A0021A0F87B
:104290005E10A0F85610FEF7FBFC10BD10B50268CA
:1042A00052E8001F21F4907142E80013002BF6D170
:1042B0000E4B0268083252E8001F194042E8001411
:1042C000002CF6D1C16E012908D1016851E8002FF8
:1042D00022F0100241E80023002BF6D12021C0F883
:1042E00088100021C166016710BD0000FEFFFFEFCE
:1042F00010B5B0F86020D0F888300168222B04D0C7
:10430000886940F00800886110BD496A836D1140DA
:104310001980816D891C8165B0F85E10491EA0F876
:104320005E10B0F85E100029EED1026852E8001F5E
:1043300021F4907142E80013002BF6D10168083196
:1043400051E8002F22F0010241E80023002BF5D1B3
:104350002021C0F8881000210167C26E012A02D016
:10436000FEF7AEFE10BDC166026852E8001F21F0E4
:10437000100142E80013002BF6D10168CA69D2434C
:10438000D20601D410220A62B0F85C10FEF730FCAD
:1043900010BD00002DE9F0470446B0F860600068E9
:1043A000C569D0F800A0D0F80880D4F88810222978
:1043B00005D0816941F008018161BDE8F087B4F85A
:1043C00068704FF0000963E02068406AA16D3040DA
:1043D0000880A06D801CA065B4F85E00401EA4F8A3
:1043E0005E002068C569690730D0E9070AD05FEA36
:1043F000CA5107D501210162D4F88C0040F00100B8
:10440000C4F88C00A8070BD55FEAC87008D02168F3
:1044100002200862D4F88C0040F00400C4F88C003C
:1044200068070BD55FEAC87008D0216804200862CD
:10443000D4F88C0040F00200C4F88C00D4F88C0052
:1044400020B12046FEF724FCC4F88C90B4F85E003E
:10445000F0B9216851E8000F20F4807041E80002B3
:10446000002AF6D1264A2068083050E8001F114083
:1044700040E80013002BF6D12020C4F88800C4F8CF
:104480007090E16E4846012923D02046FEF718FEC1
:104490000FB1A80698D4B4F85E0000288DD0B4F807
:1044A0006810814289D92068083050E8001F21F047
:1044B000805140E80012002AF5D112482067206898
:1044C00050E8001F41F0200140E80012002AF6D118
:1044D00073E7E066216851E8000F20F0100041E822
:1044E0000002002AF6D12068C169C943C90601D477
:1044F00010210162B4F85C102046FEF779FBC7E793
:10450000FEFFFFEFF142000810B5B0F86020D0F8D0
:1045100088300168222B04D0886940F00800886147
:1045200010BD496A1140826D1170816D491C816511
:10453000B0F85E10491EA0F85E10B0F85E100029B9
:10454000EED1026852E8001F21F4907142E8001396
:10455000002BF6D10168083151E8002F22F001024A
:1045600041E80023002BF5D12021C0F8881000215C
:104570000167C26E012A02D0FEF7A2FD10BDC1661E
:10458000026852E8001F21F0100142E80013002BDE
:10459000F6D10168CA69D243D20601D410220A6258
:1045A000B0F85C10FEF724FB10BD00002DE9F047C9
:1045B0000446B0F860600068C569D0F800A0D0F883
:1045C0000880D4F88810222905D0816941F00801BB
:1045D0008161BDE8F087B4F868704FF0000963E0CE
:1045E0002068406AA16D30400870A06D401CA06535
:1045F000B4F85E00401EA4F85E002068C569690733
:1046000030D0E9070AD05FEACA5107D5012101621B
:10461000D4F88C0040F00100C4F88C00A8070BD53A
:104620005FEAC87008D0216802200862D4F88C00C4
:1046300040F00400C4F88C0068070BD55FEAC8702E
:1046400008D0216804200862D4F88C0040F00200F1
:10465000C4F88C00D4F88C0020B12046FEF718FB7B
:10466000C4F88C90B4F85E00F0B9216851E8000FEE
:1046700020F4807041E80002002AF6D1264A206822
:10468000083050E8001F114040E80013002BF6D11D
:104690002020C4F88800C4F87090E16E48460129D3
:1046A00023D02046FEF70CFD0FB1A80698D4B4F82D
:1046B0005E0000288DD0B4F86810814289D9206846
:1046C000083050E8001F21F0805140E80012002A15
:1046D000F5D112482067216851E8000F40F0200012
:1046E00041E80002002AF6D173E7E066216851E84C
:1046F000000F20F0100041E80002002AF6D12068E7
:10470000C169C943C90601D410210162B4F85C1023
:104710002046FEF76DFAC7E7FEFFFFEF09450008E8
:104720002DE9F0410446016880682269E36910437D
:10473000626900251A431043DFF82CC20A688B4BCC
:104740001A4002430A6020684168E26821F440513F
:10475000114341602168A069614501D0226A10437C
:104760008A68834B1A4002438A602068C16A626A81
:1047700021F00F011143C1627E4923687E488B42BC
:104780000DD1D0F8880010F0030006D0012855D0D4
:10479000022842D003283FD152E001203DE0774972
:1047A0008B420BD1D0F8880010F00C0035D00428D3
:1047B00033D0082840D00C282ED141E070498B42DC
:1047C0000BD1D0F8880010F0300026D0102835D05A
:1047D000202831D030281FD132E06A498B420BD1DA
:1047E000D0F8880010F0C00017D0402826D08028CC
:1047F00022D0C02810D123E063450DD1D0F8880025
:1048000010F4406009D0B0F5806F17D0B0F5006F9C
:1048100012D0B0F5406F13D010205B495B4F0026DB
:104820004FF4004263453BD160B1022813D0042805
:104830000BD0082872D10DE00220EEE70420ECE74F
:104840000820EAE7FDF7E6F901E0FDF707FA0100C5
:1048500001D17CE01146606A37F810206768B1FB2F
:10486000F2F007EB4703834270D8B0EB073F6DD8F7
:10487000002308461946FBF7CBFC090241EA106108
:1048800002027808101871413A460023FBF7C0FC79
:104890003F4AA0F54071914258D82168C86056E05F
:1048A000E3694FF6EF7893422CD109284ED2DFE826
:1048B00000F00508114D0D4D4D4D1000FDF7AAF902
:1048C00001E0FDF7B9F9010004D140E0FDF7C6F9B8
:1048D000F9E71146606A37F81000B1FBF0F04100CB
:1048E000606801EB5001B1FBF0F0A0F1100141450F
:1048F0002CD84FF6F0710140C0F34200014320680C
:10490000C16024E0092821D2DFE800F00509122067
:104910000E2020201100FDF77DF902E016E0FDF7E2
:104920008BF9010004D112E0FDF798F9F9E711467F
:10493000606A37F81000B1FBF0F1606801EB5001DC
:10494000B1FBF0F0A0F1100141450AD90125012089
:10495000A4F86A0024F8680F2846A660E660BDE85F
:10496000F08180B299E7000000800040F369FFCF3A
:10497000FFF4FF11003801400010024000440040E5
:1049800000480040004C00400024F400146E000871
:10499000FFFC0F0070B58165A0F85C20A0F85E20D8
:1049A0000021016783684FF48055FF24AB4204D196
:1049B0000369FBB940F2FF1322E07F26C3B1B3F1D4
:1049C000805F1AD0A0F86010C0F88C102223C0F8C5
:1049D00088300368083353E8004F44F0010443E88B
:1049E0000046002EF5D1436EB3F1005F0ED032E0E9
:1049F000036943B9A0F86040E6E703691BB13F23B0
:104A0000A0F86030E0E7A0F86060DDE7B0F868305B
:104A1000934220D88268AA4201D10269CAB11F4AD2
:104A2000026780F88010016941B1026852E8001FF6
:104A300041F4807142E80013002BF6D1016808317F
:104A400051E8002F42F0805241E80023002BF5D1BD
:104A500021E0134AE4E78268AA4201D102697AB1EF
:104A6000104A026780F88010016959B1026852E863
:104A7000001F41F4907142E80013002BF6D10AE0C8
:104A8000094AEEE7026852E8001F41F0200142E8BF
:104A90000013002BF6D1002070BD0000AD450008CA
:104AA0009543000809450008F14200082DE9F04748
:104AB0009A4617460E4604464FF000094FF020086C
:104AC000089D4AE0681C48D0FCF774FDA0EB0A0082
:104AD000A8422AD84DB32068016849073DD5C0696E
:104AE000C043000539D421684FF400600862206893
:104AF00050E8001F21F4D07140E80012002AF6D1DE
:104B00002068083050E8001F21F0010140E8001241
:104B1000002AF5D144F8848FC4F80480C4F80880D2
:104B200004F8049C0320BDE8F087216851E8000FD9
:104B300020F4D07041E80002002AF6D12068083045
:104B400050E8001F21F0010140E80012002AF5D1D1
:104B500044F8848FC4F80480E2E72068C06936EA2C
:104B6000000004D00020B842ACD00020DBE70120D8
:104B7000F9E700000148FEF78DB800006802002048
:104B8000FEE700000FB4054B10B503A9044A0298D4
:104B900000F0FEF810BC5DF814FB0000755500082D
:104BA0006C0000200FB4084B10B504A902AA0398AA
:104BB00000F0EEF8044602A9002000F080FC204638
:104BC00010BC5DF814FB0000BF5400080907090E73
:104BD000002804DB00F1E02080F80014704700F0AA
:104BE0000F0000F1E02080F8141D704702E008C8B3
:104BF000121F08C1002AFAD170477047002001E057
:104C000001C1121F002AFBD1704700002DE9FF5F90
:104C100082B00021DDE90430020DDDF840B003432D
:104C200018D044F61050A2F2FF32424315141198E6
:104C300001281FD0A5EB0B00401C5FEA000A4FF0D3
:104C400000064E4FDFF83891B046504615D5CAF1F0
:104C5000000413E0119801244AA3012801D16FEA4E
:104C60000B010298119AC0E90031C0E9024206B076
:104C7000BDE8F09FCBF10000DFE704460021404A89
:104C8000491842EB0450CDE9001012E0E00707D0CC
:104C900032463B4640464946FBF7ABFB80468946D9
:104CA00032463B4610461946FBF7A3FB06460F4625
:104CB0006410002CEAD1DDE90401DDE90023BAF13A
:104CC000000F06DAFBF795FB42464B46FBF791FBDC
:104CD00005E0FBF75AFD42464B46FBF756FD0446FE
:104CE0000E460022284BFBF7D7FD03D84FF0FF30CC
:104CF000014607E00022254B20463146FBF7D2FA59
:104D0000FBF7B2FD102409E0002C0ADB0A22002385
:104D1000FBF77EFA039B30321A55641E50EA0102FB
:104D2000F2D1641C039AC4F111031444119A012AAC
:104D300003D0012208430DD10AE0084304D000202B
:104D40004FF0110B119072E7A3EB0B056D1E0DE0F8
:104D50005B4504DD4FF0000205F1010504E003DAD4
:104D60004FF00002A5F10105002AECD0029811993C
:104D7000C0E90231C0E9004579E7000000001440B5
:104D80000000F03F300000000000F0430000E03F72
:104D90002DE9FF4F95B09B468946064600250FE258
:104DA000252877D100242746F84A0121059400E000
:104DB000044316F8013F203B01FA03F01042F7D1FB
:104DC00030782A2811D06FF02F033078A0F130020C
:104DD000092A16D8059A44F0020402EB820203EB7A
:104DE00042021044761C0590EFE759F8042B059217
:104DF000002A03DA504244F40054059044F00204BF
:104E0000761C30782E2816D116F8010F44F00404D1
:104E10002A280DD06FF02F023078A0F13003092B33
:104E200009D807EB870302EB4303C718761CF3E7A7
:104E300059F8047B761C30786C280FD006DC4C289F
:104E400017D068280DD06A2814D104E0742810D037
:104E50007A280FD10DE044F400140AE044F48014E1
:104E600001E044F440147278824202D104F58014C7
:104E7000761C761C307866280BD013DC582877D047
:104E800009DC002875D04528F6D04628F4D04728FC
:104E90001AD19DE118E0632835D0642879D06528BF
:104EA00012D195E1702873D008DC6728F1D0692809
:104EB0006FD06E280DD06F2806D1B5E073282CD0A6
:104EC000752875D0782874D05A46179990476D1C6C
:104ED00075E1C4F30250022809D003280DD0D9F897
:104EE000001004280DD00D6009F1040967E1D9F81C
:104EF0000010EA17C1E90052F6E7D9F800100D805A
:104F0000F2E70D70F0E719F8041B8DF8001000208F
:104F10008DF80100EA46012003E059F804AB4FF098
:104F2000FF3061074FF0000102D40DE008F10101EC
:104F30008846B9420FDA8045F8DB1AF808100029D4
:104F4000F4D108E008F1010188468142FADB1AF841
:104F500008100029F6D105985B46A0EB080721460A
:104F60003846179A00F094FA284400EB080507E049
:104F70004DE029E10DE01AF8010B5A4617999047C8
:104F8000B8F10108F7D25B4621463846179A13E17B
:104F900042E00A220092C4F302524FF0000A022AB1
:104FA00008D059F804CB032A4FEAEC710AD00DE07F
:104FB00029E02AE009F1070121F00702F2E802C125
:104FC000914609E00FFA8CFC4FEAEC71042A03D1F8
:104FD0004FFA8CFC4FEAEC71002907DA0A460021EF
:104FE000DCF1000C61EB02012D2202E0220504D568
:104FF0002B228DF80420012203E0E20701D02022B9
:10500000F7E7904659E00A2102E010220DE0102156
:105010004FF0000A00910BE010224FF0000A44F01C
:1050200004040827009203E008224FF0000A0092CF
:10503000C4F30252022A05D059F804CB0021032AF6
:1050400008D009E009F1070121F00702F2E802C1E6
:10505000914605E01FFA8CFC042A01D10CF0FF0CEC
:105060004FF00008220728D5702806D0009B83F057
:10507000100353EA0A0305D00EE040228DF8042005
:10508000012208E05CEA010206D030228DF80420FB
:105090008DF8050002229046009B83F0080353EA36
:1050A0000A030AD15CEA010201D1620705D5302268
:1050B0008DF804204FF001087F1E582804D034A03A
:1050C00003900EA802900DE036A0F9E75346604623
:1050D000009AFBF79DF884460398825C0298401E74
:1050E000029002705CEA0100F0D1029806A9081A49
:1050F00000F1200A600702D524F4803400E0012783
:10510000574502DDA7EB0A0000E0002000EB0A0192
:10511000009005984144401A0590E00306D45B4690
:105120002146179A059800F0B3F90544002706E0D8
:1051300001A85A46C05D179990476D1C7F1C4745D2
:10514000F6DBE0030CD55B462146179A059800F084
:105150009FF9054404E030205A46179990476D1C8A
:105160000099481E00900029F5DC08E00298029999
:105170005A460078491C0291179990476D1CBAF164
:105180000001AAF1010AF1DC65E100000928010033
:1051900030313233343536373839616263646566AD
:1051A000000000003031323334353637383941426F
:1051B000434445460000000000F058F90544761CC1
:1051C000307800287FF4ECAD19B02846BDE8F08FA8
:1051D000620700D4062709F1070222F0070CFCE859
:1051E0000223E14603F000485FEA080C02D00FF208
:1051F000702C0DE05FEA045C02D50FF2682C07E02A
:105200005FEAC47C02D00FF2602C01E0AFF2700CB8
:105210004FF0FF3823F00043CDF850C065280CD084
:1052200006DC452809D046281DD047283DD13DE061
:10523000662818D067287ED138E00021112F01DBC5
:10524000112000E0781CCDE9000106A90EA8FFF7A7
:10525000DDFCDDE90F010E9A03910021009207F1B8
:10526000010A04914DE04FF000400097CDE9011094
:1052700006A90EA8FFF7CAFCDDE90F0203920E9BF8
:1052800011990022DDF80CA00093049211B9791C49
:1052900000EB010AB7EB0A0004D4C0F1FF3007F1BC
:1052A000010A0490AAEB0700019044E0012F00DA04
:1052B00001270021112F01DD112000E03846CDE942
:1052C000000106A90EA8FFF7A1FCDDE90F010E9A67
:1052D0000391002104910092BA4621070CD403994E
:1052E000514500DA8A46BAF1010F05DD009AAAF1AC
:1052F0000101515C302908D0B84202DA10F1040FE4
:1053000006DA0121CDE9011015E0AAF10101E9E772
:10531000002805DC049901440491AAEB000102E095
:10532000411C514500DD8A460499401A401C0190F9
:105330004FF000400290200704D40198504501DB53
:10534000CDF8048000208DF84F0002980DF14F0732
:10535000B0F1004F25D02B200E9002984FF002089C
:1053600000280CDA404202902D200E9007E00A211E
:105370000298FBF72FF93031029007F8011DB8F1C0
:105380000001A8F10108F2DC02980028EFD1791E93
:105390000E980870307800F0200040F0450007F8C3
:1053A000020D12A8C01B00F107081498007800B184
:1053B000012000EB0A01019801EBE07105984144DE
:1053C000401A401E0590E00306D45B462146179A1A
:1053D000059800F05DF805441498007818B15A4615
:1053E000179990476D1CE00324D55B462146179A18
:1053F000059800F04DF805441CE00498002807DBF0
:10540000DDE90301884203DD0098405C179901E063
:10541000179930205A469047049805F10105401C21
:1054200004900198401E019004D12E205A461799ED
:1054300090476D1CBAF10001AAF1010ADDDC05E01C
:1054400017F8010B5A46179990476D1CB8F10001E7
:10545000A8F10108F4DC5B462146179A0598ABE6F3
:105460002D0000002B000000200000002DE9F0417D
:10547000044600251E461746880404D405E0394634
:105480002020B0476D1C641EF9D52846BDE8F08188
:105490002DE9F041044600251E469046C80301D57B
:1054A000302700E02027880404D505E0414638462F
:1054B000B0476D1C641EF9D52846BDE8F0810A6826
:1054C000531C0B601070704770B51F4CA06A002809
:1054D00039DD002506280DD01CA11E48FFF762FB10
:1054E0001C48FAF7D8FE82B264231A491A48FDF71D
:1054F00001FE27E017481E384178302922D1C078B4
:105500003038FAF7E8FF41EC100B84ED0E0BFBF797
:1055100000F8C1B2012000F071FB9FED100B53ECBD
:10552000102B94ED0E0B51EC100BFAF762FFC4E94F
:105530000E010A20FBF7FEFE0A20FBF7FBFE09A086
:10554000FFF720FBA56270BD080000206572726F36
:10555000720D0A00D6000020680200209A999999DD
:105560009999B93F6F6B0A00002100E0491C814204
:10557000FCD3704713B54FF0FF3301226946024850
:10558000FDF7B8FD00981CBD6802002010B51E484C
:105590002DED048BFBF7E2FD1B48FBF76BFCFAF7E4
:1055A000ABFF9FED1A1B53EC112BFAF722FF9FED77
:1055B000191B53EC112BFAF71CFFFAF7EFFFFAF760
:1055C000C1FF164C9FED160B41EC180B53EC102B42
:1055D00094ED120B51EC100BFAF70BFF9FED120B31
:1055E00041EC190B53EC102B51EC180BFAF701FF9F
:1055F00053EC192BFAF756FEC4E91001C4E9120165
:10560000BDEC048B10BD0000600100200000000014
:105610000000303F6666666666660A400800002045
:10562000343333333333D33F666666666666E63FAC
:105630002DE9F04FDFF808810023424898F8011067
:10564000012925D0014698F809200D6A0C69C11D71
:105650004FF0010B91F800C04F788E78012A1ED0D0
:10566000C146024698F81180D2694FF0020AB8F19B
:10567000010F2FD099F81980B8F1010F0DD1E4076F
:1056800056D0012A3ED0022A43D0032A48D04FE008
:10569000C168491CC16088F80130BDE8F08F641C06
:1056A000284A0461E40702F1030208D01078087068
:1056B000507848709078887088F80930EDE759463E
:1056C000C0F81CB0022DF7D182F800C05770967058
:1056D0000162F1E7E1070ED0012A04D0022A05D0C9
:1056E000032A06D007E0C0F81CA004E00321C16132
:1056F00001E0C0F81CB0012D01D1C0F820A089F84C
:105700001130CAE7761CF2B28A703C2A10D18B7035
:105710000EE07F1CFAB24A703C2A09D14B7007E0B8
:105720000CF1010C0CF0FF020A70182A00D10B706A
:10573000012D01D1C0F820A089F81930ADE7000093
:10574000700000200800002038B5584C2146207C0D
:10575000496AC2074FF6FF7002D002297DD086E069
:10576000012903D1FDF700FE022060620020FDF751
:1057700011FF94ED100B4EA153EC102B5348FFF783
:1057800011FA52491820FDF755FE0020FDF702FFDF
:1057900094ED0E0B53EC102B94ED0C0B51EC100B05
:1057A000FAF727FE41EC100B49A153EC102B4748A8
:1057B000FFF7F8F945493020FDF73CFE0020FDF7E2
:1057C000E9FE94ED0E0B48A153EC102B3F48FFF778
:1057D000E9F93E494820FDF72DFE94ED0E0B53EC00
:1057E000102B94ED0C0B51EC100BFAF702FE94ED1C
:1057F000101B53EC112BFAF7B9FE02D2207BC00725
:105800002CD00020FDF7C6FE3CA13048FFF7CAF9B6
:105810002E496020FDF70EFE0020FDF7BBFE2B4851
:105820001438817800914378027839A11430FFF759
:10583000B9F926497820FDF7FDFD0020FDF7AAFE05
:105840001A48C01C817800914378027836A11F481D
:10585000FFF7A8F91D49902023E004E00020FDF7A0
:1058600099FE37A1D1E7FDF77FFD0120606200209E
:10587000FDF790FE36A11548FFF794F9134918205B
:10588000FDF7D8FD0020FDF785FE0848C01D817892
:105890000091437802781EA10C48FFF783F90B4969
:1058A0004820BDE83840FDF7C5BD000008000020D5
:1058B00020202056315F7265616C3A252E32665683
:1058C000202020202020202000000000A400002014
:1058D00020202056315F7365743A252E326656209B
:1058E00020202020202020002020204B3A252E326E
:1058F0006620202020202020200000002020204C96
:1059000045443A4F464620202020202020200000F9
:10591000202020543A25642D25642D256420202044
:105920002020202020000000202020413A25642D46
:1059300025642D2564202020202020202000000028
:105940002020204C45443A4F4E202020202020008B
:1059500020202053657474696E67000010B5FBF752
:1059600024FE064C012204212046FBF71EFE2046A1
:105970000022BDE810400421FBF717BE000C0048D0
:1059800010B501224FF47E410748FBF70EFE074C8D
:10599000012204212046FBF708FE20460022BDE834
:1059A00010400421FBF701BE00080048000C00482D
:1059B0002DE9F041174C184F4FF00005207B4FF4B4
:1059C0008076C00724D194ED0E0B53EC102B94ED90
:1059D0000C0B51EC100BFAF70CFD94ED101B53EC73
:1059E000112BFAF7C3FD11D201202070A069C8283D
:1059F00006D2002231463846BDE8F041FFF7AEBF7F
:105A0000C838C82804D9A561BDE8F0812570A56112
:105A10000122EFE708000020000800482DED028B6E
:105A2000FBF7D6FDFEF7A5FAFDF7FCFEFDF7BCFE81
:105A3000FDF772FEFDF786FFFDF7E6FFFEF71AF8A9
:105A400001222F492F48FDF711FB2F48FCF7A0FE3C
:105A500000222E492E48FCF753FC00222D492C48E9
:105A6000FCF7A6FB264900222A312948FCF77EFBD9
:105A7000FDF722FD4FF6FF742046FDF775FC20462A
:105A8000FDF774FD0020FDF785FDFF2000F048F8CC
:105A90001B4C9FED218BA41E14284FF005000BD04A
:105AA000FBF748FC84ED0E8B1421FF2000F0A6F8D4
:105AB0000A20FBF73FFC15E0FBF73CFC012000F05F
:105AC0002FF8FAF719FDC4E90E010520FBF732FCA7
:105AD00094ED0E0B53EC182B51EC100BFAF789FCDC
