:020000040800F2
:1000000070070020ED010008972500082F1D00084B
:1000100095250008850200082B2F0008000000002D
:10002000000000000000000000000000192A000885
:100030008702000800000000992500081B2A00081C
:10004000070200080702000807020008070200086C
:10005000070200080702000807020008070200085C
:10006000070200080702000807020008070200084C
:10007000070200080702000807020008070200083C
:10008000070200080000000007020008070200083D
:10009000070200080702000807020008070200081C
:1000A000AD2A00080702000807020008070200083E
:1000B00007020008B92A0008070200080702000822
:1000C00007020008070200080702000807020008EC
:1000D00007020008070200080702000807020008DC
:1000E00007020008B12800080702000807020008FC
:1000F00007020008070200080702000800000000CD
:1001000000000000070200080000000007020008CD
:1001100007020008000000000702000807020008AC
:10012000070200080702000807020008070200088B
:10013000070200080000000000000000070200089D
:10014000070200080702000800000000000000008D
:10015000000000000000000000000000000000009F
:10016000000000000000000000000000070200087E
:10017000070200080000000000000000000000006E
:10018000000000000702000800000000000000005E
:10019000000000000000000000000000000000005F
:1001A000000000000000000007020008070200082D
:1001B000070200080702000807020008000000000C
:1001C000000000000702000800000000000000001E
:1001D0000702000807020008DFF80CD000F040F822
:1001E00000480047A93800087007002006488047EB
:1001F00006480047FEE7FEE7FEE7FEE7FEE7FEE70C
:10020000FEE7FEE7FEE7FEE7912A0008D9010008B5
:10021000D2B201E000F8012B491EFBD27047002248
:10022000F6E710B513460A4604461946FFF7F0FFF5
:10023000204610BD30B50B46014600202022012487
:1002400009E021FA02F59D4205D303FA02F5491BA4
:1002500004FA02F52844151EA2F10102F1DC30BDBA
:10026000064C074D06E0E06840F0010394E8070003
:1002700098471034AC42F6D3FFF7B2FFB04C0008F9
:10028000D04C0008FEE77047002240F6B83306E085
:100290000021491C89B29942FBD3521C92B282427E
:1002A000F6D370477047000070B5044600F0FCF8C4
:1002B0000546601C02D004484068044400F0F4F88D
:1002C000401BA042FAD370BD240000202DE9FC4F52
:1002D000DFF8A0A1002301250AF1040B03244FF04D
:1002E0000F0C0BF1040EBDE005FA03F632406FD09F
:1002F0004F68012F05D0022F03D0112F01D0122FEC
:1003000017D1D0F808905F0004FA07F829EA080925
:100310000097D1F80C8008FA07F848EA0908C0F8F5
:1003200008804768B7430E79C6F300169E403E43E7
:100330004660C6684FEA430804FA08F7BE430197CF
:100340008F6807FA08F73743C7604E68022E01D05E
:10035000122E13D1DE0800EB86060096366A5F0780
:10036000FF0E0CFA07F926EA0906D1F8109009FAEF
:1003700007F949EA0609009EC6F820900668019F21
:10038000BE430F7907F0030707FA08F73743076002
:100390004E68F60065D5384E376E47F00107376670
:1003A000366E23F0030706F001060096334E3E44F6
:1003B000B146B6689F074FEA17780CFA08F7BE43B4
:1003C000B0F1904F05D02E4FB84204D1012717E06D
:1003D00047E0002714E02B4FB84201D102270FE07D
:1003E000294FB84201D103270AE0284FB84201D172
:1003F000042705E0264FB84201D1052700E0062773
:1004000007FA08F73743C9F80870DAF8006057466A
:10041000D1F8048096435FEAC83800D516433E60A1
:10042000DBF800605F46D1F8048096435FEA8838C5
:1004300000D516433E60DEF800607746D1F80480B0
:1004400096435FEAC82800D516433E60094F0C3733
:100450003E68D1F8048096435FEA882800D51643A9
:100460003E605B1C0A6832FA03F67FF43DAFBDE8DC
:10047000FC8F000000040140001002400000014019
:100480000004004800080048000C00480010004824
:10049000001400480069084000D0012070470AB1EC
:1004A0008161704781627047014880687047000031
:1004B000240000200248816842681144816070472E
:1004C0002400002010B50024032000F077F800205D
:1004D00000F008F808B1012401E000F025F82046FA
:1004E00010BD000070B50E4E05460024706898B12E
:1004F0004FF47A71B1FBF0F00A490968B1FBF0F0F2
:1005000000F066FF40B9102D06D200222946501E89
:1005100000F034F8356000E00124204670BD000092
:1005200024000020200000200B4808B5016E41F097
:1005300001010166016E01F001010091816D41F040
:1005400080518165806D00F0805000900348816883
:1005500041F48041816008BD0010024000700040FD
:10056000002809DB00F01F020121914040098000B2
:1005700000F1E020C0F8001170470000F0B40E4B0D
:100580001B680C46C3F30223C3F10705042D00D9F1
:100590000425191D072901D2002300E0DB1E0126D6
:1005A00006FA05F1491E214099409E40761E1640EC
:1005B0003143F0BC02F0CEBC0CED00E0064900F087
:1005C000070208684FF6FF03184040EA0220034A7A
:1005D00010430860704700000CED00E00000FA05D1
:1005E0002B492C4B0A6832214A432B4940B1B0F5C4
:1005F000007F086829D020F4C06040F480602CE0BF
:100600000868C0F34120022804D051F8800F20F47C
:10061000807022E0D1F8800020F48070C1F8800062
:10062000086820F4C06040F400700860B2FBF3F08A
:10063000401C00E0401E4A69520501D50028F9D14E
:10064000486940050AD503207047C0F341200228BD
:1006500006D051F8800F40F4807008600020704789
:10066000D1F8800040F48070C1F88000086820F460
:10067000C06040F400700860B2FBF3F0401C00E082
:10068000401E4A695205DBD50028F9D1D8E70000A1
:100690002000002040420F00007000402DE9F84388
:1006A0000446006800269D4D00035ED5A86D002716
:1006B000C00008D4A86D40F08050A865A86D01273F
:1006C00000F080500090DFF85892D9F8001041F403
:1006D0008071C9F80010FFF7E7FE804606E000BF12
:1006E000FFF7E2FEA0EB080002282BD8D9F80000A3
:1006F000C005F5D5D5F8900010F4407014D0216CE9
:10070000814211D0D5F89000D5F8901020F44070B7
:1007100041F48031C5F89010D5F8901021F4803163
:10072000C5F89010C5F89000C00711D0FFF7BCFEC7
:10073000804641F2883907E0FFF7B6FEA0EB0801DA
:10074000494501D903260BE0D5F890008007F3D581
:10075000D5F89000216C20F440700843C5F8900053
:100760001FB1A86D20F08050A8652078C00707D081
:10077000D5F88800616820F003000843C5F88800B8
:100780002078800707D5D5F88800A16820F00C00F4
:100790000843C5F888002078400707D5D5F88800B9
:1007A000E16820F030000843C5F888002078000791
:1007B00007D5D5F88800216920F0C0000843C5F8A6
:1007C00088002078800607D5D5F88800616920F474
:1007D00040600843C5F888002078400607D5D5F862
:1007E0008800A16920F440500843C5F888002078AB
:1007F000000607D5D5F88800E16920F44040084399
:10080000C5F888002088C00507D5D5F88800216A7A
:1008100020F440300843C5F888002088800507D5BB
:10082000D5F88800616A20F440200843C5F88800A4
:10083000208840050FD5D5F88800A16A20F4401023
:100840000843C5F88800A06AB0F5801F03D1E868A6
:1008500040F48010E860208800050FD5D5F88800A6
:10086000E16A20F440000843C5F88800E06AB0F56A
:10087000800F03D1E86840F48010E8602088C0044D
:100880000FD5D5F88800216B20F040700843C5F8DB
:100890008800206BB0F1807F03D1E86840F48010BD
:1008A000E86020884FF0006180040ED5D5F88800FC
:1008B000626B20F040601043C5F88800606B88428E
:1008C00003D1E86840F48010E860208840040ED529
:1008D000D5F88800A26B20F040601043C5F888006E
:1008E000A06B884203D1E86840F48010E86020885B
:1008F00000040FD5D5F88800E16B20F04050084384
:10090000C5F88800E06BB0F1805F03D1E86840F47F
:100910008030E8603046BDE8F883000000100240F7
:10092000007000402DE9F0470E4605004FF000072B
:1009300025D0DFF8AC81D8F8000000F00F00B042FD
:100940000CD2D8F8001021F00F013143C8F8001084
:10095000D8F8000000F00F00B04210D12968614CB7
:10096000C80741F2883A5AD06868DFF87C910328BA
:1009700008D0022820682DD0400500282CDB01205B
:10098000BDE8F08720688001F9D5E06800F0030237
:10099000E068C0F30310401C032A19D0534A00BF7B
:1009A000B2FBF0F0E268C2F306225043E268C2F301
:1009B0004162521C5200B0FBF2F0484517D9A068C2
:1009C00010F0F00F0CD0880711D5A86840B10EE0E8
:1009D000474AE5E78003D0E700F092F8484506D99A
:1009E000A06820F0F00040F08000A0608027A068A0
:1009F000696820F003000843A060FFF755FD8146B9
:100A000006E000BFFFF750FDA0EB090151453AD8C1
:100A1000A068696800F00C00B0EB810FF2D1286883
:100A2000810714D5400703D5A06840F4E060A060BA
:100A30002878000705D5A06820F4605040F4E060F5
:100A4000A060A068A96820F0F000084304E0802FAF
:100A500003D1A06820F0F000A060D8F80010404654
:100A600001F00F01B14216D9016821F00F013143A5
:100A70000160FFF719FD074607E000BFFFF714FD0F
:100A8000C11B514501D903207AE7D8F8000000F0D6
:100A90000F00B042F2D12878400705D5A068E96878
:100AA00020F4E0600843A0602878000706D5A0681D
:100AB000296920F4605040EAC100A06000F020F8ED
:100AC000A1680C4AC1F30311515C01F01F01C84039
:100AD0000949086009480068BDE8F047FFF702BD12
:100AE000002002400010024000B4C4040024F400BE
:100AF00000366E01A04C00082000002024000020D9
:100B0000184910B58868C0F381021748012A0BD034
:100B10008A68164BC2F38102022A06D08A68C2F3A1
:100B20008102032A03D0002010BD184610BDCA68F8
:100B300002F00304CA68C2F30312521C032C02D051
:100B4000B0FBF2F001E0B3FBF2F0CA68C968C2F38F
:100B500006225043C1F34161491C4900B0FBF1F04A
:100B600010BD0000001002400024F40000366E01A9
:100B70002DE9F84304007AD02078FA4DC00747D019
:100B8000A868E96800F00C0001F003010C2802D00D
:100B9000082817D001E0032914D06068B0F5803F21
:100BA00017D0B0F5A02F286817D020F48030286027
:100BB000286820F4802028606068E0B1FFF774FCAA
:100BC000064614E02868800322D560680028D2D049
:100BD0001EE0286840F48030EDE740F48020286073
:100BE000F7E700BFFFF760FC801B642870D8286817
:100BF0008003F7D50CE0FFF757FC064605E000BF81
:100C0000FFF752FC801B6428F0D828688003F7D4D3
:100C1000207880074CD5A868E96800F00C0001F046
:100C200003010C2802D004280DD001E002290AD0CB
:100C3000E068002828682BD040F480702860FFF717
:100C400033FC064619E02868400502D5E068002814
:100C500091D06868217C20F0FE4040EA0160686025
:100C6000C1480068FFF73EFC002800D120E076E193
:100C7000FFF71AFC801B0228B8D828684005F7D572
:100C80006868217C20F0FE4040EA016068600FE067
:100C900020F480702860FFF707FC064605E000BFDF
:100CA000FFF702FC801B0228A0D828684005F7D473
:100CB0002078000729D560690028D5F8940013D062
:100CC00040F00100C5F89400FFF7EEFB064606E091
:100CD00090E000BFFFF7E8FB801B022886D8D5F81C
:100CE00094008007F6D510E020F00100C5F89400CC
:100CF000FFF7DAFB064604E0FFF7D6FB801B02286D
:100D000078D8D5F894008007F6D42078400761D5CC
:100D1000A86D0026C00008D4A86D40F08050A865DA
:100D2000A86D012600F08050009090480168C90528
:100D300011D40168804641F480710160FFF7B4FB73
:100D4000074604E0FFF7B0FBC01B022852D8D8F8D2
:100D50000000C005F6D5A068012815D00528D5F8F3
:100D6000900016D020F00100C5F89000D5F8900052
:100D700020F00400C5F89000A06841F28838B8B1AE
:100D8000FFF792FB07460EE0D5F8900040F0010017
:100D9000F0E740F00400C5F89000F5E7FFF784FBAA
:100DA000C11B414526D8D5F890008007F6D50CE048
:100DB000FFF77AFB074604E0FFF776FBC11B4145CE
:100DC00018D8D5F890008007F6D41EB1A86D20F091
:100DD0008050A8652078800629D5A0690028D5F81C
:100DE000980013D040F00100C5F89800FFF75CFBB5
:100DF000064606E077E000BFFFF756FB801B02289F
:100E000077D8D5F898008007F6D510E020F00100DB
:100E1000C5F89800FFF748FB064604E0FFF744FBDF
:100E2000801B022865D8D5F898008007F6D4E069C1
:100E3000F0B3A968C1F38101032961D002282868B1
:100E400020F0807028600BD0E86820F00300E86094
:100E5000E86847490840E860FFF726FB04464BE096
:100E6000FFF722FB064604E0FFF71EFB801B02286B
:100E70003FD828688001F7D4F4E908016FF00F0229
:100E800002EB01110843218A5204490802EB415147
:100E9000A26841EA02210843217D4FF07E424908C1
:100EA00002EB41610843217B40EAC160E96800E050
:100EB00062E0304A11400843E860286840F08070E2
:100EC0002860E86840F08070E860FFF7EDFA0446BB
:100ED00005E000BFFFF7E8FA001B022809D82868E0
:100EE0008001F7D548E004E0FFF7DEFA001B022896
:100EF00002D90320BDE8F88328688001F4D43BE0E0
:100F00000128F7D0E868226A00F00301914226D157
:100F1000616A00F0F0020901103991421FD1A26A02
:100F200000F4FE41B1EB022F19D194F82C2000F00F
:100F30007841B1EBC26F12D1218E00F4C002490892
:100F40004905A1F50011914209D194F8341000F03F
:100F5000C06049084906A1F1007181420CD001200E
:100F6000C8E700000010024024000020007000408C
:100F7000FFFFEEFE0C809F010020BBE7704770472B
:100F80002DE9F04781460F4804680F4EDFF83C809A
:100F9000E0074FF001054FF4003705D03560C8F881
:100FA00000704846FFF7EBFFA00706D5022030602F
:100FB000C8F800704846FFF7E1FF89F82550BDE802
:100FC000F0870000542800405C28004014040140D1
:100FD00070B504004FF001003ED094F8250028B908
:100FE000002084F82400204600F03CF8022084F819
:100FF00025001A4ECA20306053203060204601F090
:1010000069FC10BB154D0C3D286815490840286047
:1010100028686168A2690843216911430843286070
:101020002189E06840EA01400C49143908602046F3
:1010300001F076FC48B9D4E90721114362692B68B5
:1010400023F060431A4311432960FF2131600028D7
:1010500002D1012184F8251070BD00002428004031
:10106000BFFF8FFB10B50068094988420FD10948BE
:1010700050F8901F41F400410160002211462920E0
:10108000FFF77CFABDE810402920FFF769BA10BDD0
:1010900000280040001002402DE9F05F044690F85F
:1010A00024000B46012848D04FF0010B84F824B0EF
:1010B000022084F825005948002600684FEA406065
:1010C000D2B3002800DBDE7098781978DA7840EA2D
:1010D00001405978090241EA8251084393F82010EF
:1010E00040EA0165D8695F6805435869DFF82C91CB
:1010F0000543986909F10C090743CA21C9F8001092
:101100005321C9F800104549586A4431B0F5807F31
:101110004248434B4FF40032D0F800C04FF0FF0A72
:1011200028D02CF4085CC0F800C0022008601A60C7
:10113000FFF7BAF980464EE002E00220BDE8F09FDA
:10114000002800DBDE70187801F0B8FB0504587841
:1011500001F0B4FB45EA0025987801F0AFFB0543A8
:10116000D87845EA805593F8200001F0A7FB45EABE
:101170000065B7E72CF4885CC0F800C0C1F800B087
:101180001A60FFF791F9804607E000BFFFF78CF97E
:10119000A0EB0800B0F57A7F15D820480C3800681D
:1011A000C007F3D01D4828300560001D07601B48AC
:1011B000016841F488511CE0FFF776F9A0EB0800C4
:1011C000B0F57A7F07D9C9F800A0032084F825007C
:1011D00084F82460B2E711480C3800688007EBD52A
:1011E0000E4830300560001D07600C48016841F46E
:1011F000085101600A481438016841F40031016067
:1012000007480C38016841F400310160C9F800A0BA
:1012100084F825B084F8246000208FE71828004067
:10122000140401402DE9F041044690F824000B46D7
:1012300001281AD0012684F82460022084F82500B1
:10124000B2B19878D97840EA014558781978000207
:1012500040EA413005431B4FCA20386053203860B4
:10126000204601F037FBD8B122E00220BDE8F08132
:101270005878C10603D500F0EF000A305870D878CE
:1012800001F01CFB0504587801F018FB45EA002525
:10129000987801F013FB0543187845EA4035DAE702
:1012A00009480540074820380560204601F038FB12
:1012B000FF21396008B984F82560002184F82410E2
:1012C000D4E70000242800403FFFFF002DE9F0474D
:1012D000054690F8240017460C46012814D04FF01C
:1012E000010985F82490022085F82500DFF8A48004
:1012F000CA21C8F800105321C8F80010284601F090
:10130000E9FA002618B127E00220BDE8F087214B5A
:101310000C3B18684FEA40601FB3002800DBE67002
:10132000A0782178E27840EA01406178090241EA38
:101330008251084318490840164924390860186842
:1013400020F480201860D4E9030108431968084399
:101350001860284601F0E4FAFF22C8F80020A0B186
:1013600015E0002800DBE670207801F0A7FA0704FA
:10137000607801F0A3FA47EA0027A07801F09EFA0E
:101380000743E07847EA8050D4E785F8259085F850
:101390002460BAE7242800407F7F7F0070B50B4DA2
:1013A000286860F0A0002860FFF77EF804464FF43C
:1013B0007A7606E0FFF778F8001BB04201D90320E7
:1013C00070BD28688006F5D5002070BD0C2800404F
:1013D00010B5401EB0F1807F01D3012010BD4FF049
:1013E000E02460610F21601701F0B4FD0020A061CE
:1013F00007202061002010BD704770477047000033
:10140000F0B590F83C20012A4AD0012280F83C2017
:10141000CA688B6822F440721A434B6822F48062D7
:101420001A430B6822F400621A430B6922F48052BB
:101430001A434B6922F400521A430B6B22F4804288
:101440001A430B8B22F4702242EA0342154C0368C4
:101450000026154DA34201D0AB4203D1CF6922F043
:1014600080523A43A34201D0AB4214D10F8D22F4F3
:10147000700242EA07520F6A22F080723A434F6AC2
:1014800022F000723A43A34201D0AB4203D1C96AB1
:1014900022F000520A435A6480F83C600020F0BDFC
:1014A0000220F0BD002C014000340140704770471D
:1014B00070470000F0B590F83C20012A3AD0012591
:1014C00080F83C50022280F83D2003685A689C68EE
:1014D000194E1A4FB34201D0BB4204D122F4700C12
:1014E0004A6842EA0C02DFF858C002EA0C02D1F85E
:1014F00000C04CEA020CC3F804C00268B2420DD02E
:10150000B2F1804F0AD00F4B9A4207D00E4B9A424D
:1015100004D0BA4202D00D4B9A4204D1896824F01B
:1015200080031943916080F83D50002180F83C1001
:101530000846F0BD0220F0BD002C014000340140FF
:101540008FFFFFFD00040040000800400040014004
:10155000704710B5040003D094F83D0010B107E0C7
:10156000012010BD002084F83C00204600F022F845
:10157000022084F83D00211D206801F0A3FA01201B
:1015800084F8480084F83E0084F83F0084F8400066
:1015900084F8410084F8420084F8430084F8440051
:1015A00084F8450084F8460084F8470084F83D003C
:1015B000002010BD08B51A4A01681A4891420ED1A0
:1015C000816D41F002018165806D002200F0020012
:1015D000009011461D20FEF7D1FF1D2010E0124A99
:1015E000914211D1016E41F480310166006E0022FA
:1015F00000F48030009011461820FEF7BFFF18203D
:10160000BDE80840FEF7ACBF084A914207D1016E21
:1016100041F400310166006E00F40030009008BD16
:10162000000400400010024000400140004401401E
:1016300090F83D10012901D001207047022180F867
:101640003D100168CA6842F00102CA600068816802
:10165000064A1140062906D0B1F5803F03D0016843
:1016600041F0010101600020704700000700010007
:1016700070B5044690F83C00012815D0012584F887
:101680003C50022084F83D0022689068354B184099
:1016900020F47F4090600868B0F5805F50D010DC87
:1016A00010F00F0F03D04BE04FF0020070BD4FEA77
:1016B0002012082A44D2DFE802F051515151493238
:1016C0003A1B294BC21A984248D00ADCB0F5005F99
:1016D00019D0B0F1101F41D0A0F5801120392FD1C1
:1016E0003CE0102A3AD0302A38D0402A28D135E0C0
:1016F000CB68D1E90121206801F049FA20688168AE
:1017000041F0770109E0CB68D1E90121206801F0BF
:101710003EFA2068816841F48041816010E0CA6827
:101720004968206801F0DEFB5021206806E0CA68A5
:101730004968206801F0E7FB6021206801F032FA77
:1017400084F83D50002084F83C0070BDCA684968A8
:10175000206801F0C7FB40212068EFE722680146BE
:101760001046EBE788FFCEFF30001000704770B5E1
:101770000446006801694FF00005C943890715D484
:10178000C168C943890711D4E91E0161012020778E
:10179000206880698007204602D0FFF7E7FF04E059
:1017A00000F00CF9204600F0CBF92577206801699C
:1017B000C943490717D4C168C943490713D46FF017
:1017C00004010161022020772068806910F4407FC5
:1017D000204602D0FFF7CAFF04E000F0EFF82046F1
:1017E00000F0AEF9257720680169C943090716D4CE
:1017F000C168C943090712D46FF0080101610420D0
:1018000020772068C0698007204602D0FFF7AEFF2E
:1018100004E000F0D3F8204600F092F92577206824
:101820000169C943C90617D4C168C943C90613D49D
:101830006FF010010161082020772068C06910F462
:10184000407F204602D0FFF791FF04E000F0B6F899
:10185000204600F075F9257720680169C943C9075A
:1018600008D1C168C943C90704D1891E0161204656
:1018700000F0D2F920680169C943090609D4C1689A
:10188000C943090605D46FF0800101612046FFF7C6
:10189000B4FD20680169C943C90509D4C168C943B9
:1018A000090605D46FF4807101612046FFF7A4FD9D
:1018B00020680169C943490609D4C168C94349067A
:1018C00005D46FF040010161204600F02FFA206836
:1018D0000169C943890609D4C168C943890605D489
:1018E0006FF0200101612046FFF788FD2068016943
:1018F000C943C90209D4C168C943C90205D46FF4F8
:10190000801101612046FFF7D2FD20680169C943BB
:10191000890209D4C168C943890205D46FF4001152
:1019200001612046FFF7C2FD20680169C9434902F1
:1019300009D4C168C943490205D46FF4800101612B
:101940002046FFF7B5FD20680169C94309020BD4A1
:10195000C168C943090207D46FF400010161204640
:10196000BDE87040FFF7F4BD70BD000010B586B053
:10197000044614216846FEF752FC0E49206888424E
:1019800016D10D48C16C41F00101C164C06C6946BB
:1019900000F00100059040200090022001900020FE
:1019A00002900390012004904FF09040FEF78EFCCF
:1019B00006B010BD0044014000100240704770B5F1
:1019C000044690F83C000D4601280BD0012084F815
:1019D0003C000C2A45D007DC5AB1042A1BD0082A47
:1019E00078D12CE0022070BD102A4ED0142A71D17B
:1019F0005DE0206801F0E0F82068816941F00801AD
:101A000081612068816921F0040181612068816918
:101A10002A69114311E0206801F01CF920688169EE
:101A200041F4006181612068816921F480618161F4
:101A3000206881692A6941EA022181614AE02068BF
:101A400001F050F92068C16941F00801C1612068C6
:101A5000C16921F00401C1612068C1692A6911438B
:101A600011E0206801F086F92068C16941F4006145
:101A7000C1612068C16921F48061C1612068C169C8
:101A80002A6941EA0221C16124E0206801F0BAF923
:101A90002068016D41F0080101652068016D21F0A9
:101AA000040101652068016D2A69114311E0206875
:101AB00001F0E0F92068016D41F4006101652068E2
:101AC000016D21F4806101652068016D2A6941EA98
:101AD00002210165002084F83C0070BD10B50400AF
:101AE00003D094F83D0010B107E0012010BD0020A4
:101AF00084F83C00204600F022F8022084F83D00E3
:101B0000211D206800F0DEFF012084F8480084F8E1
:101B10003E0084F83F0084F8400084F8410084F8D7
:101B2000420084F8430084F8440084F8450084F8B7
:101B3000460084F8470084F83D00002010BD70473F
:101B40007047000010B50446022269B1042912D082
:101B5000082917D00C291CD0102921D094F8430053
:101B6000012824D0012010BD94F83E000128F9D1AD
:101B700084F83E201DE094F83F000128F2D184F85B
:101B80003F2016E094F840000128EBD184F8402073
:101B90000FE094F841000128E4D184F8412008E0E6
:101BA00094F842000128DDD184F8422001E084F855
:101BB00043200122206800F0DDFF1149206888429F
:101BC0000BD01049884208D00F49884205D00F49F0
:101BD000884202D00E49884203D1416C41F4004151
:101BE0004164206881680B4A1140062906D0B1F58E
:101BF000803F03D0016841F001010160002010BD69
:101C0000002C0140003401400040014000440140EC
:101C100000480140070001002DE9F0413E4A0168FB
:101C20003E4C002591421AD13D49226901EB4211F7
:101C3000CA69012A13D18A68521C8A603C2A03DDD2
:101C40004A68521CC1E901254A683C2A03DD0A683A
:101C5000521CC1E900250A68182A00DB0D600168E2
:101C6000304881424ED1207818B1E068401CE060D5
:101C700000E0E5602C4F01213846FEF70BFC00B177
:101C80000120274E0221403EB0703846FEF702FC8C
:101C900000B10120B07404213846FEF7FBFB00B10F
:101CA000012086F8220001214FF09040FEF7F2FB60
:101CB00000B1012086F832006069282829DD002162
:101CC0005FF0010206EB0110436823B1012B07D03E
:101CD000022B13D109E0856083787BB942600DE067
:101CE0008378A3B90223436008E08378012B8368DB
:101CF0000AD05B1C8360142B00DB4270491C042952
:101D0000E0DB6561BDE8F081142B00DA027045600C
:101D1000F4E7401C6061F5E7000400400800002083
:101D20007000002000400140000400487047FEE7BA
:101D300070B50824002500F037FE13E06806050E94
:101D4000002000F019FE142001F0CAFA142001F05E
:101D5000C7FA012000F010FE142001F0C1FA00F0D3
:101D600017FE0543641EE4B2E8D2002000F004FE32
:101D7000142001F0B5FA00F039FE284670BD70B5A8
:101D80000446082516E000F0F7FD142001F0A8FA3B
:101D900004F0800000F01EFE142001F0A1FA60069D
:101DA000040E142001F09CFA012000F0E5FD14203F
:101DB00001F096FA6D1EEDB24FF00000E3D200F094
:101DC000DBFDBDE87040142001F08ABA10B5012097
:101DD00000F000FE142001F083FA012000F0CCFD99
:101DE000142001F07DFA002000F0F4FD142001F031
:101DF00077FA002000F0C0FDBDE81040142001F08B
:101E00006FBA10B5002000F0B7FD142001F068FA99
:101E1000002000F0DFFD142001F062FA012000F044
:101E2000ABFD142001F05CFA012000F0D3FDBDE809
:101E30001040142001F054BA10B5052400F0B4FD90
:101E4000142001F04DFA012000F096FD142001F05D
:101E500047FA05E0641EA4B2142001F041FA6CB107
:101E600000F096FD0028F5D100F0C0FD002000F044
:101E700083FD142001F034FA002010BD00F0B6FDFF
:101E8000FFF7BFFF012010BD00B585B014216846E3
:101E9000FEF7C5F94FF6FF70009000200321CDE951
:101EA0000201019069460248FEF710FA05B000BD34
:101EB0000008004800B585B014216846FEF7AFF968
:101EC0004FF6FF7000900120019003200390002046
:101ED000029069460248FEF7F9F905B000BD00001E
:101EE0000008004870B5002406462146204600F050
:101EF00003F900F041F94FF49635304600F010F93F
:101F0000641CAC42F9D370BD30B587B0142168466B
:101F1000FEF785F91E48C16C41F00401C164C16C33
:101F200001F004010591C16C41F00101C164C16C73
:101F300001F001010591C16C41F00201C164C06C66
:101F4000012500F0020005904FF44870CDE900052E
:101F500000240394694602940E48FEF7B7F928025C
:101F600003940090CDE901544FF090446946204617
:101F7000FEF7ACF9FFF79EFFA06940F48070A06106
:101F800004481830016841F40871016007B030BDA1
:101F90000010024000040048203AD2B2034B02EB8A
:101FA000420203EB021200F019B80000D03A000818
:101FB000F0B50E460746002540F23F1407E02146E3
:101FC0003846FFF7E9FF103C6D1CA4B2761C32784E
:101FD000002A01D0142DF2D3F0BD00002DE9F04706
:101FE00091468A460026044600F086F8DFF84080D5
:101FF000012700BF00F0C0F85FF0000539F81600B7
:1020000007FA05F10842404601D1408800E0008807
:1020100000F086F86D1C102DF0D3641CE4B251461C
:10202000204600F069F8761C182EE3D3BDE8F0874F
:102030000000002010B5FFF767FF002000F014F843
:10204000084CA080A088A0F50241303906D000F0ED
:102050002DFB002000F008F8A08010BD00F09DFAD4
:10206000F7E700000000002070B51D490A6842F43F
:1020700000720A600A6842F480720A60184C103CD0
:10208000226842F020022260164A1060086840F080
:102090002000086000BF00BF00BF206840F02000A3
:1020A0002060206840F480702060FFF7EDFE4FF064
:1020B0009041886A40F48070886200BF00BF00BF12
:1020C0000848001F006885B2886940F48070886104
:1020D000FFF7F0FE206840F400702060284670BDD5
:1020E000280400481408004801B5BDF80000014963
:1020F000488008BD0000002010B50C460146202095
:1021000000F068F82146BDE81040212000F062B8D8
:1021100001B5BDF800000149088008BD000000209D
:10212000134A116841F400711160114910390B68AC
:1021300043F480730B600B6843F020030B600D4B7E
:102140001860106840F02000106000BF00BF00BFA2
:10215000086840F020000860086840F4807008605B
:1021600000BF00BF00BF086840F4007008607047FF
:1021700028040048140800481449086840F4007016
:102180000860086840F480700860104810380268E1
:1021900042F0200202600E4B22221A600A6842F0CE
:1021A00020020A6000BF00BF00BF016841F02001AB
:1021B0000160016841F48071016000BF00BF00BF91
:1021C000016841F400710160704700002804004874
:1021D00014080048184B10B51A6842F400721A60CF
:1021E0001A6842F480721A60134A103A146844F074
:1021F00020041460114C2060186840F02000186022
:1022000000BF00BF00BF106840F0200010601068E1
:1022100040F4807010602160186840F02000186061
:1022200000BF00BF00BF106840F0200010601068C1
:1022300040F48070106010BD280400481408004865
:102240002DE9F04F87B014216846FDF7E8FF4048BC
:10225000C16C41F00401C164C16C01F0040105913D
:10226000C16C41F02001C164C16C01F020010591F5
:10227000C16C41F00101C164C16C01F00101059123
:10228000C16C41F00201C164C16C01F00201059111
:10229000C16C41F00801C164C06CDFF8B88000F087
:1022A00008004FF6FF740590002221464046FEF7D5
:1022B000F6F84FF480764FF09049002231464846B8
:1022C000FEF7EDF8DFF890A0002204215046FEF75B
:1022D000E6F8DFF888B04FF47877002239465846A0
:1022E000FEF7DDF80125CDE900450024029469469A
:1022F00040460394FDF7EAFFCDE90054694648469D
:102300000294FDF7E3FF0720CDE900046946584633
:102310000294FDF7DBFF0096CDE90154694648467B
:102320000394FDF7D3FF04200090CDE901546946E2
:1023300050460394FDF7CAFF0097CDE90154694662
:1023400058460394FDF7C2FF07B0BDE8F08F0000C8
:102350000010024000080048000C0048000400483B
:1023600030B591B014210AA8FDF759FF00242821A7
:1023700068460F94FDF753FF27482649C0E900142B
:102380007F218160FF21C0E9031444610462FEF7EC
:102390001FFE08B1FDF786FF8DF828408DF8294013
:1023A0008DF82A400B940D9401220AA91A480E9424
:1023B000FEF78CFF08B1FDF775FF01258DF83C5045
:1023C0008DF83D508DF83E508DF83F402A460FA9BC
:1023D0001148FEF727FF08B1FDF764FF8DF80040B4
:1023E0008DF801408DF802500C480194CDE90504A8
:1023F0004FF48070099007948DF8205001226946AF
:102400000548FEF749FE002801D0FDF74BFF11B04B
:1024100030BD000000280040640200200080808061
:1024200010B588B0002418480094019402940394D5
:10243000049405941349069401604C21C0E90114E9
:102440004FF47971C0E903148021C0E90541FFF719
:1024500080F808B1FDF726FF4FF4805000906946E0
:102460000948FFF705F908B1FDF71CFF049404A91A
:1024700005480694FFF71EF8002801D0FDF712FF6B
:1024800008B010BD00400140D802002010B594B043
:102490001C210DA8FDF7C3FE34216846FDF7BFFEE1
:1024A00020481F490024016040F21F31C0E9011497
:1024B0006321C0E903148021C0E90541FFF749F811
:1024C00008B1FDF7EFFE1748FFF708FB08B1FDF76D
:1024D000E9FE6020CDE90D040F941094119412943C
:1024E00000220DA90F481394FFF769FA08B1FDF710
:1024F000D9FE00944FF40050CDE9044001940294B9
:1025000003940694694607480C94FEF779FF08B1D6
:10251000FDF7C8FE0348FFF729FA14B010BD00000C
:10252000004401402403002010B588B0002418485E
:10253000009401940294039404940594134906941E
:10254000016041F63F71C0E9011442F20F71C0E928
:10255000031480218161FEF7FCFF08B1FDF7A2FEA4
:102560004FF48050009069460948FFF781F808B1A0
:10257000FDF798FE049404A905480694FEF79AFF17
:10258000002801D0FDF78EFE08B010BD0004004009
:102590008C020020FEE77047704730B50121002013
:1025A000FFF718FE4FF47A70FDF76EFE0021012050
:1025B000FFF710FE41F290711020FFF70BFE4FF471
:1025C0001C516020FFF706FE01216120FFF702FE8B
:1025D00002214620FFF7FEFD48F210011320FFF70D
:1025E000F9FD48F2FE011220FFF7F4FD4FF4A0615F
:1025F0000220FFF7EFFD41F230010320FFF7EAFD73
:1026000040F2033421463020FFF7E4FD214631201B
:10261000FFF7E0FD21463220FFF7DCFDE51E2946ED
:102620003320FFF7D7FD03213420FFF7D3FD2146E8
:102630003520FFF7CFFD14213620FFF7CBFD2146D3
:102640003720FFF7C7FD21463820FFF7C3FD21469D
:102650003920FFF7BFFD29463A20FFF7BBFD0321D4
:102660003B20FFF7B7FD21463C20FFF7B3FD4FF4B9
:10267000A0513D20FFF7AEFD4FF400719220FFF70F
:10268000A9FD21469320FFF7A5FD40F60D019020FE
:10269000FFF7A0FD41F218010320FFF79BFDBDE805
:1026A000304040F273110720FFF794BD10B543F29C
:1026B0000801E320FFF78EFD1221E720FFF78AFDD6
:1026C00041F23121EF20FFF785FD00210120FFF7C6
:1026D00081FD4FF4E0610220FFF77CFD41F2300103
:1026E0000320FFF777FD00210420FFF773FD40F280
:1026F00007210820FFF76EFD00210920FFF76AFD82
:1027000000210A20FFF766FD00210C20FFF762FD83
:1027100000210D20FFF75EFD00210F20FFF75AFD7D
:1027200000211020FFF756FD07211120FFF752FD71
:1027300000211220FFF74EFD00211320FFF74AFD74
:10274000C820FDF7B1FD41F290611020FFF742FD76
:1027500040F227211120FFF73DFD3220FDF7A4FDB7
:102760001D211220FFF736FD3220FDF79DFD4FF4AD
:1027700000611320FFF72EFD14212920FFF72AFD09
:102780000B212B20FFF726FD3220FDF78DFD0021C8
:102790002020FFF71FFD00212120FFF71BFD07214F
:1027A0003020FFF717FD40F207713120FFF712FDCF
:1027B00006213220FFF70EFD40F204713520FFF7AD
:1027C00009FD41F604713620FFF704FD042137208E
:1027D000FFF700FD00213820FFF7FCFC40F20671F6
:1027E0003920FFF7F7FC40F201713C20FFF7F2FCC3
:1027F0000F213D20FFF7EEFC00215020FFF7EAFCFF
:10280000EF215120FFF7E6FC00215220FFF7E2FC08
:1028100040F23F115320FFF7DDFC4FF41C516020C4
:10282000FFF7D8FC01216120FFF7D4FC00216A20CA
:10283000FFF7D0FC00218020FFF7CCFC0021812095
:10284000FFF7C8FC00218220FFF7C4FC0021832091
:10285000FFF7C0FC00218420FFF7BCFC002185208D
:10286000FFF7B8FC10219020FFF7B4FC0021922064
:10287000FFF7B0FC03219320FFF7ACFC4FF4887105
:102880009520FFF7A7FC00219720FFF7A3FC00216C
:102890009820FFF79FFC41F218010320FFF79AFCF4
:1028A000BDE8104040F273110720FFF793BC000011
:1028B0000148FEF765BB00006402002000220146CB
:1028C00002E00A39C9B2521C0A29FAD2100741EAB9
:1028D000106070472DE9F047104C814600252068B4
:1028E000400618D4206840F080002060FDF7DCFD31
:1028F00006464FF47A78032708E000BFFDF7D4FDC1
:10290000801B404502D9032589F8257020684006C0
:1029100001D4032DF2D12846BDE8F0870C280040F1
:102920002DE9F041064613480025016821F0800199
:102930000160104C0C3420684FF00307800607D468
:102940003046FEF72BFD90B186F8257003250EE08A
:10295000206820F0200020603046FEF71FFD10B1F7
:1029600086F825700325206840F020002060284666
:10297000BDE8F0810C28004008B1044801E003489C
:102980001030016841F040010160704718040048B0
:1029900010B580210348FDF77DFD012800D00020FF
:1029A00010BD00000004004800B585B01421684641
:1029B000FDF735FC8020009000200190012002905E
:1029C0000220039069460248FDF780FC05B000BD77
:1029D0000004004808B1044801E0034810300168D1
:1029E00041F08001016070471804004800B585B0CF
:1029F00014216846FDF713FC8020009011200190FF
:102A0000002002900220039069460248FDF75EFC18
:102A100005B000BD000400487047FDF74BBD30B560
:102A2000A5B038216846FDF7FAFB14211FA8FDF771
:102A3000F6FB44210EA8FDF7F2FB4FF40075284683
:102A4000FDF7CEFD09200090E801019001200590DE
:102A500002210324CDE907141420CDE90A010994C9
:102A60000C9168460D91FEF783F80021CDE92041D5
:102A70000F201F902291239103211FA8FDF752FFE1
:102A8000A8020E901E950EA8FDF708FE25B030BDD9
:102A90000548016841F47001016003494FF000608E
:102AA000803908607047000088ED00E00148FEF7BB
:102AB0005EBE0000D80200200148FEF758BE0000AC
:102AC0008C0200202DE9F0430268234B234D244E55
:102AD000244C4FF08049984207D0484505D0A84281
:102AE00003D0B04201D0A04203D122F070074A685F
:102AF0003A431D4FDFF874C0DFF8748098420DD060
:102B000048450BD0A84209D0B04207D0A04205D01A
:102B1000B84203D0604501D0404503D122F440754E
:102B2000CA682A434D6922F080022A4302608A68FB
:102B3000C2620A688262984207D0A04205D0B842B9
:102B400003D0604501D0404501D1096901630121ED
:102B50004161BDE8F0830000002C0140000400400A
:102B600000080040003401400040014000440140A2
:102B70000048014010B501F01F030121046A99408B
:102B80008C430462016A9A401143016210BD10B582
:102B9000846842EA032224F47F440A432243826089
:102BA00010BD00008268034B1A400A4342F007013F
:102BB000816070478FFFCFFF2DE9F043026A22F05A
:102BC00001020262056A436882691C4C25F0020515
:102BD00022400C6822F0030214438A68194E2A43EB
:102BE000174D194FDFF864C0DFF86490A84207D092
:102BF000B04205D0B84203D0604501D0484506D167
:102C000022F00808CA6842EA080222F00402A84238
:102C100007D0B04205D0B84203D0604501D0484546
:102C200005D14D6923F440731D438B692B434360E9
:102C30008461496841630262BDE8F0838FFFFEFF53
:102C4000002C01400034014000400140004401409C
:102C500000480140F0B5026A22F010020262056AE3
:102C600042688369194C1B4E23400C6823F440735F
:102C700043EA042425F020038D6843EA0513144D2C
:102C8000A84201D0B04206D1CF6823F0800343EAC6
:102C9000071323F04003A8420AD0B04208D00E4DDB
:102CA000A84205D00D4DA84202D00D4DA84207D133
:102CB0004D6922F4406242EA85028D6942EA85024A
:102CC00042608461496881630362F0BDFF8FFFFE4B
:102CD000002C01400034014000400140004401400C
:102CE00000480140F0B5026A22F480720262056A6F
:102CF0004368C269194C1B4E22400C6822F0030243
:102D0000144325F400728D6842EA0522144DA8424E
:102D100001D0B04206D1CF6822F4006242EA072215
:102D200022F48062A8420AD0B04208D00E4DA842D8
:102D300005D00E4DA84202D00D4DA84207D14D69D5
:102D400023F4405343EA05138D6943EA05134360B6
:102D5000C4614968C1630262F0BD00008FFFFEFFDD
:102D6000002C01400034014000400140004401407B
:102D700000480140F0B5026A22F480520262056AFE
:102D80004268C369194C1B4E23400C6823F44073FE
:102D900043EA042425F400538D6843EA0533144DB7
:102DA000A84201D0B04206D1CF6823F4004343EAE1
:102DB000073323F48043A8420AD0B04208D00E4D16
:102DC000A84205D00D4DA84202D00D4DA84207D112
:102DD0004D6922F4404242EA85128D6942EA851229
:102DE0004260C461496801640362F0BDFF8FFFFE69
:102DF000002C0140003401400040014000440140EB
:102E00000048014030B5026A22F480320262046A4E
:102E10004268036D114D2B400D681D4324F40033AF
:102E20000C8943EA04430E4CA0420BD00D4CA04247
:102E300008D00D4CA04205D00C4CA04202D00C4C46
:102E4000A04204D14C6922F4803242EA042242605A
:102E5000056549688164036230BD00008FFFFEFF95
:102E6000002C01400034014000400140004401407A
:102E70000048014030B5026A22F480120262046AFE
:102E80004268036D114D24F400142B400D6843EA91
:102E900005230D8944EA05540D4DA8420BD00D4D74
:102EA000A84208D00C4DA84205D00C4DA84202D033
:102EB0000B4DA84204D14D6922F4802242EA8522BA
:102EC000426003654968C164046230BDFF8FFFFE44
:102ED000002C01400034014000400140004401400A
:102EE0000048014010B5036A046A24F0010404623A
:102EF000846924F0F00444EA021423F00A020A432D
:102F00008461026210BD10B5036A23F010030362EE
:102F10008369046A23F4704343EA023224F0A00375
:102F200043EA01118261016210BDFEE70FB4084B54
:102F300010B504A902AA039800F02CF8044602A9CF
:102F4000002000F0C8F9204610BC5DF814FB00001A
:102F5000D73200080907090E002804DB00F1E02041
:102F600080F80014704700F00F0000F1E02080F8B6
:102F7000141D704702E008C8121F08C1002AFAD1C8
:102F800070477047002001E001C1121F002AFBD1E9
:102F9000704700002DE9FF4F8BB08846054600269C
:102FA00006E025280BD0DDE90D1290476D1C761C3C
:102FB00028780028F5D10FB03046BDE8F08F002406
:102FC000A146A2460122AE4900E0044315F8013FA4
:102FD000203B02FA03F00842F7D128782A2810D0C3
:102FE0006FF02F022878A0F13001092915D809EBDC
:102FF000890102EB410144F0020400EB01096D1C60
:10300000F0E758F8041B5FEA010903D544F40054C3
:10301000C9F1000944F002046D1C28782E2817D14C
:1030200015F8010F44F004042A280ED06FF02F0287
:103030002878A0F1300109290AD80AEB8A0102EBAD
:10304000410100EB010A6D1CF2E758F804AB6D1C5E
:1030500028786C280FD006DC4C2817D068280DD0B3
:103060006A2814D104E0742810D07A280FD10DE01A
:1030700044F400140AE044F4801401E044F44014E1
:103080006978814202D104F580146D1C6D1C28788A
:10309000692865D006DC00288DD0632827D06428F5
:1030A00006D15DE06E2808D073282AD0752877D025
:1030B000DDE90D129047761CE0E0C4F302500228CF
:1030C00009D003280DD0D8F8001004280DD00E60C8
:1030D00008F10408D2E0D8F80010F217C1E9006244
:1030E000F6E7D8F800100E80F2E70E70F0E718F857
:1030F000041B8DF8001000208DF80100EB46012024
:1031000003E058F804BB4FF0FF3061074FF00007B1
:1031100001D40AE07F1C57450DDA8742FADB1BF821
:1031200007100029F6D106E07F1C8742FCDB1BF864
:1031300007100029F8D1DDE90D23A9EB070081462E
:10314000214600F0B1F83044C61904E0DDE90D1263
:103150001BF8010B90477F1EF8D22146484688E0B5
:1031600058F8040BC4F302514FF00A0B032900D1A5
:1031700000B2042900D140B2002802DA40422D21D9
:1031800002E0210505D52B218DF82410012104E052
:1031900006E0E10710D02021F6E708AF089113E020
:1031A00058F8040BC4F302514FF00A0B032900D165
:1031B00080B2042900D1C0B20021EEE75946FDF7E4
:1031C00039F8303107F8011D0028F7D1ADEB0700C1
:1031D00000F1200B600702D524F4803401E04FF0A9
:1031E000010ADA4502DDAAEB0B0000E0002082466E
:1031F00000EB0B0108980144A9EB01000A90E003E1
:1032000006D4DDE90D2321460A9800F04DF8064466
:103210004FF0000908E009A911F80900DDE90D12D5
:10322000904709F10109761C08998945F3DBE00311
:103230000CD5DDE90D2321460A9800F035F8064447
:1032400004E0DDE90D1230209047761CBAF1000150
:10325000AAF1010AF5DC05E0DDE90D1217F8010B12
:103260009047761CBBF10001ABF1010BF4DC0A982E
:103270002146DDE90D2300F005F806446D1C97E6B4
:10328000092801002DE9F041044600251E46174695
:10329000880404D405E039462020B0476D1C641E24
:1032A000F9D52846BDE8F0812DE9F0410446002516
:1032B0001E469046C80301D5302700E02027880429
:1032C00004D505E041463846B0476D1C641EF9D56B
:1032D0002846BDE8F0810A68531C0B6010707047E7
:1032E000002100E0491C8142FCD370472DE9F047E2
:1032F0000025144689460646571C4FF4A078A5427F
:1033000001D1BD4207D0694208EB011081B2725D64
:103310004846FEF741FE6D1C142DF0DB4FF6E070C1
:10332000FEF7E2FE654208EB051081B2325D4846C9
:10333000FEF732FE301942784FF4987000EB05101A
:1033400081B24846FEF728FEBDE8F0474FF6FF7011
:10335000FEF7CABE2DE9F047D8480026D84C0178C0
:103360004FF0010900F1400701290FD1A17861B99F
:1033700021690522491C91FBF2F302FB1311216123
:1033800007EB41114E6184F803900670CB4D017C30
:10339000E03501291ED1E17869B1226907EB4211BC
:1033A00005EB42120B6813604B68536089689160AB
:1033B000E67084F8049084F8029021694A4607EB8D
:1033C0004111C1F80C904B695B1C4B61032B00DD74
:1033D0004A6106748246407C012878D1206905EB59
:1033E000401107EB40130A681A604A685A608968FE
:1033F00099602179002963D005283AD2DFE800F0EE
:10340000031B6D87A100A8462978012000F048FB26
:103410000520FCF749FF206908EB401001790220E4
:1034200000F03EFB0520FCF73FFF206908EB401051
:10343000017A032018E0A148E03090F82010042021
:1034400000F02EFB0520FCF72FFF206905EB401054
:103450000179052000F024FB0520FCF725FF2069F9
:1034600005EB4010017A062000F01AFB0520FCF75E
:103470001BFF206905EB401100EB80000978C0B20A
:1034800000F00EFB0520FCF70FFF206905EB401153
:1034900000EB800040060979000E00F001FB0520DA
:1034A000FCF702FF206905EB401100EB800080066D
:1034B000097A000E00F0F4FA0520FCF7F5FE2671FB
:1034C000A670206907EB4010C6608AF811609AF870
:1034D0002010504601294ED079E07848E03090F82D
:1034E0004010072000F0DCFA0520FCF7DDFE206923
:1034F00005EB40100179082000F0D2FA0520FCF716
:10350000D3FE206905EB4010017A0920ACE76B4837
:10351000E03090F86010112000F0C2FA0520FCF7AE
:10352000C3FE206905EB40100179122000F0B8FAC3
:103530000520FCF7B9FE206905EB4010017A132045
:1035400092E75E48E03090F88010142000F0A8FA6E
:103550000520FCF7A9FE206905EB40100179152034
:1035600000F09EFA0520FCF79FFE206905EB401055
:10357000017A162078E7A17839B3A168491CA160C7
:10358000216907EB41125269012A04D0022A0BD0AB
:10359000032A1AD111E005EB41118A68521C8A6096
:1035A0003C2A12DD8E6010E005EB41114A68521C86
:1035B0004A603C2A09DD4E6007E005EB41110A68CC
:1035C000521C0A60182A00DB0E6080F8206090F818
:1035D000211001292BD1A17821B3216907EB4112D8
:1035E0005269012A04D0022A0CD0032A1DD113E00B
:1035F00005EB41118A683B2A01DD8E6015E0521C03
:103600008A6012E005EB41114A683B2A01DD4E60F9
:103610000BE0521C4A6008E005EB41110A68172ACA
:1036200001DD0E6001E0521C0A6080F8216090F814
:103630003010012906D1A17811B9C16B491CC163B1
:1036400080F83060C16B1F4ACB070BD084F8009024
:1036500084F80190236907EB4313C3F81C90C3F867
:10366000189016E02670667031B12169022307EBCD
:103670004111C1E906360CE0236907EB431102EB67
:1036800043130D681D604D685D608D689D60CE615F
:103690008E6190F8311001290DD1236902EB43119D
:1036A00007EB43120C6814604B68536089689160A3
:1036B000C6638AF83160BDE8F08700003000002062
:1036C00008000020B001002038B50020FEF720FDE2
:1036D0002D4C2EA12F482269521CFFF727FC2D49A3
:1036E0000020FEF765FC0020FEF712FDA0782A4DB1
:1036F00028B1216905F1A00000EB411002E020692A
:1037000005EB401081680091D0E9002323A12148F6
:10371000FFF70CFC206905EB4010C16801290AD0B5
:103720001C493020FEF744FC0020FEF7F1FCA07895
:1037300090B126A11FE04069012809D0022809D0D4
:103740000328F1D1032230211248FFF7CFFDEBE728
:103750000922F8E70622F6E7206905EB40108069A8
:1037600020B1012804D0022808D103E01BA102E007
:103770001EA100E021A10748FFF7D8FBBDE83840B3
:1037800004496020FEF714BC0800002020204E4FA2
:1037900020256400500200207000002020202025F9
:1037A0003032643A253032643A25303264202020A9
:1037B0002020202020202020202020202020202009
:1037C00020202020202020202000000020205365E1
:1037D0007474696E6720202000000000202053745C
:1037E000616E646279202020000000002020527564
:1037F0006E6E696E67202020000000002020537448
:103800006F702020200000002DE9F0410A4C154681
:103810000E460746012204212046FCF740FE2A46B8
:1038200031463846FCF73BFE2046BDE8F041002219
:103830000421FCF734BE0000000C004810B5094C10
:10384000012204212046FCF72AFE01224FF47E418A
:103850000548FCF724FE20460022BDE81040042164
:10386000FCF71DBE000C0048000800480C4A30B4AC
:1038700013780C484FF4807123B1D3684FF4FA7475
:10388000A34201DC012204E0A3F2F513A34203D218
:10389000002230BCFFF7B8BF0020D06030BC7047BA
:1038A0000800002000080048FCF70CFEFFF7B7F8FE
:1038B000FEF7C6FCFEF754FDFEF736FEFEF7B0FD40
:1038C000FEF7E4FD6248FDF7B3FE6248FDF7B0FE87
:1038D00000216148FEF736F95F49502009684863C6
:1038E000FEF7A8FB4FF6FF742046FEF7FBFA2046D2
:1038F000FEF7FAFB0020FEF70BFCFF2000F0B0F80B
:10390000564C1E280FD001205FF0000104EB40123E
:10391000401C1160516091600528F7DD1E21FF20D9
:1039200000F0BEF88AE004F1200506E005287DD20B
:10393000DFE800F00318304A6400012000F090F83E
:1039400020600520FCF7B0FC022000F089F86060E0
:103950000520FCF7A9FC032000F082F8A0600520F8
:10396000FCF7A2FC042000F07BF83C49086205202B
:10397000FCF79AFC052000F073F868600520FCF75E
:1039800093FC062000F06CF8A8600520FCF78CFC86
:103990000220CBE7072000F063F8304901F1400630
:1039A00008640520FCF780FC082000F059F87060DE
:1039B0000520FCF779FC092000F052F8B0600520E2
:1039C000FCF772FC0320B1E7112000F049F823490D
:1039D00001F1600608660520FCF766FC122000F085
:1039E0003FF870600520FCF75FFC132000F038F80A
:1039F000B0600520FCF758FC042097E7142000F085
:103A00002FF8164901F18006C1F880000520FCF767
:103A10004BFC152000F024F870600520FCF744FCF6
:103A2000162000F01DF8B060052000E003E0FCF770
:103A30003BFC05207AE7401C0528AADDFFF7FEFEC7
:103A4000FFF788FCFFF712FFFFF73EFEF6E70000E6
:103A50008C020020D80200202403002070000020E7
:103A600010B50446FEF7B2F9A020FEF788F9FEF77C
:103A7000E3F92046FEF783F9FEF7DEF9FEF7C1F918
:103A8000FEF7A4F9A120FEF77AF9FEF7D5F9FEF7C3
:103A90004FF90446FEF7D0F9FEF7B3F9204610BD02
:103AA00070B50D460446FEF791F9A020FEF767F9C0
:103AB000FEF7C2F92046FEF762F9FEF7BDF9284687
:103AC000FEF75DF9FEF7B8F9BDE87040FEF799B969
:103AD00000000000000000000000000000000000E6
:103AE00000000000000000000000000000000000D6
:103AF00000000000000000000000000000000000C6
:103B0000000080018001800180018001800180012E
:103B1000800180018001800180018001000000009F
:103B20008001800100000000000000000000000093
:103B300000000000CC00CC00CC00CC00CC00CC00BD
:103B40000000000000000000000000000000000075
:103B50000000000000000000000000000000000065
:103B6000000000000000000000000000600C600C7D
:103B7000600C30063006FE1FFE1F300638071803A3
:103B8000FE1FFE1F180318038C018C018C0100001E
:103B900000008000E003F80F9C0E8C1C8C188C0039
:103BA0009800F801E007800E801C8C188C189C1877
:103BB000B80CF00FE003800080000000000000005F
:103BC0000000000000000E181B0C110C110611065D
:103BD000110311039B018E01C038C06C6044604426
:103BE000304430441844186C0C38000000000000C9
:103BF0000000E001F0033807180618063003F00152
:103C0000F000F8009C310E33061E061C061C063F11
:103C1000FC73F02100000000000000000000000024
:103C2000000000000C000C000C000C000C000C004C
:103C30000000000000000000000000000000000084
:103C40000000000000000000000000000000000074
:103C50000000000200038001C000C000600060009E
:103C600030003000300030003000300030003000D4
:103C700060006000C000C00080010003000200007E
:103C8000000020006000C0008001800100030003EC
:103C900000060006000600060006000600060006F4
:103CA0000003000380018001C000600020000000CC
:103CB000000000000000000000000000C000C00084
:103CC000D806F807E00130033807000000000000C4
:103CD00000000000000000000000000000000000E4
:103CE00000000000000000000000000080018001D2
:103CF000800180018001FC3FFC3F80018001800148
:103D000080018001000000000000000000000000B1
:103D100000000000000000000000000000000000A3
:103D20000000000000000000000000000000000093
:103D300000008001800100010001800000000000FF
:103D40000000000000000000000000000000000073
:103D50000000000000000000E007E0070000000095
:103D60000000000000000000000000000000000053
:103D70000000000000000000000000000000000043
:103D80000000000000000000000000000000000033
:103D90000000C000C00000000000000000000000A3
:103DA0000000000C000C00060006000600030003E3
:103DB00000038003800180018001C000C000C000BA
:103DC0006000600000000000000000000000000033
:103DD0000000E003F007380E180C0C180C180C1833
:103DE0000C180C180C180C180C180C18180C380E91
:103DF000F007E003000000000000000000000000E9
:103E0000000000018001C001F001980188018001DB
:103E1000800180018001800180018001800180019A
:103E20008001800100000000000000000000000090
:103E30000000E003F80F180C0C180C1800180018FC
:103E4000000C000600038001C00060003000180074
:103E5000FC1FFC1F0000000000000000000000002C
:103E60000000E001F807180E0C0C0C0C000C00060A
:103E7000C003C007000C001800180C180C18180C10
:103E8000F807E00300000000000000000000000050
:103E90000000000C000E000F000F800DC00C600C25
:103EA000600C300C180C0C0CFC3FFC3F000C000CA0
:103EB000000C000C000000000000000000000000EA
:103EC0000000F80FF80F180018000C00EC03FC07B6
:103ED0001C0E001C0018001800180C181C0C180EE2
:103EE000F807E003000000000000000000000000F0
:103EF0000000C007F00F381C181818000C00CC0385
:103F0000EC0F3C0E1C1C0C180C180C18181C380E4E
:103F1000F007E003000000000000000000000000C7
:103F20000000FC1FFC1F000C0006000600038003BD
:103F30008001C001C000E00060006000700030003F
:103F40003000300000000000000000000000000011
:103F50000000E003F007380E180C180C180C380697
:103F6000F007F007180C0C180C180C180C18380C6B
:103F7000F80FE00300000000000000000000000057
:103F80000000E003F007380E1C0C0C180C180C187D
:103F90001C1C381EF81BE0190018000C000C1C0E2D
:103FA000F807F00100000000000000000000000021
:103FB00000000000000000000000000080018001FF
:103FC00000000000000000000000000000000000F1
:103FD00080018001000000000000000000000000DF
:103FE00000000000000000000000000080018001CF
:103FF00000000000000000000000000000000000C1
:10400000800180010001000180000000000000002C
:1040100000000000000000000000000000000000A0
:104020000010001C800FE003F8001800F800E00307
:10403000800F001C001000000000000000000000C5
:104040000000000000000000000000000000000070
:10405000F81F000000000000F81F00000000000032
:104060000000000000000000000000000000000050
:104070000000000000000000000000000000000040
:1040800008003800F001C007001F0018001FC0071B
:10409000F0013800080000000000000000000000EF
:1040A0000000E003F80F180C0C180C180018000C96
:1040B000000600038001C000C000C0000000000036
:1040C000C000C00000000000000000000000000070
:1040D00000000000E00718180420C229224A1144F9
:1040E00009440944094409221113E20C0240042046
:1040F0001818E007000000000000000000000000A9
:10410000000080038003C006C006C006600C600C7F
:10411000301830183018F83FF83F1C700C600C60F5
:1041200006C006C000000000000000000000000003
:104130000000FC03FC0F0C0C0C180C180C180C0CD9
:10414000FC07FC0F0C180C300C300C300C300C1829
:10415000FC1FFC0700000000000000000000000041
:104160000000C007F01F38381C300C7006600600D5
:104170000600060006000600060006600C701C30F3
:10418000F01FE00700000000000000000000000039
:104190000000FE03FE0F060E061806180630063055
:1041A0000630063006300630063006180618060EB1
:1041B000FE0FFE03000000000000000000000000F1
:1041C0000000FC3FFC3F0C000C000C000C000C003D
:1041D000FC1FFC1F0C000C000C000C000C000C0061
:1041E000FC3FFC3F00000000000000000000000059
:1041F0000000F83FF83F18001800180018001800D9
:10420000F81FF81F180018001800180018001800F0
:10421000180018000000000000000000000000006E
:104220000000E00FF83F3C780E6006E007C0030096
:10423000030003FE03FE03C007C006C00EC03CF02F
:10424000F83FE00F00000000000000000000000048
:1042500000000C300C300C300C300C300C300C30BA
:10426000FC3FFC3F0C300C300C300C300C300C3070
:104270000C300C30000000000000000000000000C6
:1042800000008001800180018001800180018001A7
:104290008001800180018001800180018001800116
:1042A000800180010000000000000000000000000C
:1042B00000000006000600060006000600060006D4
:1042C0000006000600060006000618061806380755
:1042D000F003E0010000000000000000000000000A
:1042E000000006300618060C060606038601C60006
:1042F00066007600DE008E0106030606060C061830
:104300000630066000000000000000000000000011
:1043100000001800180018001800180018001800F5
:1043200018001800180018001800180018001800CD
:10433000F81FF81F0000000000000000000000004F
:1043400000000EE01EF01EF01EF036D836D836D82B
:1043500036D866CC66CC66CCC6C6C6C6C6C6C6C689
:1043600086C386C3000000000000000000000000BB
:1043700000000C301C303C303C306C306C30CC30A9
:10438000CC308C310C330C330C360C360C3C0C3CE2
:104390000C380C300000000000000000000000009D
:1043A0000000E007F81F1C380E70066003C003C051
:1043B00003C003C003C003C003C006600E701C38F6
:1043C000F81FE007000000000000000000000000EF
:1043D0000000FC0FFC1F0C380C300C300C300C3083
:1043E0000C18FC1FFC070C000C000C000C000C004F
:1043F0000C000C00000000000000000000000000A5
:104400000000E007F81F1C380E70066003E003C0D0
:1044100003C003C003C003C007E006630E3F1C3C9B
:10442000F83FE0F700C000000000000000000000BE
:104430000000FE0FFE1F0638063006300630063834
:10444000FE1FFE0706030606060C061806180630B1
:1044500006300660000000000000000000000000C0
:104460000000E003F80F1C0C0C180C180C001C00CA
:10447000F803E00F001E0038063006300E301C1C1A
:10448000F80FE0070000000000000000000000003E
:104490000000FE7FFE7F800180018001800180019D
:1044A0008001800180018001800180018001800104
:1044B00080018001000000000000000000000000FA
:1044C00000000C300C300C300C300C300C300C3048
:1044D0000C300C300C300C300C300C300C30181808
:1044E000F81FE007000000000000000000000000CE
:1044F000000003600630063006300C180C180C184B
:10450000180C180C380E3006300670076003600374
:10451000C001C00100000000000000000000000019
:1045200000000360C361C361C361663366336633F1
:104530006633663366336C1B6C1B6C1B2C1A3C1E7B
:10454000380E380E000000000000000000000000DF
:1045500000000FE00C7018303018700C600EC007AF
:1045600080038003C003E006700C301C18180C3068
:104570000E6007E0000000000000000000000000E6
:10458000000003C006600C301C383818300C600680
:10459000E007C0038001800180018001800180016B
:1045A0008001800100000000000000000000000009
:1045B0000000FC7FFC7F006000300018000C00064B
:1045C00000038001C0006000300018000C000600ED
:1045D000FE7FFE7F000000000000000000000000E1
:1045E0000000E003E0036000600060006000600025
:1045F00060006000600060006000600060006000BB
:1046000060006000600060006000E003E003000004
:10461000000030003000600060006000C000C0009A
:10462000C000C0018001800180010003000300037D
:10463000000600060000000000000000000000006E
:104640000000E003E0030003000300030003000395
:104650000003000300030003000300030003000342
:1046600000030003000300030003E003E003000075
:1046700000000000C001C001600360036003300659
:104680003006180C180C00000000000000000000AC
:10469000000000000000000000000000000000001A
:1046A000000000000000000000000000000000000A
:1046B00000000000000000000000000000000000FA
:1046C0000000FFFFFFFF00000000000000000000EE
:1046D00000000C000C000C000C000C000C00000092
:1046E00000000000000000000000000000000000CA
:1046F00000000000000000000000000000000000BA
:10470000000000000000000000000000F003F807B7
:104710001C0C0C0C000FF00FF80C0C0C0C0C1C0FEC
:10472000F80FF0180000000000000000000000007A
:10473000000018001800180018001800D803F80F1F
:10474000380C181818181818181818181818380CC1
:10475000F80FD80300000000000000000000000077
:10476000000000000000000000000000C003F0078F
:10477000300E180C1800180018001800180C300E15
:10478000F007C0030000000000000000000000006F
:10479000000000180018001800180018C01BF01FB7
:1047A000301C181818181818181818181818301C51
:1047B000F01FC01B0000000000000000000000000F
:1047C000000000000000000000000000C003F00F27
:1047D000300C1818F81FF81F180018003818301C73
:1047E000F00FC00700000000000000000000000003
:1047F0000000800FC00FC000C000C000F007F0072D
:10480000C000C000C000C000C000C000C000C000A8
:10481000C000C00000000000000000000000000018
:10482000000000000000000000000000E00DF80F94
:10483000180E0C0C0C0C0C0C0C0C0C0C0C0C180E9C
:10484000F80FE00D000C0C0C1C06F807F00100003E
:10485000000018001800180018001800D807F80FFA
:10486000381C1818181818181818181818181818A4
:1048700018181818000000000000000000000000D8
:104880000000C000C000000000000000C000C00028
:10489000C000C000C000C000C000C000C000C00018
:1048A000C000C00000000000000000000000000088
:1048B0000000C000C000000000000000C000C000F8
:1048C000C000C000C000C000C000C000C000C000E8
:1048D000C000C000C000C000C000F80078000000A8
:1048E00000000C000C000C000C000C000C0C0C0662
:1048F0000C038C01CC006C00FC009C018C030C03AD
:104900000C060C0C0000000000000000000000007D
:104910000000C000C000C000C000C000C000C00057
:10492000C000C000C000C000C000C000C000C00087
:10493000C000C000000000000000000000000000F7
:104940000000000000000000000000007C3CFF7E32
:10495000C7E383C183C183C183C183C183C183C1D1
:1049600083C183C1000000000000000000000000BF
:104970000000000000000000000000009807F80F91
:10498000381C181818181818181818181818181883
:1049900018181818000000000000000000000000B7
:1049A000000000000000000000000000C003F00F45
:1049B000300C181818181818181818181818300C5F
:1049C000F00FC00300000000000000000000000025
:1049D000000000000000000000000000D803F80FF5
:1049E000380C181818181818181818181818380C1F
:1049F000F80FD8031800180018001800180000005D
:104A0000000000000000000000000000C01BF01FBC
:104A1000301C181818181818181818181818301CDE
:104A2000F01FC01B00180018001800180018000024
:104A3000000000000000000000000000B007F003CC
:104A400070003000300030003000300030003000A6
:104A500030003000000000000000000000000000F6
:104A6000000000000000000000000000E003F00370
:104A7000380E180C3800F003C007000C180C380E64
:104A8000F007E0030000000000000000000000004C
:104A9000000000008000C000C000C000F007F00768
:104AA000C000C000C000C000C000C000C000C00006
:104AB000C0078007000000000000000000000000A8
:104AC0000000000000000000000000001818181886
:104AD0001818181818181818181818181818381C32
:104AE000F01FE019000000000000000000000000BE
:104AF0000000000000000000000000000C18180C6E
:104B0000180C180C30063006300660036003600392
:104B1000C001C00100000000000000000000000013
:104B2000000000000000000000000000C141C14181
:104B3000C3616363636363633636363636361C1C83
:104B40001C1C1C1C000000000000000000000000F5
:104B50000000000000000000000000001C38381CAD
:104B6000300C600660036003600360036006300C75
:104B7000381C1C380000000000000000000000008D
:104B80000000000000000000000000001830301895
:104B900030187018600C600CE00CC006C006800372
:104BA0008003800380018001C001F00070000000DC
:104BB000000000000000000000000000FC1FFC1FBF
:104BC000000C000600038001C000600030001800E7
:104BD000FC1FFC1F0000000000000000000000009F
:104BE000000000038001C000C000C000C000C00081
:104BF000C00060006000300060004000C000C000E5
:104C0000C000C000C000C000800100030000000020
:104C1000000080018001800180018001800180010D
:104C2000800180018001800180018001800180017C
:104C300080018001800180018001800180010000ED
:104C400000006000C000C00180018001800180017F
:104C500080010003000300060003000180018001C1
:104C60008001800180018001C00060000000000020
:104C70000000000000000000000000000000000034
:104C8000F010F81F080F00000000000000000000F6
:104C90000000000000000000000000000000000014
:104CA00000000000000000000102030406070809DC
:104CB000D04C00080000002030000000742F0008D5
:104CC000004D00083000002040070000842F00083D
:104CD0000000FFFF000000000000000100000000D5
:104CE00000000000000000000000000000000000C4
:104CF0000024F4001000000001000000000000008B
:04000005080001D915
:00000001FF
