:020000040800F2
:10000000C8050020ED010008D72B00081F250008B7
:10001000D52B0008310800089330000800000000CC
:10002000000000000000000000000000EF2E0008AB
:100030003308000800000000D92B0008F12E00084A
:10004000070200080702000807020008070200086C
:10005000070200080702000807020008070200085C
:10006000070200080702000807020008070200084C
:10007000070200080702000807020008070200083C
:10008000070200080000000007020008070200083D
:10009000070200080702000807020008070200081C
:1000A000692F00080702000807020008070200087D
:1000B00007020008070200080702000807020008FC
:1000C00007020008070200080702000807020008EC
:1000D00007020008070200080702000807020008DC
:1000E00007020008070200080702000807020008CC
:1000F00007020008070200080702000800000000CD
:1001000000000000070200080000000007020008CD
:1001100007020008000000000702000807020008AC
:10012000070200080702000807020008070200088B
:10013000070200080000000000000000070200089D
:10014000070200080702000800000000000000008D
:10015000000000000000000000000000000000009F
:10016000000000000000000000000000070200087E
:10017000070200080000000000000000000000006E
:10018000000000000702000800000000000000005E
:10019000000000000000000000000000000000005F
:1001A000000000000000000007020008070200082D
:1001B000070200080702000807020008000000000C
:1001C000000000000702000800000000000000001E
:1001D0000702000807020008DFF80CD000F0CCFA94
:1001E0000048004765410008C805002006488047D0
:1001F00006480047FEE7FEE7FEE7FEE7FEE7FEE70C
:10020000FEE7FEE7FEE7FEE74D2F0008D9010008F4
:10021000D2B201E000F8012B491EFBD27047002248
:10022000F6E710B513460A4604461946FFF7F0FFF5
:10023000204610BD2DE9FE4F804681EA0300C00F25
:100240000C46009021F0004123F00045B8EB02007D
:10025000A94105D24046214690461C460B4602461F
:1002600023F00040104347D0270DC7F30A00C3F323
:100270000A510290401A019040286BDAC3F3130030
:1002800040F4801B0098924620B10023D2EB030A71
:1002900063EB0B0B01985946C0F14002504600F049
:1002A00066F906460D4650465946019A00F06EF929
:1002B00010EB08006141002487EA115284EAE773D9
:1002C0001A4340D0009A62B3019A012A4FEA0752BA
:1002D00015DC001B61EB02014FF0004202EA0752FD
:1002E000CDE90042001C41F5801132462B4600F05A
:1002F0006EF903B0BDE8F08F40462146F9E7001BD8
:1003000061EB0201001C41F5801300185B412018CD
:10031000A2F5001747EB030140EAD570B6196D410D
:1003200011E06D084FEA360645EAC0754FEA0752FC
:10033000001B61EB0201001C41F5801149084FEAE6
:1003400030000019514132462B4603B0BDE8F04F52
:1003500000F02EB90098012240000023D0EB0202E9
:1003600063EBE073009821464FEAE074B8EB0000BD
:1003700061EB0401E9E783F000435BE781F00041B2
:1003800058E72DE9FE4F81EA030404F0004421F010
:10039000004100944FF0000B23F0004350EA0104A9
:1003A0005ED052EA03045BD0C3F30A54C1F30A558A
:1003B0002C44A4F2F3340194A0FB0254C1F31301C2
:1003C00041F48011C3F3130343F4801301FB02448F
:1003D00000FB034E840A970A44EA815447EA835794
:1003E000A4FB076802958D0A05FB07854FEA932C4D
:1003F00004FB0C542705029D4FEA065847EA1637BE
:10040000B5EB08056EEB070C870E920E47EA8117D5
:1004100042EA8312A7FB0201B6EB0B0164EB000476
:100420002B0D43EA0C335E1844EB1C50DA46514660
:10043000E7FB0201C5F313044FEA0B3343EA1453FD
:100440004FEA0432019C43EA0603A4F10C0402942F
:10045000009CCDE900B400F0BAF803B0BDE8F08F1D
:1004600000200146F9E70EB540F233410291002128
:10047000CDE900110A460B4600F0A9F803B000BD13
:1004800030B5041E71F1000404DB4FF0004440421B
:1004900064EB0101141E73F1000405DB1C464FF0F0
:1004A0000043524263EB04038B4208BF824230BDDB
:1004B00030B5041E71F1000404DB4FF000444042EB
:1004C00064EB0101141E73F1000405DB1C464FF0C0
:1004D0000043524263EB0403994208BF904230BD8F
:1004E00030B50B46014600202022012409E021FA04
:1004F00002F59D4205D303FA02F5491B04FA02F501
:100500002844151EA2F10102F1DC30BD2DE9F05F97
:100510000546002092469B46884606468146402472
:100520001BE0284641464746224600F037F953462D
:100530005A46C01A914110D311461846224600F07F
:1005400016F82D1A67EB01084F46224601200021BC
:1005500000F00DF817EB00094E41201EA4F1010434
:10056000DFDC484631462A464346BDE8F09F202A54
:1005700004DB203A00FA02F1002070479140C2F1FA
:10058000200320FA03F3194390407047202A06DB2A
:10059000CB17203A41FA02F043EAE07306E041FA51
:1005A00002F3D040C2F1200291400843194670473F
:1005B00010B5141E73F1000408DA401C41F100016B
:1005C00092185B411A4301D120F0010010BD2DE9C2
:1005D000F04D92469B4611B1B1FA81F202E0B0FAB9
:1005E00080F220329046FFF7C2FF04460F4640EAF1
:1005F0000A0041EA0B0153465A46084313D01146FC
:1006000053EA010019D0C8F14002504600F0C6F884
:1006100005460E46504659464246FFF7A8FF084396
:1006200005D0012004E020463946BDE8F08D0020C9
:10063000054346EAE0762C4337430A986305E40A0B
:10064000A0EB08000022FD0A44EA47540A3002D514
:1006500000200146E9E7010510196941DDE9084577
:1006600000196941BDE8F04DA2E72DE9F04D81EA9E
:10067000030404F0004B21F0004514464FF0000A3B
:1006800023F0004150EA050220D054EA01021DD0B7
:10069000C5F30A570246C5F31303C1F31300C1F3B0
:1006A0000A5640F4801543F48013A7EB0608101B8C
:1006B000D64608F2FD3873EB050002D308F10108B5
:1006C00001E092185B41B8F1000F03DA0020014607
:1006D000BDE8F08D00204FF48011064684460EE000
:1006E000171B73EB050705D3121B63EB05030643CA
:1006F0004CEA010C49084FEA300092185B4150EA7D
:100700000107EDD152EA030012D082EA040083EA25
:100710000501084305D0101BAB4106D2012200237E
:1007200006E000224FF0004302E06FF00102531098
:100730001AEB06004CEB085110EB0A0041EB0B01E1
:10074000BDE8F04DFFF734BFC1F30A52C1F3130106
:1007500040F2FF3341F480119A4202DA0020014650
:10076000704740F233439A42A2F2334202DC5242D3
:1007700000F014B8FFF7FBBE064C074D06E0E0683A
:1007800040F0010394E8070098471034AC42F6D3D8
:10079000FFF726FDBC530008DC530008202A04DBC9
:1007A000203A21FA02F00021704721FA02F3D040EA
:1007B000C2F12002914008431946704770B50446C3
:1007C0000068816811F0010F2DD18168174A11422C
:1007D0001AD18168D5432940491C816000F060FE30
:1007E00006461BE0816811F0010F03D181682940A2
:1007F000491C816000F054FE801B02280ED920683D
:100800000068C043C00709D0E06D40F01000E0650B
:10081000206E40F001002066012070BD2068016854
:10082000C943C907DED1002070BD00003F00008031
:10083000FEE77047002240F6B83306E00021491C6D
:1008400089B29942FBD3521C92B28242F6D37047CE
:10085000704700002DE9F047044690F858009CB01E
:100860000E464FF00009012815D0012084F85800E9
:1008700000251795189520684FF0A04840450ED1E7
:10088000284F0097384602F035F88246206802F07B
:1008900031F860B10EE002201CB0BDE8F087E06DD9
:1008A00040F02000E06584F858500120F4E7BAF1E8
:1008B000000F09D0E06D40F02000E0654FF0010925
:1008C00084F858504846E7E71748326840F61F71E9
:1008D000002A826822F4604216D094F8383042EA46
:1008E000433273681A438260D8F80820BB6802F06C
:1008F000010203F001031A43E2D1B36832681A43DC
:1009000083688B431A430BE08260D8F80820BB68E9
:1009100002F0010203F001031A43D1D182688A4335
:100920008260CDE700010050000300502DE9F84F30
:1009300000270446009790F85800DFF8D8930D463A
:10094000B846012811D0012684F85860206801F0CB
:10095000CDFF60B1E06D40F02000E0655FF0010781
:1009600084F858803846BDE8F88F0220FBE7D5E9C7
:1009700000210C23206803EA91131844036B01F053
:100980001F014FF01F0C0CFA01FCC2F3846223EA32
:100990000C038A4013430363206801F0A7FF8246DB
:1009A000206801F09FFF5AEA00003CD1AA6829683C
:1009B0002068B2F1004F37D001F0A8FF20684169EC
:1009C00021F00041416120686969C268C2F3C10237
:1009D000520091402A69042A31D000EB82002B6832
:1009E000026EDFF834C303F0F84302EA0C020B4353
:1009F0001A4342F00041016620682A69A96900EBA8
:100A00008200026E22F080720A430266297F226809
:100A10002869012910D0002102EB8000026E22F02B
:100A200000720A4302667DE0002201F06FFF206839
:100A3000416941F00041C5E74FF00071ECE700214A
:100A400001F04AFF400320684FF0000172D001F02E
:100A500043FF90FAA0F0B0FA80F1286842036ED00C
:100A600090FAA0F0B0FA80F0814204D10022114641
:100A7000206801F05AFF0121206801F02DFF40039A
:100A800020684FF001015DD001F026FF90FAA0F040
:100A9000B0FA80F12868420359D090FAA0F0B0FA79
:100AA00080F0814204D100220121206801F03DFF45
:100AB0000221206801F010FF400320684FF002017E
:100AC00048D001F009FF90FAA0F0B0FA80F1286850
:100AD000420344D090FAA0F0B0FA80F0814204D1F1
:100AE00000220221206801F020FF0321206801F08C
:100AF000F3FE400320684FF0030133D001F0ECFE19
:100B000090FAA0F0B0FA80F1286842032FD090FA52
:100B1000A0F0B0FA80F0814204D1002203212068C5
:100B200001F003FF2068816811F0010F22D0A8E0D6
:100B300000E004E001F0D0FEC0F384618DE7C0F373
:100B4000846091E701F0C8FEC0F38461A2E7C0F3BE
:100B50008460A6E701F0C0FEC0F38461B7E7C0F38C
:100B60008460BBE701F0B8FEC0F38461CCE7C0F35A
:100B70008460D0E7EB6829684B4550F8B03FC1F37B
:100B8000120101D10B4300E08B430360E868484544
:100B900077D1286841031CD090FAA0F1B1FA81F115
:100BA000491C01F01F0109294FEA403132D80029C0
:100BB00012D000BF90FAA0F1B1FA81F101F1010168
:100BC00001F01F0106FA01F609D100BFC0F38461EC
:100BD00009E0C0F38461E3E7C0F38461EEE790FAD3
:100BE000A0F1B1FA81F101F1010101F01F0146EA22
:100BF000816102D1C0F3846003E090FAA0F0B0FA02
:100C000080F000F1010000F01F0000EB400041EA1D
:100C1000005132E000290ED090FAA0F1B1FA81F132
:100C200001F1010101F01F0106FA01F606D100BF32
:100C3000C0F3846106E0C0F38461F1E790FAA0F1AB
:100C4000B1FA81F101F1010101F01F0146EA816170
:100C500002D1C0F3846003E090FAA0F0B0FA80F013
:100C600000F1010000F01F002C4A00EB400002EBF5
:100C7000005041EA000141F00071AA68206801F0CB
:100C800045FE27482A6802423FF46AAE254881683B
:100C9000254B01F0E0719A4202D0244B9A421CD1BC
:100CA0000B021AD42268B2F1A04F7FF459AE8268C9
:100CB00041F4000122F0E0720A4382601C481D49A1
:100CC0000068B0FBF1F0401C00EB4000800000E049
:100CD000401E00900028FBD142E6174D174BAA4258
:100CE00007D1CD0105D422689A42F5D041F0807138
:100CF00009E0134DAA42EFD14A02EDD422689A428C
:100D0000EAD041F48001826822F0E0720A438260F6
:100D100026E6000000007F4000F0FF03000020FEF8
:100D20000000088000030050000021C31000C090A4
:100D300044000020400D0300000052C70001005095
:100D4000000084CBC06D70470068006C70470000E5
:100D5000F8B54FF0000504002E46009502D0E06D76
:100D600010B107E00120F8BD204600F0EFF826663C
:100D700084F8586020688168C1F3407119B18168B6
:100D80006A4A1140816020688168C1F3007189B9A5
:100D90008168674A114041F0805181606548664929
:100DA0000068B0FBF1F04000801C00E0401E0090A5
:100DB0000028FBD120688168C1F3007141B9E16D61
:100DC00041F01001E165216E41F00101216601252C
:100DD00001F08CFDE16DC90600D430B1E06D40F04A
:100DE0001000E06501252846F8BDE06D20F4807014
:100DF00040F00200E0652068806810F0010F11D11A
:100E00004FF0A04080684D4900F00100896801F072
:100E10000101084306D14A486168826822F47C12C5
:100E20000A438260E168E06B627F0843A16841EA9F
:100E30004231084394F8241040EA0140012904D1CA
:100E4000218D404A02EB41410843E16A29B101F496
:100E50007871226B014342EA01002168CA683A4B6B
:100E60001A400243CA6020680169626B21F0406148
:100E700011430161206801F039FD0646206801F048
:100E800031FD30432ED1207F94F83810800340EAA2
:100E900041022068C16844F2020399431143C160D2
:100EA00020690028206801690AD041F4803101617D
:100EB000206850F8C01F22696FF30D01114307E04D
:100EC00021F480310161206850F8C01F6FF30D01DB
:100ED000016094F8400001280CD02068016921F0DD
:100EE00001010161606901282068016B21F00F0197
:100EF00011D013E0D4E911010843D4E913121143CE
:100F0000084321680A6940F2FC739A43104340F099
:100F100001000861E6E7226A521E11430163E06D99
:100F200020F0020040F00100E0655CE7C0FFFF5FD9
:100F3000C0FFFF7F44000020400D0300000100506F
:100F4000000300500000FEFF0740F0FF2DE9F043D2
:100F500097B00446142111A8FFF761F944216846AF
:100F6000FFF75DF94FF0005021682D4D0327DFF8A2
:100F7000B49086132C4C4FF00008B1F1A04F10D064
:100F80002A4A914248D100960F90684600F086FBAD
:100F900008B1FFF75DFC2868401C2860012824D0B8
:100FA0002BE000960F90684600F078FB08B1FFF741
:100FB0004FFC2868401C2860012807D1E06C40F4F1
:100FC0000050E064E06C00F400501690E06C40F0DB
:100FD0000200E064E06C11A900F0020016904FF4EA
:100FE000805081E88101484614E0E06C40F40050F4
:100FF000E064E06C00F400501690E06C40F00200F9
:10100000E064E06C11AA00F00200169082E8C001D2
:1010100011A9484600F016F917B0BDE8F0830000AA
:101020004000002000040048001002400001005071
:101030002DE9F04104463B480F46816801F01F0549
:10104000A16908290FD085B1052D0ED0092D0CD02E
:10105000806800F4604060B1E06D40F02000E06521
:101060000120BDE8F081082604E02068C068C007C0
:10107000F1E7042600F014FA804615E0781C13D03E
:1010800000F00EFAA0EB0800B84200D867B920685B
:101090000068304208D1E06D40F00400E0650020B7
:1010A00084F858000320DCE7206800683042E5D06F
:1010B000E06D40F40070E065206801F01FFC80B135
:1010C000607F70B92068006800070AD5E06D20F4E1
:1010D0008070E065E06DC00403D4E06D40F0010075
:1010E000E065114A20684FF0A041904201D10B46C3
:1010F00000E00346834210D07DB1052D0DD0092DAF
:101100000BD0904200D00146C968082E07D0490490
:1011100001D40C2101600020A3E7C168F5E7082194
:10112000F8E7000000030050000100502DE9F041F5
:1011300004463848806800F01F05206801F0D6FB9F
:1011400018B102210846BDE8F08194F85800012842
:101150000CD0012084F858002046FFF72FFB010037
:101160004FF0000304D084F85830EBE70220EAE7A0
:10117000E06D40F60162904340F48070E065264ADD
:1011800020684FF0A046904201D1374600E0074664
:10119000874200D01DB9E76D27F48017E765E76D3A
:1011A000FF0404D5276E27F00607276600E02366B4
:1011B0001C27076084F858302068904201D13346DC
:1011C00000E00346834215D0A5B1052D12D0092DAC
:1011D00010D0E36D43F48013E365904200D13046B4
:1011E000C0688001AED5E06D20F4005040F480501E
:1011F000E065A7E7C268920105D5E26D22F40052CE
:1012000042F48052E2658268044B1A40121D8260EB
:1012100098E700000003005000010050C0FFFF7F6E
:1012200070B5044600F03CF90546601C02D0044845
:101230004068044400F034F9401BA042FAD370BD6A
:10124000480000202DE9F04FDFF82092002301260E
:101250000324A9F1040B85B00F2709F1040AABF1AF
:10126000040EFAE006FA03F52A407CD091F804C097
:101270000CF0030CBCF1010F02D0BCF1020F26D11F
:10128000D0F808C0CDF800C04FEA430C04FA0CF8BF
:10129000CDF810C0DDF800C02CEA080CCDF800C075
:1012A000D1F80C80DDF810C008FA0CF8DDF800C0A9
:1012B00048EA0C08C0F80880D0F804C02CEA050CF5
:1012C0000D79C5F300159D4045EA0C0545600D7983
:1012D000ED43AD070ED0C5684FEA430804FA08FC99
:1012E00025EA0C05D1F808C00CFA08FC4CEA050CFC
:1012F000C0F80CC00D7905F00305022D16D1DD08EC
:1013000000EB850CCDF808C0DCF820805D074FEAC3
:10131000D56C07FA0CF528EA05080D6905FA0CF5F5
:10132000DDF808C045EA0805CCF8205005684FEA0A
:10133000430CCDF808C004FA0CFC25EA0C0591F822
:1013400004C00CF00308DDF808C008FA0CF848EAFD
:101350000508C0F800804D6815F4403F7CD0444D2E
:10136000D5F860C000E077E04CF0010CC5F860C033
:101370002D6E23F0030C05F0010500953D4D6544ED
:101380000295AD684FEA837C4FEA1C7807FA08FCA7
:1013900025EA0C05B0F1904F06D0DFF8DCC06045BF
:1013A00005D14FF0010C20E04FF0000C1DE0DFF8FC
:1013B000CCC0604502D14FF0020C16E0DFF8C0C08F
:1013C000604502D14FF0030C0FE0DFF8B8C0604574
:1013D00002D14FF0040C08E0DFF8ACC0604502D148
:1013E0004FF0050C01E04FF0060C0CFA08FC4CEA3B
:1013F000050C029DC5F808C0D9F80050CC46D1F8BC
:10140000048095435FEAC82800D51543CCF8005006
:10141000DAF80050D446D1F8048095435FEA882872
:1014200000D51543CCF80050DBF80050DC46D1F86D
:10143000048095435FEA883800D51543CCF8005006
:10144000DEF80050F446D1F8048095435FEAC838CE
:1014500000D51543CCF800505B1C0A6832FA03F53E
:101460007FF400AF05B0BDE8F08F00000804014034
:10147000001002400000014000040048000800483D
:10148000000C0048001000480014004800690840A3
:1014900000D0012070470AB18161704781627047B6
:1014A00001488068704700004800002002488168B9
:1014B00042681144816070474800002010B5002444
:1014C000032000F073F8002000F008F808B10124B0
:1014D00001E000F025F8204610BD000070B50E4E6A
:1014E00005460024706898B14FF47A71B1FBF0F0B2
:1014F0000A490968B1FBF0F000F040FD40B9102D39
:1015000006D200222946501E00F030F8356000E077
:101510000124204670BD0000480000204400002047
:101520000A4882B0016E41F001010166016E01F0CE
:1015300001010091816D41F080518165806D00F065
:101540008050009002B000F0A1B8000000100240EE
:10155000002809DB00F01F020121914040098000B2
:1015600000F1E020C0F8001170470000F0B40E4B0D
:101570001B680C46C3F30223C3F10705042D00D9F1
:101580000425191D072901D2002300E0DB1E0126D6
:1015900006FA05F1491E214099409E40761E1640EC
:1015A0003143F0BC01F08ABD0CED00E0064900F0CB
:1015B000070208684FF6FF03184040EA0220034A7A
:1015C00010430860704700000CED00E00000FA05D1
:1015D0002B492C4B0A6832214A432B4940B1B0F5C4
:1015E000007F086829D020F4C06040F480602CE0BF
:1015F0000868C0F34120022804D051F8800F20F47D
:10160000807022E0D1F8800020F48070C1F8800062
:10161000086820F4C06040F400700860B2FBF3F08A
:10162000401C00E0401E4A69520501D50028F9D14E
:10163000486940050AD503207047C0F341200228BD
:1016400006D051F8800F40F4807008600020704789
:10165000D1F8800040F48070C1F88000086820F460
:10166000C06040F400700860B2FBF3F0401C00E082
:10167000401E4A695205DBD50028F9D1D8E70000A1
:101680004400002040420F00007000400248816882
:1016900041F4804181607047007000402DE9F843BB
:1016A0000446006800269D4D00035ED5A86D002706
:1016B000C00008D4A86D40F08050A865A86D01272F
:1016C00000F080500090DFF85892D9F8001041F4F3
:1016D0008071C9F80010FFF7E3FE804606E000BF06
:1016E000FFF7DEFEA0EB080002282BD8D9F8000097
:1016F000C005F5D5D5F8900010F4407014D0216CD9
:10170000814211D0D5F89000D5F8901020F44070A7
:1017100041F48031C5F89010D5F8901021F4803153
:10172000C5F89010C5F89000C00711D0FFF7B8FEBB
:10173000804641F2883907E0FFF7B2FEA0EB0801CE
:10174000494501D903260BE0D5F890008007F3D571
:10175000D5F89000216C20F440700843C5F8900043
:101760001FB1A86D20F08050A8652078C00707D071
:10177000D5F88800616820F003000843C5F88800A8
:101780002078800707D5D5F88800A16820F00C00E4
:101790000843C5F888002078400707D5D5F88800A9
:1017A000E16820F030000843C5F888002078000781
:1017B00007D5D5F88800216920F0C0000843C5F896
:1017C00088002078800607D5D5F88800616920F464
:1017D00040600843C5F888002078400607D5D5F852
:1017E0008800A16920F440500843C5F8880020789B
:1017F000000607D5D5F88800E16920F44040084389
:10180000C5F888002088C00507D5D5F88800216A6A
:1018100020F440300843C5F888002088800507D5AB
:10182000D5F88800616A20F440200843C5F8880094
:10183000208840050FD5D5F88800A16A20F4401013
:101840000843C5F88800A06AB0F5801F03D1E86896
:1018500040F48010E860208800050FD5D5F8880096
:10186000E16A20F440000843C5F88800E06AB0F55A
:10187000800F03D1E86840F48010E8602088C0043D
:101880000FD5D5F88800216B20F040700843C5F8CB
:101890008800206BB0F1807F03D1E86840F48010AD
:1018A000E86020884FF0006180040ED5D5F88800EC
:1018B000626B20F040601043C5F88800606B88427E
:1018C00003D1E86840F48010E860208840040ED519
:1018D000D5F88800A26B20F040601043C5F888005E
:1018E000A06B884203D1E86840F48010E86020884B
:1018F00000040FD5D5F88800E16B20F04050084374
:10190000C5F88800E06BB0F1805F03D1E86840F46F
:101910008030E8603046BDE8F883000000100240E7
:10192000007000402DE9F0470E4605004FF000071B
:1019300025D0DFF8AC81D8F8000000F00F00B042ED
:101940000CD2D8F8001021F00F013143C8F8001074
:10195000D8F8000000F00F00B04210D12968614CA7
:10196000C80741F2883A5AD06868DFF87C910328AA
:1019700008D0022820682DD0400500282CDB01204B
:10198000BDE8F08720688001F9D5E06800F0030227
:10199000E068C0F30310401C032A19D0534A00BF6B
:1019A000B2FBF0F0E268C2F306225043E268C2F3F1
:1019B0004162521C5200B0FBF2F0484517D9A068B2
:1019C00010F0F00F0CD0880711D5A86840B10EE0D8
:1019D000474AE5E78003D0E700F092F8484506D98A
:1019E000A06820F0F00040F08000A0608027A06890
:1019F000696820F003000843A060FFF751FD8146AD
:101A000006E000BFFFF74CFDA0EB090151453AD8B5
:101A1000A068696800F00C00B0EB810FF2D1286873
:101A2000810714D5400703D5A06840F4E060A060AA
:101A30002878000705D5A06820F4605040F4E060E5
:101A4000A060A068A96820F0F000084304E0802F9F
:101A500003D1A06820F0F000A060D8F80010404644
:101A600001F00F01B14216D9016821F00F01314395
:101A70000160FFF715FD074607E000BFFFF710FD07
:101A8000C11B514501D903207AE7D8F8000000F0C6
:101A90000F00B042F2D12878400705D5A068E96868
:101AA00020F4E0600843A0602878000706D5A0680D
:101AB000296920F4605040EAC100A06000F020F8DD
:101AC000A1680C4AC1F30311515C01F01F01C84029
:101AD0000949086009480068BDE8F047FFF7FEBC07
:101AE000002002400010024000B4C4040024F400AE
:101AF00000366E01AC53000844000020480000206E
:101B0000184910B58868C0F381021748012A0BD024
:101B10008A68164BC2F38102022A06D08A68C2F391
:101B20008102032A03D0002010BD184610BDCA68E8
:101B300002F00304CA68C2F30312521C032C02D041
:101B4000B0FBF2F001E0B3FBF2F0CA68C968C2F37F
:101B500006225043C1F34161491C4900B0FBF1F03A
:101B600010BD0000001002400024F40000366E0199
:101B70002DE9F84304007AD02078FA4DC00747D009
:101B8000A868E96800F00C0001F003010C2802D0FD
:101B9000082817D001E0032914D06068B0F5803F11
:101BA00017D0B0F5A02F286817D020F48030286017
:101BB000286820F4802028606068E0B1FFF770FC9E
:101BC000064614E02868800322D560680028D2D039
:101BD0001EE0286840F48030EDE740F48020286063
:101BE000F7E700BFFFF75CFC801B642870D828680B
:101BF0008003F7D50CE0FFF753FC064605E000BF75
:101C0000FFF74EFC801B6428F0D828688003F7D4C7
:101C1000207880074CD5A868E96800F00C0001F036
:101C200003010C2802D004280DD001E002290AD0BB
:101C3000E068002828682BD040F480702860FFF707
:101C40002FFC064619E02868400502D5E068002808
:101C500091D06868217C20F0FE4040EA0160686015
:101C6000C1480068FFF73AFC002800D120E076E187
:101C7000FFF716FC801B0228B8D828684005F7D566
:101C80006868217C20F0FE4040EA016068600FE057
:101C900020F480702860FFF703FC064605E000BFD3
:101CA000FFF7FEFB801B0228A0D828684005F7D468
:101CB0002078000729D560690028D5F8940013D052
:101CC00040F00100C5F89400FFF7EAFB064606E085
:101CD00090E000BFFFF7E4FB801B022886D8D5F810
:101CE00094008007F6D510E020F00100C5F89400BC
:101CF000FFF7D6FB064604E0FFF7D2FB801B022865
:101D000078D8D5F894008007F6D42078400761D5BC
:101D1000A86D0026C00008D4A86D40F08050A865CA
:101D2000A86D012600F08050009090480168C90518
:101D300011D40168804641F480710160FFF7B0FB67
:101D4000074604E0FFF7ACFBC01B022852D8D8F8C6
:101D50000000C005F6D5A068012815D00528D5F8E3
:101D6000900016D020F00100C5F89000D5F8900042
:101D700020F00400C5F89000A06841F28838B8B19E
:101D8000FFF78EFB07460EE0D5F8900040F001000B
:101D9000F0E740F00400C5F89000F5E7FFF780FB9E
:101DA000C11B414526D8D5F890008007F6D50CE038
:101DB000FFF776FB074604E0FFF772FBC11B4145C6
:101DC00018D8D5F890008007F6D41EB1A86D20F081
:101DD0008050A8652078800629D5A0690028D5F80C
:101DE000980013D040F00100C5F89800FFF758FBA9
:101DF000064606E077E000BFFFF752FB801B022893
:101E000077D8D5F898008007F6D510E020F00100CB
:101E1000C5F89800FFF744FB064604E0FFF740FBD7
:101E2000801B022865D8D5F898008007F6D4E069B1
:101E3000F0B3A968C1F38101032961D002282868A1
:101E400020F0807028600BD0E86820F00300E86084
:101E5000E86847490840E860FFF722FB04464BE08A
:101E6000FFF71EFB064604E0FFF71AFB801B022863
:101E70003FD828688001F7D4F4E908016FF00F0219
:101E800002EB01110843218A5204490802EB415137
:101E9000A26841EA02210843217D4FF07E424908B1
:101EA00002EB41610843217B40EAC160E96800E040
:101EB00062E0304A11400843E860286840F08070D2
:101EC0002860E86840F08070E860FFF7E9FA0446AF
:101ED00005E000BFFFF7E4FA001B022809D82868D4
:101EE0008001F7D548E004E0FFF7DAFA001B02288A
:101EF00002D90320BDE8F88328688001F4D43BE0D0
:101F00000128F7D0E868226A00F00301914226D147
:101F1000616A00F0F0020901103991421FD1A26AF2
:101F200000F4FE41B1EB022F19D194F82C2000F0FF
:101F30007841B1EBC26F12D1218E00F4C002490882
:101F40004905A1F50011914209D194F8341000F02F
:101F5000C06049084906A1F1007181420CD00120FE
:101F6000C8E7000000100240480000200070004058
:101F7000FFFFEEFE0C809F010020BBE710B5401E66
:101F8000B0F1807F01D3012010BD4FF0E0246061EB
:101F90000F21601701F092F80020A0610720206156
:101FA000002010BD704770477047704770477047FA
:101FB000F0B590F83C20012A3AD0012580F83C5039
:101FC000022280F83D2003685A689C68194E1A4F17
:101FD000B34201D0BB4204D122F4700C4A6842EAF9
:101FE0000C02DFF858C002EA0C02D1F800C04CEA3B
:101FF000020CC3F804C00268B2420DD0B2F1804FA7
:102000000AD00F4B9A4207D00E4B9A4204D0BA42E4
:1020100002D00D4B9A4204D1896824F08003194301
:10202000916080F83D50002180F83C100846F0BDDA
:102030000220F0BD002C0140003401408FFFFFFD65
:10204000000400400008004000400140704710B507
:10205000040003D094F83D0010B107E0012010BD4A
:10206000002084F83C00204600F022F8022084F88A
:102070003D00211D206800F07DFF012084F848000C
:1020800084F83E0084F83F0084F8400084F8410062
:1020900084F8420084F8430084F8440084F8450042
:1020A00084F8460084F8470084F83D00002010BD05
:1020B00008B500680B49884212D10B48016E41F403
:1020C00080310166006E002200F4803000901146DD
:1020D0001820FFF74BFABDE808401820FFF738BA80
:1020E00008BD0000004001400010024090F83D1083
:1020F000012901D001207047022180F83D100168BC
:10210000CA6842F00102CA600068104988420ED0D5
:10211000B0F1804F0BD00E49884208D00D4988425B
:1021200005D00D49884202D00C49884207D1816808
:102130000B4A1140062906D0B1F5803F03D0016853
:1021400041F001010160002070470000002C0140B7
:1021500000040040000800400034014000400140FD
:102160000700010070B5044690F83C0000250128E6
:1021700014D0012684F83C60022084F83D002268D7
:102180009068364B184020F47F40906008687028B3
:102190002ED010DC10F00F0F03D021E04FF0020022
:1021A00070BD4FEA2012072A1AD2DFE802F052521D
:1021B00052524A3840002A4BC21A984249D009DC90
:1021C000B0F5805F0DD0B0F5005F1CD0B0F1101FEE
:1021D00006D13EE0102A3CD0202A3AD0502A38D0EE
:1021E000012584F83D60002084F83C00284670BD3D
:1021F000CB68D1E90121206800F014FF20688168D4
:1022000041F0770109E0CB68D1E90121206800F0B5
:1022100009FF2068816841F480418160E1E7CA6874
:102220004968206800F012FF5021206806E0CA6863
:102230004968206800F01BFF6021206800F0FCFE68
:10224000CFE7CA684968206800F000FF4021206895
:10225000F4E7226801461046F0E7000088FFCEFF51
:1022600020001000704770B50446006801694FF007
:102270000005C943890715D4C168C943890711D42A
:10228000E91E0161012020772068806980072046CF
:1022900002D0FFF7E7FF04E000F0E3F8204600F08B
:1022A000E1F8257720680169C943490717D4C16857
:1022B000C943490713D46FF004010161022020775C
:1022C0002068806910F4407F204602D0FFF7CAFFE3
:1022D00004E000F0C6F8204600F0C4F82577206836
:1022E0000169C943090716D4C168C943090712D453
:1022F0006FF008010161042020772068C069800721
:10230000204602D0FFF7AEFF04E000F0AAF8204616
:1023100000F0A8F8257720680169C943C90617D4D9
:10232000C168C943C90613D46FF0100101610820C8
:1023300020772068C06910F4407F204602D0FFF764
:1023400091FF04E000F08DF8204600F08BF825772F
:1023500020680169C943C90708D1C168C943C907D1
:1023600004D1891E0161204600F07EF820680169D1
:10237000C943090609D4C168C943090605D46FF0E9
:10238000800101612046FFF70EFE20680169C94304
:10239000C90509D4C168C943090605D46FF4807121
:1023A00001612046FFF7FEFD20680169C943490627
:1023B00009D4C168C943490605D46FF040010161E1
:1023C000204600F0ABF820680169C943890609D4AA
:1023D000C168C943890605D46FF020010161204618
:1023E000FFF7E2FD20680169C943C90209D4C16849
:1023F000C943C90205D46FF4801101612046FFF77B
:10240000D5FD20680169C943890209D4C168C9435F
:10241000890205D46FF4001101612046FFF7C5FD64
:1024200020680169C943490209D4C168C943490206
:1024300005D46FF4800101612046FFF7B8FD2068E4
:102440000169C94309020BD4C168C943090207D411
:102450006FF4000101612046BDE87040FFF7F6BD52
:1024600070BD7047704700002DE9F04100682749B2
:10247000884243D1264D0026687818B12869401C4F
:10248000286100E02E61234F01213846FEF7FEFF50
:1024900000B10120204C022120703846FEF7F6FFE3
:1024A00000B10120207304213846FEF7EFFF00B190
:1024B0000120207601214FF09040FEF7E7FF00B1A8
:1024C000012084F82400686941281BDB00200123D7
:1024D00000EB400204EB82014F6817B1012F09D1D4
:1024E00004E014F822202AB94B6003E014F82220FB
:1024F00032B14E60401C0428EADB6E61BDE8F08119
:102500004B70F7E7401C6861F8E7000000400140AD
:102510000800002000040048540000207047FEE737
:1025200000B585B014216846FDF779FE4FF6FF70BF
:10253000009000200321CDE9020101906946024884
:10254000FEF780FE05B000BD0008004800B585B06C
:1025500014216846FDF763FE4FF6FF7000900120DE
:102560000190032003900020029069460248FEF784
:1025700069FE05B000BD00000008004870B50024E9
:1025800006462146204600F003F900F041F94FF4D9
:102590009635304600F010F9641CAC42F9D370BD9A
:1025A00030B587B014216846FDF739FE1E48C16C6E
:1025B00041F00401C164C16C01F004010591C16CDA
:1025C00041F00101C164C16C01F001010591C16CD0
:1025D00041F00201C164C06C012500F002000590C9
:1025E0004FF44870CDE90005002403946946029435
:1025F0000E48FEF727FE280203940090CDE901540F
:102600004FF0904469462046FEF71CFEFFF79EFF00
:10261000A06940F48070A06104481830016841F45A
:102620000871016007B030BD00100240000400488E
:10263000203AD2B2034B02EB420203EB021200F04B
:1026400019B80000DC410008F0B50E460746002529
:1026500040F23F1407E021463846FFF7E9FF103CFF
:102660006D1CA4B2761C3278002A01D0142DF2D34E
:10267000F0BD00002DE9F04791468A460026044649
:1026800000F086F8DFF84080012700BF00F0C0F8B6
:102690005FF0000539F8160007FA05F108424046D8
:1026A00001D1408800E0008800F086F86D1C102DF4
:1026B000F0D3641CE4B25146204600F069F8761C61
:1026C000182EE3D3BDE8F0870000002010B5FFF717
:1026D00067FF002000F014F8084CA080A088A0F547
:1026E0000241303906D000F001FB002000F008F86C
:1026F000A08010BD00F071FAF7E700000000002094
:1027000070B51D490A6842F400720A600A6842F412
:1027100080720A60184C103C226842F0200222604D
:10272000164A1060086840F02000086000BF00BF33
:1027300000BF206840F020002060206840F48070D6
:102740002060FFF7EDFE4FF09041886A40F4807002
:10275000886200BF00BF00BF0848001F006885B244
:10276000886940F480708861FFF7F0FE206840F4CB
:1027700000702060284670BD2804004814080048F6
:1027800001B5BDF800000149488008BD00000020E7
:1027900010B50C460146202000F068F82146BDE83F
:1027A0001040212000F062B801B5BDF800000149D9
:1027B000088008BD00000020134A116841F4007130
:1027C0001160114910390B6843F480730B600B687A
:1027D00043F020030B600D4B1860106840F02000A0
:1027E000106000BF00BF00BF086840F02000086014
:1027F000086840F48070086000BF00BF00BF086830
:1028000040F400700860704728040048140800482D
:102810001449086840F400700860086840F480704B
:10282000086010481038026842F0200202600E4B27
:1028300022221A600A6842F020020A6000BF00BF2C
:1028400000BF016841F020010160016841F480711E
:10285000016000BF00BF00BF016841F4007101606A
:10286000704700002804004814080048184B10B5B1
:102870001A6842F400721A601A6842F480721A6090
:10288000134A103A146844F020041460114C20607C
:10289000186840F02000186000BF00BF00BF10683B
:1028A00040F020001060106840F4807010602160DB
:1028B000186840F02000186000BF00BF00BF10681B
:1028C00040F020001060106840F48070106010BD6F
:1028D000280400481408004800EB8100006E00F056
:1028E000F84070478068C0F3C00070478068C0F34C
:1028F000800070478068C0F380007047C06810F4A3
:10290000406F01D00020704701207047042303EA84
:10291000D15310B518444369C1F3045107248C40C6
:10292000A3438A401343436110BD00EB8100016E55
:1029300021F00041114301667047000030B58BB0B3
:10294000002408940994202168460A94FDF767FC46
:102950001C484FF0A041042501604FF40031C0E94C
:102960000114C4600461C0E905450477447701217E
:10297000016280F82440C462046380F83840C46374
:1029800080F84040FEF7E4F908B1FDF761FF08A9BF
:102990000C480894FDF75EFF08B1FDF759FF0A489F
:1029A00000900620CDE901047F200594CDE90305C0
:1029B00069460448FDF7BAFF002801D0FDF748FF3B
:1029C0000BB030BDA40000200008302E30B589B017
:1029D00020216846FDF723FC1948184900240160AE
:1029E0004902C0E90114C46004250461C0E9054539
:1029F000047744770121016280F82440C4620463B3
:102A000080F83840C46380F84040FEF7A1F908B16F
:102A1000FDF71EFF0B4800900620CDE901047F2042
:102A20000594CDE9030569460548FDF77FFF0028B9
:102A300001D0FDF70DFF09B030BD000000010050CE
:102A4000100100200080F03E2DE9F04F87B01421E6
:102A50006846FDF7E4FB4048C16C41F00401C164E5
:102A6000C16C01F004010591C16C41F02001C16409
:102A7000C16C01F020010591C16C41F00101C164FC
:102A8000C16C01F001010591C16C41F00201C1640A
:102A9000C16C01F002010591C16C41F00801C164F3
:102AA000C06CDFF8B88000F008004FF6FF740590A6
:102AB000002221464046FEF7EEFC4FF480764FF0B0
:102AC0009049002231464846FEF7E5FCDFF890A029
:102AD000002204215046FEF7DEFCDFF888B04FF4F8
:102AE0004877002239465846FEF7D5FC0125CDE946
:102AF000004500240294694640460394FEF7A2FB79
:102B0000CDE90054694648460294FEF79BFB072036
:102B1000CDE90004694658460294FEF793FB0096FF
:102B2000CDE90154694648460394FEF78BFB042027
:102B30000090CDE90154694650460394FEF782FBAC
:102B40000097CDE90154694658460394FEF77AFB95
:102B500007B0BDE8F08F00000010024000080048F8
:102B6000000C00480004004810B588B00024184844
:102B700000940194029403940494059413490694D8
:102B800001604F21C0E9011440F2E731C0E90314AC
:102B90008021C0E90541FFF75AFA08B1FDF758FE58
:102BA0004FF48050009069460948FFF7DBFA08B1FE
:102BB000FDF74EFE049404A905480694FFF7F8F9C2
:102BC000002801D0FDF744FE08B010BD00400140D0
:102BD0007C010020FEE77047704730B501210020DE
:102BE000FFF744FE4FF47A70FDF724FE0021012028
:102BF000FFF73CFE41F290711020FFF737FE4FF4D3
:102C00001C516020FFF732FE01216120FFF72EFEEC
:102C100002214620FFF72AFE48F210011320FFF799
:102C200025FE48F2FE011220FFF720FE4FF4A061BE
:102C30000220FFF71BFE41F230010320FFF716FED2
:102C400040F2033421463020FFF710FE21463120A8
:102C5000FFF70CFE21463220FFF708FEE51E29464D
:102C60003320FFF703FE03213420FFF7FFFD214649
:102C70003520FFF7FBFD14213620FFF7F7FD214635
:102C80003720FFF7F3FD21463820FFF7EFFD2146FF
:102C90003920FFF7EBFD29463A20FFF7E7FD032136
:102CA0003B20FFF7E3FD21463C20FFF7DFFD4FF41B
:102CB000A0513D20FFF7DAFD4FF400719220FFF79D
:102CC000D5FD21469320FFF7D1FD40F60D01902060
:102CD000FFF7CCFD41F218010320FFF7C7FDBDE867
:102CE000304040F273110720FFF7C0BD10B543F22A
:102CF0000801E320FFF7BAFD1221E720FFF7B6FD38
:102D000041F23121EF20FFF7B1FD00210120FFF753
:102D1000ADFD4FF4E0610220FFF7A8FD41F2300164
:102D20000320FFF7A3FD00210420FFF79FFD40F2E1
:102D300007210820FFF79AFD00210920FFF796FDE3
:102D400000210A20FFF792FD00210C20FFF78EFDE5
:102D500000210D20FFF78AFD00210F20FFF786FDDF
:102D600000211020FFF782FD07211120FFF77EFDD3
:102D700000211220FFF77AFD00211320FFF776FDD6
:102D8000C820FEF74DFA41F290611020FFF76EFD6A
:102D900040F227211120FFF769FD3220FEF740FAAB
:102DA0001D211220FFF762FD3220FEF739FA4FF4A1
:102DB00000611320FFF75AFD14212920FFF756FD6B
:102DC0000B212B20FFF752FD3220FEF729FA0021BC
:102DD0002020FFF74BFD00212120FFF747FD0721B1
:102DE0003020FFF743FD40F207713120FFF73EFD31
:102DF00006213220FFF73AFD40F204713520FFF73B
:102E000035FD41F604713620FFF730FD04213720EF
:102E1000FFF72CFD00213820FFF728FD40F2067156
:102E20003920FFF723FD40F201713C20FFF71EFD22
:102E30000F213D20FFF71AFD00215020FFF716FD5E
:102E4000EF215120FFF712FD00215220FFF70EFD68
:102E500040F23F115320FFF709FD4FF41C51602051
:102E6000FFF704FD01216120FFF700FD00216A202A
:102E7000FFF7FCFC00218020FFF7F8FC00218120F7
:102E8000FFF7F4FC00218220FFF7F0FC00218320F3
:102E9000FFF7ECFC00218420FFF7E8FC00218520EF
:102EA000FFF7E4FC10219020FFF7E0FC00219220C6
:102EB000FFF7DCFC03219320FFF7D8FC4FF4887167
:102EC0009520FFF7D3FC00219720FFF7CFFC0021CE
:102ED0009820FFF7CBFC41F218010320FFF7C6FC56
:102EE000BDE8104040F273110720FFF7BFBC7047E8
:102EF000FEF7DCBA10B594B038216846FDF78FF9BB
:102F000014210EA8FDF78BF94FF40070FEF760FB5B
:102F1000012000900004019002200324CDE9070461
:102F20001421CDE90A100C900D9009946846FEF723
:102F30001FFE0F20CDE90E0400201090119012907A
:102F400002210EA8FEF7EEFC14B010BD0548016882
:102F500041F47001016003494FF00060803908605E
:102F60007047000088ED00E00148FFF77CB90000E1
:102F70007C0100202DE9F0430268234B234D244EB1
:102F8000244C4FF08049984207D0484505D0A842CC
:102F900003D0B04201D0A04203D122F070074A68AA
:102FA0003A431D4FDFF874C0DFF8748098420DD0AB
:102FB00048450BD0A84209D0B04207D0A04205D066
:102FC000B84203D0604501D0404503D122F440759A
:102FD000CA682A434D6922F080022A4302608A6847
:102FE000C2620A688262984207D0A04205D0B84205
:102FF00003D0604501D0404501D109690163012139
:103000004161BDE8F0830000002C01400004004055
:1030100000080040003401400040014000440140ED
:103020000048014010B5846842EA032224F47F443A
:103030000A432243826010BD8268034B1A400A4350
:1030400042F00701816070478FFFCFFF10B5036A20
:10305000046A24F001040462846924F0F00444EA60
:10306000021423F00A020A438461026210BD10B503
:10307000036A23F0100303628369046A23F4704334
:1030800043EA023224F0A00343EA011182610162A3
:1030900010BDFEE70FB4084B10B504A902AA0398AF
:1030A00000F0EEF8044602A9002000F080FC204663
:1030B00010BC5DF814FB0000AF3900080907090EC9
:1030C000002804DB00F1E02080F80014704700F0D5
:1030D0000F0000F1E02080F8141D704702E008C8DE
:1030E000121F08C1002AFAD170477047002001E082
:1030F00001C1121F002AFBD1704700002DE9FF5FBC
:1031000082B00021DDE90430020DDDF840B0034358
:1031100018D044F61050A2F2FF3242431514119811
:1031200001281FD0A5EB0B00401C5FEA000A4FF0FE
:1031300000064E4FDFF83891B046504615D5CAF11B
:10314000000413E0119801244AA3012801D16FEA79
:103150000B010298119AC0E90031C0E9024206B0A1
:10316000BDE8F09FCBF10000DFE704460021404AB4
:10317000491842EB0450CDE9001012E0E00707D0F7
:1031800032463B4640464946FDF7FBF880468946B5
:1031900032463B4610461946FDF7F3F806460F4601
:1031A0006410002CEAD1DDE90401DDE90023BAF165
:1031B000000F06DAFDF7E5F842464B46FDF7E1F869
:1031C00005E0FDF752FA42464B46FDF74EFA04463B
:1031D0000E460022284BFDF76BF903D84FF0FF3065
:1031E000014607E00022254B20463146FDF722F834
:1031F000FDF7AAFA102409E0002C0ADB0A220023BA
:10320000FDF784F9039B30321A55641E50EA01021F
:10321000F2D1641C039AC4F111031444119A012AD7
:1032200003D0012208430DD10AE0084304D0002056
:103230004FF0110B119072E7A3EB0B056D1E0DE023
:103240005B4504DD4FF0000205F1010504E003DAFF
:103250004FF00002A5F10105002AECD00298119967
:10326000C0E90231C0E9004579E7000000001440E0
:103270000000F03F300000000000F0430000E03F9D
:103280002DE9FF4F95B09B468946064600250FE283
:10329000252877D100242746F84A0121059400E02B
:1032A000044316F8013F203B01FA03F01042F7D126
:1032B00030782A2811D06FF02F033078A0F1300237
:1032C000092A16D8059A44F0020402EB820203EBA5
:1032D00042021044761C0590EFE759F8042B059242
:1032E000002A03DA504244F40054059044F00204EA
:1032F000761C30782E2816D116F8010F44F00404FD
:103300002A280DD06FF02F023078A0F13003092B5E
:1033100009D807EB870302EB4303C718761CF3E7D2
:1033200059F8047B761C30786C280FD006DC4C28CA
:1033300017D068280DD06A2814D104E0742810D062
:103340007A280FD10DE044F400140AE044F480140C
:1033500001E044F440147278824202D104F58014F2
:10336000761C761C307866280BD013DC582877D072
:1033700009DC002875D04528F6D04628F4D0472827
:103380001AD19DE118E0632835D0642879D06528EA
:1033900012D195E1702873D008DC6728F1D0692834
:1033A0006FD06E280DD06F2806D1B5E073282CD0D1
:1033B000752875D0782874D05A46179990476D1C97
:1033C00075E1C4F30250022809D003280DD0D9F8C2
:1033D000001004280DD00D6009F1040967E1D9F847
:1033E0000010EA17C1E90052F6E7D9F800100D8085
:1033F000F2E70D70F0E719F8041B8DF800100020BB
:103400008DF80100EA46012003E059F804AB4FF0C3
:10341000FF3061074FF0000102D40DE008F1010117
:103420008846B9420FDA8045F8DB1AF808100029FF
:10343000F4D108E008F1010188468142FADB1AF86C
:1034400008100029F6D105985B46A0EB0807214635
:103450003846179A00F094FA284400EB080507E074
:103460004DE029E10DE01AF8010B5A4617999047F3
:10347000B8F10108F7D25B4621463846179A13E1A6
:1034800042E00A220092C4F302524FF0000A022ADC
:1034900008D059F804CB032A4FEAEC710AD00DE0AA
:1034A00029E02AE009F1070121F00702F2E802C150
:1034B000914609E00FFA8CFC4FEAEC71042A03D123
:1034C0004FFA8CFC4FEAEC71002907DA0A4600211A
:1034D000DCF1000C61EB02012D2202E0220504D593
:1034E0002B228DF80420012203E0E20701D02022E4
:1034F000F7E7904659E00A2102E010220DE0102182
:103500004FF0000A00910BE010224FF0000A44F047
:1035100004040827009203E008224FF0000A0092FA
:10352000C4F30252022A05D059F804CB0021032A21
:1035300008D009E009F1070121F00702F2E802C111
:10354000914605E01FFA8CFC042A01D10CF0FF0C17
:103550004FF00008220728D5702806D0009B83F082
:10356000100353EA0A0305D00EE040228DF8042030
:10357000012208E05CEA010206D030228DF8042026
:103580008DF8050002229046009B83F0080353EA61
:103590000A030AD15CEA010201D1620705D5302293
:1035A0008DF804204FF001087F1E582804D034A065
:1035B00003900EA802900DE036A0F9E7534660464E
:1035C000009AFCF7A3FF84460398825C0298401E91
:1035D000029002705CEA0100F0D1029806A9081A74
:1035E00000F1200A600702D524F4803400E00127AE
:1035F000574502DDA7EB0A0000E0002000EB0A01BE
:10360000009005984144401A0590E00306D45B46BB
:103610002146179A059800F0B3F90544002706E003
:1036200001A85A46C05D179990476D1C7F1C4745FD
:10363000F6DBE0030CD55B462146179A059800F0AF
:103640009FF9054404E030205A46179990476D1CB5
:103650000099481E00900029F5DC08E002980299C4
:103660005A460078491C0291179990476D1CBAF18F
:103670000001AAF1010AF1DC65E10000092801005E
:1036800030313233343536373839616263646566D8
:10369000000000003031323334353637383941429A
:1036A000434445460000000000F058F90544761CEC
:1036B000307800287FF4ECAD19B02846BDE8F08FD3
:1036C000620700D4062709F1070222F0070CFCE884
:1036D0000223E14603F000485FEA080C02D00FF233
:1036E000702C0DE05FEA045C02D50FF2682C07E055
:1036F0005FEAC47C02D00FF2602C01E0AFF2700CE4
:103700004FF0FF3823F00043CDF850C065280CD0AF
:1037100006DC452809D046281DD047283DD13DE08C
:10372000662818D067287ED138E00021112F01DBF0
:10373000112000E0781CCDE9000106A90EA8FFF7D2
:10374000DDFCDDE90F010E9A03910021009207F1E3
:10375000010A04914DE04FF000400097CDE90110BF
:1037600006A90EA8FFF7CAFCDDE90F0203920E9B23
:1037700011990022DDF80CA00093049211B9791C74
:1037800000EB010AB7EB0A0004D4C0F1FF3007F1E7
:10379000010A0490AAEB0700019044E0012F00DA2F
:1037A00001270021112F01DD112000E03846CDE96D
:1037B000000106A90EA8FFF7A1FCDDE90F010E9A92
:1037C0000391002104910092BA4621070CD4039979
:1037D000514500DA8A46BAF1010F05DD009AAAF1D7
:1037E0000101515C302908D0B84202DA10F1040F0F
:1037F00006DA0121CDE9011015E0AAF10101E9E79E
:10380000002805DC049901440491AAEB000102E0C0
:10381000411C514500DD8A460499401A401C019024
:103820004FF000400290200704D40198504501DB7E
:10383000CDF8048000208DF84F0002980DF14F075D
:10384000B0F1004F25D02B200E9002984FF00208C7
:1038500000280CDA404202902D200E9007E00A2149
:103860000298FCF73DFE3031029007F8011DB8F1D7
:103870000001A8F10108F2DC02980028EFD1791EBE
:103880000E980870307800F0200040F0450007F8EE
:10389000020D12A8C01B00F107081498007800B1AF
:1038A000012000EB0A01019801EBE0710598414409
:1038B000401A401E0590E00306D45B462146179A45
:1038C000059800F05DF805441498007818B15A4640
:1038D000179990476D1CE00324D55B462146179A43
:1038E000059800F04DF805441CE00498002807DB1B
:1038F000DDE90301884203DD0098405C179901E08F
:10390000179930205A469047049805F10105401C4C
:1039100004900198401E019004D12E205A46179918
:1039200090476D1CBAF10001AAF1010ADDDC05E047
:1039300017F8010B5A46179990476D1CB8F1000112
:10394000A8F10108F4DC5B462146179A0598ABE61E
:103950002D0000002B000000200000002DE9F041A8
:10396000044600251E461746880404D405E039465F
:103970002020B0476D1C641EF9D52846BDE8F081B3
:103980002DE9F041044600251E469046C80301D5A6
:10399000302700E02027880404D505E0414638465A
:1039A000B0476D1C641EF9D52846BDE8F0810A6851
:1039B000531C0B601070704710B500242DED048B64
:1039C0002048FDF7B3FB64211E48FDF731FB1D487D
:1039D000FDF7B8F9800503D51A48FDF7B5F9044697
:1039E0002046FCF740FD9FED181B53EC112BFCF714
:1039F000C8FC9FED171B53EC112BFCF7C2FC164CB7
:103A00009FED160B41EC180B53EC102B94ED080BAB
:103A100051EC100BFCF7B5FC9FED120B41EC190BB0
:103A200053EC102B51EC180BFCF7ABFC53EC192B9F
:103A3000FCF700FCC4E90601C4E90801BDEC048BF5
:103A400010BD0000100100206666666666660A40CA
:103A5000000000000000303F080000203333333303
:103A60003333D33F666666666666E63F2DE9F0410E
:103A7000824D00262DED088B29466878D1F808C0C4
:103A8000012827D07E48697B476801292BD095F80B
:103A900019E09FED7C8B00F12804014694EC049B17
:103AA0000123BEF1010FD1E9022127D095F825E0CD
:103AB000BEF1010F13D15FEACC7C6ED0002F6DD028
:103AC0009FED729B012F6AD00224022F68D0032F32
:103AD00063D1BFE00CF1010CC5F808C06E70BDECFD
:103AE000088BBDE8F0815FEACC7105D0032F01DBC4
:103AF000466001E07F1C47606E73F0E75FEACC7CB4
:103B000049D09FED64BB4FB1012F19D008244FF06D
:103B1000070C022F2ED0032F3DD145E053EC182B7C
:103B200051EC190BFCF786FB41EC100B53EC1B2BF3
:103B300084ED000BFCF7BCFC2DD884ED00BB2AE023
:103B400053EC182B51EC1A0BFCF774FB41EC100BE7
:103B500053EC192B84ED020BFCF7AAFC1BD894ED57
:103B6000000B53EC182B51EC100BFCF704FCC4E9D0
:103B7000020110E0521C82608A4204D1082902D05E
:103B8000521C826003E08A4201D1082909D0082A28
:103B900000DB846083706E76A1E732E018E031E0EC
:103BA00042E0C0F808C0F5E7491CC1608A4204D170
:103BB000082A02D0491CC16003E08A4201D1082AC8
:103BC00003D00829E6DBC460E4E7C0F80CC0E1E7F5
:103BD00053EC182B51EC190BFCF7CDFB41EC100BFF
:103BE00053EC1A2B84ED000BFCF74AFC2DD894ED16
:103BF000020B53EC182B51EC100BFCF71BFBC4E928
:103C0000000122E053EC182B51EC1A0BFCF7B3FB2C
:103C100041EC100B53EC192B84ED020BFCF730FC3C
:103C200013D884ED029B10E0521E82608A4204D1B8
:103C3000012902D0521E826003E08A4201D101298B
:103C400006D0012A00DC8360837085F8256046E792
:103C50008460F9E7491EC1608A4204D1012A02D07A
:103C6000491EC16003E08A4201D1012A03D0012923
:103C7000EADCC360E8E7C460E6E700005400002027
:103C800008000020333333333333D33F00000000C8
:103C9000000000006666666666660A402DE9FC4123
:103CA0009E489F4D4FF6FF76007A05F12804C10724
:103CB000E8785ED020B13046FEF760FC0020E87066
:103CC0003046FEF75DFD954896A13030FFF7E2F9EA
:103CD000924918203031FEF7B7FC68684FF4FC6752
:103CE00000287AD0012879D0022878D0032877D10B
:103CF0003046FEF745FD94ED000B884853EC102B41
:103D00008FA13030FFF7C6F9844930203031FEF7FB
:103D10009BFC3046FEF734FD94ED020B7F4853ECDC
:103D2000102B8FA13030FFF7B5F97C494820303196
:103D3000FEF78AFC3046FEF723FD784890A130302C
:103D4000AA68FFF7A7F9754960203031FEF77CFCBF
:103D50004FEA0700FEF714FD704890A13030EA6882
:103D6000FFF798F96D4930317820BDE8FC41FEF746
:103D70006BBC20B93046FEF701FC0120E8703046EC
:103D8000FEF7FEFC65488CA13030FFF783F96349EC
:103D900018203031FEF758FC3046FEF7F1FC95ED67
:103DA000060B5E4853EC102B8AA13030FFF772F9F6
:103DB0005A4948203031FEF747FC94ED020B53EC92
:103DC000102B95ED060B51EC100BFCF759FB08D2AC
:103DD0003046FEF7D5FC86A116E032E044E076E0FE
:103DE00099E094ED000B53EC102B95ED060B51EC84
:103DF000100BFCF75DFB304603D2FEF7C1FC83A13C
:103E000002E0FEF7BDFC88A144483030FFF742F9DC
:103E1000424960203031FEF717FC3046FEF7B0FC17
:103E200094ED000B3D488DED000B94ED020B86A147
:103E300053EC102B3030FFF72DF9384930319020FA
:103E400093E73846FEF79CFC94ED000B334853ECA7
:103E5000102B3BA13030FFF71DF9304930203031B5
:103E6000FEF7F2FB304611E03046FEF789FC94ED98
:103E7000000B2A4853EC102B31A13030FFF70AF920
:103E8000264930203031FEF7DFFB3846FEF778FC5C
:103E900094ED020B214853EC102B31A13030FFF789
:103EA000F9F81E4948203031FEF7CEFB4FEA0600F4
:103EB000FEF766FC194832A13030AA68FFF7EAF82D
:103EC000164960203031FEF7BFFB304642E73046EE
:103ED000FEF756FC94ED000B104853EC102B18A184
:103EE0003030FFF7D7F80D4930203031FEF7ACFB0A
:103EF0003046FEF745FC94ED020B084853EC102BBE
:103F000017A13030FFF7C6F8044948203031FEF7DA
:103F10009BFB3846CCE7BDE8FC8100005400002044
:103F20000800002020202020202020536574746980
:103F30006E6720202020202020202020202020000C
:103F400020204D617820566F6C743A252E326656CB
:103F500020202020202020202020202020000000C1
:103F600020204D696E20566F6C743A252E326656AD
:103F700020202020202020202020202020000000A1
:103F8000202055707065723A4C4425642020202012
:103F900020202020202020202000000020204C6F06
:103FA0007765723A4C442564202020202020202070
:103FB0002020202020000000202020202020204D34
:103FC00061696E2020202020202020202020202019
:103FD000000000002020566F6C743A252E32665681
:103FE0002020202020202020202020202000000031
:103FF00020205374617475733A4C6F77657220207A
:104000002020202020202020202020002020537449
:10401000617475733A5570706572202020202020DD
:1040200020202020202020002020537461747573EC
:104030003A4E6F726D616C202020202020202020BD
:1040400020202020000000006D696E3A252E326687
:104050002C6D61783A252E326620202020202020E9
:10406000202000002DE9F0410D4E0C4605460122AE
:1040700004213046FDF70FFA0A4F01224FF6FF7177
:104080003846FDF708FA290222463846FDF703FABA
:104090003046BDE8F04100220421FDF7FCB90000E4
:1040A000000C0048000800482DE9F0412A4F4FF469
:1040B000C878A7F1280497ED020B012553EC102BCB
:1040C00094ED060B002651EC100BFCF7D9F914D235
:1040D0006570A07808B1207B1FE02069C82821DC2A
:1040E000002100E001212078BDE8F041FFF7BABFD0
:1040F000404500DD2661BDE8F08197ED000B53ECF3
:10410000102B94ED060B51EC100BFCF7D1F90ED2ED
:104110006570A0780028E0D0207A401E8540257088
:10412000A670DAE7A0F1C901C729E1D8DAE766701D
:10413000A5700A4C012204212046FDF7ACF90122AA
:104140004FF6FF710648FDF7A6F92046BDE8F0419D
:1041500000220421FDF79FB930000020000C004828
:1041600000080048FDF7AAF9FEF7C4FEFEF76CFC54
:10417000FEF7E4FBFEF72AFCFEF7F6FC1448FDF719
:10418000B5FFFEF7A3FA134D012204212846FDF7DF
:1041900082F94FF6FF74012221460F48FDF77BF9A3
:1041A000002204212846FDF776F92046FEF7E6F9BD
:1041B0002046FEF7E5FA1F20FEF7F6FAFFF7FCFBB4
:1041C000FFF754FCFFF770FFFFF768FDF6E700000C
:1041D0007C010020000C004800080048000000009E
:1041E00000000000000000000000000000000000CF
:1041F00000000000000000000000000000000000BF
:10420000000000000000000000000000000080012D
:104210008001800180018001800180018001800196
:104220008001800180018001000000008001800188
:10423000000000000000000000000000000000007E
:10424000CC00CC00CC00CC00CC00CC0000000000A6
:10425000000000000000000000000000000000005E
:10426000000000000000000000000000000000004E
:104270000000000000000000600C600C600C3006C4
:104280003006FE1FFE1F300638071803FE1FFE1FF4
:10429000180318038C018C018C01000000008000C1
:1042A000E003F80F9C0E8C1C8C188C009800F80111
:1042B000E007800E801C8C188C189C18B80CF00F2E
:1042C000E00380008000000000000000000000000B
:1042D00000000E181B0C110C11061106110311031E
:1042E0009B018E01C038C06C60446044304430444F
:1042F0001844186C0C380000000000000000E001B9
:10430000F0033807180618063003F001F000F80033
:104310009C310E33061E061C061C063FFC73F02162
:10432000000000000000000000000000000000008D
:104330000C000C000C000C000C000C000000000035
:10434000000000000000000000000000000000006D
:10435000000000000000000000000000000000025B
:1043600000038001C000C000600060003000300029
:10437000300030003000300030003000600060005D
:10438000C000C00080010003000200000000200007
:104390006000C000800180010003000300060006E9
:1043A00000060006000600060006000600030003E3
:1043B00080018001C00060002000000000000000BB
:1043C0000000000000000000C000C000D806F80790
:1043D000E00130033807000000000000000000008A
:1043E00000000000000000000000000000000000CD
:1043F00000000000000000008001800180018001B9
:104400008001FC3FFC3F8001800180018001800130
:10441000000000000000000000000000000000009C
:10442000000000000000000000000000000000008C
:1044300000000000000000000000000000008001FB
:104440008001000100018000000000000000000069
:10445000000000000000000000000000000000005C
:1044600000000000E007E00700000000000000007E
:10447000000000000000000000000000000000003C
:10448000000000000000000000000000000000002C
:104490000000000000000000000000000000C0005C
:1044A000C000000000000000000000000000000C40
:1044B000000C000600060006000300030003800352
:1044C000800180018001C000C000C0006000600069
:1044D0000000000000000000000000000000E003F9
:1044E000F007380E180C0C180C180C180C180C18B7
:1044F0000C180C180C180C18180C380EF007E003E8
:1045000000000000000000000000000000000001AA
:104510008001C001F00198018801800180018001C3
:104520008001800180018001800180018001800183
:104530000000000000000000000000000000E00398
:10454000F80F180C0C180C1800180018000C0006B6
:1045500000038001C000600030001800FC1FFC1F39
:104560000000000000000000000000000000E0016A
:10457000F807180E0C0C0C0C000C0006C003C0074A
:10458000000C001800180C180C18180CF807E003A1
:104590000000000000000000000000000000000C0F
:1045A000000E000F000F800DC00C600C600C300C72
:1045B000180C0C0CFC3FFC3F000C000C000C000C19
:1045C0000000000000000000000000000000F80FE4
:1045D000F80F180018000C00EC03FC071C0E001C60
:1045E0000018001800180C181C0C180EF807E0032F
:1045F0000000000000000000000000000000C007F4
:10460000F00F381C181818000C00CC03EC0F3C0EEF
:104610001C1C0C180C180C18181C380EF007E003A2
:104620000000000000000000000000000000FC1F6F
:10463000FC1F000C00060006000380038001C0017F
:10464000C000E0006000600070003000300030000A
:104650000000000000000000000000000000E00377
:10466000F007380E180C180C180C3806F007F00775
:10467000180C0C180C180C180C18380CF80FE00358
:104680000000000000000000000000000000E00347
:10469000F007380E1C0C0C180C180C181C1C381EBB
:1046A000F81BE0190018000C000C1C0EF807F001B4
:1046B00000000000000000000000000000000000FA
:1046C00000000000000000008001800100000000E8
:1046D00000000000000000000000000080018001D8
:1046E00000000000000000000000000000000000CA
:1046F00000000000000000008001800100000000B8
:1047000000000000000000000000000080018001A7
:104710000001000180000000000000000000000017
:104720000000000000000000000000000010001C5D
:10473000800FE003F8001800F800E003800F001C71
:104740000010000000000000000000000000000059
:10475000000000000000000000000000F81F000042
:1047600000000000F81F0000000000000000000032
:104770000000000000000000000000000000000039
:1047800000000000000000000000000008003800E9
:10479000F001C007001F0018001FC007F00138001B
:1047A0000800000000000000000000000000E0031E
:1047B000F80F180C0C180C180018000C0006000359
:1047C0008001C000C000C00000000000C000C000A8
:1047D00000000000000000000000000000000000D9
:1047E000E00718180420C229224A11440944094448
:1047F000094409221113E20C024004201818E007B2
:104800000000000000000000000000000000800325
:104810008003C006C006C006600C600C301830185B
:104820003018F83FF83F1C700C600C6006C006C0E2
:104830000000000000000000000000000000FC0379
:10484000FC0F0C0C0C180C180C180C0CFC07FC0FB3
:104850000C180C300C300C300C300C18FC1FFC0702
:104860000000000000000000000000000000C00781
:10487000F01F38381C300C70066006000600060079
:1048800006000600060006600C701C30F01FE007F2
:104890000000000000000000000000000000FE0317
:1048A000FE0F060E061806180630063006300630D3
:1048B00006300630063006180618060EFE0FFE03F8
:1048C0000000000000000000000000000000FC3FAD
:1048D000FC3F0C000C000C000C000C00FC1FFC1F2B
:1048E0000C000C000C000C000C000C00FC3FFC3F0A
:1048F0000000000000000000000000000000F83F81
:10490000F83F18001800180018001800F81FF81FCA
:1049100018001800180018001800180018001800D7
:104920000000000000000000000000000000E00F98
:10493000F83F3C780E6006E007C00300030003FE6A
:1049400003FE03C007C006C00EC03CF0F83FE00FF6
:1049500000000000000000000000000000000C301B
:104960000C300C300C300C300C300C30FC3FFC3F69
:104970000C300C300C300C300C300C300C300C3057
:1049800000000000000000000000000000008001A6
:10499000800180018001800180018001800180010F
:1049A00080018001800180018001800180018001FF
:1049B00000000000000000000000000000000006F1
:1049C00000060006000600060006000600060006B7
:1049D000000600060006180618063807F003E00176
:1049E0000000000000000000000000000000063091
:1049F0000618060C060606038601C6006600760049
:104A0000DE008E0106030606060C06180630066058
:104A1000000000000000000000000000000018007E
:104A200018001800180018001800180018001800C6
:104A3000180018001800180018001800F81FF81FB8
:104A400000000000000000000000000000000EE078
:104A50001EF01EF01EF036D836D836D836D866CCC2
:104A600066CC66CCC6C6C6C6C6C6C6C686C386C320
:104A700000000000000000000000000000000C30FA
:104A80001C303C303C306C306C30CC30CC308C3115
:104A90000C330C330C360C360C3C0C3C0C380C3004
:104AA0000000000000000000000000000000E0071F
:104AB000F81F1C380E70066003C003C003C003C09B
:104AC00003C003C003C006600E701C38F81FE00767
:104AD0000000000000000000000000000000FC0FCB
:104AE000FC1F0C380C300C300C300C300C18FC1F38
:104AF000FC070C000C000C000C000C000C000C005F
:104B00000000000000000000000000000000E007BE
:104B1000F81F1C380E70066003E003C003C003C01A
:104B200003C003C007E006630E3F1C3CF83FE0F7FC
:104B300000C0000000000000000000000000FE0FA8
:104B4000FE1F06380630063006300638FE1FFE0708
:104B500006030606060C0618061806300630066020
:104B60000000000000000000000000000000E00362
:104B7000F80F1C0C0C180C180C001C00F803E00FAC
:104B8000001E0038063006300E301C1CF80FE007FF
:104B90000000000000000000000000000000FE7F98
:104BA000FE7F800180018001800180018001800101
:104BB00080018001800180018001800180018001ED
:104BC00000000000000000000000000000000C30A9
:104BD0000C300C300C300C300C300C300C300C30F5
:104BE0000C300C300C300C300C301818F81FE0076B
:104BF0000000000000000000000000000000036052
:104C00000630063006300C180C180C18180C180C4E
:104C1000380E30063006700760036003C001C00123
:104C20000000000000000000000000000000036021
:104C3000C361C361C361663366336633663366330B
:104C400066336C1B6C1B6C1B2C1A3C1E380E380E0A
:104C500000000000000000000000000000000FE065
:104C60000C7018303018700C600EC0078003800381
:104C7000C003E006700C301C18180C300E6007E002
:104C8000000000000000000000000000000003C061
:104C900006600C301C383818300C6006E007C00382
:104CA00080018001800180018001800180018001FC
:104CB0000000000000000000000000000000FC7F79
:104CC000FC7F006000300018000C0006000380012B
:104CD000C0006000300018000C000600FE7FFE7F60
:104CE0000000000000000000000000000000E003E1
:104CF000E003600060006000600060006000600031
:104D000060006000600060006000600060006000A3
:104D1000600060006000E003E0030000000030007D
:104D20003000600060006000C000C000C000C00132
:104D300080018001800100030003000300060006DB
:104D40000000000000000000000000000000E00380
:104D5000E00300030003000300030003000300035B
:104D6000000300030003000300030003000300032B
:104D7000000300030003E003E00300000000000064
:104D8000C001C00160036003600330063006180CE8
:104D9000180C0000000000000000000000000000EF
:104DA0000000000000000000000000000000000003
:104DB00000000000000000000000000000000000F3
:104DC0000000000000000000000000000000FFFFE5
:104DD000FFFF0000000000000000000000000C00C9
:104DE0000C000C000C000C000C0000000000000087
:104DF00000000000000000000000000000000000B3
:104E000000000000000000000000000000000000A2
:104E10000000000000000000F003F8071C0C0C0C60
:104E2000000FF00FF80C0C0C0C0C1C0FF80FF01806
:104E3000000000000000000000000000000018005A
:104E40001800180018001800D803F80F380C1818AC
:104E500018181818181818181818380CF80FD8033C
:104E60000000000000000000000000000000000042
:104E70000000000000000000C003F007300E180C16
:104E80001800180018001800180C300EF007C003A6
:104E900000000000000000000000000000000018FA
:104EA0000018001800180018C01BF01F301C18183C
:104EB00018181818181818181818301CF01FC01BCC
:104EC00000000000000000000000000000000000E2
:104ED0000000000000000000C003F00F300C1818A4
:104EE000F81FF81F180018003818301CF00FC00702
:104EF0000000000000000000000000000000800F23
:104F0000C00FC000C000C000F007F007C000C00024
:104F1000C000C000C000C000C000C000C000C00091
:104F20000000000000000000000000000000000081
:104F30000000000000000000E00DF80F180E0C0C3F
:104F40000C0C0C0C0C0C0C0C0C0C180EF80FE00DCF
:104F5000000C0C0C1C06F807F00100000000180003
:104F60001800180018001800D807F80F381C181877
:104F700018181818181818181818181818181818B1
:104F80000000000000000000000000000000C00061
:104F9000C000000000000000C000C000C000C00051
:104FA000C000C000C000C000C000C000C000C00001
:104FB0000000000000000000000000000000C00031
:104FC000C000000000000000C000C000C000C00021
:104FD000C000C000C000C000C000C000C000C000D1
:104FE000C000C000C000F8007800000000000C0005
:104FF0000C000C000C000C000C0C0C060C038C01BB
:10500000CC006C00FC009C018C030C030C060C0C07
:105010000000000000000000000000000000C000D0
:10502000C000C000C000C000C000C000C000C00080
:10503000C000C000C000C000C000C000C000C00070
:105040000000000000000000000000000000000060
:1050500000000000000000007C3CFF7EC7E383C12D
:1050600083C183C183C183C183C183C183C183C120
:105070000000000000000000000000000000000030
:1050800000000000000000009807F80F381C1818F6
:105090001818181818181818181818181818181890
:1050A0000000000000000000000000000000000000
:1050B0000000000000000000C003F00F300C1818C2
:1050C00018181818181818181818300CF00FC003F2
:1050D00000000000000000000000000000000000D0
:1050E0000000000000000000D803F80F380C18186A
:1050F00018181818181818181818380CF80FD8039A
:105100001800180018001800180000000000000027
:105110000000000000000000C01BF01F301C181829
:1051200018181818181818181818301CF01FC01B59
:1051300000180018001800180018000000000000F7
:105140000000000000000000B007F0037000300015
:1051500030003000300030003000300030003000CF
:10516000000000000000000000000000000000003F
:105170000000000000000000E003F003380E180CEF
:105180003800F003C007000C180C380EF007E003DD
:10519000000000000000000000000000000000000F
:1051A0008000C000C000C000F007F007C000C000D1
:1051B000C000C000C000C000C000C000C007800721
:1051C00000000000000000000000000000000000DF
:1051D000000000000000000018181818181818180F
:1051E00018181818181818181818381CF01FE01973
:1051F00000000000000000000000000000000000AF
:1052000000000000000000000C18180C180C180C0E
:10521000300630063006600360036003C001C00141
:10522000000000000000000000000000000000007E
:105230000000000000000000C141C141C361636380
:10524000636363633636363636361C1C1C1C1C1CE6
:10525000000000000000000000000000000000004E
:1052600000000000000000001C38381C300C6006F4
:1052700060036003600360036006300C381C1C3858
:10528000000000000000000000000000000000001E
:1052900000000000000000001830301830187018AE
:1052A000600C600CE00CC006C00680038003800325
:1052B00080018001C001F0007000000000000000CB
:1052C0000000000000000000FC1FFC1F000C000696
:1052D00000038001C000600030001800FC1FFC1FAC
:1052E00000000000000000000000000000000003BB
:1052F0008001C000C000C000C000C000C00060004D
:105300006000300060004000C000C000C000C0006D
:10531000C000C00080010003000000000000800108
:105320008001800180018001800180018001800175
:105330008001800180018001800180018001800165
:105340008001800180018001800100000000600078
:10535000C000C00180018001800180018001000344
:10536000000300060003000180018001800180012C
:1053700080018001C000600000000000000000000B
:10538000000000000000000000000000F010F81F06
:10539000080F0000000000000000000000000000F6
:1053A00000000000000000000000000000000000FD
:1053B000000000000102030406070809DC5300088E
:1053C0000000002054000000DC30000830540008C9
:1053D0005400002074050000EC3000080000FFFFBE
:1053E00000000000000001000000000001000000BB
:1053F00002000000000000000000000000000000AB
:1054000000000000000000000000000033333333D0
:1054100033330340333333333333F33F000000007F
:105420000024F40010000000010000000000000053
:04000005080001D915
:00000001FF
