:020000040800F2
:1000000090060020ED010008AB2C000863260008D4
:10001000A92C00088D080008193F00080000000006
:10002000000000000000000000000000C32F0008D6
:100030008F08000800000000AD2C0008C52F000844
:10004000070200080702000807020008070200086C
:10005000070200080702000807020008070200085C
:10006000070200080702000807020008070200084C
:10007000070200080702000807020008070200083C
:10008000070200080000000007020008070200083D
:10009000070200080702000807020008070200081C
:1000A00041300008070200080702000807020008A4
:1000B00007020008070200080702000807020008FC
:1000C00007020008070200080702000807020008EC
:1000D000070200080D3F0008070200080702000899
:1000E00007020008070200080702000807020008CC
:1000F00007020008070200080702000800000000CD
:1001000000000000070200080000000007020008CD
:1001100007020008000000000702000807020008AC
:10012000070200080702000807020008070200088B
:10013000070200080000000000000000070200089D
:10014000070200080702000800000000000000008D
:10015000000000000000000000000000000000009F
:10016000000000000000000000000000070200087E
:10017000070200080000000000000000000000006E
:10018000000000000702000800000000000000005E
:10019000000000000000000000000000000000005F
:1001A000000000000000000007020008070200082D
:1001B000070200080702000807020008000000000C
:1001C000000000000702000800000000000000001E
:1001D0000702000807020008DFF80CD000F044FB1B
:1001E00000480047954D00089006002006488047CB
:1001F00006480047FEE7FEE7FEE7FEE7FEE7FEE70C
:10020000FEE7FEE7FEE7FEE725300008D90100081B
:100210002DE9F05F0546002092469B46884606463B
:10022000814640241BE0284641464746224600F0CE
:10023000DEF953465A46C01A914110D3114618466A
:10024000224600F0C5F92D1A67EB01084F462246F9
:100250000120002100F0BCF917EB00094E41201EDF
:10026000A4F10104DFDC484631462A464346BDE896
:10027000F09FD2B201E000F8012B491EFBD270477B
:100280000022F6E710B513460A4604461946FFF762
:10029000F0FF204610BD421C10F8011B0029FBD1C5
:1002A000801A704710B5002200E0521C835C8C5C01
:1002B000A34201D1002BF8D1D8B2E1B2401A10BD4F
:1002C0002DE9FE4F804681EA0300C00F0C460090E6
:1002D00021F0004123F00045B8EB0200A94105D20E
:1002E0004046214690461C460B46024623F00040FD
:1002F000104347D0270DC7F30A00C3F30A510290F9
:10030000401A019040286BDAC3F3130040F4801BBD
:100310000098924620B10023D2EB030A63EB0B0B4B
:1003200001985946C0F14002504600F051F9064686
:100330000D4650465946019A00F069F910EB080045
:100340006141002487EA115284EAE7731A4340D0DE
:10035000009A62B3019A012A4FEA075215DC001B8A
:1003600061EB02014FF0004202EA0752CDE9004280
:10037000001C41F5801132462B4600F0A0F903B075
:10038000BDE8F08F40462146F9E7001B61EB020112
:10039000001C41F5801300185B412018A2F50017DE
:1003A00047EB030140EAD570B6196D4111E06D08C5
:1003B0004FEA360645EAC0754FEA0752001B61EB6B
:1003C0000201001C41F5801149084FEA3000001974
:1003D000514132462B4603B0BDE8F04F00F060B902
:1003E0000098012240000023D0EB020263EBE0738F
:1003F000009821464FEAE074B8EB000061EB04017D
:10040000E9E783F000435BE781F0004158E72DE91D
:10041000FE4F81EA030404F0004421F000410094FF
:100420004FF0000B23F0004350EA01045ED052EA83
:1004300003045BD0C3F30A54C1F30A552C44A4F25D
:10044000F3340194A0FB0254C1F3130141F4801171
:10045000C3F3130343F4801301FB024400FB034E78
:10046000840A970A44EA815447EA8357A4FB076841
:1004700002958D0A05FB07854FEA932C04FB0C546B
:100480002705029D4FEA065847EA1637B5EB0805DF
:100490006EEB070C870E920E47EA811742EA831231
:1004A000A7FB0201B6EB0B0164EB00042B0D43EA42
:1004B0000C335E1844EB1C50DA465146E7FB020150
:1004C000C5F313044FEA0B3343EA14534FEA0432E3
:1004D000019C43EA0603A4F10C040294009CCDE9BC
:1004E00000B400F0ECF803B0BDE8F08F0020014646
:1004F000F9E70EB5C10F80EAE0700844CA07002191
:1005000040F233438DE80E000A460B4600F0D7F860
:1005100003B000BD00F0004230F000400AD0C10D31
:1005200001F56071C0F3160042EA0151C2084007AC
:1005300011437047002001467047000030B5041E8B
:1005400071F1000404DB4FF00044404264EB010110
:10055000141E73F1000405DB1C464FF000435242A9
:1005600063EB0403994208BF904230BD01F00043A1
:1005700030B421F0004150EA010206D00A0DA2F584
:100580006072C1F31301002A02DC30BC0020704706
:10059000440F44EAC104C100E01830BC00EBC25073
:1005A00000F047B830B50B46014600202022012458
:1005B00009E021FA02F59D4205D303FA02F5491B31
:1005C00004FA02F52844151EA2F10102F1DC30BD47
:1005D000202A04DB203A00FA02F100207047914003
:1005E000C2F1200320FA03F3194390407047202AF8
:1005F00004DB203A21FA02F00021704721FA02F3CD
:10060000D040C2F120029140084319467047202A89
:1006100006DBCB17203A41FA02F043EAE07306E02A
:1006200041FA02F3D040C2F120029140084319463A
:1006300070470029A8BF7047401C490008BF20F040
:100640000100704710B4B0FA80FC00FA0CF050EAD8
:10065000010404BF10BC704749B1CCF1200421FA59
:1006600004F411FA0CF118BF012121430843A3EB54
:100670000C01CB1D4FEA00614FEA102042BF002061
:1006800010BC704700EBC35010440029A4BF10BC3D
:100690007047401C490008BF20F0010010BC7047A3
:1006A00010B5141E73F1000408DA401C41F100017A
:1006B00092185B411A4301D120F0010010BD2DE9D1
:1006C000F04D92469B4611B1B1FA81F202E0B0FAC8
:1006D00080F220329046FFF77BFF04460F4640EA47
:1006E0000A0041EA0B0153465A46084313D011460B
:1006F00053EA010019D0C8F140025046FFF777FFD6
:1007000005460E46504659464246FFF761FF0843EC
:1007100005D0012004E020463946BDE8F08D0020D8
:10072000054346EAE0762C4337430A986305E40A1A
:10073000A0EB08000022FD0A44EA47540A3002D523
:1007400000200146E9E7010510196941DDE9084586
:1007500000196941BDE8F04DA2E72DE9F04D81EAAD
:10076000030404F0004B21F0004514464FF0000A4A
:1007700023F0004150EA050220D054EA01021DD0C6
:10078000C5F30A570246C5F31303C1F31300C1F3BF
:100790000A5640F4801543F48013A7EB0608101B9B
:1007A000D64608F2FD3873EB050002D308F10108C4
:1007B00001E092185B41B8F1000F03DA0020014616
:1007C000BDE8F08D00204FF48011064684460EE00F
:1007D000171B73EB050705D3121B63EB05030643D9
:1007E0004CEA010C49084FEA300092185B4150EA8C
:1007F0000107EDD152EA030012D082EA040083EA35
:100800000501084305D0101BAB4106D2012200238D
:1008100006E000224FF0004302E06FF001025310A7
:100820001AEB06004CEB085110EB0A0041EB0B01F0
:10083000BDE8F04DFFF734BFC1F30A52C1F3130115
:1008400040F2FF3341F480119A4202DA002001465F
:10085000704740F233439A42A2F2334202DC5242E2
:10086000FFF7C5BEFFF7B4BE064C074D06E0E068D3
:1008700040F0010394E8070098471034AC42F6D3E7
:10088000FFF7AEFC88600008A8600008FEE770472C
:10089000002240F6B83306E00021491C89B2994293
:1008A000FBD3521C92B28242F6D37047704710B508
:1008B00090F8253000210122022B03D00421C163CE
:1008C000012122E003681C6824F00E041C60836C84
:1008D0001C6824F480741C6003681C6824F0010404
:1008E0001C6090F84430046C03F01F0302FA03F319
:1008F0006360D0E913345C60436D33B11C6824F449
:1009000080741C60D0E916345C6080F825200022D9
:1009100080F82420084610BD70B590F825200024EA
:1009200001212346022A07D00422C26380F8251041
:1009300080F82430012429E00268156825F00E05AE
:1009400015600268156825F001051560826C156850
:1009500025F48075156090F84420056C02F01F02A4
:1009600001FA02F26A60D0E913255560426D32B196
:10097000156825F480751560D0E91625556080F856
:10098000251080F82430816B01B18847204670BD66
:1009900070B5044600F03CF90546601C02D00448DE
:1009A0004068044400F034F9401BA042FAD370BD03
:1009B000440000202DE9F04FDFF8209200230126AB
:1009C0000324A9F1040B85B00F2709F1040AABF148
:1009D000040EFAE006FA03F52A407CD091F804C030
:1009E0000CF0030CBCF1010F02D0BCF1020F26D1B8
:1009F000D0F808C0CDF800C04FEA430C04FA0CF858
:100A0000CDF810C0DDF800C02CEA080CCDF800C00D
:100A1000D1F80C80DDF810C008FA0CF8DDF800C041
:100A200048EA0C08C0F80880D0F804C02CEA050C8D
:100A30000D79C5F300159D4045EA0C0545600D791B
:100A4000ED43AD070ED0C5684FEA430804FA08FC31
:100A500025EA0C05D1F808C00CFA08FC4CEA050C94
:100A6000C0F80CC00D7905F00305022D16D1DD0884
:100A700000EB850CCDF808C0DCF820805D074FEA5C
:100A8000D56C07FA0CF528EA05080D6905FA0CF58E
:100A9000DDF808C045EA0805CCF8205005684FEAA3
:100AA000430CCDF808C004FA0CFC25EA0C0591F8BB
:100AB00004C00CF00308DDF808C008FA0CF848EA96
:100AC0000508C0F800804D6815F4403F7CD0444DC7
:100AD000D5F860C000E077E04CF0010CC5F860C0CC
:100AE0002D6E23F0030C05F0010500953D4D654486
:100AF0000295AD684FEA837C4FEA1C7807FA08FC40
:100B000025EA0C05B0F1904F06D0DFF8DCC0604557
:100B100005D14FF0010C20E04FF0000C1DE0DFF894
:100B2000CCC0604502D14FF0020C16E0DFF8C0C027
:100B3000604502D14FF0030C0FE0DFF8B8C060450C
:100B400002D14FF0040C08E0DFF8ACC0604502D1E0
:100B50004FF0050C01E04FF0060C0CFA08FC4CEAD3
:100B6000050C029DC5F808C0D9F80050CC46D1F854
:100B7000048095435FEAC82800D51543CCF800509F
:100B8000DAF80050D446D1F8048095435FEA88280B
:100B900000D51543CCF80050DBF80050DC46D1F806
:100BA000048095435FEA883800D51543CCF800509F
:100BB000DEF80050F446D1F8048095435FEAC83867
:100BC00000D51543CCF800505B1C0A6832FA03F5D7
:100BD0007FF400AF05B0BDE8F08F000008040140CD
:100BE00000100240000001400004004800080048D6
:100BF000000C00480010004800140048006908403C
:100C000000D0012070470AB181617047816270474E
:100C10000148806870470000440000200248816855
:100C200042681144816070474400002010B50024E0
:100C3000032000F073F8002000F008F808B1012448
:100C400001E000F025F8204610BD000070B50E4E02
:100C500005460024706898B14FF47A71B1FBF0F04A
:100C60000A490968B1FBF0F000F064FD40B9102DAD
:100C700006D200222946501E00F030F8356000E010
:100C80000124204670BD00004400002040000020E8
:100C90000A4882B0016E41F001010166016E01F067
:100CA00001010091816D41F080518165806D00F0FE
:100CB0008050009002B000F0A1B800000010024087
:100CC000002809DB00F01F0201219140400980004B
:100CD00000F1E020C0F8001170470000F0B40E4BA6
:100CE0001B680C46C3F30223C3F10705042D00D98A
:100CF0000425191D072901D2002300E0DB1E01266F
:100D000006FA05F1491E214099409E40761E164084
:100D10003143F0BC03F026B90CED00E0064900F0C9
:100D2000070208684FF6FF03184040EA0220034A12
:100D300010430860704700000CED00E00000FA0569
:100D40002B492C4B0A6832214A432B4940B1B0F55C
:100D5000007F086829D020F4C06040F480602CE057
:100D60000868C0F34120022804D051F8800F20F415
:100D7000807022E0D1F8800020F48070C1F88000FB
:100D8000086820F4C06040F400700860B2FBF3F023
:100D9000401C00E0401E4A69520501D50028F9D1E7
:100DA000486940050AD503207047C0F34120022856
:100DB00006D051F8800F40F4807008600020704722
:100DC000D1F8800040F48070C1F88000086820F4F9
:100DD000C06040F400700860B2FBF3F0401C00E01B
:100DE000401E4A695205DBD50028F9D1D8E700003A
:100DF0004000002040420F0000700040024881681F
:100E000041F4804181607047007000402DE9F84353
:100E10000446006800269D4D00035ED5A86D00279E
:100E2000C00008D4A86D40F08050A865A86D0127C7
:100E300000F080500090DFF85892D9F8001041F48B
:100E40008071C9F80010FFF7E3FE804606E000BF9E
:100E5000FFF7DEFEA0EB080002282BD8D9F800002F
:100E6000C005F5D5D5F8900010F4407014D0216C71
:100E7000814211D0D5F89000D5F8901020F4407040
:100E800041F48031C5F89010D5F8901021F48031EC
:100E9000C5F89010C5F89000C00711D0FFF7B8FE54
:100EA000804641F2883907E0FFF7B2FEA0EB080167
:100EB000494501D903260BE0D5F890008007F3D50A
:100EC000D5F89000216C20F440700843C5F89000DC
:100ED0001FB1A86D20F08050A8652078C00707D00A
:100EE000D5F88800616820F003000843C5F8880041
:100EF0002078800707D5D5F88800A16820F00C007D
:100F00000843C5F888002078400707D5D5F8880041
:100F1000E16820F030000843C5F888002078000719
:100F200007D5D5F88800216920F0C0000843C5F82E
:100F300088002078800607D5D5F88800616920F4FC
:100F400040600843C5F888002078400607D5D5F8EA
:100F50008800A16920F440500843C5F88800207833
:100F6000000607D5D5F88800E16920F44040084321
:100F7000C5F888002088C00507D5D5F88800216A03
:100F800020F440300843C5F888002088800507D544
:100F9000D5F88800616A20F440200843C5F888002D
:100FA000208840050FD5D5F88800A16A20F44010AC
:100FB0000843C5F88800A06AB0F5801F03D1E8682F
:100FC00040F48010E860208800050FD5D5F888002F
:100FD000E16A20F440000843C5F88800E06AB0F5F3
:100FE000800F03D1E86840F48010E8602088C004D6
:100FF0000FD5D5F88800216B20F040700843C5F864
:101000008800206BB0F1807F03D1E86840F4801045
:10101000E86020884FF0006180040ED5D5F8880084
:10102000626B20F040601043C5F88800606B884216
:1010300003D1E86840F48010E860208840040ED5B1
:10104000D5F88800A26B20F040601043C5F88800F6
:10105000A06B884203D1E86840F48010E8602088E3
:1010600000040FD5D5F88800E16B20F0405008430C
:10107000C5F88800E06BB0F1805F03D1E86840F408
:101080008030E8603046BDE8F88300000010024080
:10109000007000402DE9F0470E4605004FF00007B4
:1010A00025D0DFF8AC81D8F8000000F00F00B04286
:1010B0000CD2D8F8001021F00F013143C8F800100D
:1010C000D8F8000000F00F00B04210D12968614C40
:1010D000C80741F2883A5AD06868DFF87C91032843
:1010E00008D0022820682DD0400500282CDB0120E4
:1010F000BDE8F08720688001F9D5E06800F00302C0
:10110000E068C0F30310401C032A19D0534A00BF03
:10111000B2FBF0F0E268C2F306225043E268C2F389
:101120004162521C5200B0FBF2F0484517D9A0684A
:1011300010F0F00F0CD0880711D5A86840B10EE070
:10114000474AE5E78003D0E700F0B6F8484506D9FE
:10115000A06820F0F00040F08000A0608027A06828
:10116000696820F003000843A060FFF751FD814645
:1011700006E000BFFFF74CFDA0EB090151453AD84E
:10118000A068696800F00C00B0EB810FF2D128680C
:10119000810714D5400703D5A06840F4E060A06043
:1011A0002878000705D5A06820F4605040F4E0607E
:1011B000A060A068A96820F0F000084304E0802F38
:1011C00003D1A06820F0F000A060D8F800104046DD
:1011D00001F00F01B14216D9016821F00F0131432E
:1011E0000160FFF715FD074607E000BFFFF710FDA0
:1011F000C11B514501D903207AE7D8F8000000F05F
:101200000F00B042F2D12878400705D5A068E96800
:1012100020F4E0600843A0602878000706D5A068A5
:10122000296920F4605040EAC100A06000F044F851
:10123000A1680C4AC1F30311515C01F01F01C840C1
:101240000949086009480068BDE8F047FFF7FEBC9F
:10125000002002400010024000B4C4040024F40046
:1012600000366E0148600008400000204400002065
:101270000548064900688968054AC1F30221515CA6
:1012800001F01F01C84070474000002000100240DC
:10129000586000080548064900688968054AC1F396
:1012A000C221515C01F01F01C8407047400000207E
:1012B0000010024058600008184910B58868C0F353
:1012C00081021748012A0BD08A68164BC2F38102AB
:1012D000022A06D08A68C2F38102032A03D00020C2
:1012E00010BD184610BDCA6802F00304CA68C2F3F4
:1012F0000312521C032C02D0B0FBF2F001E0B3FB4E
:10130000F2F0CA68C968C2F306225043C1F34161D2
:10131000491C4900B0FBF1F010BD00000010024074
:101320000024F40000366E012DE9F84304007AD061
:101330002078FA4DC00747D0A868E96800F00C0093
:1013400001F003010C2802D0082817D001E003297E
:1013500014D06068B0F5803F17D0B0F5A02F286892
:1013600017D020F480302860286820F4802028607E
:101370006068E0B1FFF74CFC064614E02868800383
:1013800022D560680028D2D01EE0286840F4803062
:10139000EDE740F480202860F7E700BFFFF738FC56
:1013A000801B642870D828688003F7D50CE0FFF70D
:1013B0002FFC064605E000BFFFF72AFC801B6428CF
:1013C000F0D828688003F7D4207880074CD5A86827
:1013D000E96800F00C0001F003010C2802D0042899
:1013E0000DD001E002290AD0E068002828682BD03F
:1013F00040F480702860FFF70BFC064619E028686F
:10140000400502D5E068002891D06868217C20F072
:10141000FE4040EA01606860C1480068FFF716FCC2
:10142000002800D120E076E1FFF7F2FB801B0228C4
:10143000B8D828684005F7D56868217C20F0FE40C0
:1014400040EA016068600FE020F480702860FFF7D8
:10145000DFFB064605E000BFFFF7DAFB801B022832
:10146000A0D828684005F7D42078000729D56069FE
:101470000028D5F8940013D040F00100C5F894007E
:10148000FFF7C6FB064606E090E000BFFFF7C0FB93
:10149000801B022886D8D5F894008007F6D510E086
:1014A00020F00100C5F89400FFF7B2FB064604E007
:1014B000FFF7AEFB801B022878D8D5F89400800790
:1014C000F6D42078400761D5A86D0026C00008D466
:1014D000A86D40F08050A865A86D012600F08050EE
:1014E000009090480168C90511D40168804641F414
:1014F00080710160FFF78CFB074604E0FFF788FB73
:10150000C01B022852D8D8F80000C005F6D5A06844
:10151000012815D00528D5F8900016D020F001003C
:10152000C5F89000D5F8900020F00400C5F89000B0
:10153000A06841F28838B8B1FFF76AFB07460EE0B1
:10154000D5F8900040F00100F0E740F00400C5F845
:101550009000F5E7FFF75CFBC11B414526D8D5F8A5
:1015600090008007F6D50CE0FFF752FB074604E039
:10157000FFF74EFBC11B414518D8D5F890008007F6
:10158000F6D41EB1A86D20F08050A86520788006A2
:1015900029D5A0690028D5F8980013D040F00100A3
:1015A000C5F89800FFF734FB064606E077E000BF79
:1015B000FFF72EFB801B022877D8D5F8980080070C
:1015C000F6D510E020F00100C5F89800FFF720FBE9
:1015D000064604E0FFF71CFB801B022865D8D5F8FF
:1015E00098008007F6D4E069F0B3A968C1F38101DF
:1015F000032961D00228286820F0807028600BD071
:10160000E86820F00300E860E86847490840E860BF
:10161000FFF7FEFA04464BE0FFF7FAFA064604E04D
:10162000FFF7F6FA801B02283FD828688001F7D41C
:10163000F4E908016FF00F0202EB01110843218A5F
:101640005204490802EB4151A26841EA02210843D1
:10165000217D4FF07E42490802EB41610843217B26
:1016600040EAC160E96800E062E0304A11400843A6
:10167000E860286840F080702860E86840F080707A
:10168000E860FFF7C5FA044605E000BFFFF7C0FABF
:10169000001B022809D828688001F7D548E004E03B
:1016A000FFF7B6FA001B022802D90320BDE8F88331
:1016B00028688001F4D43BE00128F7D0E868226A6A
:1016C00000F00301914226D1616A00F0F0020901A5
:1016D000103991421FD1A26A00F4FE41B1EB022FF2
:1016E00019D194F82C2000F07841B1EBC26F12D1DF
:1016F000218E00F4C00249084905A1F5001191426C
:1017000009D194F8341000F0C06049084906A1F1ED
:10171000007181420CD00120C8E700000010024097
:101720004400002000700040FFFFEEFE0C809F018F
:101730000020BBE710B5401EB0F1807F01D301202F
:1017400010BD4FF0E02460610F21601702F00AFC29
:101750000020A06107202061002010BD7047704765
:1017600070470000F0B590F83C20012A4AD00122D1
:1017700080F83C20CA688B6822F440721A434B6898
:1017800022F480621A430B6822F400621A430B6948
:1017900022F480521A434B6922F400521A430B6B15
:1017A00022F480421A430B8B22F4702242EA034255
:1017B000154C03680026154DA34201D0AB4203D15E
:1017C000CF6922F080523A43A34201D0AB4214D1F8
:1017D0000F8D22F4700242EA07520F6A22F08072E3
:1017E0003A434F6A22F000723A43A34201D0AB421F
:1017F00003D1C96A22F000520A435A6480F83C605F
:101800000020F0BD0220F0BD002C0140003401405A
:101810007047704770470000F0B590F83C20012AEF
:101820003AD0012580F83C50022280F83D20036820
:101830005A689C68194E1A4FB34201D0BB4204D17A
:1018400022F4700C4A6842EA0C02DFF858C002EA3F
:101850000C02D1F800C04CEA020CC3F804C00268C4
:10186000B2420DD0B2F1804F0AD00F4B9A4207D04E
:101870000E4B9A4204D0BA4202D00D4B9A4204D188
:10188000896824F080031943916080F83D5000215D
:1018900080F83C100846F0BD0220F0BD002C01404D
:1018A000003401408FFFFFFD0004004000080040AD
:1018B00000400140704710B5040003D094F83D008B
:1018C00010B107E0012010BD002084F83C00204644
:1018D00000F022F8022084F83D00211D206801F06C
:1018E000B5FB012084F8480084F83E0084F83F00EE
:1018F00084F8400084F8410084F8420084F84300F2
:1019000084F8440084F8450084F8460084F84700D1
:1019100084F83D00002010BD08B5114A0168114847
:10192000914211D1016E41F480310166006E0022B6
:1019300000F48030009011461820FFF7CFF9BDE881
:1019400008401820FFF7BCB9074A914207D1016E41
:1019500041F480210166006E00F48020009008BDF3
:1019600000400140001002400048014090F83D1046
:10197000012901D001207047022180F83D10016843
:10198000CA6842F00102CA600068104988420ED05D
:10199000B0F1804F0BD00E49884208D00D498842E3
:1019A00005D00D49884202D00C49884207D1816890
:1019B0000B4A1140062906D0B1F5803F03D00168DB
:1019C00041F001010160002070470000002C01403F
:1019D0000004004000080040003401400040014085
:1019E0000700010070B5044690F83C00002501286E
:1019F00014D0012684F83C60022084F83D0022685F
:101A00009068364B184020F47F409060086870283A
:101A10002ED010DC10F00F0F03D021E04FF00200A9
:101A200070BD4FEA2012072A1AD2DFE802F05252A4
:101A300052524A3840002A4BC21A984249D009DC17
:101A4000B0F5805F0DD0B0F5005F1CD0B0F1101F75
:101A500006D13EE0102A3CD0202A3AD0502A38D075
:101A6000012584F83D60002084F83C00284670BDC4
:101A7000CB68D1E90121206801F04DFB2068816825
:101A800041F0770109E0CB68D1E90121206801F03C
:101A900042FB2068816841F480418160E1E7CA68C7
:101AA0004968206801F0E2FC5021206806E0CA681D
:101AB0004968206801F0EBFC6021206801F036FBEA
:101AC000CFE7CA684968206801F0D0FC402120684F
:101AD000F4E7226801461046F0E7000088FFCEFFD9
:101AE00020001000704770B50446006801694FF08F
:101AF0000005C943890715D4C168C943890711D4B2
:101B0000E91E016101202077206880698007204656
:101B100002D0FFF7E7FF04E000F00CF9204600F0E8
:101B2000CEF9257720680169C943490717D4C168F0
:101B3000C943490713D46FF00401016102202077E3
:101B40002068806910F4407F204602D0FFF7CAFF6A
:101B500004E000F0EFF8204600F0B1F925772068A6
:101B60000169C943090716D4C168C943090712D4DA
:101B70006FF008010161042020772068C0698007A8
:101B8000204602D0FFF7AEFF04E000F0D3F8204675
:101B900000F095F9257720680169C943C90617D473
:101BA000C168C943C90613D46FF010010161082050
:101BB00020772068C06910F4407F204602D0FFF7EC
:101BC00091FF04E000F0B6F8204600F078F92577A0
:101BD00020680169C943C90708D1C168C943C90759
:101BE00004D1891E0161204600F0E8F920680169EE
:101BF000C943090609D4C168C943090605D46FF071
:101C0000800101612046FFF7AAFD20680169C943F0
:101C1000C90509D4C168C943090605D46FF48071A8
:101C200001612046FFF79AFD20680169C943490612
:101C300009D4C168C943490605D46FF04001016168
:101C4000204600F00DFA20680169C943890609D4CD
:101C5000C168C943890605D46FF02001016120469F
:101C6000FFF77EFD20680169C943C90209D4C16834
:101C7000C943C90205D46FF4801101612046FFF702
:101C8000C8FD20680169C943890209D4C168C943F4
:101C9000890205D46FF4001101612046FFF7B8FDF9
:101CA00020680169C943490209D4C168C94349028E
:101CB00005D46FF4800101612046FFF7ABFD206879
:101CC0000169C94309020BD4C168C943090207D499
:101CD0006FF4000101612046BDE87040FFF7EABDE6
:101CE00070BD000010B586B0044614216846FEF7AA
:101CF000C7FA0E492068884216D10D48C16C41F0E0
:101D00000101C164C06C694600F0010005908020AB
:101D10000090022001900020029003900120049086
:101D20004FF09040FEF746FE06B010BD004801405F
:101D300000100240704770B5044690F83C00002641
:101D40000D4601280BD0012084F83C000C2A4AD013
:101D500007DC82B1042A20D0082A06D131E0022013
:101D600070BD102A53D0142A63D00126002084F8B5
:101D70003C00304670BD206801F0E2F920688169BE
:101D800041F0080181612068816921F004018161CD
:101D9000206881692A69114311E0206801F01EFA68
:101DA0002068816941F4006181612068816921F4C2
:101DB00080618161206881692A6941EA022181612B
:101DC000D4E7206801F052FA2068C16941F00801A7
:101DD000C1612068C16921F00401C1612068C16945
:101DE0002A69114311E0206801F088FA2068C1696E
:101DF00041F40061C1612068C16921F48061C16161
:101E00002068C1692A6941EA0221C161AEE7206800
:101E100001F0BCFA2068016D41F0080101652068FD
:101E2000016D21F0040101652068016D2A691143EB
:101E300011E0206801F0E2FA2068016D41F40061D0
:101E400001652068016D21F4806101652068016DE4
:101E50002A6941EA0221016588E710B5040003D030
:101E600094F83D0010B107E0012010BD002084F877
:101E70003C00204600F022F8022084F83D00211D9D
:101E8000206801F0E3F8012084F8480084F83E005F
:101E900084F83F0084F8400084F8410084F8420050
:101EA00084F8430084F8440084F8450084F8460030
:101EB00084F8470084F83D00002010BD704770474B
:101EC00030B50446022269B1042912D0082917D07E
:101ED0000C291CD0102921D094F84300012824D0CB
:101EE000012030BD94F83E000128F9D184F83E204D
:101EF0001DE094F83F000128F2D184F83F2016E05D
:101F000094F840000128EBD184F840200FE094F8C9
:101F100041000128E4D184F8412008E094F842000F
:101F20000128DDD184F8422001E084F84320012219
:101F3000206801F0E3F8194B20681949194A9842C2
:101F400009D0884207D0904205D0174DA84202D050
:101F5000164DA84203D1456C45F400454564206800
:101F600098420CD0B0F1804F09D0114B984206D066
:101F7000104B984203D0884201D0904207D181682B
:101F80000D4A1140062906D0B1F5803F03D0016803
:101F900041F001010160002030BD0000002C014033
:101FA000003401400040014000440140004801402D
:101FB0000004004000080040070001002DE9F04146
:101FC0000068234988423BD1224D01212846FEF773
:101FD00015FE00B10120204C022160702846FEF75A
:101FE0000DFE00B10120607304212846FEF706FEB5
:101FF00000B10120607601214FF09040FEF7FEFD18
:1020000000B10120154A84F82500506A46281CDBDF
:10201000002001254FEA000300EB400604EB860197
:102020004F6817B1012F07D103E04E7826B94D60F4
:1020300002E04F7837B14B60401C0428ECDB536260
:10204000BDE8F08104F82650F6E7401C5062F7E73F
:102050000040014000040048540000200800002017
:10206000704790F88010012918D0012180F8801065
:102070002421C0F8841050F8641B0A680B6823F010
:1020800001030B6022F000510022026050F8643C12
:1020900019602021016202771046704702207047C4
:1020A0007047704770B5044690F8800001281DD035
:1020B000012084F880002420C4F88400206805688A
:1020C000026822F0010202602068826822F06062E9
:1020D0000A438260204601F0EDF920680560202067
:1020E000C4F88400002084F8800070BD022070BD18
:1020F00070B5044690F8800001281DD0012084F8B6
:1021000080002420C4F8840020680568026822F05A
:10211000010202602068826822F060420A43826005
:10212000204601F0C7F9206805602020C4F884002B
:10213000002084F8800070BD022070BD7047704799
:10214000704700002DE9F04103680446D86919681A
:102150009A6840F60F0528424FF0000509D186061F
:102160007ED501F0200602F080573E4378D0216FE3
:1021700027E1A94EA94F16400F40374370D0C7073B
:1021800009D0CF0507D501271F62D4F88C3043F062
:102190000103C4F88C3083070AD5D30708D0276819
:1021A00002233B62D4F88C3043F00403C4F88C3033
:1021B00043070AD5D30708D0276804233B62D4F825
:1021C0008C3043F00203C4F88C3003070CD501F0C7
:1021D0002003334308D0266808233362D4F88C30B8
:1021E00043F00803C4F88C3003050BD54B0109D527
:1021F00026684FF400633362D4F88C3043F0200338
:10220000C4F88C30D4F88C30002B3AD0800609D535
:1022100001F0200002F08051084303D0216F09B182
:1022200020468847D4F88C0021688968490602D482
:1022300010F0280F27D0204601F0FCF920688068B4
:1022400040061BD52068083050E8001F21F04001EF
:1022500040E80012002AF5D1E06F78B1704900E043
:1022600017E08163E06FFEF757FB002809D0E06FAD
:10227000816B00E02046BDE8F04108472046FFF7AB
:102280005FFFBDE8F0812046FFF75AFFC4F88C508D
:10229000F7E7E76E2026012F7ED1C7067CD5CF0653
:1022A0007AD51020186220688068400642D5E16F18
:1022B000086840680004000CE3D0B4F85C20824257
:1022C000DFD9A4F85E000868006880062BD4206877
:1022D00050E8001F21F4807140E80012002AF6D176
:1022E0002068083050E8001F21F0010140E800128A
:1022F000002AF5D12068083050E8001F21F0400185
:1023000040E80012002AF5D1C4F88860E56621682B
:1023100051E8000F20F0100041E80002002AF6D139
:10232000E06FFEF7C4FAB4F85C00B4F85E10401A2F
:1023300081B22CE0B4F85C00B4F85E10401A81B2AF
:10234000B4F85E0000289CD000299AD0226852E898
:10235000000F20F4907042E80003002BF6D12E4BC2
:10236000DB432068083050E8002F1A4040E800277F
:10237000002FF6D1C4F88860E5662567226852E828
:10238000000F20F0100042E80003002BF6D1204699
:10239000FFF786FE75E7FFE7C70209D5570207D5A5
:1023A0004FF4801018622046BDE8F041FFF7C7BE29
:1023B00003060AD501F0800302F40002134304D09F
:1023C000616F00297FF456AF5BE7420611D54A06DC
:1023D0000FD52046016851E8002F22F0400241E865
:1023E0000023002BF6D1C0F88460456700F038F96F
:1023F00047E7020206D54A0004D52046BDE8F04171
:10240000FFF79CBEC001C5D50029C3DA2046BDE850
:10241000F041FFF746BE000001000010200100045B
:102420002136000810B5040003D0D4F8840010B1A0
:1024300007E0012010BD002084F88000204600F055
:1024400027F82420C4F884002068016821F00101E5
:102450000160204601F030FB0128EBD0A06A10B1EA
:10246000204601F049F82068416821F4904141601C
:102470002068816821F02A0181602068016841F0AC
:10248000010101602046BDE8104001F099B800004C
:1024900010B598B00446142111A8FDF7F1FE4421AF
:1024A0006846FDF7EDFE1B492068884230D10120C7
:1024B0000024CDE900046846FEF7A8FC08B1FEF749
:1024C000F5F91548016E41F480410166016E01F491
:1024D00080411691C16C41F00101C164C06C11A929
:1024E00000F0010016904FF4C06011900220CDE979
:1024F00012040720CDE914404FF09040FEF75AFA3D
:10250000002211462520FEF7E9FB2520FEF7D8FB27
:1025100018B010BD003801400010024030B4D0F8AF
:102520008830202B20D1E1B1DAB190F88030012B36
:102530001AD0012380F880300023C3660B4C036857
:10254000A3420BD05B681B0208D5046854E8003F27
:1025500043F0806344E80035002DF6D130BC01F033
:10256000E5BB012030BC70470220FBE70080004043
:102570000068084988420BD10748084B41684278F7
:102580005A54491C01224160411C0548FFF7C6BF4F
:1025900070470000003801400800002014010020AE
:1025A000FC0100202DE9F8430446D0F884001F46C2
:1025B00016460D46202851D1DDB1D6B194F88000E1
:1025C00001284BD0012084F880004FF00008C4F8A7
:1025D0008C802120C4F884001834FEF719FBA687EC
:1025E0008146E68754F8100C183CB0F5805F03D0A4
:1025F00004E00120BDE8F883206920B12E460025C3
:1026000084F8808010E00026FAE78021204601F05F
:1026100019FCB8B9C6B116F8010B21688862B4F884
:102620005600401EA4F85600B4F856004B464FF032
:10263000000200970028E8D14FF04001204601F049
:1026400001FC30B10320D5E735F8020BC0F30800D8
:10265000E3E72020C4F884000020CBE70220C9E78C
:102660007047FEE700B585B014216846FDF708FE07
:102670004FF6FF70009000200321CDE90201019088
:1026800069460248FEF796F905B000BD000800480B
:1026900000B585B014216846FDF7F2FD4FF6FF70D6
:1026A00000900120019003200390002002906946D1
:1026B0000248FEF77FF905B000BD000000080048A1
:1026C00070B5002406462146204600F003F900F0CC
:1026D00041F94FF49635304600F010F9641CAC42D5
:1026E000F9D370BD30B587B014216846FDF7C8FD39
:1026F0001E48C16C41F00401C164C16C01F00401C9
:102700000591C16C41F00101C164C16C01F001018E
:102710000591C16C41F00201C164C06C012500F05B
:10272000020005904FF44870CDE9000500240394A1
:10273000694602940E48FEF73DF928020394009082
:10274000CDE901544FF0904469462046FEF732F936
:10275000FFF79EFFA06940F48070A0610448183024
:10276000016841F40871016007B030BD00100240FB
:1027700000040048203AD2B2034B02EB420203EBC2
:10278000021200F019B80000784E0008F0B50E46AD
:102790000746002540F23F1407E021463846FFF780
:1027A000E9FF103C6D1CA4B2761C3278002A01D0DF
:1027B000142DF2D3F0BD00002DE9F04791468A4672
:1027C0000026044600F086F8DFF84080012700BFAD
:1027D00000F0C0F85FF0000539F8160007FA05F1BF
:1027E0000842404601D1408800E0008800F086F8A9
:1027F0006D1C102DF0D3641CE4B25146204600F04D
:1028000069F8761C182EE3D3BDE8F087000000209D
:1028100010B5FFF767FF002000F014F8084CA08007
:10282000A088A0F50241303906D000F0C9FA002096
:1028300000F008F8A08010BD00F039FAF7E70000BA
:102840000000002070B51D490A6842F400720A6059
:102850000A6842F480720A60184C103C226842F008
:1028600020022260164A1060086840F020000860CC
:1028700000BF00BF00BF206840F02000206020683B
:1028800040F480702060FFF7EDFE4FF09041886AC1
:1028900040F48070886200BF00BF00BF0848001F7E
:1028A000006885B2886940F480708861FFF7F0FEA7
:1028B000206840F400702060284670BD280400485D
:1028C0001408004801B5BDF800000149488008BD62
:1028D0000000002010B50C460146202000F068F8EA
:1028E0002146BDE81040212000F062B801B5BDF8D6
:1028F00000000149088008BD00000020134A11684B
:1029000041F400711160114910390B6843F4807370
:102910000B600B6843F020030B600D4B18601068D0
:1029200040F02000106000BF00BF00BF086840F00A
:1029300020000860086840F48070086000BF00BF95
:1029400000BF086840F40070086070472804004821
:10295000140800481449086840F4007008600868CA
:1029600040F48070086010481038026842F020027D
:1029700002600E4B22221A600A6842F020020A60AE
:1029800000BF00BF00BF016841F020010160016885
:1029900041F48071016000BF00BF00BF016841F4D5
:1029A00000710160704700002804004814080048C6
:1029B000184B10B51A6842F400721A601A6842F493
:1029C00080721A60134A103A146844F020041460AC
:1029D000114C2060186840F02000186000BF00BF54
:1029E00000BF106840F020001060106840F4807054
:1029F00010602160186840F02000186000BF00BF20
:102A000000BF106840F020001060106840F4807033
:102A1000106010BD28040048140800482DE9F04F4C
:102A200087B014216846FDF72BFC3F48C16C41F08C
:102A30000401C164C16C01F004010591C16C41F055
:102A40002001C164C16C01F020010591C16C41F00D
:102A50000101C164C16C01F001010591C16C41F03B
:102A60000201C164C16C01F002010591C16C41F029
:102A70000801C164C06CDFF8B48000F008004FF6B4
:102A8000FF740590002221464046FEF7BCF84FF443
:102A900080764FF09049002231464846FEF7B3F861
:102AA000DFF88CA0002204215046FEF7ACF8DFF8D6
:102AB00084B04FF44877002239465846FEF7A3F811
:102AC0000125CDE90045002402946946404603945F
:102AD000FDF770FFCDE90054694648460295FDF7C1
:102AE00069FF07208DE8310069465846FDF762FF0F
:102AF0000096CDE90154694648460394FDF75AFF14
:102B000004200090CDE90154694650460394FDF736
:102B100051FF0097CDE90154694658460394FDF7EB
:102B200049FF07B0BDE8F08F0010024000080048E0
:102B3000000C00480004004810B588B00024184874
:102B40000094019402940394049405941349069408
:102B500001604F21C0E9011440F2E731C0E90314DC
:102B60008021C0E90541FEF7A6FE08B1FDF79EFEF3
:102B70004FF48050009069460948FEF733FF08B1D2
:102B8000FDF794FE049404A905480694FEF744FE5C
:102B9000002801D0FDF78AFE08B010BD00400140BA
:102BA0006401002010B594B01C210DA8FDF768FB4E
:102BB00034216846FDF764FB20481F49002401606A
:102BC00040F28F11C0E901146321C0E90314802190
:102BD000C0E90541FEF76FFE08B1FDF767FE174833
:102BE000FFF73BF908B1FDF761FE6020CDE90D0468
:102BF0000F9410941194129400220DA90F4813946D
:102C0000FFF799F808B1FDF751FE00944FF400501A
:102C1000CDE9044001940294039406946946074860
:102C20000C94FEF79FFD08B1FDF740FE0348FFF747
:102C300059F814B010BD000000480140B001002058
:102C4000184810B5164901604FF416514160002133
:102C500081600C22C160C0E904128161C16101621E
:102C600041628162FFF7DEFB08B1FDF71FFE002124
:102C70000C48FFF73DFA08B1FDF718FE002109489E
:102C8000FFF710FA08B1FDF711FE0648FFF7E9F962
:102C9000002803D0BDE81040FDF708BE10BD0000BD
:102CA00000380140FC010020FEE77047704730B556
:102CB00001210020FFF77CFE4FF47A70FDF7E8FD5C
:102CC00000210120FFF774FE41F290711020FFF700
:102CD0006FFE4FF41C516020FFF76AFE0121612056
:102CE000FFF766FE02214620FFF762FE48F2100160
:102CF0001320FFF75DFE48F2FE011220FFF758FE99
:102D00004FF4A0610220FFF753FE41F2300103208F
:102D1000FFF74EFE40F2033421463020FFF748FE15
:102D200021463120FFF744FE21463220FFF740FEC6
:102D3000E51E29463320FFF73BFE03213420FFF731
:102D400037FE21463520FFF733FE14213620FFF7EA
:102D50002FFE21463720FFF72BFE21463820FFF7B4
:102D600027FE21463920FFF723FE29463A20FFF7A8
:102D70001FFE03213B20FFF71BFE21463C20FFF7EF
:102D800017FE4FF4A0513D20FFF712FE4FF40071E3
:102D90009220FFF70DFE21469320FFF709FE40F633
:102DA0000D019020FFF704FE41F218010320FFF708
:102DB000FFFDBDE8304040F273110720FFF7F8BD7A
:102DC00010B543F20801E320FFF7F2FD1221E720DE
:102DD000FFF7EEFD41F23121EF20FFF7E9FD002181
:102DE0000120FFF7E5FD4FF4E0610220FFF7E0FD71
:102DF00041F230010320FFF7DBFD00210420FFF743
:102E0000D7FD40F207210820FFF7D2FD002109205D
:102E1000FFF7CEFD00210A20FFF7CAFD00210C209C
:102E2000FFF7C6FD00210D20FFF7C2FD00210F2096
:102E3000FFF7BEFD00211020FFF7BAFD072111208A
:102E4000FFF7B6FD00211220FFF7B2FD002113208D
:102E5000FFF7AEFDC820FDF79BFD41F29061102009
:102E6000FFF7A6FD40F227211120FFF7A1FD322038
:102E7000FDF78EFD1D211220FFF79AFD3220FDF790
:102E800087FD4FF400611320FFF792FD14212920E4
:102E9000FFF78EFD0B212B20FFF78AFD3220FDF777
:102EA00077FD00212020FFF783FD00212120FFF77F
:102EB0007FFD07213020FFF77BFD40F207713120B5
:102EC000FFF776FD06213220FFF772FD40F2047114
:102ED0003520FFF76DFD41F604713620FFF768FDE0
:102EE00004213720FFF764FD00213820FFF760FD43
:102EF00040F206713920FFF75BFD40F201713C2082
:102F0000FFF756FD0F213D20FFF752FD0021502015
:102F1000FFF74EFDEF215120FFF74AFD002152201F
:102F2000FFF746FD40F23F115320FFF741FD4FF4FC
:102F30001C516020FFF73CFD01216120FFF738FDA7
:102F400000216A20FFF734FD00218020FFF730FDCB
:102F500000218120FFF72CFD00218220FFF728FDB2
:102F600000218320FFF724FD00218420FFF720FDAE
:102F700000218520FFF71CFD10219020FFF718FD90
:102F800000219220FFF714FD03219320FFF710FD8D
:102F90004FF488719520FFF70BFD00219720FFF774
:102FA00007FD00219820FFF703FD41F218010320DF
:102FB000FFF7FEFCBDE8104040F273110720FFF759
:102FC000F7BC7047FDF72ABE00B593B038216846BC
:102FD000FDF756F914210EA8FDF752F94FF40070D1
:102FE000FDF7AEFE0220C101039140210491009043
:102FF000079008901421CDE909010B900C900D90D9
:103000006846FEF791F90F200E9003200F900020E4
:1030100010901190129002210EA8FEF73BF813B009
:1030200000BD00000548016841F4700101600349DA
:103030004FF00060803908607047000088ED00E0C4
:103040000148FEF750BD0000640100202DE9F04367
:103050000268234B234D244E244C4FF08049984264
:1030600007D0484505D0A84203D0B04201D0A042C5
:1030700003D122F070074A683A431D4FDFF874C04D
:10308000DFF8748098420DD048450BD0A84209D093
:10309000B04207D0A04205D0B84203D0604501D06D
:1030A000404503D122F44075CA682A434D6922F095
:1030B00080022A4302608A68C2620A688262984279
:1030C00007D0A04205D0B84203D0604501D04045AA
:1030D00001D10969016301214161BDE8F08300006C
:1030E000002C014000040040000800400034014072
:1030F00000400140004401400048014010B501F08B
:103100001F030121046A99408C430462016A9A40BA
:103110001143016210BD10B5846842EA032224F411
:103120007F440A432243826010BD00008268034B43
:103130001A400A4342F00701816070478FFFCFFFBA
:103140002DE9F043026A22F001020262056A436837
:1031500082691C4C25F0020522400C6822F0030213
:1031600014438A68194E2A43174D194FDFF864C07B
:10317000DFF86490A84207D0B04205D0B84203D02F
:10318000604501D0484506D122F00808CA6842EAE5
:10319000080222F00402A84207D0B04205D0B8428B
:1031A00003D0604501D0484505D14D6923F44073F3
:1031B0001D438B692B43436084614968416302620C
:1031C000BDE8F0838FFFFEFF002C0140003401407A
:1031D000004001400044014000480140F0B5026A4F
:1031E00022F010020262056A42688369194C1B4E84
:1031F00023400C6823F4407343EA042425F02003A1
:103200008D6843EA0513144DA84201D0B04206D19F
:10321000CF6823F0800343EA071323F04003A8425A
:103220000AD0B04208D00E4DA84205D00D4DA8429C
:1032300002D00D4DA84207D14D6922F4406242EA06
:1032400085028D6942EA8502426084614968816332
:103250000362F0BDFF8FFFFE002C014000340140EF
:10326000004001400044014000480140F0B5026ABE
:1032700022F480720262056A4368C269194C1B4ECF
:1032800022400C6822F00302144325F400728D687A
:1032900042EA0522144DA84201D0B04206D1CF68BF
:1032A00022F4006242EA072222F48062A8420AD095
:1032B000B04208D00E4DA84205D00E4DA84202D013
:1032C0000D4DA84207D14D6923F4405343EA05133D
:1032D0008D6943EA05134360C4614968C1630262B2
:1032E000F0BD00008FFFFEFF002C014000340140C4
:1032F000004001400044014000480140F0B5026A2E
:1033000022F480520262056A4268C369194C1B4E5E
:1033100023400C6823F4407343EA042425F400534B
:103320008D6843EA0533144DA84201D0B04206D15E
:10333000CF6823F4004343EA073323F48043A842D1
:103340000AD0B04208D00E4DA84205D00D4DA8427B
:1033500002D00D4DA84207D14D6922F4404242EA05
:1033600085128D6942EA85124260C4614968016430
:103370000362F0BDFF8FFFFE002C014000340140CE
:1033800000400140004401400048014030B5026A5D
:1033900022F480320262046A4268036D114D2B40B0
:1033A0000D681D4324F400330C8943EA04430E4C9A
:1033B000A0420BD00D4CA04208D00D4CA04205D02D
:1033C0000C4CA04202D00C4CA04204D14C6922F417
:1033D000803242EA042242600565496881640362E2
:1033E00030BD00008FFFFEFF002C01400034014083
:1033F00000400140004401400048014030B5026AED
:1034000022F480120262046A4268036D114D24F4B2
:1034100000142B400D6843EA05230D8944EA055446
:103420000D4DA8420BD00D4DA84208D00C4DA8421E
:1034300005D00C4DA84202D00B4DA84204D14D69D5
:1034400022F4802242EA8522426003654968C16411
:10345000046230BDFF8FFFFE002C014000340140AC
:1034600000400140004401400048014010B5036A9B
:10347000046A24F001040462846924F0F00444EA3C
:10348000021423F00A020A438461026210BD10B5DF
:10349000036A23F0100303628369046A23F4704310
:1034A00043EA023224F0A00343EA0111826101627F
:1034B00010BD000030B5416EB9B1026891689268E4
:1034C000C1F342610B4B520F9C5CE50003F1080411
:1034D000A25CB5FBF2F2A0F86A205A5C615CD200F3
:1034E000B2FBF1F1A0F8681030BD0121A0F86A101C
:1034F000F8E700007860000890F82810C90706D0A7
:1035000001684A68C36A22F400321A434A6090F89C
:103510002810890706D501684A68036B22F48032B7
:103520001A434A6090F82810490706D501684A688E
:10353000436B22F480221A434A6090F8281009074E
:1035400006D501684A68836B22F400421A434A6038
:1035500090F82810C90606D501688A68C36B22F462
:1035600080521A438A6090F82810890606D50168AF
:103570008A68036C22F400521A438A6090F828107B
:10358000490611D501684A68436C22F480121A4337
:103590004A60416CB1F5801F06D101684A68836CAE
:1035A00022F4C0021A434A6090F82810090606D592
:1035B00001684A68C06C22F4002202434A607047E6
:1035C000F8B500260446C0F88C60FDF721FB0546DF
:1035D000206800686FF07E47000708D52B46002260
:1035E0004FF400112046009700F02CFC60B92068D1
:1035F000006840070AD52B4600224FF48001204680
:10360000009700F01FFC08B10320F8BD2020C4F88B
:103610008400C4F8880044F86C6F00202675F8BD5B
:1036200010B5806A0021A0F85E10A0F85610FEF7D1
:1036300087FD10BD10B5026852E8001F21F490719B
:1036400042E80013002BF6D10E4B0268083252E814
:10365000001F194042E80014002CF6D1C16E012968
:1036600008D1016851E8002F22F0100241E8002340
:10367000002BF6D12021C0F888100021C166016717
:1036800010BD0000FEFFFFEF10B5B0F86020D0F8CD
:1036900088300168222B04D0886940F008008861D6
:1036A00010BD496A836D11401980816D891C816547
:1036B000B0F85E10491EA0F85E10B0F85E10002948
:1036C000EED1026852E8001F21F4907142E8001325
:1036D000002BF6D10168083151E8002F22F00102D9
:1036E00041E80023002BF5D12021C0F888100021EB
:1036F0000167C26E012A02D0FEF73AFF10BDC16613
:10370000026852E8001F21F0100142E80013002B6C
:10371000F6D10168CA69D243D20601D410220A62E6
:10372000B0F85C10FEF7BCFC10BD00002DE9F047BE
:103730000446B0F860600068C569D0F800A0D0F811
:103740000880D4F88810222905D0816941F0080149
:103750008161BDE8F087B4F868704FF0000963E05C
:103760002068406AA16D30400880A06D801CA06573
:10377000B4F85E00401EA4F85E002068C5696907C1
:1037800030D0E9070AD05FEACA5107D501210162AA
:10379000D4F88C0040F00100C4F88C00A8070BD5C9
:1037A0005FEAC87008D0216802200862D4F88C0053
:1037B00040F00400C4F88C0068070BD55FEAC870BD
:1037C00008D0216804200862D4F88C0040F0020080
:1037D000C4F88C00D4F88C0020B12046FEF7B0FC71
:1037E000C4F88C90B4F85E00F0B9216851E8000F7D
:1037F00020F4807041E80002002AF6D1264A2068B1
:10380000083050E8001F114040E80013002BF6D1AB
:103810002020C4F88800C4F87090E16E4846012961
:1038200023D02046FEF7A4FE0FB1A80698D4B4F822
:103830005E0000288DD0B4F86810814289D92068D4
:10384000083050E8001F21F0805140E80012002AA3
:10385000F5D112482067206850E8001F41F0200190
:1038600040E80012002AF6D173E7E066216851E8CB
:10387000000F20F0100041E80002002AF6D1206875
:10388000C169C943C90601D410210162B4F85C10B2
:103890002046FEF705FCC7E7FEFFFFEF893600086C
:1038A00010B5B0F86020D0F888300168222B04D021
:1038B000886940F00800886110BD496A1140826D36
:1038C0001170816D491C8165B0F85E10491EA0F829
:1038D0005E10B0F85E100029EED1026852E8001FB9
:1038E00021F4907142E80013002BF6D101680831F1
:1038F00051E8002F22F0010241E80023002BF5D10E
:103900002021C0F8881000210167C26E012A02D070
:10391000FEF72EFE10BDC166026852E8001F21F0BE
:10392000100142E80013002BF6D10168CA69D243A6
:10393000D20601D410220A62B0F85C10FEF7B0FB88
:1039400010BD00002DE9F0470446B0F86060006843
:10395000C569D0F800A0D0F80880D4F888102229D2
:1039600005D0816941F008018161BDE8F087B4F8B4
:1039700068704FF0000963E02068406AA16D304034
:103980000870A06D401CA065B4F85E00401EA4F84D
:103990005E002068C569690730D0E9070AD05FEA90
:1039A000CA5107D501210162D4F88C0040F0010012
:1039B000C4F88C00A8070BD55FEAC87008D021684E
:1039C00002200862D4F88C0040F00400C4F88C0097
:1039D00068070BD55FEAC87008D021680420086228
:1039E000D4F88C0040F00200C4F88C00D4F88C00AD
:1039F00020B12046FEF7A4FBC4F88C90B4F85E001A
:103A0000F0B9216851E8000F20F4807041E800020D
:103A1000002AF6D1264A2068083050E8001F1140DD
:103A200040E80013002BF6D12020C4F88800C4F829
:103A30007090E16E4846012923D02046FEF798FD9C
:103A40000FB1A80698D4B4F85E0000288DD0B4F861
:103A50006810814289D92068083050E8001F21F0A1
:103A6000805140E80012002AF5D1124820672168F1
:103A700051E8000F40F0200041E80002002AF6D192
:103A800073E7E066216851E8000F20F0100041E87C
:103A90000002002AF6D12068C169C943C90601D4D1
:103AA00010210162B4F85C102046FEF7F9FAC7E76E
:103AB000FEFFFFEFA13800082DE9F0410446016840
:103AC00080682269E3691043626900251A43104344
:103AD000DFF82CC20A688B4B1A4002430A60206848
:103AE0004168E26821F44051114341602168A069B6
:103AF000614501D0226A10438A68834B1A40024311
:103B00008A602068C16A626A21F00F011143C162B4
:103B10007E4923687E488B420DD1D0F8880010F092
:103B2000030006D0012855D0022842D003283FD1F7
:103B300052E001203DE077498B420BD1D0F888005C
:103B400010F00C0035D0042833D0082840D00C28C1
:103B50002ED141E070498B420BD1D0F8880010F093
:103B6000300026D0102835D0202831D030281FD161
:103B700032E06A498B420BD1D0F8880010F0C000C7
:103B800017D0402826D0802822D0C02810D123E08A
:103B900063450DD1D0F8880010F4406009D0B0F52D
:103BA000806F17D0B0F5006F12D0B0F5406F13D012
:103BB00010205B495B4F00264FF4004263453BD128
:103BC00060B1022813D004280BD0082872D10DE070
:103BD0000220EEE70420ECE70820EAE7FDF748FBC7
:103BE00001E0FDF769FB010001D17CE01146606A4C
:103BF00037F810206768B1FBF2F007EB4703834208
:103C000070D8B0EB073F6DD8002308461946FCF783
:103C1000FFFA090241EA10610202780810187141A6
:103C20003A460023FCF7F4FA3F4AA0F5407191426E
:103C300058D82168C86056E0E3694FF6EF789342A0
:103C40002CD109284ED2DFE800F00508114D0D4DAA
:103C50004D4D1000FDF70CFB01E0FDF71BFB0100D3
:103C600004D140E0FDF728FBF9E71146606A37F818
:103C70001000B1FBF0F04100606801EB5001B1FBB6
:103C8000F0F0A0F1100141452CD84FF6F071014041
:103C9000C0F3420001432068C16024E0092821D21A
:103CA000DFE800F0050912200E2020201100FDF7AA
:103CB000DFFA02E016E0FDF7EDFA010004D112E0B0
:103CC000FDF7FAFAF9E71146606A37F81000B1FB20
:103CD000F0F1606801EB5001B1FBF0F0A0F11001D0
:103CE00041450AD901250120A4F86A0024F8680F8B
:103CF0002846A660E660BDE8F08180B299E7000042
:103D000000800040F369FFCFFFF4FF11003801404D
:103D1000001002400044004000480040004C0040B9
:103D20000024F40060600008FFFC0F0070B581659E
:103D3000A0F85C20A0F85E200021016783684FF4A2
:103D40008055FF24AB4204D10369FBB940F2FF1355
:103D500022E07F26C3B1B3F1805F1AD0A0F86010D3
:103D6000C0F88C102223C0F888300368083353E869
:103D7000004F44F0010443E80046002EF5D1436EA5
:103D8000B3F1005F0ED032E0036943B9A0F86040A0
:103D9000E6E703691BB13F23A0F86030E0E7A0F835
:103DA0006060DDE7B0F86830934220D88268AA42AC
:103DB00001D10269CAB11F4A026780F88010016907
:103DC00041B1026852E8001F41F4807142E80013DB
:103DD000002BF6D10168083151E8002F42F08052E3
:103DE00041E80023002BF5D121E0134AE4E7826883
:103DF000AA4201D102697AB1104A026780F88010A4
:103E0000016959B1026852E8001F41F4907142E81B
:103E10000013002BF6D10AE0094AEEE7026852E8E7
:103E2000001F41F0200142E80013002BF6D10020D2
:103E300070BD0000453900082D370008A138000882
:103E4000893600082DE9F0479A4617460E46044683
:103E50004FF000094FF02008089D4AE0681C48D048
:103E6000FCF7D6FEA0EB0A00A8422AD84DB3206882
:103E7000016849073DD5C069C043000539D42168B0
:103E80004FF400600862206850E8001F21F4D071F0
:103E900040E80012002AF6D12068083050E8001FE0
:103EA00021F0010140E80012002AF5D144F8848F86
:103EB000C4F80480C4F8088004F8049C0320BDE81A
:103EC000F087216851E8000F20F4D07041E800022B
:103ED000002AF6D12068083050E8001F21F00101C7
:103EE00040E80012002AF5D144F8848FC4F8048019
:103EF000E2E72068C06936EA000004D00020B8423A
:103F0000ACD00020DBE70120F9E700000148FEF714
:103F100019B90000FC010020FEE700000FB4054BBA
:103F200010B503A9044A029800F0FEF810BC5DF831
:103F300014FB0000654A0008500000200FB4084B35
:103F400010B504A902AA039800F0EEF8044602A9ED
:103F5000002000F080FC204610BC5DF814FB00003F
:103F6000574800080907090E002804DB00F1E0208B
:103F700080F80014704700F00F0000F1E02080F896
:103F8000141D704702E008C8121F08C1002AFAD1A8
:103F900070477047002001E001C1121F002AFBD1C9
:103FA000704700002DE9FF5F82B00021DDE9043099
:103FB000020DDDF840B0034318D044F61050A2F2D1
:103FC000FF3242431514119801281FD0A5EB0B00B6
:103FD000401C5FEA000A4FF000064E4FDFF83891B0
:103FE000B046504615D5CAF1000413E011980124DB
:103FF0004AA3012801D16FEA0B010298119AC0E986
:104000000031C0E9024206B0BDE8F09FCBF10000EC
:10401000DFE704460021404A491842EB0450CDE94D
:10402000001012E0E00707D032463B4640464946C2
:10403000FCF7EDF98046894632463B461046194664
:10404000FCF7E5F906460F466410002CEAD1DDE9DD
:104050000401DDE90023BAF1000F06DAFCF7D7F915
:1040600042464B46FCF7D3F905E0FCF776FB4246A7
:104070004B46FCF772FB04460E460022284BFCF729
:104080005DFA03D84FF0FF30014607E00022254BD0
:1040900020463146FCF714F9FCF7CEFB102409E06A
:1040A000002C0ADB0A220023FCF7B2F8039B303213
:1040B0001A55641E50EA0102F2D1641C039AC4F13D
:1040C00011031444119A012A03D0012208430DD18F
:1040D0000AE0084304D000204FF0110B119072E762
:1040E000A3EB0B056D1E0DE05B4504DD4FF00002F8
:1040F00005F1010504E003DA4FF00002A5F1010526
:10410000002AECD002981199C0E90231C0E90045BB
:1041100079E70000000014400000F03F300000008C
:104120000000F0430000E03F2DE9FF4F95B09B46B3
:104130008946064600250FE2252877D10024274628
:10414000F84A0121059400E0044316F8013F203BA2
:1041500001FA03F01042F7D130782A2811D06FF01D
:104160002F033078A0F13002092A16D8059A44F0BE
:10417000020402EB820203EB42021044761C05901B
:10418000EFE759F8042B0592002A03DA504244F471
:104190000054059044F00204761C30782E2816D185
:1041A00016F8010F44F004042A280DD06FF02F02F6
:1041B0003078A0F13003092B09D807EB870302EB15
:1041C0004303C718761CF3E759F8047B761C307854
:1041D0006C280FD006DC4C2817D068280DD06A2830
:1041E00014D104E0742810D07A280FD10DE044F4E3
:1041F00000140AE044F4801401E044F4401472789E
:10420000824202D104F58014761C761C3078662830
:104210000BD013DC582877D009DC002875D045284E
:10422000F6D04628F4D047281AD19DE118E063283B
:1042300035D0642879D0652812D195E1702873D0E3
:1042400008DC6728F1D069286FD06E280DD06F2860
:1042500006D1B5E073282CD0752875D0782874D095
:104260005A46179990476D1C75E1C4F30250022815
:1042700009D003280DD0D9F8001004280DD00D6006
:1042800009F1040967E1D9F80010EA17C1E9005201
:10429000F6E7D9F800100D80F2E70D70F0E719F895
:1042A000041B8DF8001000208DF80100EA46012063
:1042B00003E059F804AB4FF0FF3061074FF0000105
:1042C00002D40DE008F101018846B9420FDA8045B9
:1042D000F8DB1AF808100029F4D108E008F1010110
:1042E00088468142FADB1AF808100029F6D10598B1
:1042F0005B46A0EB080721463846179A00F094FA6F
:10430000284400EB080507E04DE029E10DE01AF82C
:10431000010B5A4617999047B8F10108F7D25B464E
:1043200021463846179A13E142E00A220092C4F36C
:1043300002524FF0000A022A08D059F804CB032A8F
:104340004FEAEC710AD00DE029E02AE009F10701FB
:1043500021F00702F2E802C1914609E00FFA8CFC55
:104360004FEAEC71042A03D14FFA8CFC4FEAEC714E
:10437000002907DA0A460021DCF1000C61EB02019A
:104380002D2202E0220504D52B228DF804200122E3
:1043900003E0E20701D02022F7E7904659E00A2126
:1043A00002E010220DE010214FF0000A00910BE016
:1043B00010224FF0000A44F004040827009203E0A2
:1043C00008224FF0000A0092C4F30252022A05D0DC
:1043D00059F804CB0021032A08D009E009F10701AC
:1043E00021F00702F2E802C1914605E01FFA8CFCB9
:1043F000042A01D10CF0FF0C4FF00008220728D549
:10440000702806D0009B83F0100353EA0A0305D0FE
:104410000EE040228DF80420012208E05CEA01024F
:1044200006D030228DF804208DF805000222904637
:10443000009B83F0080353EA0A030AD15CEA0102F5
:1044400001D1620705D530228DF804204FF0010814
:104450007F1E582804D034A003900EA802900DE0CF
:1044600036A0F9E753466046009AFBF7D1FE844632
:104470000398825C0298401E029002705CEA010080
:10448000F0D1029806A9081A00F1200A600702D5A7
:1044900024F4803400E00127574502DDA7EB0A0031
:1044A00000E0002000EB0A01009005984144401A0A
:1044B0000590E00306D45B462146179A059800F064
:1044C000B3F90544002706E001A85A46C05D1799D4
:1044D00090476D1C7F1C4745F6DBE0030CD55B461F
:1044E0002146179A059800F09FF9054404E0302012
:1044F0005A46179990476D1C0099481E0090002954
:10450000F5DC08E0029802995A460078491C0291AD
:10451000179990476D1CBAF10001AAF1010AF1DC6C
:1045200065E1000009280100303132333435363777
:1045300038396162636465660000000030313233EF
:10454000343536373839414243444546000000008F
:1045500000F058F90544761C307800287FF4ECAD63
:1045600019B02846BDE8F08F620700D4062709F18C
:10457000070222F0070CFCE80223E14603F00048A2
:104580005FEA080C02D00FF2702C0DE05FEA045CC9
:1045900002D50FF2682C07E05FEAC47C02D00FF26C
:1045A000602C01E0AFF2700C4FF0FF3823F00043B5
:1045B000CDF850C065280CD006DC452809D0462827
:1045C0001DD047283DD13DE0662818D067287ED110
:1045D00038E00021112F01DB112000E0781CCDE92B
:1045E000000106A90EA8FFF7DDFCDDE90F010E9A18
:1045F00003910021009207F1010A04914DE04FF070
:1046000000400097CDE9011006A90EA8FFF7CAFCEB
:10461000DDE90F0203920E9B11990022DDF80CA038
:104620000093049211B9791C00EB010AB7EB0A0060
:1046300004D4C0F1FF3007F1010A0490AAEB07008F
:10464000019044E0012F00DA01270021112F01DD44
:10465000112000E03846CDE9000106A90EA8FFF7B9
:10466000A1FCDDE90F010E9A039100210491009253
:10467000BA4621070CD40399514500DA8A46BAF1AB
:10468000010F05DD009AAAF10101515C302908D023
:10469000B84202DA10F1040F06DA0121CDE9011067
:1046A00015E0AAF10101E9E7002805DC04990144BD
:1046B0000491AAEB000102E0411C514500DD8A464D
:1046C0000499401A401C01904FF0004002902007CE
:1046D00004D40198504501DBCDF8048000208DF80A
:1046E0004F0002980DF14F07B0F1004F25D02B205D
:1046F0000E9002984FF0020800280CDA4042029017
:104700002D200E9007E00A210298FBF74BFF303175
:10471000029007F8011DB8F10001A8F10108F2DCD0
:1047200002980028EFD1791E0E980870307800F0BA
:10473000200040F0450007F8020D12A8C01B00F150
:1047400007081498007800B1012000EB0A010198D5
:1047500001EBE07105984144401A401E0590E003CA
:1047600006D45B462146179A059800F05DF805448B
:104770001498007818B15A46179990476D1CE003B9
:1047800024D55B462146179A059800F04DF805445C
:104790001CE00498002807DBDDE90301884203DD03
:1047A0000098405C179901E0179930205A469047CD
:1047B000049805F10105401C04900198401E0190E9
:1047C00004D12E205A46179990476D1CBAF100016A
:1047D000AAF1010ADDDC05E017F8010B5A4617992A
:1047E00090476D1CB8F10001A8F10108F4DC5B46AC
:1047F0002146179A0598ABE62D0000002B0000001B
:10480000200000002DE9F041044600251E46174611
:10481000880404D405E039462020B0476D1C641E8E
:10482000F9D52846BDE8F0812DE9F0410446002580
:104830001E469046C80301D5302700E02027880493
:1048400004D505E041463846B0476D1C641EF9D5D5
:104850002846BDE8F0810A68531C0B601070704751
:104860007CB5374C3549236AA1F1900000EB031564
:104870004A7CE87AAB7A101A0A7CD21A02EB8202DE
:1048800000EB4206C87C6A7B2B7B801A8A7CD21A9A
:1048900002EB820200EB4200002800DD761C087863
:1048A000562826D0432823D13046FBF722FE94ED2C
:1048B0000A1B53EC112BFBF7AAFDFBF757FEFBF786
:1048C00029FECDE900011D482A4633461DA11E30B0
:1048D000FFF734FB19481E30FBF7DDFC174982B2A5
:1048E00064231E311C48FDF75DFEE068401EE06059
:1048F0007CBD3046FBF7FDFD94ED0C1B53EC112BFA
:10490000FBF785FDFBF732FEFBF704FECDE9000166
:104910000A482A46334611A11E30FFF70FFB07480D
:104920001E30FBF7B8FC054982B264231E310A48E9
:10493000FDF738FE2069401E20617CBD1401002077
:1049400008000020434E42523A25733A25643A2526
:104950002E32660D0A000000FC010020564E425225
:104960003A25733A25643A252E32660D0A00000076
:1049700070B52F4C00252F4E2846256216E000BF4B
:104980002C4906EB00108031FBF78CFC58B9FFF77F
:1049900067FF206A06EB0010057045708570C570D2
:1049A000A069401CA061206A401C2062E169884225
:1049B000E6DBA06908B1A56170BDA06890B31D4D8C
:1049C00090352878562802D0432804D006E0206984
:1049D000401C206102E0E068401CE06006EB011131
:1049E00068790870A8794870E8798870287AC87062
:1049F00011A0FFF793FAE169287C06EB011101F899
:104A00000A0F687C4870A87C8870E87CC870287D94
:104A10000871687D48710CA0FFF780FAE069401CBE
:104A2000E06170BDFFE7BDE870400BA0FFF776BA0C
:104A300008000020840000206361725F706174656B
:104A40003A25730D0A0000006361725F74696D6539
:104A50003A25730D0A0000006E6F207061726B0DB5
:104A60000A00000013B54FF6FF73012269460248A1
:104A7000FDF798FD00981CBDFC01002070B53E4E6E
:104A800000252DED068B30783C4C012806D120788E
:104A900008B1257001E0012020703570307B9FED5A
:104AA000388B012816D1207898B994ED0A0B53EC75
:104AB000182B51EC100BFBF703FCC4E90A0194ED31
:104AC0000C0B53EC182B51EC100BFBF7F9FBC4E962
:104AD0000C013573307E012837D120789FED2A9B59
:104AE00090BB94ED0A0B53EC182B51EC100BFBF719
:104AF00088FC41EC1A0B53EC182B84ED0AAB94EDB7
:104B00000C0B51EC100BFBF77CFCC4E90C0153ECD3
:104B1000192B51EC1A0BFBF711FD02D294ED0A0B85
:104B200003E0B0EE490AF0EE690A84ED0A0B94ED59
:104B30000C0B53EC192B51EC100BFBF7FFFC01D2C3
:104B400094ED0C9B84ED0C9B357696F8240001289F
:104B500004D16069401C606186F82450207DC10743
:104B60000B4805D0006814214163BDEC068B70BD75
:104B700000684563F9E700005400002008000020A9
:104B8000000000000000E03F000000000000000006
:104B9000B001002010B5294C2078002823D028A18E
:104BA0002C48FFF7CBF92B491820FDF7EFFD2AA180
:104BB0002848E268FFF7C2F926494820FDF7E6FDDC
:104BC0002AA124482269FFF7B9F922497820FDF784
:104BD000DDFDD4E90201401A2169421A28A11D48CD
:104BE000FFF7ACF923E02BA11A48FFF7A7F9194901
:104BF0001820FDF7CBFD94ED0A0B2BA153EC102BE5
:104C00001448FFF79BF913494820FDF7BFFD94EDC9
:104C10000C0B2BA153EC102B0E48FFF78FF90D490D
:104C20007820FDF7B3FD2CA10A48FFF787F9BDE80E
:104C300010400849A820FDF7A9BD00000800002089
:104C4000202020202020204461746120202020206A
:104C50002020200050010020202020434E42523AC4
:104C60002564202020202020202000002020205605
:104C70004E42523A2564202020202020202000008F
:104C800020202049444C453A256420202020202023
:104C90002020000020202020202020506172612050
:104CA0002020202020202000202020434E42523A65
:104CB000252E326620202020202020200000000009
:104CC000202020564E42523A252E326620202020A7
:104CD0002020202000000000202020202020202054
:104CE0002020202020202020202020200000000044
:104CF0002DE9F041244C012204212046FBF783FFDB
:104D0000224F01224FF47C413846FBF77CFF002202
:104D100004212046FBF777FF1D4D4FF480764FF0BE
:104D20000102A8684FF004010028204603DDFBF7CC
:104D30006AFF002202E0FBF766FF01223146384697
:104D4000FBF761FF002204212046FBF75CFF287D72
:104D50004FF40075C0074FF001024FF004012046E8
:104D60000DD0FBF750FF002229463846FBF74BFFDA
:104D70002046BDE8F04100220421FBF744BFFBF7C9
:104D800042FF0122F0E70000000C00480008004844
:104D900008000020FBF74AFFFEF716F9FDF73EFE7C
:104DA000FDF7CAFEFDF7FEFEFDF74AFF002112489F
:104DB000FDF786F810490020096848630F48FCF7A2
:104DC000D5FD01220E490F48FDF7A8FBFDF720FD98
:104DD0000020FDF775FC0020FDF774FD4FF6FF7015
:104DE000FDF784FD00F010F8FFF748FEFFF7D2FE54
:104DF000FFF77EFFF6E70000B0010020640100200D
:104E000009000020FC01002070B5164C6568002DDB
:104E100018D00120FBF7BCFD6068854212D1002844
:104E200010DD16280FD010A11148FFF787F81048A1
:104E3000FBF731FA82B264230D490E48FDF7B2FB4D
:104E40000020606070BD0A481E38A0F11001427950
:104E50000A7082794A70C2798A70007AC870FFF746
:104E600087FDEDE7080000204572726F720D0A00A1
:104E700032010020FC0100200000000000000000C2
:104E80000000000000000000000000000000000022
:104E90000000000000000000000000000000000012
:104EA000000000000000000000008001800180017F
:104EB00080018001800180018001800180018001EA
:104EC00080018001000000008001800100000000DE
:104ED000000000000000000000000000CC00CC003A
:104EE000CC00CC00CC00CC00000000000000000092
:104EF00000000000000000000000000000000000B2
:104F000000000000000000000000000000000000A1
:104F100000000000600C600C600C30063006FE1FC4
:104F2000FE1F300638071803FE1FFE1F1803180364
:104F30008C018C018C01000000008000E003F80F60
:104F40009C0E8C1C8C188C009800F801E007800ED9
:104F5000801C8C188C189C18B80CF00FE003800093
:104F600080000000000000000000000000000E189B
:104F70001B0C110C11061106110311039B018E016C
:104F8000C038C06C60446044304430441844186CED
:104F90000C380000000000000000E001F0033807BA
:104FA000180618063003F001F000F8009C310E33AB
:104FB000061E061C061C063FFC73F02100000000C4
:104FC0000000000000000000000000000C000C00C9
:104FD0000C000C000C000C000000000000000000A1
:104FE00000000000000000000000000000000000C1
:104FF000000000000000000000000002000380012B
:10500000C000C000600060003000300030003000A0
:10501000300030003000300060006000C000C00090
:105020008001000300020000000020006000C000BA
:105030008001800100030003000600060006000650
:105040000006000600060006000300038001800140
:10505000C000600020000000000000000000000010
:1050600000000000C000C000D806F807E0013003CF
:1050700038070000000000000000000000000000F1
:105080000000000000000000000000000000000020
:105090000000000080018001800180018001FC3F50
:1050A000FC3F800180018001800180010000000040
:1050B00000000000000000000000000000000000F0
:1050C00000000000000000000000000000000000E0
:1050D00000000000000000000000800180010001CD
:1050E000000180000000000000000000000000003F
:1050F00000000000000000000000000000000000B0
:10510000E007E007000000000000000000000000D1
:10511000000000000000000000000000000000008F
:10512000000000000000000000000000000000007F
:1051300000000000000000000000C000C0000000EF
:1051400000000000000000000000000C000C000641
:1051500000060006000300030003800380018001B5
:105160008001C000C000C0006000600000000000BE
:1051700000000000000000000000E003F007380E0F
:10518000180C0C180C180C180C180C180C180C18FF
:105190000C180C18180C380EF007E0030000000083
:1051A0000000000000000000000000018001C001BC
:1051B000F001980188018001800180018001800157
:1051C00080018001800180018001800100000000D9
:1051D00000000000000000000000E003F80F180CC1
:1051E0000C180C1800180018000C000600038001B1
:1051F000C000600030001800FC1FFC1F0000000011
:1052000000000000000000000000E001F807180E98
:105210000C0C0C0C000C0006C003C007000C00189E
:1052200000180C180C18180CF807E0030000000018
:1052300000000000000000000000000C000E000F45
:10524000000F800DC00C600C600C300C180C0C0CA6
:10525000FC3FFC3F000C000C000C000C00000000A8
:1052600000000000000000000000F80FF80F180018
:1052700018000C00EC03FC071C0E001C00180018A2
:1052800000180C181C0C180EF807E00300000000B2
:1052900000000000000000000000C007F00F381CF4
:1052A000181818000C00CC03EC0F3C0E1C1C0C183A
:1052B0000C180C18181C380EF007E0030000000052
:1052C00000000000000000000000FC1FFC1F000C9C
:1052D00000060006000380038001C001C000E0005A
:1052E00060006000700030003000300000000000FE
:1052F00000000000000000000000E003F007380E8E
:10530000180C180C180C3806F007F007180C0C18BD
:105310000C180C180C18380CF80FE00300000000F3
:1053200000000000000000000000E003F007380E5D
:105330001C0C0C180C180C181C1C381EF81BE0193F
:105340000018000C000C1C0EF807F0010000000013
:10535000000000000000000000000000000000004D
:10536000000000008001800100000000000000003B
:10537000000000000000000080018001000000002B
:10538000000000000000000000000000000000001D
:10539000000000008001800100000000000000000B
:1053A00000000000000000008001800100010001F9
:1053B000800000000000000000000000000000006D
:1053C00000000000000000000010001C800FE0033F
:1053D000F8001800F800E003800F001C0010000027
:1053E00000000000000000000000000000000000BD
:1053F0000000000000000000F81F00000000000096
:10540000F81F000000000000000000000000000085
:10541000000000000000000000000000000000008C
:10542000000000000000000008003800F001C00784
:10543000001F0018001FC007F0013800080000001E
:1054400000000000000000000000E003F80F180C4E
:105450000C180C180018000C000600038001C00096
:10546000C000C00000000000C000C000000000003C
:10547000000000000000000000000000E007181815
:105480000420C229224A114409440944094409223A
:105490001113E20C024004201818E007000000007D
:1054A0000000000000000000000080038003C00630
:1054B000C006C006600C600C301830183018F83F79
:1054C000F83F1C700C600C6006C006C000000000B5
:1054D00000000000000000000000FC03FC0F0C0CAA
:1054E0000C180C180C180C0CFC07FC0F0C180C30CA
:1054F0000C300C300C300C18FC1FFC0700000000B6
:1055000000000000000000000000C007F01F383855
:105510001C300C700660060006000600060006003F
:10552000060006600C701C30F01FE0070000000051
:1055300000000000000000000000FE03FE0F060E49
:1055400006180618063006300630063006300630DB
:10555000063006180618060EFE0FFE0300000000B7
:1055600000000000000000000000FC3FFC3F0C00B9
:105570000C000C000C000C00FC1FFC1F0C000C00AD
:105580000C000C000C000C00FC3FFC3F0000000075
:1055900000000000000000000000F83FF83F180085
:1055A0001800180018001800F81FF81F180018003D
:1055B000180018001800180018001800000000005B
:1055C00000000000000000000000E00FF83F3C7801
:1055D0000E6006E007C00300030003FE03FE03C0E5
:1055E00007C006C00EC03CF0F83FE00F000000000E
:1055F000000000000000000000000C300C300C30F7
:105600000C300C300C300C30FC3FFC3F0C300C30BC
:105610000C300C300C300C300C300C300000000022
:1056200000000000000000000000800180018001F7
:105630008001800180018001800180018001800162
:105640008001800180018001800180010000000054
:105650000000000000000000000000060006000638
:10566000000600060006000600060006000600060A
:105670000006180618063807F003E00100000000D5
:105680000000000000000000000006300618060CB4
:10569000060606038601C60066007600DE008E015F
:1056A00006030606060C0618063006600000000019
:1056B00000000000000000000000180018001800A2
:1056C000180018001800180018001800180018001A
:1056D0001800180018001800F81FF81F000000003C
:1056E000000000000000000000000EE01EF01EF0B0
:1056F0001EF036D836D836D836D866CC66CC66CCCE
:10570000C6C6C6C6C6C6C6C686C386C300000000D7
:10571000000000000000000000000C301C303C3095
:105720003C306C306C30CC30CC308C310C330C33A2
:105730000C360C360C3C0C3C0C380C3000000000D5
:1057400000000000000000000000E007F81F1C3807
:105750000E70066003C003C003C003C003C003C0D3
:1057600003C006600E701C38F81FE0070000000040
:1057700000000000000000000000FC0FFC1F0C38BF
:105780000C300C300C300C300C18FC1FFC070C00DB
:105790000C000C000C000C000C000C0000000000C1
:1057A00000000000000000000000E007F81F1C38A7
:1057B0000E70066003E003C003C003C003C003C053
:1057C00007E006630E3F1C3CF83FE0F700C0000016
:1057D00000000000000000000000FE0FFE1F063861
:1057E0000630063006300638FE1FFE0706030606A2
:1057F000060C061806180630063006600000000089
:1058000000000000000000000000E003F80F1C0C86
:105810000C180C180C001C00F803E00F001E0038D8
:10582000063006300E301C1CF80FE00700000000A8
:1058300000000000000000000000FE7FFE7F8001ED
:105840008001800180018001800180018001800150
:105850008001800180018001800180010000000042
:10586000000000000000000000000C300C300C3084
:105870000C300C300C300C300C300C300C300C3048
:105880000C300C300C301818F81FE0070000000036
:105890000000000000000000000003600630063039
:1058A00006300C180C180C18180C180C380E300692
:1058B0003006700760036003C001C00100000000F3
:1058C000000000000000000000000360C361C3612D
:1058D000C3616633663366336633663366336C1B87
:1058E0006C1B6C1B2C1A3C1E380E380E000000007E
:1058F000000000000000000000000FE00C701830F5
:105900003018700C600EC00780038003C003E006EF
:10591000700C301C18180C300E6007E000000000FE
:105920000000000000000000000003C006600C3012
:105930001C383818300C6006E007C0038001800175
:105940008001800180018001800180010000000051
:1059500000000000000000000000FC7FFC7F0060F1
:1059600000300018000C000600038001C000600039
:10597000300018000C000600FE7FFE7F00000000D3
:1059800000000000000000000000E003E0036000F1
:105990006000600060006000600060006000600007
:1059A00060006000600060006000600060006000F7
:1059B0006000E003E0030000000030003000600001
:1059C00060006000C000C000C000C0018001800114
:1059D0008001000300030003000600060000000031
:1059E00000000000000000000000E003E0030003EE
:1059F000000300030003000300030003000300038F
:105A0000000300030003000300030003000300037E
:105A10000003E003E003000000000000C001C0013B
:105A200060036003600330063006180C180C000099
:105A30000000000000000000000000000000000066
:105A40000000000000000000000000000000000056
:105A50000000000000000000000000000000000046
:105A600000000000000000000000FFFFFFFF00003A
:105A7000000000000000000000000C000C000C0002
:105A80000C000C000C0000000000000000000000F2
:105A90000000000000000000000000000000000006
:105AA00000000000000000000000000000000000F6
:105AB00000000000F003F8071C0C0C0C000FF00FA6
:105AC000F80C0C0C0C0C1C0FF80FF0180000000068
:105AD000000000000000000000001800180018007E
