:020000040800F2
:10000000D8060020ED010008672F0008FB25000836
:10001000652F0008090300083143000800000000B4
:100020000000000000000000000000002133000874
:100030000B03000800000000692F000823330008AC
:10004000070200080702000807020008070200086C
:10005000070200080702000807020008070200085C
:10006000070200080702000807020008070200084C
:10007000070200080702000807020008070200083C
:10008000070200080000000007020008070200083D
:10009000070200080702000807020008070200081C
:1000A0009D33000807020008070200080702000845
:1000B000A9330008B533000807020008070200084A
:1000C00007020008070200080702000807020008EC
:1000D000070200082543000807020008070200087D
:1000E00007020008070200080702000807020008CC
:1000F00007020008070200080702000800000000CD
:1001000000000000070200080000000007020008CD
:1001100007020008000000000702000807020008AC
:10012000070200080702000807020008070200088B
:10013000070200080000000000000000070200089D
:10014000070200080702000800000000000000008D
:10015000000000000000000000000000000000009F
:10016000000000000000000000000000070200087E
:10017000070200080000000000000000000000006E
:10018000000000000702000800000000000000005E
:10019000000000000000000000000000000000005F
:1001A000000000000000000007020008070200082D
:1001B000070200080702000807020008000000000C
:1001C000000000000702000800000000000000001E
:1001D0000702000807020008DFF80CD000F082F8E0
:1001E00000480047654B0008D806002006488047B5
:1001F00006480047FEE7FEE7FEE7FEE7FEE7FEE70C
:10020000FEE7FEE7FEE7FEE781330008D9010008BC
:100210002DE9F05F0546002092469B46884606463B
:10022000814640241BE0284641464746224600F0CE
:1002300048F853465A46C01A914110D31146184601
:10024000224600F02FF82D1A67EB01084F46224690
:100250000120002100F026F817EB00094E41201E76
:10026000A4F10104DFDC484631462A464346BDE896
:10027000F09FD2B201E000F8012B491EFBD270477B
:100280000022F6E710B513460A4604461946FFF762
:10029000F0FF204610BD421C10F8011B0029FBD1C5
:1002A000801A7047202A04DB203A00FA02F100206D
:1002B00070479140C2F1200320FA03F319439040A4
:1002C0007047202A04DB203A21FA02F0002170470F
:1002D00021FA02F3D040C2F12002914008431946AE
:1002E00070470000064C074D06E0E06840F001034F
:1002F00094E8070098471034AC42F6D3FFF770FF3C
:10030000885E0008A85E0008FEE77047002240F6FD
:10031000B83306E00021491C89B29942FBD3521C34
:1003200092B28242F6D37047704700002DE9F05F29
:10033000384C3949394E207A0B68C20770682CD086
:10034000374AF16812685143C4F81C103549D4F893
:1003500018C04CF21E37DFF8D080ACF1320C0A68BE
:100360004FF0000A42F20F7541F288394FF0010B4D
:10037000BC4516D803EB83035B01584398FBF0F0B0
:10038000431E2061D362CB60401E096800EBD07031
:100390004010486384F800A010E000FB03F1A16165
:1003A000D4E7D562CD600968C1F8349000224021BD
:1003B0004FF0904000F0E9F984F800B0E0691B4983
:1003C0003238B84217D8164AF068126802EB820237
:1003D0005201504398FBF0F060610B68421EDA62F4
:1003E000CA60401E096800EBD0704010486384F872
:1003F00001A0BDE8F09F0868C562CD600968C1F83A
:100400003490002280214FF0904000F0BEF984F833
:1004100000B0EEE7080000204C0000205000002053
:10042000480000209001002000B4C404DC0100203A
:1004300010B590F8253000210122022B03D00421B1
:10044000C163012122E003681C6824F00E041C60D3
:10045000836C1C6824F480741C6003681C6824F09E
:1004600001041C6090F84430046C03F01F0302FA8E
:1004700003F36360D0E913345C60436D33B11C68EF
:1004800024F480741C60D0E916345C6080F8252068
:10049000002280F82420084610BD70B590F8252071
:1004A000002401212346022A07D00422C26380F8D7
:1004B000251080F82430012429E00268156825F011
:1004C0000E0515600268156825F001051560826C3F
:1004D000156825F48075156090F84420056C02F0CD
:1004E0001F0201FA02F26A60D0E913255560426DDD
:1004F00032B1156825F480751560D0E91625556070
:1005000080F8251080F82430816B01B1884720469F
:1005100070BD000070B5044600F03CF90546601C53
:1005200002D004484068044400F034F9401BA04263
:10053000FAD370BD2C0000202DE9F04FDFF8209297
:10054000002301260324A9F1040B85B00F2709F12C
:10055000040AABF1040EFAE006FA03F52A407CD057
:1005600091F804C00CF0030CBCF1010F02D0BCF1F7
:10057000020F26D1D0F808C0CDF800C04FEA430CD6
:1005800004FA0CF8CDF810C0DDF800C02CEA080C15
:10059000CDF800C0D1F80C80DDF810C008FA0CF8D6
:1005A000DDF800C048EA0C08C0F80880D0F804C0A4
:1005B0002CEA050C0D79C5F300159D4045EA0C05A4
:1005C00045600D79ED43AD070ED0C5684FEA43088D
:1005D00004FA08FC25EA0C05D1F808C00CFA08FC5E
:1005E0004CEA050CC0F80CC00D7905F00305022D8E
:1005F00016D1DD0800EB850CCDF808C0DCF82080B2
:100600005D074FEAD56C07FA0CF528EA05080D6975
:1006100005FA0CF5DDF808C045EA0805CCF82050CD
:1006200005684FEA430CCDF808C004FA0CFC25EA33
:100630000C0591F804C00CF00308DDF808C008FAB6
:100640000CF848EA0508C0F800804D6815F4403FF2
:100650007CD0444DD5F860C000E077E04CF0010C50
:10066000C5F860C02D6E23F0030C05F00105009560
:100670003D4D65440295AD684FEA837C4FEA1C7896
:1006800007FA08FC25EA0C05B0F1904F06D0DFF818
:10069000DCC0604505D14FF0010C20E04FF0000CAC
:1006A0001DE0DFF8CCC0604502D14FF0020C16E02F
:1006B000DFF8C0C0604502D14FF0030C0FE0DFF857
:1006C000B8C0604502D14FF0040C08E0DFF8ACC0C0
:1006D000604502D14FF0050C01E04FF0060C0CFA1A
:1006E00008FC4CEA050C029DC5F808C0D9F800507A
:1006F000CC46D1F8048095435FEAC82800D515435D
:10070000CCF80050DAF80050D446D1F80480954374
:100710005FEA882800D51543CCF80050DBF800507C
:10072000DC46D1F8048095435FEA883800D515434C
:10073000CCF80050DEF80050F446D1F80480954320
:100740005FEAC83800D51543CCF800505B1C0A6836
:1007500032FA03F57FF400AF05B0BDE8F08F00007A
:10076000080401400010024000000140000400485D
:1007700000080048000C0048001000480014004821
:100780000069084000D0012070470AB181617047BC
:100790008162704701488068704700002C0000208B
:1007A0000248816842681144816070472C00002033
:1007B00010B50024032000F073F8002000F008F8C2
:1007C00008B1012401E000F025F8204610BD00002A
:1007D00070B50E4E05460024706898B14FF47A71DA
:1007E000B1FBF0F00A490968B1FBF0F000F064FDDC
:1007F00040B9102D06D200222946501E00F030F8D4
:10080000356000E00124204670BD00002C0000206F
:10081000280000200A4882B0016E41F00101016603
:10082000016E01F001010091816D41F080518165FF
:10083000806D00F08050009002B000F0A1B8000080
:1008400000100240002809DB00F01F020121914046
:100850004009800000F1E020C0F80011704700005E
:10086000F0B40E4B1B680C46C3F30223C3F107051B
:10087000042D00D90425191D072901D2002300E009
:10088000DB1E012606FA05F1491E214099409E40D3
:10089000761E16403143F0BC03F060BD0CED00E065
:1008A000064900F0070208684FF6FF03184040EAC7
:1008B0000220034A10430860704700000CED00E07E
:1008C0000000FA052B492C4B0A6832214A432B4978
:1008D00040B1B0F5007F086829D020F4C06040F432
:1008E00080602CE00868C0F34120022804D051F851
:1008F000800F20F4807022E0D1F8800020F4807016
:10090000C1F88000086820F4C06040F400700860FE
:10091000B2FBF3F0401C00E0401E4A69520501D5CD
:100920000028F9D1486940050AD503207047C0F373
:100930004120022806D051F8800F40F480700860F2
:1009400000207047D1F8800040F48070C1F880002A
:10095000086820F4C06040F400700860B2FBF3F057
:10096000401C00E0401E4A695205DBD50028F9D141
:10097000D8E700002800002040420F00007000402F
:100980000248816841F480418160704700700040F6
:100990002DE9F8430446006800269D4D00035ED50E
:1009A000A86D0027C00008D4A86D40F08050A8654D
:1009B000A86D012700F080500090DFF85892D9F818
:1009C000001041F48071C9F80010FFF7E3FE804683
:1009D00006E000BFFFF7DEFEA0EB080002282BD8E0
:1009E000D9F80000C005F5D5D5F8900010F4407096
:1009F00014D0216C814211D0D5F89000D5F8901018
:100A000020F4407041F48031C5F89010D5F8901072
:100A100021F48031C5F89010C5F89000C00711D0BE
:100A2000FFF7B8FE804641F2883907E0FFF7B2FED3
:100A3000A0EB0801494501D903260BE0D5F8900049
:100A40008007F3D5D5F89000216C20F4407008435E
:100A5000C5F890001FB1A86D20F08050A8652078DF
:100A6000C00707D0D5F88800616820F0030008436C
:100A7000C5F888002078800707D5D5F88800A168D8
:100A800020F00C000843C5F888002078400707D5FF
:100A9000D5F88800E16820F030000843C5F88800E8
:100AA0002078000707D5D5F88800216920F0C0001C
:100AB0000843C5F888002078800607D5D5F8880057
:100AC000616920F440600843C5F88800207840063A
:100AD00007D5D5F88800A16920F440500843C5F82F
:100AE00088002078000607D5D5F88800E16920F451
:100AF00040400843C5F888002088C00507D5D5F8D0
:100B00008800216A20F440300843C5F88800208816
:100B1000800507D5D5F88800616A20F44020084395
:100B2000C5F88800208840050FD5D5F88800A16A4F
:100B300020F440100843C5F88800A06AB0F5801F73
:100B400003D1E86840F48010E860208800050FD5E4
:100B5000D5F88800E16A20F440000843C5F8880011
:100B6000E06AB0F5800F03D1E86840F48010E860D7
:100B70002088C0040FD5D5F88800216B20F0407084
:100B80000843C5F88800206BB0F1807F03D1E86886
:100B900040F48010E86020884FF0006180040ED59A
:100BA000D5F88800626B20F040601043C5F88800DB
:100BB000606B884203D1E86840F48010E8602088C8
:100BC00040040ED5D5F88800A26B20F04060104399
:100BD000C5F88800A06B884203D1E86840F4801013
:100BE000E860208800040FD5D5F88800E16B20F07C
:100BF00040500843C5F88800E06BB0F1805F03D136
:100C0000E86840F48030E8603046BDE8F8830000D2
:100C100000100240007000402DE9F0470E4605002C
:100C20004FF0000725D0DFF8AC81D8F8000000F0C5
:100C30000F00B0420CD2D8F8001021F00F01314360
:100C4000C8F80010D8F8000000F00F00B04210D132
:100C50002968614CC80741F2883A5AD06868DFF8C1
:100C60007C91032808D0022820682DD04005002858
:100C70002CDB0120BDE8F08720688001F9D5E06811
:100C800000F00302E068C0F30310401C032A19D0EF
:100C9000534A00BFB2FBF0F0E268C2F306225043B1
:100CA000E268C2F34162521C5200B0FBF2F04845C8
:100CB00017D9A06810F0F00F0CD0880711D5A868DC
:100CC00040B10EE0474AE5E78003D0E700F0B6F810
:100CD000484506D9A06820F0F00040F08000A060F0
:100CE0008027A068696820F003000843A060FFF730
:100CF00051FD814606E000BFFFF74CFDA0EB090166
:100D000051453AD8A068696800F00C00B0EB810F3B
:100D1000F2D12868810714D5400703D5A06840F4B4
:100D2000E060A0602878000705D5A06820F4605036
:100D300040F4E060A060A068A96820F0F0000843DB
:100D400004E0802F03D1A06820F0F000A060D8F864
:100D50000010404601F00F01B14216D9016821F0A0
:100D60000F0131430160FFF715FD074607E000BFA3
:100D7000FFF710FDC11B514501D903207AE7D8F8D0
:100D8000000000F00F00B042F2D12878400705D5EE
:100D9000A068E96820F4E0600843A06028780007B4
:100DA00006D5A068296920F4605040EAC100A0601F
:100DB00000F044F8A1680C4AC1F30311515C01F042
:100DC0001F01C8400949086009480068BDE8F047AC
:100DD000FFF7FEBC002002400010024000B4C40433
:100DE0000024F40000366E01485E00082800002050
:100DF0002C0000200548064900688968054AC1F3AF
:100E00000221515C01F01F01C840704728000020FA
:100E100000100240585E00080548064900688968CD
:100E2000054AC1F3C221515C01F01F01C84070475F
:100E30002800002000100240585E0008184910B534
:100E40008868C0F381021748012A0BD08A68164BC4
:100E5000C2F38102022A06D08A68C2F38102032A01
:100E600003D0002010BD184610BDCA6802F003046C
:100E7000CA68C2F30312521C032C02D0B0FBF2F07A
:100E800001E0B3FBF2F0CA68C968C2F3062250431E
:100E9000C1F34161491C4900B0FBF1F010BD0000F5
:100EA000001002400024F40000366E012DE9F843E2
:100EB00004007AD02078FA4DC00747D0A868E968C6
:100EC00000F00C0001F003010C2802D0082817D014
:100ED00001E0032914D06068B0F5803F17D0B0F569
:100EE000A02F286817D020F480302860286820F4CC
:100EF000802028606068E0B1FFF74CFC064614E0F3
:100F00002868800322D560680028D2D01EE02868B7
:100F100040F48030EDE740F480202860F7E700BF20
:100F2000FFF738FC801B642870D828688003F7D549
:100F30000CE0FFF72FFC064605E000BFFFF72AFC98
:100F4000801B6428F0D828688003F7D420788007B5
:100F50004CD5A868E96800F00C0001F003010C28EA
:100F600002D004280DD001E002290AD0E068002850
:100F700028682BD040F480702860FFF70BFC0646F1
:100F800019E02868400502D5E068002891D068681B
:100F9000217C20F0FE4040EA01606860C1480068A2
:100FA000FFF716FC002800D120E076E1FFF7F2FB06
:100FB000801B0228B8D828684005F7D56868217CCE
:100FC00020F0FE4040EA016068600FE020F480708D
:100FD0002860FFF7DFFB064605E000BFFFF7DAFBFE
:100FE000801B0228A0D828684005F7D42078000785
:100FF00029D560690028D5F8940013D040F001008D
:10100000C5F89400FFF7C6FB064606E090E000BF77
:10101000FFF7C0FB801B022886D8D5F89400800714
:10102000F6D510E020F00100C5F89400FFF7B2FB00
:10103000064604E0FFF7AEFB801B022878D8D5F8FF
:1010400094008007F6D42078400761D5A86D00266B
:10105000C00008D4A86D40F08050A865A86D012696
:1010600000F08050009090480168C90511D40168D3
:10107000804641F480710160FFF78CFB074604E075
:10108000FFF788FBC01B022852D8D8F80000C00523
:10109000F6D5A068012815D00528D5F8900016D0FF
:1010A00020F00100C5F89000D5F8900020F0040071
:1010B000C5F89000A06841F28838B8B1FFF76AFB24
:1010C00007460EE0D5F8900040F00100F0E740F050
:1010D0000400C5F89000F5E7FFF75CFBC11B414534
:1010E00026D8D5F890008007F6D50CE0FFF752FB24
:1010F000074604E0FFF74EFBC11B414518D8D5F861
:1011000090008007F6D41EB1A86D20F08050A8652D
:101110002078800629D5A0690028D5F8980013D03A
:1011200040F00100C5F89800FFF734FB064606E0E2
:1011300077E000BFFFF72EFB801B022877D8D5F899
:1011400098008007F6D510E020F00100C5F898005F
:10115000FFF720FB064604E0FFF71CFB801B02287C
:1011600065D8D5F898008007F6D4E069F0B3A9688F
:10117000C1F38101032961D00228286820F0807022
:1011800028600BD0E86820F00300E860E868474971
:101190000840E860FFF7FEFA04464BE0FFF7FAFA72
:1011A000064604E0FFF7F6FA801B02283FD82868BD
:1011B0008001F7D4F4E908016FF00F0202EB01118E
:1011C0000843218A5204490802EB4151A26841EACE
:1011D00002210843217D4FF07E42490802EB416124
:1011E0000843217B40EAC160E96800E062E0304AE0
:1011F00011400843E860286840F080702860E86883
:1012000040F08070E860FFF7C5FA044605E000BFD3
:10121000FFF7C0FA001B022809D828688001F7D51B
:1012200048E004E0FFF7B6FA001B022802D90320C9
:10123000BDE8F88328688001F4D43BE00128F7D0AA
:10124000E868226A00F00301914226D1616A00F049
:10125000F0020901103991421FD1A26A00F4FE4147
:10126000B1EB022F19D194F82C2000F07841B1EBAA
:10127000C26F12D1218E00F4C00249084905A1F5C0
:101280000011914209D194F8341000F0C06049086F
:101290004906A1F1007181420CD00120C8E700008D
:1012A000001002402C00002000700040FFFFEEFE06
:1012B0000C809F010020BBE710B5401EB0F1807F7D
:1012C00001D3012010BD4FF0E02460610F216017B1
:1012D00003F044F80020A06107202061002010BD29
:1012E0007047704770470000F0B590F83C20012A25
:1012F0004AD0012280F83C20CA688B6822F44072F0
:101300001A434B6822F480621A430B6822F400628D
:101310001A430B6922F480521A434B6922F400529B
:101320001A430B6B22F480421A430B8B22F4702277
:1013300042EA0342154C03680026154DA34201D032
:10134000AB4203D1CF6922F080523A43A34201D08D
:10135000AB4214D10F8D22F4700242EA07520F6A99
:1013600022F080723A434F6A22F000723A43A3425D
:1013700001D0AB4203D1C96A22F000520A435A6439
:1013800080F83C600020F0BD0220F0BD002C014040
:10139000003401407047704770470000F0B590F886
:1013A0003C20012A3AD0012580F83C50022280F8E6
:1013B0003D2003685A689C68194E1A4FB34201D009
:1013C000BB4204D122F4700C4A6842EA0C02DFF8F6
:1013D00058C002EA0C02D1F800C04CEA020CC3F873
:1013E00004C00268B2420DD0B2F1804F0AD00F4B58
:1013F0009A4207D00E4B9A4204D0BA4202D00D4B0B
:101400009A4204D1896824F080031943916080F8DE
:101410003D50002180F83C100846F0BD0220F0BD90
:10142000002C0140003401408FFFFFFD000400400C
:101430000008004000400140704710B5040003D090
:1014400094F83D0010B107E0012010BD002084F8A1
:101450003C00204600F022F8022084F83D00211DC7
:10146000206801F0ADFF012084F8480084F83E00B8
:1014700084F83F0084F8400084F8410084F842007A
:1014800084F8430084F8440084F8450084F846005A
:1014900084F8470084F83D00002010BD10B586B0E8
:1014A000044614216846FEF7EBFE216800223D4801
:1014B0000223B1F1804F27D03B4CA14248D1816D2E
:1014C00041F002018165816D01F002010591C16C5D
:1014D00041F00201C164C06C694600F00200059051
:1014E00010200090CDE901323048CDE90323FFF709
:1014F00023F8002211461D20FFF7B2F95FF01D000E
:10150000FFF7A0F906B010BD816D41F001018165C2
:10151000816D01F001010591C16C41F00101C164CF
:10152000C06C694600F0010005904FF40040009047
:10153000CDE901320120CDE903204FF09040FEF7C4
:10154000FBFF002211461C20FFF78AF91C20D7E779
:10155000174A91420ED1016E41F480310166006E4E
:10156000002200F48030059011461820FFF778F92A
:101570001820C5E70F4A914207D1016E41F40031AE
:101580000166006E00F4003009E00B4A9142B9D1C7
:10159000016E41F480210166006E00F48020059008
:1015A000B0E70000001002400004004000040048C2
:1015B00000400140004401400048014090F83D10C7
:1015C000012901D001207047022180F83D100168F7
:1015D000CA6842F00102CA600068104988420ED011
:1015E000B0F1804F0BD00E49884208D00D49884297
:1015F00005D00D49884202D00C49884207D1816844
:101600000B4A1140062906D0B1F5803F03D001688E
:1016100041F001010160002070470000002C0140F2
:101620000004004000080040003401400040014038
:101630000700010070B5044690F83C000025012821
:1016400014D0012684F83C60022084F83D00226812
:101650009068364B184020F47F40906008687028EE
:101660002ED010DC10F00F0F03D021E04FF002005D
:1016700070BD4FEA2012072A1AD2DFE802F0525258
:1016800052524A3840002A4BC21A984249D009DCCB
:10169000B0F5805F0DD0B0F5005F1CD0B0F1101F29
:1016A00006D13EE0102A3CD0202A3AD0502A38D029
:1016B000012584F83D60002084F83C00284670BD78
:1016C000CB68D1E90121206801F0DFFE2068816844
:1016D00041F0770109E0CB68D1E90121206801F0F0
:1016E000D4FE2068816841F480418160E1E7CA68E6
:1016F0004968206802F074F85021206806E0CA6842
:101700004968206802F0B4F86021206801F0C8FE42
:10171000CFE7CA684968206802F062F84021206873
:10172000F4E7226801461046F0E7000088FFCEFF8C
:10173000200010002DE9F041054600680F49002601
:101740000F4C104F884209D10021284600F03EFC82
:10175000A06029684E6297FBF0F060612868B0F1E4
:10176000804F09D10021284600F030FCE060296854
:101770004E6297FBF0F02061BDE8F081000400406C
:101780003800002040420F002DE9F041054690F856
:101790003C0000260C46012810D0012085F83C00B2
:1017A00072B1042A1CD0082A2CD00C2A50D0012651
:1017B000002085F83C003046BDE8F0810220FBE7C0
:1017C000D4E90012E368286802F01CF828688169EF
:1017D00021F00C01816128688169A26811430FE042
:1017E000D4E90012E368286802F054F82868816997
:1017F00021F44061816128688169A26841EA02217F
:101800008161D5E72868D4E9002C277B016A21F49F
:1018100080710162C169036A21F0030141EA0C0190
:1018200021F0F00C39074FF420674CEA116123F4E2
:10183000206307EA02221A43C16102622868C16973
:1018400021F00C01C1612868C169A268114328E038
:101850002868D4E90027E168036A23F4805303620F
:10186000D0F81CC0036A2CF4407C4CEA07274FF6E2
:10187000FF7C27F470470CEA013139434FF42047CD
:1018800023F4204307EA02321A43C1610262286846
:10189000C16921F44061C1612868C169A26841EA57
:1018A0000221C16184E710B5040003D094F83D0023
:1018B00010B107E0012010BD002084F83C00204654
:1018C00000F022F8022084F83D00211D206801F07C
:1018D00077FD012084F8480084F83E0084F83F003A
:1018E00084F8400084F8410084F8420084F8430002
:1018F00084F8440084F8450084F8460084F84700E2
:1019000084F83D00002010BD7047000030B504464B
:10191000002571B1042911D0082914D00C2917D041
:10192000102918D094F8430094F84720012817D1C3
:1019300014E094F83E0094F84420F7E794F83F0050
:1019400094F84520F2E794F8400094F84620EDE73B
:1019500094F84100E8E794F84200E5E7012A01D055
:10196000012030BD022079B1042916D008291DD0EC
:101970000C2949D010294AD084F8430084F8470044
:101980000C2947D001253DE084F83E0084F844004E
:101990002068C26842F0020210E084F83F0084F838
:1019A00045002068C26842F0040207E084F8400065
:1019B00084F846002068C26842F00802C260012232
:1019C000206801F055FD1649206888420ED0B0F11C
:1019D000804F0BD01349884208D01349884205D064
:1019E0001249884202D01249884207D18168114ABF
:1019F0001140062906D0B1F5803F03D0016841F0BF
:101A000001010160284630BD84F84100B6E784F842
:101A10004200B3E72068C26842F01002CEE700003F
:101A2000002C014000040040000800400034014048
:101A3000004001400700010070B5044600680169DC
:101A40004FF00005C943890715D4C168C943890708
:101A500011D4E91E01610120207720688069800788
:101A6000204602D0FFF766FE04E000F01BF9204696
:101A700000F0DDF9257720680169C943490717D4CB
:101A8000C168C943490713D46FF004010161022002
:101A900020772068806910F4407F204602D0FFF74D
:101AA00049FE04E000F0FEF8204600F0C0F925777A
:101AB00020680169C943090716D4C168C9430907E9
:101AC00012D46FF008010161042020772068C069FA
:101AD0008007204602D0FFF72DFE04E000F0E2F878
:101AE000204600F0A4F9257720680169C943C9069A
:101AF00017D4C168C943C90613D46FF0100101613E
:101B0000082020772068C06910F4407F204602D06A
:101B1000FFF710FE04E000F0C5F8204600F087F95A
:101B2000257720680169C943C90708D1C168C9433D
:101B3000C90704D1891E0161204600F0F7F9206829
:101B40000169C943090609D4C168C943090605D416
:101B50006FF0800101612046FFF7C3FB2068016937
:101B6000C943C90509D4C168C943090605D46FF43E
:101B7000807101612046FFF7B3FB20680169C9430A
:101B8000490609D4C168C943490605D46FF040012C
:101B90000161204600F02FFA20680169C9438906D7
:101BA00009D4C168C943890605D46FF020010161D9
:101BB0002046FFF797FB20680169C943C90209D491
:101BC000C168C943C90205D46FF480110161204680
:101BD000FFF7E1FB20680169C943890209D4C168A4
:101BE000C943890205D46FF4001101612046FFF753
:101BF000D1FB20680169C943490209D4C168C943BE
:101C0000490205D46FF4800101612046FFF7C4FB4F
:101C100020680169C94309020BD4C168C94309029C
:101C200007D46FF4000101612046BDE87040FFF762
:101C300003BC70BD70B586B0044614216846FEF73B
:101C40001FFB154E256800221449022401234FF082
:101C50009040B54209D1CD6C45F00105CD64C96C09
:101C600001F00101059140210BE00D4EB54210D16C
:101C7000CD6C45F00105CD64C96C01F00101059101
:101C800080210091CDE901426946CDE90323FEF7A9
:101C900053FC06B070BD000000440140001002403B
:101CA00000480140704770B5044690F83C0000269B
:101CB0000D4601280BD0012084F83C000C2A4AD0A4
:101CC00007DC82B1042A20D0082A06D131E00220A4
:101CD00070BD102A53D0142A63D00126002084F846
:101CE0003C00304670BD206801F0E4FB206881694B
:101CF00041F0080181612068816921F0040181615E
:101D0000206881692A69114311E0206801F020FCF4
:101D10002068816941F4006181612068816921F452
:101D200080618161206881692A6941EA02218161BB
:101D3000D4E7206801F054FC2068C16941F0080133
:101D4000C1612068C16921F00401C1612068C169D5
:101D50002A69114311E0206801F08AFC2068C169FA
:101D600041F40061C1612068C16921F48061C161F1
:101D70002068C1692A6941EA0221C161AEE7206891
:101D800001F0BEFC2068016D41F00801016520688A
:101D9000016D21F0040101652068016D2A6911437C
:101DA00011E0206801F0E4FC2068016D41F400615D
:101DB00001652068016D21F4806101652068016D75
:101DC0002A6941EA0221016588E710B5040003D0C1
:101DD00094F83D0010B107E0012010BD002084F808
:101DE0003C00204600F022F8022084F83D00211D2E
:101DF000206801F0E5FA012084F8480084F83E00EC
:101E000084F83F0084F8400084F8410084F84200E0
:101E100084F8430084F8440084F8450084F84600C0
:101E200084F8470084F83D00002010BD70477047DB
:101E300030B50446022269B1042912D0082917D00E
:101E40000C291CD0102921D094F84300012824D05B
:101E5000012030BD94F83E000128F9D184F83E20DD
:101E60001DE094F83F000128F2D184F83F2016E0ED
:101E700094F840000128EBD184F840200FE094F85A
:101E800041000128E4D184F8412008E094F84200A0
:101E90000128DDD184F8422001E084F843200122AA
:101EA000206801F0E5FA194B20681949194A98424F
:101EB00009D0884207D0904205D0174DA84202D0E1
:101EC000164DA84203D1456C45F400454564206891
:101ED00098420CD0B0F1804F09D0114B984206D0F7
:101EE000104B984203D0884201D0904207D18168BC
:101EF0000D4A1140062906D0B1F5803F03D0016894
:101F000041F001010160002030BD0000002C0140C3
:101F100000340140004001400044014000480140BD
:101F200000040040000800400700010070B5006890
:101F3000224988423ED1224D01212846FEF720FC4D
:101F400000B101201F4C022160712846FEF718FCE9
:101F500000B10120607304212846FEF711FC00B196
:101F60000120607501214FF09040FEF709FC00B19F
:101F7000012015496077486805281CDB00200123F3
:101F80004FEA000254F8305015B1012D0ED106E091
:101F900004EBC0056D794DB944F8303006E004EB30
:101FA000C0056E7906B92B7144F83020401C042816
:101FB000E8DB4A6070BD401C486070BD00400140D5
:101FC00000040048B802002038000020024600202B
:101FD00041B1042909D008290AD00C2901D110687F
:101FE000006C70471068406B70471068806B7047DA
:101FF0001068C06B7047704790F88010012918D0A6
:10200000012180F880102421C0F8841050F8641B4E
:102010000A680B6823F001030B6022F000510022D4
:10202000026050F8643C196020210162027710467A
:102030007047022070477047704770B5044690F8AB
:10204000800001281DD0012084F880002420C4F8DD
:10205000840020680568026822F00102026020689E
:10206000826822F060620A438260204601F02EFC02
:10207000206805602020C4F88400002084F88000D7
:1020800070BD022070BD70B5044690F88000012834
:102090001DD0012084F880002420C4F8840020682A
:1020A0000568026822F0010202602068826822F05E
:1020B00060420A438260204601F008FC2068056007
:1020C0002020C4F88400002084F8800070BD022025
:1020D00070BD7047704770472DE9F04103680446B2
:1020E000D86919689A6840F60F0528424FF0000534
:1020F00009D186067ED501F0200602F080573E43C6
:1021000078D0216F27E1A94EA94F16400F403743E1
:1021100070D0C70709D0CF0507D501271F62D4F8B3
:102120008C3043F00103C4F88C3083070AD5D30701
:1021300008D0276802233B62D4F88C3043F00403B4
:10214000C4F88C3043070AD5D30708D02768042386
:102150003B62D4F88C3043F00203C4F88C300307A0
:102160000CD501F02003334308D0266808233362DE
:10217000D4F88C3043F00803C4F88C3003050BD539
:102180004B0109D526684FF400633362D4F88C30D4
:1021900043F02003C4F88C30D4F88C30002B3AD0B4
:1021A000800609D501F0200002F08051084303D0D9
:1021B000216F09B120468847D4F88C0021688968CE
:1021C000490602D410F0280F27D0204601F03EFC2B
:1021D0002068806840061BD52068083050E8001F42
:1021E00021F0400140E80012002AF5D1E06F78B1FB
:1021F000704900E017E08163E06FFEF74EF90028B8
:1022000009D0E06F816B00E02046BDE8F04108474F
:102210002046FFF760FFBDE8F0812046FFF75BFF37
:10222000C4F88C50F7E7E76E2026012F7ED1C70651
:102230007CD5CF067AD510201862206880684006C9
:1022400042D5E16F086840680004000CE3D0B4F8A0
:102250005C208242DFD9A4F85E000868006880062E
:102260002BD4206850E8001F21F4807140E8001250
:10227000002AF6D12068083050E8001F21F0010143
:1022800040E80012002AF5D12068083050E8001F0D
:1022900021F0400140E80012002AF5D1C4F888601E
:1022A000E566216851E8000F20F0100041E80002C7
:1022B000002AF6D1E06FFEF7BBF8B4F85C00B4F882
:1022C0005E10401A81B22CE0B4F85C00B4F85E10E5
:1022D000401A81B2B4F85E0000289CD000299AD040
:1022E000226852E8000F20F4907042E80003002BAF
:1022F000F6D12E4BDB432068083050E8002F1A40FF
:1023000040E80027002FF6D1C4F88860E56625670D
:10231000226852E8000F20F0100042E80003002B72
:10232000F6D12046FFF787FE75E7FFE7C70209D51C
:10233000570207D54FF4801018622046BDE8F041DF
:10234000FFF7C8BE03060AD501F0800302F40002BD
:10235000134304D0616F00297FF456AF5BE7420658
:1023600011D54A060FD52046016851E8002F22F00A
:10237000400241E80023002BF6D1C0F88460456795
:1023800000F03AF947E7020206D54A0004D5204694
:10239000BDE8F041FFF79DBEC001C5D50029C3DAF5
:1023A0002046BDE8F041FFF747BE000001000010E5
:1023B00020010004393A000810B5040003D0D4F815
:1023C000840010B107E0012010BD002084F88000D7
:1023D000204600F027F82420C4F884002068016813
:1023E00021F001010160204601F072FD0128EBD0CF
:1023F000A06A10B1204601F08BFA2068416821F4F0
:10240000904141602068816821F02A018160206844
:10241000016841F0010101602046BDE8104001F073
:10242000DBBA000010B598B00446142111A8FDF7DE
:1024300027FF44216846FDF723FF1B492068884297
:1024400030D101200024CDE900046846FEF7A0FA4F
:1024500008B1FDF769FF1548016E41F4804101663E
:10246000016E01F480411691C16C41F00101C1641B
:10247000C06C11A900F0010016904FF4C0601190DB
:102480000220CDE912040720CDE914404FF090401E
:10249000FEF752F8002211462520FEF7E1F925202B
:1024A000FEF7D0F918B010BD00380140001002400E
:1024B00030B4D0F88830202B20D1E1B1DAB190F8D7
:1024C0008030012B1AD0012380F880300023C366AE
:1024D0000B4C0368A3420BD05B681B0208D5046851
:1024E00054E8003F43F0806344E80035002DF6D106
:1024F00030BC01F027BE012030BC70470220FBE752
:10250000008000400068084988420CD1074809490A
:10251000074B027808681A54401C086001220349DE
:102520000548FFF7C5BF7047003801400A0000208A
:102530008E00002038000020280200202DE9F843FA
:102540000446D0F884001F4616460D46202851D177
:10255000DDB1D6B194F8800001284BD0012084F879
:1025600080004FF00008C4F88C802120C4F884005B
:102570001834FEF70FF9A6878146E68754F8100C49
:10258000183CB0F5805F03D004E00120BDE8F8837B
:10259000206920B12E46002584F8808010E00026B6
:1025A000FAE78021204601F059FEB8B9C6B116F805
:1025B000010B21688862B4F85600401EA4F856004A
:1025C000B4F856004B464FF0000200970028E8D1BF
:1025D0004FF04001204601F041FE30B10320D5E725
:1025E00035F8020BC0F30800E3E72020C4F88400AC
:1025F0000020CBE70220C9E77047FEE770B508244A
:10260000002500F055FE13E06806050E002000F0DE
:1026100037FE142002F064F8142002F061F8012063
:1026200000F02EFE142002F05BF800F035FE0543AA
:10263000641EE4B2E8D2002000F022FE142002F072
:102640004FF800F057FE284670BD70B504460825C7
:1026500016E000F015FE142002F042F804F08000AD
:1026600000F03CFE142002F03BF86006040E14203B
:1026700002F036F8012000F003FE142002F030F8DA
:102680006D1EEDB24FF00000E3D200F0F9FDBDE8A1
:102690007040142002F024B810B5012000F01EFE96
:1026A000142002F01DF8012000F0EAFD142002F0D1
:1026B00017F8002000F012FE142002F011F800209C
:1026C00000F0DEFDBDE81040142002F009B810B59E
:1026D000002000F0D5FD142002F002F8002000F0E8
:1026E000FDFD142001F0FCFF012000F0C9FD1420C5
:1026F00001F0F6FF012000F0F1FDBDE810401420CC
:1027000001F0EEBF10B5052400F0D2FD142001F059
:10271000E7FF012000F0B4FD142001F0E1FF05E027
:10272000641EA4B2142001F0DBFF6CB100F0B4FD14
:102730000028F5D100F0DEFD002000F0A1FD1420FE
:1027400001F0CEFF002010BD00F0D4FDFFF7BFFF69
:10275000012010BD00B585B014216846FDF790FD3D
:102760004FF6FF70009000200321CDE90201019097
:1027700069460248FDF7E0FE05B000BD00080048CC
:1027800000B585B014216846FDF77AFD4FF6FF705D
:1027900000900120019003200390002002906946E0
:1027A0000248FDF7C9FE05B000BD00000008004862
:1027B00070B5002406462146204600F003F900F0DB
:1027C00041F94FF49635304600F010F9641CAC42E4
:1027D000F9D370BD30B587B014216846FDF750FDC0
:1027E0001E48C16C41F00401C164C16C01F00401D8
:1027F0000591C16C41F00101C164C16C01F001019E
:102800000591C16C41F00201C164C06C012500F06A
:10281000020005904FF44870CDE9000500240394B0
:10282000694602940E48FDF787FE28020394009043
:10283000CDE901544FF0904469462046FDF77CFEF7
:10284000FFF79EFFA06940F48070A0610448183033
:10285000016841F40871016007B030BD001002400A
:1028600000040048203AD2B2034B02EB420203EBD1
:10287000021200F019B80000784C0008F0B50E46BE
:102880000746002540F23F1407E021463846FFF78F
:10289000E9FF103C6D1CA4B2761C3278002A01D0EE
:1028A000142DF2D3F0BD00002DE9F04791468A4681
:1028B0000026044600F086F8DFF84080012700BFBC
:1028C00000F0C0F85FF0000539F8160007FA05F1CE
:1028D0000842404601D1408800E0008800F086F8B8
:1028E0006D1C102DF0D3641CE4B25146204600F05C
:1028F00069F8761C182EE3D3BDE8F08700000020AD
:1029000010B5FFF767FF002000F014F8084CA08016
:10291000A088A0F50241303906D000F0AFFB0020BE
:1029200000F008F8A08010BD00F01FFBF7E70000E2
:102930000000002070B51D490A6842F400720A6068
:102940000A6842F480720A60184C103C226842F017
:1029500020022260164A1060086840F020000860DB
:1029600000BF00BF00BF206840F02000206020684A
:1029700040F480702060FFF7EDFE4FF09041886AD0
:1029800040F48070886200BF00BF00BF0848001F8D
:10299000006885B2886940F480708861FFF7F0FEB6
:1029A000206840F400702060284670BD280400486C
:1029B0001408004801B5BDF800000149488008BD71
:1029C0000000002010B50C460146202000F068F8F9
:1029D0002146BDE81040212000F062B801B5BDF8E5
:1029E00000000149088008BD00000020134A11685A
:1029F00041F400711160114910390B6843F4807380
:102A00000B600B6843F020030B600D4B18601068DF
:102A100040F02000106000BF00BF00BF086840F019
:102A200020000860086840F48070086000BF00BFA4
:102A300000BF086840F40070086070472804004830
:102A4000140800481449086840F4007008600868D9
:102A500040F48070086010481038026842F020028C
:102A600002600E4B22221A600A6842F020020A60BD
:102A700000BF00BF00BF016841F020010160016894
:102A800041F48071016000BF00BF00BF016841F4E4
:102A900000710160704700002804004814080048D5
:102AA000184B10B51A6842F400721A601A6842F4A2
:102AB00080721A60134A103A146844F020041460BB
:102AC000114C2060186840F02000186000BF00BF63
:102AD00000BF106840F020001060106840F4807063
:102AE00010602160186840F02000186000BF00BF2F
:102AF00000BF106840F020001060106840F4807043
:102B0000106010BD28040048140800482DE9F04F5B
:102B100087B014216846FDF7B3FB3F48C16C41F014
:102B20000401C164C16C01F004010591C16C41F064
:102B30002001C164C16C01F020010591C16C41F01C
:102B40000101C164C16C01F001010591C16C41F04A
:102B50000201C164C16C01F002010591C16C41F038
:102B60000801C164C06CDFF8B48000F008004FF6C3
:102B7000FF740590002221464046FDF706FE4FF403
:102B800080764FF09049002231464846FDF7FDFD22
:102B9000DFF88CA0002204215046FDF7F6FDDFF897
:102BA00084B04FF47877002239465846FDF7EDFDA2
:102BB0000125CDE90045002402946946404603946E
:102BC000FDF7BAFCCDE90054694648460295FDF789
:102BD000B3FC07208DE8310069465846FDF7ACFC90
:102BE0000096CDE90154694648460394FDF7A4FCDC
:102BF00004200090CDE90154694650460394FDF746
:102C00009BFC0097CDE90154694658460394FDF7B3
:102C100093FC07B0BDE8F08F0010024000080048A8
:102C2000000C00480004004810B588B00024184883
:102C30000094019402940394049405941349069417
:102C400001604F21C0E9011442F20F71C0E9031481
:102C50008021C0E90541FEF7F0FB08B1FDF764FBF8
:102C60004FF48050009069460948FEF7E3FC08B134
:102C7000FDF75AFB049404A905480694FEF78EFB61
:102C8000002801D0FDF750FB08B010BD0040014006
:102C90004401002010B594B01C210DA8FDF7F0FAF6
:102CA00034216846FDF7ECFA20481F4900240160F2
:102CB0009F21C0E9011440F2E731C0E903148021EB
:102CC000C0E90541FEF7B9FB08B1FDF72DFB174838
:102CD000FFF77BF808B1FDF727FB6020CDE90D0475
:102CE0000F9410941194129400220DA90F4813947C
:102CF000FEF7D9FF08B1FDF717FB00944FF4005021
:102D0000CDE904400194029403940694694607486F
:102D10000C94FEF7E9FA08B1FDF706FB0348FEF74D
:102D200089FF14B010BD0000004401409001002054
:102D300010B594B01C210DA8FDF7A2FA3421684605
:102D4000FDF79EFA20481F49002401609F21C0E939
:102D5000011440F2E731C0E903148021C0E90541C4
:102D6000FEF76BFB08B1FDF7DFFA1748FFF72DF808
:102D700008B1FDF7D9FA6020CDE90D040F94109445
:102D80001194129400220DA90F481394FEF78BFFA3
:102D900008B1FDF7C9FA00944FF40050CDE90440A2
:102DA0000194029403940694694607480C94FEF734
:102DB0009BFA08B1FDF7B8FA0348FEF73BFF14B0E1
:102DC00010BD000000480140DC01002010B58CB0AF
:102DD00000240594214804940694079408940A94C6
:102DE00009940094019402944FF08041039401608F
:102DF0004F21C0E901141A49C0E9031480218161FF
:102E0000FEF71BFB08B1FDF78FFA4FF480500490DA
:102E100004A91248FEF70EFC08B1FDF785FA0F4829
:102E2000FEF741FD08B1FDF77FFA089408A90B48A9
:102E30000A94FEF7B3FA08B1FDF776FA0120CDE95E
:102E4000004002940022694604480394FEF79CFC6B
:102E5000002801D0FDF768FA0CB010BDAC000020CE
:102E600020A1070010B58CB00024059422480494DA
:102E70000694079408940A94099400940194029487
:102E80001C49039401604F21C0E901144EF66021F2
:102E9000C0E9031480218161FEF7CFFA08B1FDF784
:102EA00043FA4FF48050049004A91348FEF7C2FB84
:102EB00008B1FDF739FA1048FEF7F5FC08B1FDF747
:102EC00033FA089408A90C480A94FEF767FA08B187
:102ED000FDF72AFA0120CDE900400294002269465C
:102EE00005480394FEF750FC002801D0FDF71CFABA
:102EF0000CB010BD00040040F8000020184810B5C8
:102F0000164901604FF416514160002181600C2286
:102F1000C160C0E904128161C161016241628162E4
:102F2000FFF74AFA08B1FDF7FFF900210C48FFF757
:102F3000AAF808B1FDF7F8F900210948FFF77DF874
:102F400008B1FDF7F1F90648FFF756F8002803D05D
:102F5000BDE81040FDF7E8B910BD000000380140A1
:102F600028020020FEE77047704730B5012100209D
:102F7000FFF796FD4FF47A70FDF7C8F900210120A4
:102F8000FFF78EFD41F290711020FFF789FD4FF49D
:102F90001C516020FFF784FD01216120FFF780FDB7
:102FA00002214620FFF77CFD48F210011320FFF7B5
:102FB00077FD48F2FE011220FFF772FD4FF4A06189
:102FC0000220FFF76DFD41F230010320FFF768FD9D
:102FD00040F2033421463020FFF762FD21463120C4
:102FE000FFF75EFD21463220FFF75AFDE51E294618
:102FF0003320FFF755FD03213420FFF751FD214613
:103000003520FFF74DFD14213620FFF749FD2146FD
:103010003720FFF745FD21463820FFF741FD2146C7
:103020003920FFF73DFD29463A20FFF739FD0321FE
:103030003B20FFF735FD21463C20FFF731FD4FF4E3
:10304000A0513D20FFF72CFD4FF400719220FFF7B7
:1030500027FD21469320FFF723FD40F60D01902028
:10306000FFF71EFD41F218010320FFF719FDBDE82F
:10307000304040F273110720FFF712BD10B543F244
:103080000801E320FFF70CFD1221E720FFF708FD00
:1030900041F23121EF20FFF703FD00210120FFF76E
:1030A000FFFC4FF4E0610220FFF7FAFC41F230012F
:1030B0000320FFF7F5FC00210420FFF7F1FC40F2AC
:1030C00007210820FFF7ECFC00210920FFF7E8FCAE
:1030D00000210A20FFF7E4FC00210C20FFF7E0FCB0
:1030E00000210D20FFF7DCFC00210F20FFF7D8FCAA
:1030F00000211020FFF7D4FC07211120FFF7D0FC9E
:1031000000211220FFF7CCFC00211320FFF7C8FCA0
:10311000C820FDF7FFF941F290611020FFF7C0FCD5
:1031200040F227211120FFF7BBFC3220FDF7F2F916
:103130001D211220FFF7B4FC3220FDF7EBF94FF40C
:1031400000611320FFF7ACFC14212920FFF7A8FC35
:103150000B212B20FFF7A4FC3220FDF7DBF9002127
:103160002020FFF79DFC00212120FFF799FC07217B
:103170003020FFF795FC40F207713120FFF790FCFB
:1031800006213220FFF78CFC40F204713520FFF756
:1031900087FC41F604713620FFF782FC04213720BA
:1031A000FFF77EFC00213820FFF77AFC40F2067121
:1031B0003920FFF775FC40F201713C20FFF770FCED
:1031C0000F213D20FFF76CFC00215020FFF768FC29
:1031D000EF215120FFF764FC00215220FFF760FC33
:1031E00040F23F115320FFF75BFC4FF41C5160206D
:1031F000FFF756FC01216120FFF752FC00216A20F5
:10320000FFF74EFC00218020FFF74AFC00218120BF
:10321000FFF746FC00218220FFF742FC00218320BB
:10322000FFF73EFC00218420FFF73AFC00218520B7
:10323000FFF736FC10219020FFF732FC002192208E
:10324000FFF72EFC03219320FFF72AFC4FF488712F
:103250009520FFF725FC00219720FFF721FC002196
:103260009820FFF71DFC41F218010320FFF718FC1E
:10327000BDE8104040F273110720FFF711BC0000B9
:1032800008B1044801E003481030016841F04001F2
:10329000016070471804004810B580210348FDF70D
:1032A0006FFA012800D0002010BD00000004004883
:1032B00000B585B014216846FCF7E2FF802000903D
:1032C00000200190012002900220039069460248EC
:1032D000FDF732F905B000BD0004004808B104480C
:1032E00001E003481030016841F08001016070473F
:1032F0001804004800B585B014216846FCF7C0FFEB
:103300008020009011200190002002900220039064
:1033100069460248FDF710F905B000BD00040048F9
:103320007047FDF73DBA10B594B038216846FCF7F8
:10333000A7FF14210EA8FCF7A3FF4FF40070FDF7C0
:10334000C1FA012000900004019002200324CDE97D
:1033500007041421CDE90A100C900D9009946846D9
:10336000FDF7A4FD0F20CDE90E0400201090119070
:10337000129002210EA8FDF74FFC14B010BD000002
:103380000548016841F47001016003494FF0006095
:10339000803908607047000088ED00E00148FEF7C2
:1033A0004BBB0000440100200148FEF745BB000074
:1033B000AC0000200148FEF73FBB0000F8000020F1
:1033C0002DE9F0430268234B234D244E244C4FF04B
:1033D0008049984207D0484505D0A84203D0B04262
:1033E00001D0A04203D122F070074A683A431D4F32
:1033F000DFF874C0DFF8748098420DD048450BD0D8
:10340000A84209D0B04207D0A04205D0B84203D0AC
:10341000604501D0404503D122F44075CA682A4373
:103420004D6922F080022A4302608A68C2620A68FB
:103430008262984207D0A04205D0B84203D06045CE
:1034400001D0404501D10969016301214161BDE815
:10345000F0830000002C0140000400400008004000
:103460000034014000400140004401400048014058
:1034700010B501F01F030121046A99408C430462D6
:10348000016A9A401143016210BD10B5846842EA96
:10349000032224F47F440A432243826010BD0000CB
:1034A0008268034B1A400A4342F00701816070476B
:1034B0008FFFCFFF2DE9F043026A22F00102026282
:1034C000056A436882691C4C25F0020522400C689D
:1034D00022F0030214438A68194E2A43174D194FEC
:1034E000DFF864C0DFF86490A84207D0B04205D08E
:1034F000B84203D0604501D0484506D122F0080803
:10350000CA6842EA080222F00402A84207D0B04288
:1035100005D0B84203D0604501D0484505D14D697A
:1035200023F440731D438B692B43436084614968D6
:1035300041630262BDE8F0838FFFFEFF002C014073
:103540000034014000400140004401400048014077
:10355000F0B5026A22F010020262056A42688369CD
:10356000194C1B4E23400C6823F4407343EA042497
:1035700025F020038D6843EA0513144DA84201D0BD
:10358000B04206D1CF6823F0800343EA071323F04B
:103590004003A8420AD0B04208D00E4DA84205D040
:1035A0000D4DA84202D00D4DA84207D14D6922F41D
:1035B000406242EA85028D6942EA85024260846186
:1035C000496881630362F0BDFF8FFFFE002C01405C
:1035D00000340140004001400044014000480140E7
:1035E000F0B5026A22F480720262056A4368C26919
:1035F000194C1B4E22400C6822F00302144325F4A0
:1036000000728D6842EA0522144DA84201D0B042F2
:1036100006D1CF6822F4006242EA072222F48062D7
:10362000A8420AD0B04208D00E4DA84205D00E4D97
:10363000A84202D00D4DA84207D14D6923F4405352
:1036400043EA05138D6943EA05134360C461496881
:10365000C1630262F0BD00008FFFFEFF002C01403D
:103660000034014000400140004401400048014056
:10367000F0B5026A22F480520262056A4268C369A8
:10368000194C1B4E23400C6823F4407343EA042476
:1036900025F400538D6843EA0533144DA84201D048
:1036A000B04206D1CF6823F4004343EA073323F442
:1036B0008043A8420AD0B04208D00E4DA84205D09F
:1036C0000D4DA84202D00D4DA84207D14D6922F4FC
:1036D000404242EA85128D6942EA85124260C46125
:1036E000496801640362F0BDFF8FFFFE002C0140BA
:1036F00000340140004001400044014000480140C6
:1037000030B5026A22F480320262046A4268036DB4
:10371000114D2B400D681D4324F400330C8943EAFE
:1037200004430E4CA0420BD00D4CA04208D00D4CCF
:10373000A04205D00C4CA04202D00C4CA04204D1B7
:103740004C6922F4803242EA0422426005654968ED
:103750008164036230BD00008FFFFEFF002C01403A
:103760000034014000400140004401400048014055
:1037700030B5026A22F480120262046A4268036D64
:10378000114D24F400142B400D6843EA05230D89E4
:1037900044EA05540D4DA8420BD00D4DA84208D067
:1037A0000C4DA84205D00C4DA84202D00B4DA842AA
:1037B00004D14D6922F4802242EA852242600365E9
:1037C0004968C164046230BDFF8FFFFE002C0140D8
:1037D00000340140004001400044014000480140E5
:1037E00010B5036A046A24F001040462846924F0B9
:1037F000F00444EA021423F00A020A4384610262DC
:1038000010BD000070B5046A24F0010404628469EC
:10381000056A124EB0420ED0B0F1804F0BD0104E60
:10382000B04208D00F4EB04205D00F4EB04202D089
:103830000E4EB04203D124F00304144301E044F0DF
:1038400001041A0724F0F00444EA126225F00A0386
:1038500001F00A0119438261016270BD002C014030
:1038600000040040000800400034014000400140D6
:1038700010B5036A23F0100303628369046A23F41A
:10388000704343EA023224F0A00343EA011182614B
:10389000016210BD30B5046A24F01004046284692A
:1038A000056A24F4407444EA022222F470444FF67C
:1038B000FF7202EA03322243A02425F0A00304EAA7
:1038C000011119438261016230BD000030B5416EC3
:1038D000B9B1026891689268C1F342610B4B520F13
:1038E0009C5CE50003F10804A25CB5FBF2F2A0F8D1
:1038F0006A205A5C615CD200B2FBF1F1A0F868105A
:1039000030BD0121A0F86A10F8E70000785E0008D9
:1039100090F82810C90706D001684A68C36A22F4E3
:1039200000321A434A6090F82810890706D50168CA
:103930004A68036B22F480321A434A6090F82810D8
:10394000490706D501684A68436B22F480221A436E
:103950004A6090F82810090706D501684A68836B09
:1039600022F400421A434A6090F82810C90606D58E
:1039700001688A68C36B22F480521A438A6090F807
:103980002810890606D501688A68036C22F4005263
:103990001A438A6090F82810490611D501684A68D0
:1039A000436C22F480121A434A60416CB1F5801FC7
:1039B00006D101684A68836C22F4C0021A434A6047
:1039C00090F82810090606D501684A68C06C22F4F0
:1039D000002202434A607047F8B500260446C0F84A
:1039E0008C60FCF7D7FE0546206800686FF07E47C4
:1039F000000708D52B4600224FF4001120460097FF
:103A000000F02CFC60B92068006840070AD52B46FE
:103A100000224FF480012046009700F01FFC08B1FF
:103A20000320F8BD2020C4F88400C4F8880044F8BE
:103A30006C6F00202675F8BD10B5806A0021A0F8D3
:103A40005E10A0F85610FEF746FB10BD10B50268D8
:103A500052E8001F21F4907142E80013002BF6D1C8
:103A60000E4B0268083252E8001F194042E8001469
:103A7000002CF6D1C16E012908D1016851E8002F50
:103A800022F0100241E80023002BF6D12021C0F8DB
:103A900088100021C166016710BD0000FEFFFFEF26
:103AA00010B5B0F86020D0F888300168222B04D01F
:103AB000886940F00800886110BD496A836D114033
:103AC0001980816D891C8165B0F85E10491EA0F8CF
:103AD0005E10B0F85E100029EED1026852E8001FB7
:103AE00021F4907142E80013002BF6D101680831EF
:103AF00051E8002F22F0010241E80023002BF5D10C
:103B00002021C0F8881000210167C26E012A02D06E
:103B1000FEF7F8FC10BDC166026852E8001F21F0F4
:103B2000100142E80013002BF6D10168CA69D243A4
:103B3000D20601D410220A62B0F85C10FEF77BFABC
:103B400010BD00002DE9F0470446B0F86060006841
:103B5000C569D0F800A0D0F80880D4F888102229D0
:103B600005D0816941F008018161BDE8F087B4F8B2
:103B700068704FF0000963E02068406AA16D304032
:103B80000880A06D801CA065B4F85E00401EA4F8FB
:103B90005E002068C569690730D0E9070AD05FEA8E
:103BA000CA5107D501210162D4F88C0040F0010010
:103BB000C4F88C00A8070BD55FEAC87008D021684C
:103BC00002200862D4F88C0040F00400C4F88C0095
:103BD00068070BD55FEAC87008D021680420086226
:103BE000D4F88C0040F00200C4F88C00D4F88C00AB
:103BF00020B12046FEF76FFAC4F88C90B4F85E004E
:103C0000F0B9216851E8000F20F4807041E800020B
:103C1000002AF6D1264A2068083050E8001F1140DB
:103C200040E80013002BF6D12020C4F88800C4F827
:103C30007090E16E4846012923D02046FEF762FCD1
:103C40000FB1A80698D4B4F85E0000288DD0B4F85F
:103C50006810814289D92068083050E8001F21F09F
:103C6000805140E80012002AF5D1124820672068F0
:103C700050E8001F41F0200140E80012002AF6D170
:103C800073E7E066216851E8000F20F0100041E87A
:103C90000002002AF6D12068C169C943C90601D4CF
:103CA00010210162B4F85C102046FEF7C4F9C7E7A2
:103CB000FEFFFFEFA13A000810B5B0F86020D0F881
:103CC00088300168222B04D0886940F008008861A0
:103CD00010BD496A1140826D1170816D491C81656A
:103CE000B0F85E10491EA0F85E10B0F85E10002912
:103CF000EED1026852E8001F21F4907142E80013EF
:103D0000002BF6D10168083151E8002F22F00102A2
:103D100041E80023002BF5D12021C0F888100021B4
:103D20000167C26E012A02D0FEF7ECFB10BDC1662E
:103D3000026852E8001F21F0100142E80013002B36
:103D4000F6D10168CA69D243D20601D410220A62B0
:103D5000B0F85C10FEF76FF910BD00002DE9F047D8
:103D60000446B0F860600068C569D0F800A0D0F8DB
:103D70000880D4F88810222905D0816941F0080113
:103D80008161BDE8F087B4F868704FF0000963E026
:103D90002068406AA16D30400870A06D401CA0658D
:103DA000B4F85E00401EA4F85E002068C56969078B
:103DB00030D0E9070AD05FEACA5107D50121016274
:103DC000D4F88C0040F00100C4F88C00A8070BD593
:103DD0005FEAC87008D0216802200862D4F88C001D
:103DE00040F00400C4F88C0068070BD55FEAC87087
:103DF00008D0216804200862D4F88C0040F002004A
:103E0000C4F88C00D4F88C0020B12046FEF763F98A
:103E1000C4F88C90B4F85E00F0B9216851E8000F46
:103E200020F4807041E80002002AF6D1264A20687A
:103E3000083050E8001F114040E80013002BF6D175
:103E40002020C4F88800C4F87090E16E484601292B
:103E500023D02046FEF756FB0FB1A80698D4B4F83D
:103E60005E0000288DD0B4F86810814289D920689E
:103E7000083050E8001F21F0805140E80012002A6D
:103E8000F5D112482067216851E8000F40F020006A
:103E900041E80002002AF6D173E7E066216851E8A4
:103EA000000F20F0100041E80002002AF6D120683F
:103EB000C169C943C90601D410210162B4F85C107C
:103EC0002046FEF7B8F8C7E7FEFFFFEFB93C000851
:103ED0002DE9F0410446016880682269E3691043D6
:103EE000626900251A431043DFF82CC20A688B4B25
:103EF0001A4002430A6020684168E26821F4405198
:103F0000114341602168A069614501D0226A1043D4
:103F10008A68834B1A4002438A602068C16A626AD9
:103F200021F00F011143C1627E4923687E488B4214
:103F30000DD1D0F8880010F0030006D0012855D02C
:103F4000022842D003283FD152E001203DE07749CA
:103F50008B420BD1D0F8880010F00C0035D004282B
:103F600033D0082840D00C282ED141E070498B4234
:103F70000BD1D0F8880010F0300026D0102835D0B2
:103F8000202831D030281FD132E06A498B420BD132
:103F9000D0F8880010F0C00017D0402826D0802824
:103FA00022D0C02810D123E063450DD1D0F888007D
:103FB00010F4406009D0B0F5806F17D0B0F5006FF5
:103FC00012D0B0F5406F13D010205B495B4F002634
:103FD0004FF4004263453BD160B1022813D004285E
:103FE0000BD0082872D10DE00220EEE70420ECE7A8
:103FF0000820EAE7FCF7FEFE01E0FCF71FFF0100E6
:1040000001D17CE01146606A37F810206768B1FB87
:10401000F2F007EB4703834270D8B0EB073F6DD84F
:10402000002308461946FCF7F3F8090241EA10613B
:1040300002027808101871413A460023FCF7E8F8AC
:104040003F4AA0F54071914258D82168C86056E0B7
:10405000E3694FF6EF7893422CD109284ED2DFE87E
:1040600000F00508114D0D4D4D4D1000FCF7C2FE3E
:1040700001E0FCF7D1FE010004D140E0FCF7DEFED8
:10408000F9E71146606A37F81000B1FBF0F0410023
:10409000606801EB5001B1FBF0F0A0F11001414567
:1040A0002CD84FF6F0710140C0F342000143206864
:1040B000C16024E0092821D2DFE800F005091220C0
:1040C0000E2020201100FCF795FE02E016E0FCF720
:1040D000A3FE010004D112E0FCF7B0FEF9E711469F
:1040E000606A37F81000B1FBF0F1606801EB500135
:1040F000B1FBF0F0A0F1100141450AD901250120E2
:10410000A4F86A0024F8680F2846A660E660BDE8B7
:10411000F08180B299E7000000800040F369FFCF92
:10412000FFF4FF110038014000100240004400403D
:1041300000480040004C00400024F400605E00088D
:10414000FFFC0F0070B58165A0F85C20A0F85E2030
:104150000021016783684FF48055FF24AB4204D1EE
:104160000369FBB940F2FF1322E07F26C3B1B3F12C
:10417000805F1AD0A0F86010C0F88C102223C0F81D
:1041800088300368083353E8004F44F0010443E8E3
:104190000046002EF5D1436EB3F1005F0ED032E041
:1041A000036943B9A0F86040E6E703691BB13F2308
:1041B000A0F86030E0E7A0F86060DDE7B0F86830B4
:1041C000934220D88268AA4201D10269CAB11F4A2B
:1041D000026780F88010016941B1026852E8001F4F
:1041E00041F4807142E80013002BF6D101680831D8
:1041F00051E8002F42F0805241E80023002BF5D116
:1042000021E0134AE4E78268AA4201D102697AB147
:10421000104A026780F88010016959B1026852E8BB
:10422000001F41F4907142E80013002BF6D10AE020
:10423000094AEEE7026852E8001F41F0200142E817
:104240000013002BF6D1002070BD00005D3D00087A
:10425000453B0008B93C0008A13A00082DE9F047A9
:104260009A4617460E4604464FF000094FF02008C4
:10427000089D4AE0681C48D0FCF78CFAA0EB0A00C5
:10428000A8422AD84DB32068016849073DD5C069C6
:10429000C043000539D421684FF4006008622068EB
:1042A00050E8001F21F4D07140E80012002AF6D136
:1042B0002068083050E8001F21F0010140E800129A
:1042C000002AF5D144F8848FC4F80480C4F808802B
:1042D00004F8049C0320BDE8F087216851E8000F32
:1042E00020F4D07041E80002002AF6D1206808309E
:1042F00050E8001F21F0010140E80012002AF5D12A
:1043000044F8848FC4F80480E2E72068C06936EA84
:10431000000004D00020B842ACD00020DBE7012030
:10432000F9E700000148FDF7D7BE00002802002091
:10433000FEE700000FB4084B10B504A902AA0398C9
:1043400000F02CF8044602A9002000F03DF92046B8
:1043500010BC5DF814FB0000C94500080907090EF0
:10436000002804DB00F1E02080F80014704700F022
:104370000F0000F1E02080F8141D704702E008C82B
:10438000121F08C1002AFAD170477047002001E0CF
:1043900001C1121F002AFBD1704700002DE9FF4F19
:1043A0008BB09A460F460446002606E025280BD01F
:1043B00052460D999047641C761C20780028F5D150
:1043C0000FB03046BDE8F08F0025A94601227D4997
:1043D00000E0054314F8013F203B02FA03F00842D5
:1043E000F7D120782E2817D114F8010F45F00405D5
:1043F0002A280ED06FF02F022078A0F13001092971
:104400000AD809EB890102EB410100EB0109641CA8
:10441000F2E757F8049B641C20786C280DD004DC6C
:104420004C2812D06A2811D104E074280DD07A28C3
:104430000CD10AE045F4001507E0617845F48015D9
:10444000814202D1641C05F58015641C207869281E
:104450003ED006DC0028B3D063280BD0642804D1FA
:1044600036E0732810D075285CD052460D999047DD
:10447000761CA5E017F8040B8DF8000000208DF8DD
:104480000100E846012003E057F8048B4FF0FF30AD
:1044900069074FF0000501D40AE06D1C4D450DDAA7
:1044A0008542FADB18F805100029F6D106E06D1CEC
:1044B0008542FCDB18F805100029F8D12E4404E0F1
:1044C00018F8010B52460D9990476D1EF8D277E00F
:1044D00000200A90C5F302504FF00A0B02280CD0BE
:1044E00001CFC117021E71F100020CDA0023D0EBDC
:1044F000030063EB01012D2208E0FF1D27F00707F1
:10450000F7E80201EEE72A0504D52B228DF82420D6
:10451000012203E0EA070FD02022F7E70DF120087F
:10452000089218E000200A90C5F302504FF00A0BE1
:10453000022803D001CF00210022EFE7FF1D27F062
:104540000707F7E80201F7E75A460A9BFBF760FE08
:10455000303208F8012D50EA0102F5D1ADEB080028
:1045600000F1200B680701D44FF00109D94502DDA5
:10457000A9EB0B0000E000208146002506E009A819
:104580005246405D0D9990476D1C761C08988542F7
:10459000F5DB04E0302052460D999047761CB9F1C6
:1045A0000001A9F10109F5DC05E018F8010B5246FC
:1045B0000D999047761CBBF10001ABF1010BF4DCC7
:1045C000641CFAE6092801000A68531C0B6010708D
:1045D000704700002DE9F0413249314E01F13E00B3
:1045E000314C87790279D6F800C001232E38002596
:1045F000303FBCF1080F04D0BCF1070F2ED02BA127
:1046000039E0284F6FF02F0C3E3797F807E0BF795D
:10461000303F07EB87070CEB47077744A7F1020C05
:10462000312A03D0322A0CD024A124E04760BCF107
:10463000080F30D84F60F9B2002000F077F82570ED
:1046400009E0C760BCF1080F27D8CF60F9B201209C
:1046500000F06CF865703560BDE8F081DFF844C0AB
:10466000312A0CF13E0C9CF806C0ACF1320CDDD0C6
:10467000322AE6D015A10B484D30FFF75BFE094802
:104680004D30FBF708FE074982B264234D311348D1
:10469000FDF754FFDFE72370DDE76370DBE7000021
:1046A00038000020500000200800002073656E6470
:1046B000206572726F72310D0A00000073656E64BE
:1046C000206572726F72320D0A00000073656E64AD
:1046D000206572726F72330D0A00000028020020FC
:1046E000002100E0491C8142FCD3704710B504460C
:1046F000FDF7D2FFA020FDF7A8FFFEF703F8204644
:10470000FDF7A3FFFDF7FEFFFDF7E1FFFDF7C4FF97
:10471000A120FDF79AFFFDF7F5FFFDF76FFF0446B7
:10472000FDF7F0FFFDF7D3FF204610BD70B50D4635
:104730000446FDF7B1FFA020FDF787FFFDF7E2FF7C
:104740002046FDF782FFFDF7DDFF2846FDF77DFFE0
:10475000FDF7D8FFBDE87040FDF7B9BF2DE9F05F68
:10476000DFF8D4A0354A364CDAF80400D2F800C09D
:10477000034600FB0CF0334EA061DAF80C103268EF
:104780004CF21E385143E1612F49304F32380A68EC
:1047900042F20F7541F288394FF0010B404511D8B4
:1047A0000CEB8C004001434397FBF3F3581E23614D
:1047B000D062C860096800EBD070401048630020E8
:1047C00020700CE0D562CD600968C1F834900022F9
:1047D00040214FF09040FBF7D8FF84F800B0E0692B
:1047E0001B493238404517D83268DAF80C0002EB22
:1047F00082025201504397FBF0F060610B68421E49
:10480000DA62CA60401E096800EBD070401048634D
:1048100000206070BDE8F09F0868C562CD6009683F
:10482000C1F83490002280214FF09040FBF7ADFF9B
:1048300084F800B0EEE70000500000204C0000209B
:1048400008000020480000209001002000B4C404AB
:10485000DC0100202DE9F0412F4E00272F4D30794B
:10486000012807D16868401C6860C00701D0372064
:10487000E8603771307B01280AD12879C00706D15A
:10488000A868401CA860C00707D00120E860377303
:10489000307D234C012802D014E0EF60F7E728793F
:1048A000C0070ED1287AC00713D0E068002801DDC8
:1048B000401EE060217B0120FFF738FF0520FBF759
:1048C00029FE3775307F01281CD12879C00708D010
:1048D00017E06068002801DD401E6060217900203B
:1048E000EAE7287AC0070FD0E0680A2801DA401CFE
:1048F000E060217B5FF00100FFF718FF0520FBF768
:1049000009FE3777BDE8F08160680A2801DA401CAB
:10491000606021790020EFE7B80200200800002045
:104920005000002070B54FF6FF752846FEF756F888
:104930002C482DA102683148FFF7FCFC2F490020CC
:10494000FDF79CFF2846FEF749F82D482DA1026887
:104950002A48FFF7EFFC29491820FDF78FFF28466A
:10496000FEF73CF8254C2CA1203C24486268FFF758
:10497000E1FC22499020FDF781FF2846FEF72EF842
:1049800029A11E48E268FFF7D5FC1C49A820FDF7C5
:1049900075FF2948C068E0B1012828461ED0FEF7FF
:1049A0001DF826A11548FFF7C5FC1449C020FDF7E6
:1049B00065FF2846FEF712F8104823A11038C26898
:1049C0001030FFF7B7FCBDE870400C49D820FDF768
:1049D00055BF2846FEF702F820A1E3E7FDF7FEFFEA
:1049E00022A1DFE74C0000205233395F6672713A32
:1049F000256C642020202020202000007000002052
:104A0000480000205234305F6672713A256C642091
:104A100020202020202000004E2831293A25642023
:104A200020202020202000004E2832293A25642012
:104A3000202020202020000008000020202020200E
:104A4000202020202020200075736172745F646F25
:104A500075626C655F6E756D3A2564004368616EC2
:104A60006E656C3A30202020202020004368616E63
:104A70006E656C3A31202020202020002DE9F04185
:104A8000354C364E204661688068354DCA074FF672
:104A9000FF774FF4806801D0C20716D041EA0002C8
:104AA000D2072ED0C9074FEAC0703ED0002851D09F
:104AB000012204213046FBF768FE012239462846D0
:104AC000FBF763FE607860B30BE0012204213046FF
:104AD000FBF75BFE012239462846FBF756FE20789D
:104AE00010B10022414602E000224FF4A0612846A6
:104AF000FBF74BFE3046BDE8F04100220421FBF7F6
:104B000044BE012204213046FBF73FFE0122394614
:104B10002846FBF73AFE2078A8B900224FF48071AE
:104B2000E5E700224FF4C061E1E7002812D001223E
:104B300004213046FBF729FE012239462846FBF7BF
:104B400024FE607810B100221146D0E700224FF415
:104B50000071CCE7BDE8F08108000020000C00489F
:104B600000080048FBF724FEFEF7DDFBFDF7CEFF53
:104B7000FEF72CF9FEF776F9FEF756F8FEF78AF8FD
:104B8000FEF7D6F8FEF7BAF9FDF7BAFE0122294979
:104B90002948FDF78DFC2948FCF710FD0021284825
:104BA000FCF7B4FE00212748FCF7B0FE00212648A0
:104BB000FDF73EF900212548FDF73AF9FF20FFF700
:104BC00095FD234C14280AD00520FBF7A3FC0220F6
:104BD0006060E0601421FF20FFF7A8FD0AE00020DC
:104BE000FFF784FD60600520FBF794FC0120FFF7D0
:104BF0007DFDE0600520FBF78DFCFFF7AFFD002099
:104C0000FDF7D6FD0020FDF7D5FE4FF6FF70FDF74E
:104C1000E5FE084CB4F10204FFF71CFE2079C00742
:104C200001D000F017F8FBF781FBFFF727FFFFF734
:104C300079FEF1E70A00002028020020440100204C
:104C4000AC000020F800002090010020DC010020D2
:104C50005000002070B5074D2C68002C09DD0120A4
:104C6000FBF758FC2868844203D1BDE87040FFF789
:104C7000B1BC70BD38000020000000000000000042
:104C80000000000000000000000000000000000024
:104C90000000000000000000000000000000000014
:104CA0000000000000000000000080018001800181
:104CB00080018001800180018001800180018001EC
:104CC00080018001000000008001800100000000E0
:104CD000000000000000000000000000CC00CC003C
:104CE000CC00CC00CC00CC00000000000000000094
:104CF00000000000000000000000000000000000B4
:104D000000000000000000000000000000000000A3
:104D100000000000600C600C600C30063006FE1FC6
:104D2000FE1F300638071803FE1FFE1F1803180366
:104D30008C018C018C01000000008000E003F80F62
:104D40009C0E8C1C8C188C009800F801E007800EDB
:104D5000801C8C188C189C18B80CF00FE003800095
:104D600080000000000000000000000000000E189D
:104D70001B0C110C11061106110311039B018E016E
:104D8000C038C06C60446044304430441844186CEF
:104D90000C380000000000000000E001F0033807BC
:104DA000180618063003F001F000F8009C310E33AD
:104DB000061E061C061C063FFC73F02100000000C6
:104DC0000000000000000000000000000C000C00CB
:104DD0000C000C000C000C000000000000000000A3
:104DE00000000000000000000000000000000000C3
:104DF000000000000000000000000002000380012D
:104E0000C000C000600060003000300030003000A2
:104E1000300030003000300060006000C000C00092
:104E20008001000300020000000020006000C000BC
:104E30008001800100030003000600060006000652
:104E40000006000600060006000300038001800142
:104E5000C000600020000000000000000000000012
:104E600000000000C000C000D806F807E0013003D1
:104E700038070000000000000000000000000000F3
:104E80000000000000000000000000000000000022
:104E90000000000080018001800180018001FC3F52
:104EA000FC3F800180018001800180010000000042
:104EB00000000000000000000000000000000000F2
:104EC00000000000000000000000000000000000E2
:104ED00000000000000000000000800180010001CF
:104EE0000001800000000000000000000000000041
:104EF00000000000000000000000000000000000B2
:104F0000E007E007000000000000000000000000D3
:104F10000000000000000000000000000000000091
:104F20000000000000000000000000000000000081
:104F300000000000000000000000C000C0000000F1
:104F400000000000000000000000000C000C000643
:104F500000060006000300030003800380018001B7
:104F60008001C000C000C0006000600000000000C0
:104F700000000000000000000000E003F007380E11
:104F8000180C0C180C180C180C180C180C180C1801
:104F90000C180C18180C380EF007E0030000000085
:104FA0000000000000000000000000018001C001BE
:104FB000F001980188018001800180018001800159
:104FC00080018001800180018001800100000000DB
:104FD00000000000000000000000E003F80F180CC3
:104FE0000C180C1800180018000C000600038001B3
:104FF000C000600030001800FC1FFC1F0000000013
:1050000000000000000000000000E001F807180E9A
:105010000C0C0C0C000C0006C003C007000C0018A0
:1050200000180C180C18180CF807E003000000001A
:1050300000000000000000000000000C000E000F47
:10504000000F800DC00C600C600C300C180C0C0CA8
:10505000FC3FFC3F000C000C000C000C00000000AA
:1050600000000000000000000000F80FF80F18001A
:1050700018000C00EC03FC071C0E001C00180018A4
:1050800000180C181C0C180EF807E00300000000B4
:1050900000000000000000000000C007F00F381CF6
:1050A000181818000C00CC03EC0F3C0E1C1C0C183C
:1050B0000C180C18181C380EF007E0030000000054
:1050C00000000000000000000000FC1FFC1F000C9E
:1050D00000060006000380038001C001C000E0005C
:1050E0006000600070003000300030000000000000
:1050F00000000000000000000000E003F007380E90
:10510000180C180C180C3806F007F007180C0C18BF
:105110000C180C180C18380CF80FE00300000000F5
:1051200000000000000000000000E003F007380E5F
:105130001C0C0C180C180C181C1C381EF81BE01941
:105140000018000C000C1C0EF807F0010000000015
:10515000000000000000000000000000000000004F
:10516000000000008001800100000000000000003D
:10517000000000000000000080018001000000002D
:10518000000000000000000000000000000000001F
:10519000000000008001800100000000000000000D
:1051A00000000000000000008001800100010001FB
:1051B000800000000000000000000000000000006F
:1051C00000000000000000000010001C800FE00341
:1051D000F8001800F800E003800F001C0010000029
:1051E00000000000000000000000000000000000BF
:1051F0000000000000000000F81F00000000000098
:10520000F81F000000000000000000000000000087
:10521000000000000000000000000000000000008E
:10522000000000000000000008003800F001C00786
:10523000001F0018001FC007F00138000800000020
:1052400000000000000000000000E003F80F180C50
:105250000C180C180018000C000600038001C00098
:10526000C000C00000000000C000C000000000003E
:10527000000000000000000000000000E007181817
:105280000420C229224A114409440944094409223C
:105290001113E20C024004201818E007000000007F
:1052A0000000000000000000000080038003C00632
:1052B000C006C006600C600C301830183018F83F7B
:1052C000F83F1C700C600C6006C006C000000000B7
:1052D00000000000000000000000FC03FC0F0C0CAC
:1052E0000C180C180C180C0CFC07FC0F0C180C30CC
:1052F0000C300C300C300C18FC1FFC0700000000B8
:1053000000000000000000000000C007F01F383857
:105310001C300C7006600600060006000600060041
:10532000060006600C701C30F01FE0070000000053
:1053300000000000000000000000FE03FE0F060E4B
:1053400006180618063006300630063006300630DD
:10535000063006180618060EFE0FFE0300000000B9
:1053600000000000000000000000FC3FFC3F0C00BB
:105370000C000C000C000C00FC1FFC1F0C000C00AF
:105380000C000C000C000C00FC3FFC3F0000000077
:1053900000000000000000000000F83FF83F180087
:1053A0001800180018001800F81FF81F180018003F
:1053B000180018001800180018001800000000005D
:1053C00000000000000000000000E00FF83F3C7803
:1053D0000E6006E007C00300030003FE03FE03C0E7
:1053E00007C006C00EC03CF0F83FE00F0000000010
:1053F000000000000000000000000C300C300C30F9
:105400000C300C300C300C30FC3FFC3F0C300C30BE
:105410000C300C300C300C300C300C300000000024
:1054200000000000000000000000800180018001F9
:105430008001800180018001800180018001800164
:105440008001800180018001800180010000000056
:10545000000000000000000000000006000600063A
:10546000000600060006000600060006000600060C
:105470000006180618063807F003E00100000000D7
:105480000000000000000000000006300618060CB6
:10549000060606038601C60066007600DE008E0161
:1054A00006030606060C061806300660000000001B
:1054B00000000000000000000000180018001800A4
:1054C000180018001800180018001800180018001C
:1054D0001800180018001800F81FF81F000000003E
:1054E000000000000000000000000EE01EF01EF0B2
:1054F0001EF036D836D836D836D866CC66CC66CCD0
:10550000C6C6C6C6C6C6C6C686C386C300000000D9
:10551000000000000000000000000C301C303C3097
:105520003C306C306C30CC30CC308C310C330C33A4
:105530000C360C360C3C0C3C0C380C3000000000D7
:1055400000000000000000000000E007F81F1C3809
:105550000E70066003C003C003C003C003C003C0D5
:1055600003C006600E701C38F81FE0070000000042
:1055700000000000000000000000FC0FFC1F0C38C1
:105580000C300C300C300C300C18FC1FFC070C00DD
:105590000C000C000C000C000C000C0000000000C3
:1055A00000000000000000000000E007F81F1C38A9
:1055B0000E70066003E003C003C003C003C003C055
:1055C00007E006630E3F1C3CF83FE0F700C0000018
:1055D00000000000000000000000FE0FFE1F063863
:1055E0000630063006300638FE1FFE0706030606A4
:1055F000060C06180618063006300660000000008B
:1056000000000000000000000000E003F80F1C0C88
:105610000C180C180C001C00F803E00F001E0038DA
:10562000063006300E301C1CF80FE00700000000AA
:1056300000000000000000000000FE7FFE7F8001EF
:105640008001800180018001800180018001800152
:105650008001800180018001800180010000000044
:10566000000000000000000000000C300C300C3086
:105670000C300C300C300C300C300C300C300C304A
:105680000C300C300C301818F81FE0070000000038
:10569000000000000000000000000360063006303B
:1056A00006300C180C180C18180C180C380E300694
:1056B0003006700760036003C001C00100000000F5
:1056C000000000000000000000000360C361C3612F
:1056D000C3616633663366336633663366336C1B89
:1056E0006C1B6C1B2C1A3C1E380E380E0000000080
:1056F000000000000000000000000FE00C701830F7
:105700003018700C600EC00780038003C003E006F1
:10571000700C301C18180C300E6007E00000000000
:105720000000000000000000000003C006600C3014
:105730001C383818300C6006E007C0038001800177
:105740008001800180018001800180010000000053
:1057500000000000000000000000FC7FFC7F0060F3
:1057600000300018000C000600038001C00060003B
:10577000300018000C000600FE7FFE7F00000000D5
:1057800000000000000000000000E003E0036000F3
:105790006000600060006000600060006000600009
:1057A00060006000600060006000600060006000F9
:1057B0006000E003E0030000000030003000600003
:1057C00060006000C000C000C000C0018001800116
:1057D0008001000300030003000600060000000033
:1057E00000000000000000000000E003E0030003F0
:1057F0000003000300030003000300030003000391
:105800000003000300030003000300030003000380
:105810000003E003E003000000000000C001C0013D
:1058200060036003600330063006180C180C00009B
:105830000000000000000000000000000000000068
:105840000000000000000000000000000000000058
:105850000000000000000000000000000000000048
:1058600000000000000000000000FFFFFFFF00003C
:10587000000000000000000000000C000C000C0004
:105880000C000C000C0000000000000000000000F4
:105890000000000000000000000000000000000008
:1058A00000000000000000000000000000000000F8
:1058B00000000000F003F8071C0C0C0C000FF00FA8
:1058C000F80C0C0C0C0C1C0FF80FF018000000006A
:1058D0000000000000000000000018001800180080
:1058E00018001800D803F80F380C181818181818D2
:1058F000181818181818380CF80FD80300000000F2
:105900000000000000000000000000000000000097
:1059100000000000C003F007300E180C180018003B
:1059200018001800180C300EF007C003000000002B
:10593000000000000000000000000018001800181F
:1059400000180018C01BF01F301C18181818181861
:10595000181818181818301CF01FC01B0000000081
:105960000000000000000000000000000000000037
:1059700000000000C003F00F300C1818F81FF81FCB
:10598000180018003818301CF00FC0070000000085
:1059900000000000000000000000800FC00FC000E9
:1059A000C000C000F007F007C000C000C000C00089
:1059B000C000C000C000C000C000C0000000000067
:1059C00000000000000000000000000000000000D7
:1059D00000000000E00DF80F180E0C0C0C0C0C0C65
:1059E0000C0C0C0C0C0C180EF80FE00D000C0C0C31
:1059F0001C06F807F001000000001800180018004D
:105A000018001800D807F80F381C1818181818189C
:105A10001818181818181818181818180000000066
:105A200000000000000000000000C000C0000000F6
:105A300000000000C000C000C000C000C000C000E6
:105A4000C000C000C000C000C000C00000000000D6
:105A500000000000000000000000C000C0000000C6
:105A600000000000C000C000C000C000C000C000B6
:105A7000C000C000C000C000C000C000C000C00026
:105A8000C000F8007800000000000C000C000C00C2
:105A90000C000C000C0C0C060C038C01CC006C00F0
:105AA000FC009C018C030C030C060C0C0000000095
:105AB00000000000000000000000C000C000C000A6
:105AC000C000C000C000C000C000C000C000C000D6
:105AD000C000C000C000C000C000C0000000000046
